{
  "contractName": "Depository",
  "abi": [
    {
      "constant": true,
      "inputs": [],
      "name": "totalStakedFunds",
      "outputs": [
        {
          "name": "",
          "type": "uint256"
        }
      ],
      "payable": false,
      "stateMutability": "view",
      "type": "function"
    },
    {
      "constant": true,
      "inputs": [],
      "name": "totalBalance",
      "outputs": [
        {
          "name": "",
          "type": "uint256"
        }
      ],
      "payable": false,
      "stateMutability": "view",
      "type": "function"
    },
    {
      "constant": true,
      "inputs": [],
      "name": "marginBank",
      "outputs": [
        {
          "name": "",
          "type": "uint256"
        }
      ],
      "payable": false,
      "stateMutability": "view",
      "type": "function"
    },
    {
      "constant": true,
      "inputs": [],
      "name": "allTimeTotalProfit",
      "outputs": [
        {
          "name": "",
          "type": "uint256"
        }
      ],
      "payable": false,
      "stateMutability": "view",
      "type": "function"
    },
    {
      "inputs": [
        {
          "name": "_settingsAddress",
          "type": "address"
        },
        {
          "name": "_tokenAddress",
          "type": "address"
        },
        {
          "name": "_percentMultiplyer",
          "type": "uint256"
        }
      ],
      "payable": false,
      "stateMutability": "nonpayable",
      "type": "constructor"
    },
    {
      "anonymous": false,
      "inputs": [
        {
          "indexed": true,
          "name": "payee",
          "type": "address"
        },
        {
          "indexed": false,
          "name": "weiAmount",
          "type": "uint256"
        }
      ],
      "name": "Deposited",
      "type": "event"
    },
    {
      "anonymous": false,
      "inputs": [
        {
          "indexed": true,
          "name": "payee",
          "type": "address"
        },
        {
          "indexed": false,
          "name": "weiAmount",
          "type": "uint256"
        }
      ],
      "name": "Withdrawn",
      "type": "event"
    },
    {
      "anonymous": false,
      "inputs": [
        {
          "indexed": true,
          "name": "payee",
          "type": "address"
        },
        {
          "indexed": false,
          "name": "weiAmount",
          "type": "uint256"
        }
      ],
      "name": "Staked",
      "type": "event"
    },
    {
      "constant": false,
      "inputs": [],
      "name": "deposit",
      "outputs": [],
      "payable": true,
      "stateMutability": "payable",
      "type": "function"
    },
    {
      "constant": false,
      "inputs": [
        {
          "name": "amount",
          "type": "uint256"
        }
      ],
      "name": "withdraw",
      "outputs": [],
      "payable": false,
      "stateMutability": "nonpayable",
      "type": "function"
    },
    {
      "constant": false,
      "inputs": [],
      "name": "withdrawAll",
      "outputs": [],
      "payable": false,
      "stateMutability": "nonpayable",
      "type": "function"
    },
    {
      "constant": false,
      "inputs": [],
      "name": "stakeFunds",
      "outputs": [],
      "payable": true,
      "stateMutability": "payable",
      "type": "function"
    },
    {
      "constant": false,
      "inputs": [
        {
          "name": "amount",
          "type": "uint256"
        }
      ],
      "name": "unstakeFunds",
      "outputs": [],
      "payable": false,
      "stateMutability": "nonpayable",
      "type": "function"
    },
    {
      "constant": false,
      "inputs": [],
      "name": "getDividends",
      "outputs": [],
      "payable": false,
      "stateMutability": "nonpayable",
      "type": "function"
    },
    {
      "constant": false,
      "inputs": [
        {
          "name": "account",
          "type": "address"
        },
        {
          "name": "balance",
          "type": "uint256"
        },
        {
          "name": "openedPositionsCost",
          "type": "uint256"
        },
        {
          "name": "feeValue",
          "type": "uint256"
        }
      ],
      "name": "updateBalances",
      "outputs": [],
      "payable": false,
      "stateMutability": "nonpayable",
      "type": "function"
    },
    {
      "constant": false,
      "inputs": [
        {
          "name": "contractProfit",
          "type": "uint256"
        }
      ],
      "name": "setLiquidationProfit",
      "outputs": [],
      "payable": false,
      "stateMutability": "nonpayable",
      "type": "function"
    },
    {
      "constant": true,
      "inputs": [
        {
          "name": "account",
          "type": "address"
        },
        {
          "name": "feeValue",
          "type": "uint256"
        }
      ],
      "name": "calcDiscountFeePercent",
      "outputs": [
        {
          "name": "",
          "type": "uint256"
        }
      ],
      "payable": false,
      "stateMutability": "view",
      "type": "function"
    },
    {
      "constant": true,
      "inputs": [],
      "name": "calcAccountProfit",
      "outputs": [
        {
          "name": "",
          "type": "uint256"
        }
      ],
      "payable": false,
      "stateMutability": "view",
      "type": "function"
    },
    {
      "constant": true,
      "inputs": [
        {
          "name": "discountPercent",
          "type": "uint256"
        },
        {
          "name": "feeValue",
          "type": "uint256"
        }
      ],
      "name": "calcFeeValueWithDiscount",
      "outputs": [
        {
          "name": "",
          "type": "uint256"
        }
      ],
      "payable": false,
      "stateMutability": "view",
      "type": "function"
    },
    {
      "constant": true,
      "inputs": [
        {
          "name": "account",
          "type": "address"
        }
      ],
      "name": "getBalance",
      "outputs": [
        {
          "name": "",
          "type": "uint256"
        }
      ],
      "payable": false,
      "stateMutability": "view",
      "type": "function"
    },
    {
      "constant": true,
      "inputs": [
        {
          "name": "account",
          "type": "address"
        }
      ],
      "name": "getOpenedPositionsCost",
      "outputs": [
        {
          "name": "",
          "type": "uint256"
        }
      ],
      "payable": false,
      "stateMutability": "view",
      "type": "function"
    },
    {
      "constant": true,
      "inputs": [
        {
          "name": "account",
          "type": "address"
        }
      ],
      "name": "getStakedFundsOf",
      "outputs": [
        {
          "name": "",
          "type": "uint256"
        }
      ],
      "payable": false,
      "stateMutability": "view",
      "type": "function"
    },
    {
      "constant": true,
      "inputs": [],
      "name": "getTotalStakedFunds",
      "outputs": [
        {
          "name": "",
          "type": "uint256"
        }
      ],
      "payable": false,
      "stateMutability": "view",
      "type": "function"
    },
    {
      "constant": true,
      "inputs": [
        {
          "name": "account",
          "type": "address"
        }
      ],
      "name": "getWalletBalance",
      "outputs": [
        {
          "name": "",
          "type": "uint256"
        }
      ],
      "payable": false,
      "stateMutability": "view",
      "type": "function"
    }
  ],
  "bytecode": "0x608060405234801561001057600080fd5b50604051606080611ec88339810180604052606081101561003057600080fd5b81019080805190602001909291908051906020019092919080519060200190929190505050600160008190555081600160006101000a81548173ffffffffffffffffffffffffffffffffffffffff021916908373ffffffffffffffffffffffffffffffffffffffff16021790555082600260006101000a81548173ffffffffffffffffffffffffffffffffffffffff021916908373ffffffffffffffffffffffffffffffffffffffff16021790555080600a81905550505050611dd0806100f86000396000f3fe608060405260043610610112576000357c0100000000000000000000000000000000000000000000000000000000900463ffffffff16806318ec2d5c146101175780631eb40de114610142578063236df8021461017d5780632e1a7d4d146101a85780636312b7fd146101e357806365a35a7e1461023c5780637260cc131461024657806381f35bc6146102b5578063853828b6146102f0578063a8df674314610307578063ad7a672f14610376578063ad8f1eab146103a1578063b128f495146103cc578063ba5a73a814610431578063c7c551b61461045c578063d0e30db0146104c1578063e2abad47146104cb578063ed442e14146104f6578063ed8ec1941461050d578063f8b2cb4f14610572575b600080fd5b34801561012357600080fd5b5061012c6105d7565b6040518082815260200191505060405180910390f35b34801561014e57600080fd5b5061017b6004803603602081101561016557600080fd5b81019080803590602001909291905050506105dd565b005b34801561018957600080fd5b50610192610758565b6040518082815260200191505060405180910390f35b3480156101b457600080fd5b506101e1600480360360208110156101cb57600080fd5b81019080803590602001909291905050506108d2565b005b3480156101ef57600080fd5b506102266004803603604081101561020657600080fd5b810190808035906020019092919080359060200190929190505050610a8f565b6040518082815260200191505060405180910390f35b610244610afa565b005b34801561025257600080fd5b5061029f6004803603604081101561026957600080fd5b81019080803573ffffffffffffffffffffffffffffffffffffffff16906020019092919080359060200190929190505050610c7b565b6040518082815260200191505060405180910390f35b3480156102c157600080fd5b506102ee600480360360208110156102d857600080fd5b8101908080359060200190929190505050610fa8565b005b3480156102fc57600080fd5b50610305611213565b005b34801561031357600080fd5b506103746004803603608081101561032a57600080fd5b81019080803573ffffffffffffffffffffffffffffffffffffffff16906020019092919080359060200190929190803590602001909291908035906020019092919050505061125d565b005b34801561038257600080fd5b5061038b611a2f565b6040518082815260200191505060405180910390f35b3480156103ad57600080fd5b506103b6611a35565b6040518082815260200191505060405180910390f35b3480156103d857600080fd5b5061041b600480360360208110156103ef57600080fd5b81019080803573ffffffffffffffffffffffffffffffffffffffff169060200190929190505050611a3b565b6040518082815260200191505060405180910390f35b34801561043d57600080fd5b50610446611a84565b6040518082815260200191505060405180910390f35b34801561046857600080fd5b506104ab6004803603602081101561047f57600080fd5b81019080803573ffffffffffffffffffffffffffffffffffffffff169060200190929190505050611a8a565b6040518082815260200191505060405180910390f35b6104c9611ad6565b005b3480156104d757600080fd5b506104e0611bdc565b6040518082815260200191505060405180910390f35b34801561050257600080fd5b5061050b611be6565b005b34801561051957600080fd5b5061055c6004803603602081101561053057600080fd5b81019080803573ffffffffffffffffffffffffffffffffffffffff169060200190929190505050611c8f565b6040518082815260200191505060405180910390f35b34801561057e57600080fd5b506105c16004803603602081101561059557600080fd5b81019080803573ffffffffffffffffffffffffffffffffffffffff169060200190929190505050611cb0565b6040518082815260200191505060405180910390f35b60075481565b600160008082825401925050819055506000805490506000821415151561060357600080fd5b600073ffffffffffffffffffffffffffffffffffffffff163373ffffffffffffffffffffffffffffffffffffffff161415151561063f57600080fd5b610647611be6565b61069c82600360003373ffffffffffffffffffffffffffffffffffffffff1673ffffffffffffffffffffffffffffffffffffffff16815260200190815260200160002060000154611cf990919063ffffffff16565b600360003373ffffffffffffffffffffffffffffffffffffffff1673ffffffffffffffffffffffffffffffffffffffff168152602001908152602001600020600001819055506106f782600754611cf990919063ffffffff16565b6007819055503373ffffffffffffffffffffffffffffffffffffffff166108fc839081150290604051600060405180830381858888f19350505050158015610743573d6000803e3d6000fd5b506000548114151561075457600080fd5b5050565b600080600360003373ffffffffffffffffffffffffffffffffffffffff1673ffffffffffffffffffffffffffffffffffffffff1681526020019081526020016000206000015414156107ad57600090506108cf565b600061082d60075461081f6107ce6064600a54611d1b90919063ffffffff16565b600360003373ffffffffffffffffffffffffffffffffffffffff1673ffffffffffffffffffffffffffffffffffffffff16815260200190815260200160002060000154611d1b90919063ffffffff16565b611d5990919063ffffffff16565b90506000610888600360003373ffffffffffffffffffffffffffffffffffffffff1673ffffffffffffffffffffffffffffffffffffffff16815260200190815260200160002060010154600854611cf990919063ffffffff16565b905060006108c66108a56064600a54611d1b90919063ffffffff16565b6108b88585611d1b90919063ffffffff16565b611d5990919063ffffffff16565b90508093505050505b90565b600160008082825401925050819055506000805490506000600560003373ffffffffffffffffffffffffffffffffffffffff1673ffffffffffffffffffffffffffffffffffffffff1681526020019081526020016000205414151561093657600080fd5b61098882600460003373ffffffffffffffffffffffffffffffffffffffff1673ffffffffffffffffffffffffffffffffffffffff16815260200190815260200160002054611cf990919063ffffffff16565b600460003373ffffffffffffffffffffffffffffffffffffffff1673ffffffffffffffffffffffffffffffffffffffff168152602001908152602001600020819055506109e082600654611cf990919063ffffffff16565b6006819055503373ffffffffffffffffffffffffffffffffffffffff166108fc839081150290604051600060405180830381858888f19350505050158015610a2c573d6000803e3d6000fd5b503373ffffffffffffffffffffffffffffffffffffffff167f7084f5476618d8e60b11ef0d7d3f06914655adb8793e28ff7f018d4c76d505d5836040518082815260200191505060405180910390a260005481141515610a8b57600080fd5b5050565b6000610af2610aaa6064600a54611d1b90919063ffffffff16565b610ae4610ad586610ac76064600a54611d1b90919063ffffffff16565b611cf990919063ffffffff16565b85611d1b90919063ffffffff16565b611d5990919063ffffffff16565b905092915050565b60016000808282540192505081905550600080549050600073ffffffffffffffffffffffffffffffffffffffff163373ffffffffffffffffffffffffffffffffffffffff1614151515610b4c57600080fd5b60003414151515610b5c57600080fd5b610b64611be6565b610b7934600754611d8390919063ffffffff16565b600781905550610bd434600360003373ffffffffffffffffffffffffffffffffffffffff1673ffffffffffffffffffffffffffffffffffffffff16815260200190815260200160002060000154611d8390919063ffffffff16565b600360003373ffffffffffffffffffffffffffffffffffffffff1673ffffffffffffffffffffffffffffffffffffffff168152602001908152602001600020600001819055503373ffffffffffffffffffffffffffffffffffffffff167f9e71bc8eea02a63969f509818f2dafb9254532904319f9dbda79b67bd34a5f3d346040518082815260200191505060405180910390a260005481141515610c7857600080fd5b50565b6000806000600160009054906101000a900473ffffffffffffffffffffffffffffffffffffffff1673ffffffffffffffffffffffffffffffffffffffff166370a08231866040518263ffffffff167c0100000000000000000000000000000000000000000000000000000000028152600401808273ffffffffffffffffffffffffffffffffffffffff1673ffffffffffffffffffffffffffffffffffffffff16815260200191505060206040518083038186803b158015610d3b57600080fd5b505afa158015610d4f573d6000803e3d6000fd5b505050506040513d6020811015610d6557600080fd5b810190808051906020019092919050505090506000600160009054906101000a900473ffffffffffffffffffffffffffffffffffffffff1673ffffffffffffffffffffffffffffffffffffffff166318160ddd6040518163ffffffff167c010000000000000000000000000000000000000000000000000000000002815260040160206040518083038186803b158015610dfe57600080fd5b505afa158015610e12573d6000803e3d6000fd5b505050506040513d6020811015610e2857600080fd5b810190808051906020019092919050505090506000811115610f5157610f4e81610f40600260009054906101000a900473ffffffffffffffffffffffffffffffffffffffff1673ffffffffffffffffffffffffffffffffffffffff1663c792ef486040518163ffffffff167c010000000000000000000000000000000000000000000000000000000002815260040160206040518083038186803b158015610ecf57600080fd5b505afa158015610ee3573d6000803e3d6000fd5b505050506040513d6020811015610ef957600080fd5b8101908080519060200190929190505050610f32610f236064600a54611d1b90919063ffffffff16565b87611d1b90919063ffffffff16565b611d1b90919063ffffffff16565b611d5990919063ffffffff16565b92505b6000851480610f765750610f72600a54600a54611d1b90919063ffffffff16565b8310155b15610f9b57610f916064600a54611d1b90919063ffffffff16565b9350505050610fa2565b8293505050505b92915050565b600260009054906101000a900473ffffffffffffffffffffffffffffffffffffffff1673ffffffffffffffffffffffffffffffffffffffff1663d7a1ac7a336040518263ffffffff167c0100000000000000000000000000000000000000000000000000000000028152600401808273ffffffffffffffffffffffffffffffffffffffff1673ffffffffffffffffffffffffffffffffffffffff16815260200191505060206040518083038186803b15801561106357600080fd5b505afa158015611077573d6000803e3d6000fd5b505050506040513d602081101561108d57600080fd5b810190808051906020019092919050505080156110d45750806110d16009546110c3600654600754611d8390919063ffffffff16565b611d8390919063ffffffff16565b10155b15156110df57600080fd5b60006111c560646111b7600260009054906101000a900473ffffffffffffffffffffffffffffffffffffffff1673ffffffffffffffffffffffffffffffffffffffff16637e7a5f406040518163ffffffff167c010000000000000000000000000000000000000000000000000000000002815260040160206040518083038186803b15801561116d57600080fd5b505afa158015611181573d6000803e3d6000fd5b505050506040513d602081101561119757600080fd5b810190808051906020019092919050505085611d1b90919063ffffffff16565b611d5990919063ffffffff16565b90506111dc81600854611d8390919063ffffffff16565b6008819055506112096111f88284611cf990919063ffffffff16565b600954611d8390919063ffffffff16565b6009819055505050565b61125b600460003373ffffffffffffffffffffffffffffffffffffffff1673ffffffffffffffffffffffffffffffffffffffff168152602001908152602001600020546108d2565b565b600260009054906101000a900473ffffffffffffffffffffffffffffffffffffffff1673ffffffffffffffffffffffffffffffffffffffff1663d7a1ac7a336040518263ffffffff167c0100000000000000000000000000000000000000000000000000000000028152600401808273ffffffffffffffffffffffffffffffffffffffff1673ffffffffffffffffffffffffffffffffffffffff16815260200191505060206040518083038186803b15801561131857600080fd5b505afa15801561132c573d6000803e3d6000fd5b505050506040513d602081101561134257600080fd5b810190808051906020019092919050505080156114515750600260009054906101000a900473ffffffffffffffffffffffffffffffffffffffff1673ffffffffffffffffffffffffffffffffffffffff1663bd10aa48336040518263ffffffff167c0100000000000000000000000000000000000000000000000000000000028152600401808273ffffffffffffffffffffffffffffffffffffffff1673ffffffffffffffffffffffffffffffffffffffff16815260200191505060206040518083038186803b15801561141557600080fd5b505afa158015611429573d6000803e3d6000fd5b505050506040513d602081101561143f57600080fd5b81019080805190602001909291905050505b801561145f57508260065410155b801561155d5750600160009054906101000a900473ffffffffffffffffffffffffffffffffffffffff1673ffffffffffffffffffffffffffffffffffffffff1663aa271e1a306040518263ffffffff167c0100000000000000000000000000000000000000000000000000000000028152600401808273ffffffffffffffffffffffffffffffffffffffff1673ffffffffffffffffffffffffffffffffffffffff16815260200191505060206040518083038186803b15801561152157600080fd5b505afa158015611535573d6000803e3d6000fd5b505050506040513d602081101561154b57600080fd5b81019080805190602001909291905050505b151561156857600080fd5b82600460008673ffffffffffffffffffffffffffffffffffffffff1673ffffffffffffffffffffffffffffffffffffffff1681526020019081526020016000205411156118d857600061160384600460008873ffffffffffffffffffffffffffffffffffffffff1673ffffffffffffffffffffffffffffffffffffffff16815260200190815260200160002054611cf990919063ffffffff16565b9050600160009054906101000a900473ffffffffffffffffffffffffffffffffffffffff1673ffffffffffffffffffffffffffffffffffffffff166340c10f1986836040518363ffffffff167c0100000000000000000000000000000000000000000000000000000000028152600401808373ffffffffffffffffffffffffffffffffffffffff1673ffffffffffffffffffffffffffffffffffffffff16815260200182815260200192505050602060405180830381600087803b1580156116ca57600080fd5b505af11580156116de573d6000803e3d6000fd5b505050506040513d60208110156116f457600080fd5b810190808051906020019092919050505080156118cb5750600160009054906101000a900473ffffffffffffffffffffffffffffffffffffffff1673ffffffffffffffffffffffffffffffffffffffff166340c10f19600260009054906101000a900473ffffffffffffffffffffffffffffffffffffffff1673ffffffffffffffffffffffffffffffffffffffff16633ad10ef66040518163ffffffff167c010000000000000000000000000000000000000000000000000000000002815260040160206040518083038186803b1580156117ce57600080fd5b505afa1580156117e2573d6000803e3d6000fd5b505050506040513d60208110156117f857600080fd5b8101908080519060200190929190505050836040518363ffffffff167c0100000000000000000000000000000000000000000000000000000000028152600401808373ffffffffffffffffffffffffffffffffffffffff1673ffffffffffffffffffffffffffffffffffffffff16815260200182815260200192505050602060405180830381600087803b15801561188f57600080fd5b505af11580156118a3573d6000803e3d6000fd5b505050506040513d60208110156118b957600080fd5b81019080805190602001909291905050505b15156118d657600080fd5b505b60006118e48583610c7b565b905060006118f28284610a8f565b905061196c8161195e600460008a73ffffffffffffffffffffffffffffffffffffffff1673ffffffffffffffffffffffffffffffffffffffff1681526020019081526020016000205461195089600654611d8390919063ffffffff16565b611cf990919063ffffffff16565b611cf990919063ffffffff16565b6006819055506119858186611cf990919063ffffffff16565b600460008873ffffffffffffffffffffffffffffffffffffffff1673ffffffffffffffffffffffffffffffffffffffff1681526020019081526020016000208190555083600560008873ffffffffffffffffffffffffffffffffffffffff1673ffffffffffffffffffffffffffffffffffffffff16815260200190815260200160002081905550611a2181600854611d8390919063ffffffff16565b600881905550505050505050565b60065481565b60095481565b6000600560008373ffffffffffffffffffffffffffffffffffffffff1673ffffffffffffffffffffffffffffffffffffffff168152602001908152602001600020549050919050565b60085481565b6000600360008373ffffffffffffffffffffffffffffffffffffffff1673ffffffffffffffffffffffffffffffffffffffff168152602001908152602001600020600001549050919050565b6000349050611b2d81600460003373ffffffffffffffffffffffffffffffffffffffff1673ffffffffffffffffffffffffffffffffffffffff16815260200190815260200160002054611d8390919063ffffffff16565b600460003373ffffffffffffffffffffffffffffffffffffffff1673ffffffffffffffffffffffffffffffffffffffff16815260200190815260200160002081905550611b8581600654611d8390919063ffffffff16565b6006819055503373ffffffffffffffffffffffffffffffffffffffff167f2da466a7b24304f47e87fa2e1e5a81b9831ce54fec19055ce277ca2f39ba42c4826040518082815260200191505060405180910390a250565b6000600754905090565b6000611bf0610758565b90506000811115611c8c57600854600360003373ffffffffffffffffffffffffffffffffffffffff1673ffffffffffffffffffffffffffffffffffffffff168152602001908152602001600020600101819055503373ffffffffffffffffffffffffffffffffffffffff166108fc829081150290604051600060405180830381858888f19350505050158015611c8a573d6000803e3d6000fd5b505b50565b60008173ffffffffffffffffffffffffffffffffffffffff16319050919050565b6000600460008373ffffffffffffffffffffffffffffffffffffffff1673ffffffffffffffffffffffffffffffffffffffff168152602001908152602001600020549050919050565b6000828211151515611d0a57600080fd5b600082840390508091505092915050565b600080831415611d2e5760009050611d53565b60008284029050828482811515611d4157fe5b04141515611d4e57600080fd5b809150505b92915050565b60008082111515611d6957600080fd5b60008284811515611d7657fe5b0490508091505092915050565b6000808284019050838110151515611d9a57600080fd5b809150509291505056fea165627a7a72305820510269bce326304c714db5b860a778e31dcf0db8f2cf29f00013f3016efeb6ed0029",
  "source": "pragma solidity ^0.5.0;\r\nimport \"openzeppelin-solidity/contracts/utils/ReentrancyGuard.sol\";\r\nimport \"openzeppelin-solidity/contracts/math/SafeMath.sol\";\r\nimport \"./Token.sol\";\r\nimport \"./Settings.sol\";\r\n\r\ncontract Depository is ReentrancyGuard{\r\n\r\n    using SafeMath for uint256;\r\n\r\n    ERC20Mintable token;\r\n    Settings settings;\r\n\r\n    struct Staker {\r\n        uint256 amount;\r\n        uint256 prevAllTimeProfit;\r\n    }\r\n\r\n    mapping(address => Staker) private stakedFunds;\r\n    mapping(address => uint256) private balances;\r\n    mapping(address => uint256) private openedPositions;\r\n    \r\n    uint256 public totalBalance;\r\n    uint256 public totalStakedFunds;\r\n    uint256 public allTimeTotalProfit;\r\n    uint256 public marginBank;\r\n    uint256 private percentMultiplyer;\r\n\r\n    event Deposited(address indexed payee, uint256 weiAmount);\r\n    event Withdrawn(address indexed payee, uint256 weiAmount);\r\n    event Staked(address indexed payee, uint256 weiAmount);\r\n\r\n    constructor (\r\n        address _settingsAddress,\r\n        address _tokenAddress,\r\n        uint256 _percentMultiplyer\r\n\r\n    ) public {\r\n        token = Token(_tokenAddress);\r\n        settings = Settings(_settingsAddress);\r\n        percentMultiplyer = _percentMultiplyer;\r\n    }\r\n\r\n    function deposit() public payable {\r\n        uint256 amount = msg.value;\r\n        balances[msg.sender] = balances[msg.sender].add(amount);\r\n        totalBalance = totalBalance.add(amount);\r\n        emit Deposited(msg.sender, amount);\r\n    }\r\n\r\n    function withdraw(uint256 amount) public nonReentrant{\r\n        require(openedPositions[msg.sender]==0);\r\n        balances[msg.sender] = balances[msg.sender].sub(amount);\r\n        totalBalance = totalBalance.sub(amount);\r\n        msg.sender.transfer(amount);\r\n\r\n        emit Withdrawn(msg.sender, amount);\r\n    }\r\n\r\n    function withdrawAll() public {\r\n        withdraw(balances[msg.sender]);\r\n    }\r\n\r\n    function stakeFunds() public nonReentrant payable {\r\n        require(msg.sender != address(0));\r\n        require(msg.value != 0);\r\n        getDividends();\r\n        totalStakedFunds = totalStakedFunds.add(msg.value);\r\n        stakedFunds[msg.sender].amount = stakedFunds[msg.sender].amount.add(msg.value);\r\n        emit Staked(msg.sender, msg.value);\r\n    }\r\n\r\n    function unstakeFunds(uint256 amount) public nonReentrant {\r\n        require(amount != 0);\r\n        require(msg.sender != address(0));\r\n        getDividends();\r\n        stakedFunds[msg.sender].amount = stakedFunds[msg.sender].amount.sub(amount);\r\n        totalStakedFunds = totalStakedFunds.sub(amount);\r\n        msg.sender.transfer(amount);\r\n    }\r\n\r\n    function getDividends() public  {\r\n        uint256 accountProfit =  calcAccountProfit();\r\n        if (accountProfit>0) {\r\n            stakedFunds[msg.sender].prevAllTimeProfit = allTimeTotalProfit;\r\n            msg.sender.transfer(accountProfit);\r\n        }\r\n    }\r\n\r\n    function updateBalances (address account, uint256 balance, uint256 openedPositionsCost, uint256 feeValue) public  {\r\n        require(\r\n            settings.isContractTrusted(msg.sender) && \r\n            settings.isContractNotExpired(msg.sender) && \r\n            totalBalance >= balance &&\r\n            token.isMinter(address(this))\r\n        );\r\n\r\n        // if loss create new tokens\r\n        if(balances[account] > balance) {\r\n            uint256 lossAmount = balances[account].sub(balance);\r\n            require(token.mint(account, lossAmount) && token.mint(settings.devAddress(), lossAmount));\r\n        }\r\n\r\n        uint256 discountPercent = calcDiscountFeePercent(account, feeValue);\r\n        uint256 feeValueWithDiscount = calcFeeValueWithDiscount(discountPercent, feeValue);\r\n\r\n        totalBalance = totalBalance.add(balance).sub(balances[account]).sub(feeValueWithDiscount); \r\n        balances[account] = balance.sub(feeValueWithDiscount);\r\n        openedPositions[account] = openedPositionsCost;\r\n        allTimeTotalProfit = allTimeTotalProfit.add(feeValueWithDiscount);\r\n    }\r\n\r\n    function setLiquidationProfit(uint256 contractProfit) public {\r\n        require(settings.isContractTrusted(msg.sender) && totalStakedFunds.add(totalBalance).add(marginBank)>=contractProfit);\r\n        uint256 liquidationProfitValue = contractProfit.mul(settings.liquidationProfit()).div(100);\r\n        allTimeTotalProfit = allTimeTotalProfit.add(liquidationProfitValue);\r\n        marginBank = marginBank.add(contractProfit.sub(liquidationProfitValue));\r\n    }\r\n\r\n    /// View methods\r\n\r\n    function calcDiscountFeePercent(address account, uint256 feeValue) public view returns (uint256){\r\n        uint256 discountPercent;\r\n        uint256 accountTokenBalance = token.balanceOf(account);\r\n        uint256 tokenTotalSupply = token.totalSupply();\r\n\r\n        if(tokenTotalSupply>0) discountPercent = accountTokenBalance.mul(percentMultiplyer.mul(100)).mul(settings.feeDiscountIndex()).div(tokenTotalSupply);\r\n        if(feeValue==0 || discountPercent >= percentMultiplyer.mul(percentMultiplyer)) {\r\n            return percentMultiplyer.mul(100);\r\n        }\r\n        return discountPercent;\r\n    }\r\n\r\n    function calcAccountProfit() public view returns (uint256){\r\n        if(stakedFunds[msg.sender].amount == 0) return 0;\r\n        uint256 stakePercent = stakedFunds[msg.sender].amount.mul(percentMultiplyer.mul(100)).div(totalStakedFunds);\r\n        uint256 remainingTotalProfit = allTimeTotalProfit.sub(stakedFunds[msg.sender].prevAllTimeProfit);\r\n        uint256 profit = remainingTotalProfit.mul(stakePercent).div(percentMultiplyer.mul(100));\r\n        return profit;\r\n    }\r\n\r\n    function calcFeeValueWithDiscount(uint256 discountPercent, uint256 feeValue) public view returns (uint256){\r\n        return feeValue.mul(percentMultiplyer.mul(100).sub(discountPercent)).div(percentMultiplyer.mul(100));\r\n    }\r\n\r\n    function getBalance (address account) public view returns(uint256) {\r\n        return balances[account];\r\n    }\r\n    \r\n    function getOpenedPositionsCost (address account) public view returns(uint256) {\r\n        return openedPositions[account];\r\n    }\r\n\r\n    function getStakedFundsOf(address account) public view returns(uint256) {\r\n        return stakedFunds[account].amount;\r\n    }\r\n\r\n    function getTotalStakedFunds() public view returns(uint256) {\r\n        return totalStakedFunds;\r\n    }\r\n\r\n    //////// testing \r\n    function getWalletBalance (address account) public view returns(uint256) {\r\n        return address(account).balance;\r\n    }\r\n\r\n\r\n\r\n}\r\n",
  "sourcePath": "/home/arct/projects/etherHedgeProject/contracts/Depository.sol",
  "compiler": {
    "name": "solc",
    "version": "0.5.0+commit.1d4f565a.Emscripten.clang"
  },
  "schemaVersion": "3.0.6",
  "updatedAt": "2019-04-26T21:55:51.316Z",
  "devdoc": {
    "methods": {}
  },
  "userdoc": {
    "methods": {
      "calcDiscountFeePercent(address,uint256)": {
        "notice": "View methods"
      },
      "getWalletBalance(address)": {
        "notice": "///// testing "
      }
    }
  }
}