{
  "contractName": "Depository",
  "abi": [
    {
      "constant": true,
      "inputs": [],
      "name": "debt",
      "outputs": [
        {
          "name": "",
          "type": "uint256"
        }
      ],
      "payable": false,
      "stateMutability": "view",
      "type": "function"
    },
    {
      "constant": true,
      "inputs": [],
      "name": "totalStakedFunds",
      "outputs": [
        {
          "name": "",
          "type": "uint256"
        }
      ],
      "payable": false,
      "stateMutability": "view",
      "type": "function"
    },
    {
      "constant": true,
      "inputs": [],
      "name": "allTimeProfit",
      "outputs": [
        {
          "name": "",
          "type": "uint256"
        }
      ],
      "payable": false,
      "stateMutability": "view",
      "type": "function"
    },
    {
      "constant": true,
      "inputs": [],
      "name": "totalDividends",
      "outputs": [
        {
          "name": "",
          "type": "uint256"
        }
      ],
      "payable": false,
      "stateMutability": "view",
      "type": "function"
    },
    {
      "constant": true,
      "inputs": [],
      "name": "marginBank",
      "outputs": [
        {
          "name": "",
          "type": "uint256"
        }
      ],
      "payable": false,
      "stateMutability": "view",
      "type": "function"
    },
    {
      "inputs": [
        {
          "name": "_settingsAddress",
          "type": "address"
        },
        {
          "name": "_tokenAddress",
          "type": "address"
        },
        {
          "name": "_mainTokenAddress",
          "type": "address"
        }
      ],
      "payable": true,
      "stateMutability": "payable",
      "type": "constructor"
    },
    {
      "payable": true,
      "stateMutability": "payable",
      "type": "fallback"
    },
    {
      "anonymous": false,
      "inputs": [
        {
          "indexed": true,
          "name": "payee",
          "type": "address"
        },
        {
          "indexed": false,
          "name": "weiAmount",
          "type": "uint256"
        }
      ],
      "name": "Deposited",
      "type": "event"
    },
    {
      "anonymous": false,
      "inputs": [
        {
          "indexed": true,
          "name": "payee",
          "type": "address"
        },
        {
          "indexed": false,
          "name": "weiAmount",
          "type": "uint256"
        }
      ],
      "name": "Withdrawn",
      "type": "event"
    },
    {
      "anonymous": false,
      "inputs": [
        {
          "indexed": true,
          "name": "payee",
          "type": "address"
        },
        {
          "indexed": false,
          "name": "weiAmount",
          "type": "uint256"
        }
      ],
      "name": "Staked",
      "type": "event"
    },
    {
      "anonymous": false,
      "inputs": [
        {
          "indexed": true,
          "name": "payee",
          "type": "address"
        },
        {
          "indexed": false,
          "name": "weiAmount",
          "type": "uint256"
        }
      ],
      "name": "Unstaked",
      "type": "event"
    },
    {
      "anonymous": false,
      "inputs": [
        {
          "indexed": true,
          "name": "account",
          "type": "address"
        },
        {
          "indexed": false,
          "name": "amount",
          "type": "uint256"
        },
        {
          "indexed": false,
          "name": "allTimeProfit",
          "type": "uint256"
        }
      ],
      "name": "DividendsLog",
      "type": "event"
    },
    {
      "anonymous": false,
      "inputs": [
        {
          "indexed": false,
          "name": "account",
          "type": "address"
        },
        {
          "indexed": false,
          "name": "amount",
          "type": "uint256"
        }
      ],
      "name": "RecievedLog",
      "type": "event"
    },
    {
      "constant": false,
      "inputs": [],
      "name": "deposit",
      "outputs": [],
      "payable": true,
      "stateMutability": "payable",
      "type": "function"
    },
    {
      "constant": false,
      "inputs": [
        {
          "name": "amount",
          "type": "uint256"
        }
      ],
      "name": "withdraw",
      "outputs": [],
      "payable": false,
      "stateMutability": "nonpayable",
      "type": "function"
    },
    {
      "constant": false,
      "inputs": [
        {
          "name": "tokens",
          "type": "uint256"
        }
      ],
      "name": "stake",
      "outputs": [],
      "payable": true,
      "stateMutability": "payable",
      "type": "function"
    },
    {
      "constant": false,
      "inputs": [
        {
          "name": "amount",
          "type": "uint256"
        }
      ],
      "name": "unstake",
      "outputs": [],
      "payable": false,
      "stateMutability": "nonpayable",
      "type": "function"
    },
    {
      "constant": false,
      "inputs": [],
      "name": "getDividends",
      "outputs": [],
      "payable": false,
      "stateMutability": "nonpayable",
      "type": "function"
    },
    {
      "constant": false,
      "inputs": [
        {
          "name": "account",
          "type": "address"
        },
        {
          "name": "balance",
          "type": "uint256"
        },
        {
          "name": "availableBalance",
          "type": "uint256"
        },
        {
          "name": "feeValue",
          "type": "uint256"
        },
        {
          "name": "closePosition",
          "type": "bool"
        }
      ],
      "name": "updateBalances",
      "outputs": [],
      "payable": false,
      "stateMutability": "nonpayable",
      "type": "function"
    },
    {
      "constant": false,
      "inputs": [
        {
          "name": "sum",
          "type": "uint256"
        }
      ],
      "name": "decreaseMarginBank",
      "outputs": [],
      "payable": false,
      "stateMutability": "nonpayable",
      "type": "function"
    },
    {
      "constant": false,
      "inputs": [
        {
          "name": "profit",
          "type": "uint256"
        }
      ],
      "name": "setProfit",
      "outputs": [],
      "payable": false,
      "stateMutability": "nonpayable",
      "type": "function"
    },
    {
      "constant": true,
      "inputs": [
        {
          "name": "account",
          "type": "address"
        },
        {
          "name": "feeValue",
          "type": "uint256"
        }
      ],
      "name": "calcDiscountFeePercent",
      "outputs": [
        {
          "name": "",
          "type": "uint256"
        }
      ],
      "payable": false,
      "stateMutability": "view",
      "type": "function"
    },
    {
      "constant": true,
      "inputs": [
        {
          "name": "account",
          "type": "address"
        }
      ],
      "name": "getAccountStakePercent",
      "outputs": [
        {
          "name": "",
          "type": "uint256"
        }
      ],
      "payable": false,
      "stateMutability": "view",
      "type": "function"
    },
    {
      "constant": true,
      "inputs": [],
      "name": "calcAccountProfit",
      "outputs": [
        {
          "name": "",
          "type": "uint256"
        }
      ],
      "payable": false,
      "stateMutability": "view",
      "type": "function"
    },
    {
      "constant": true,
      "inputs": [
        {
          "name": "discountPercent",
          "type": "uint256"
        },
        {
          "name": "feeValue",
          "type": "uint256"
        }
      ],
      "name": "calcFeeValueWithDiscount",
      "outputs": [
        {
          "name": "",
          "type": "uint256"
        }
      ],
      "payable": false,
      "stateMutability": "view",
      "type": "function"
    },
    {
      "constant": true,
      "inputs": [
        {
          "name": "account",
          "type": "address"
        }
      ],
      "name": "getBalance",
      "outputs": [
        {
          "name": "",
          "type": "uint256"
        }
      ],
      "payable": false,
      "stateMutability": "view",
      "type": "function"
    },
    {
      "constant": true,
      "inputs": [
        {
          "name": "account",
          "type": "address"
        }
      ],
      "name": "getAvailableBalance",
      "outputs": [
        {
          "name": "",
          "type": "uint256"
        }
      ],
      "payable": false,
      "stateMutability": "view",
      "type": "function"
    },
    {
      "constant": true,
      "inputs": [
        {
          "name": "account",
          "type": "address"
        }
      ],
      "name": "getStakedFundsOf",
      "outputs": [
        {
          "name": "",
          "type": "uint256"
        }
      ],
      "payable": false,
      "stateMutability": "view",
      "type": "function"
    },
    {
      "constant": true,
      "inputs": [
        {
          "name": "account",
          "type": "address"
        }
      ],
      "name": "getPrevAllTimeProfit",
      "outputs": [
        {
          "name": "",
          "type": "uint256"
        }
      ],
      "payable": false,
      "stateMutability": "view",
      "type": "function"
    },
    {
      "constant": true,
      "inputs": [],
      "name": "getTotalStakedFunds",
      "outputs": [
        {
          "name": "",
          "type": "uint256"
        }
      ],
      "payable": false,
      "stateMutability": "view",
      "type": "function"
    },
    {
      "constant": true,
      "inputs": [],
      "name": "getUSDETHPrice",
      "outputs": [
        {
          "name": "",
          "type": "uint256"
        }
      ],
      "payable": false,
      "stateMutability": "view",
      "type": "function"
    },
    {
      "constant": true,
      "inputs": [
        {
          "name": "account",
          "type": "address"
        }
      ],
      "name": "getWalletBalance",
      "outputs": [
        {
          "name": "",
          "type": "uint256"
        }
      ],
      "payable": false,
      "stateMutability": "view",
      "type": "function"
    }
  ],
  "bytecode": "0x60806040526064600d55604051606080612a1d8339810180604052606081101561002857600080fd5b81019080805190602001909291908051906020019092919080519060200190929190505050600160008190555081600160006101000a81548173ffffffffffffffffffffffffffffffffffffffff021916908373ffffffffffffffffffffffffffffffffffffffff16021790555080600260006101000a81548173ffffffffffffffffffffffffffffffffffffffff021916908373ffffffffffffffffffffffffffffffffffffffff16021790555082600360006101000a81548173ffffffffffffffffffffffffffffffffffffffff021916908373ffffffffffffffffffffffffffffffffffffffff1602179055505050506128f38061012a6000396000f3fe60806040526004361061013e576000357c0100000000000000000000000000000000000000000000000000000000900463ffffffff1680630dca59c1146101c657806318ec2d5c146101f1578063236df8021461021c5780632e17de78146102475780632e1a7d4d146102825780636312b7fd146102bd5780636c24a76f146103165780637260cc131461037b57806377a2c680146103ea57806380a7f381146104155780638411b007146104505780638c7513f81461048b578063997664d7146104f0578063a3ca17b21461051b578063a694fc3a14610546578063ad8f1eab14610574578063c052f47d1461059f578063c7c551b614610604578063d0e30db014610669578063dbbb3c6f14610673578063e2abad47146106ee578063ed442e1414610719578063ed8ec19414610730578063f8b2cb4f14610795575b61015334600a546107fa90919063ffffffff16565b600a819055507f3735707bdeeebc6deefbfabf3c2b3ca9bb68a00601b568f0581ffdc3b387630e3334604051808373ffffffffffffffffffffffffffffffffffffffff1673ffffffffffffffffffffffffffffffffffffffff1681526020018281526020019250505060405180910390a1005b3480156101d257600080fd5b506101db610884565b6040518082815260200191505060405180910390f35b3480156101fd57600080fd5b5061020661088a565b6040518082815260200191505060405180910390f35b34801561022857600080fd5b50610231610890565b6040518082815260200191505060405180910390f35b34801561025357600080fd5b506102806004803603602081101561026a57600080fd5b8101908080359060200190929190505050610940565b005b34801561028e57600080fd5b506102bb600480360360208110156102a557600080fd5b8101908080359060200190929190505050610cdc565b005b3480156102c957600080fd5b50610300600480360360408110156102e057600080fd5b810190808035906020019092919080359060200190929190505050610f7c565b6040518082815260200191505060405180910390f35b34801561032257600080fd5b506103656004803603602081101561033957600080fd5b81019080803573ffffffffffffffffffffffffffffffffffffffff169060200190929190505050610fe7565b6040518082815260200191505060405180910390f35b34801561038757600080fd5b506103d46004803603604081101561039e57600080fd5b81019080803573ffffffffffffffffffffffffffffffffffffffff16906020019092919080359060200190929190505050611030565b6040518082815260200191505060405180910390f35b3480156103f657600080fd5b506103ff61135d565b6040518082815260200191505060405180910390f35b34801561042157600080fd5b5061044e6004803603602081101561043857600080fd5b8101908080359060200190929190505050611363565b005b34801561045c57600080fd5b506104896004803603602081101561047357600080fd5b8101908080359060200190929190505050611745565b005b34801561049757600080fd5b506104da600480360360208110156104ae57600080fd5b81019080803573ffffffffffffffffffffffffffffffffffffffff1690602001909291905050506118ab565b6040518082815260200191505060405180910390f35b3480156104fc57600080fd5b50610505611946565b6040518082815260200191505060405180910390f35b34801561052757600080fd5b5061053061194c565b6040518082815260200191505060405180910390f35b6105726004803603602081101561055c57600080fd5b8101908080359060200190929190505050611b12565b005b34801561058057600080fd5b50610589611d9f565b6040518082815260200191505060405180910390f35b3480156105ab57600080fd5b506105ee600480360360208110156105c257600080fd5b81019080803573ffffffffffffffffffffffffffffffffffffffff169060200190929190505050611da5565b6040518082815260200191505060405180910390f35b34801561061057600080fd5b506106536004803603602081101561062757600080fd5b81019080803573ffffffffffffffffffffffffffffffffffffffff169060200190929190505050611df1565b6040518082815260200191505060405180910390f35b610671611e3d565b005b34801561067f57600080fd5b506106ec600480360360a081101561069657600080fd5b81019080803573ffffffffffffffffffffffffffffffffffffffff169060200190929190803590602001909291908035906020019092919080359060200190929190803515159060200190929190505050611fbd565b005b3480156106fa57600080fd5b50610703612469565b6040518082815260200191505060405180910390f35b34801561072557600080fd5b5061072e612473565b005b34801561073c57600080fd5b5061077f6004803603602081101561075357600080fd5b81019080803573ffffffffffffffffffffffffffffffffffffffff169060200190929190505050612672565b6040518082815260200191505060405180910390f35b3480156107a157600080fd5b506107e4600480360360208110156107b857600080fd5b81019080803573ffffffffffffffffffffffffffffffffffffffff169060200190929190505050612693565b6040518082815260200191505060405180910390f35b600080828401905083811015151561087a576040517f08c379a000000000000000000000000000000000000000000000000000000000815260040180806020018281038252601b8152602001807f536166654d6174683a206164646974696f6e206f766572666c6f77000000000081525060200191505060405180910390fd5b8091505092915050565b600c5481565b60085481565b60008061089c336118ab565b905060006108f7600460003373ffffffffffffffffffffffffffffffffffffffff1673ffffffffffffffffffffffffffffffffffffffff16815260200190815260200160002060010154600a546126dc90919063ffffffff16565b905060006109356109146064600d5461276790919063ffffffff16565b610927858561276790919063ffffffff16565b61283490919063ffffffff16565b905080935050505090565b600460003373ffffffffffffffffffffffffffffffffffffffff1673ffffffffffffffffffffffffffffffffffffffff1681526020019081526020016000206000015481111580156109bf5750600073ffffffffffffffffffffffffffffffffffffffff163373ffffffffffffffffffffffffffffffffffffffff1614155b15156109ca57600080fd5b600360009054906101000a900473ffffffffffffffffffffffffffffffffffffffff1673ffffffffffffffffffffffffffffffffffffffff1663ab41daa4336040518263ffffffff167c0100000000000000000000000000000000000000000000000000000000028152600401808273ffffffffffffffffffffffffffffffffffffffff1673ffffffffffffffffffffffffffffffffffffffff16815260200191505060206040518083038186803b158015610a8557600080fd5b505afa158015610a99573d6000803e3d6000fd5b505050506040513d6020811015610aaf57600080fd5b8101908080519060200190929190505050151515610acc57600080fd5b610ad4612473565b610ae9816008546126dc90919063ffffffff16565b600881905550610b4481600460003373ffffffffffffffffffffffffffffffffffffffff1673ffffffffffffffffffffffffffffffffffffffff168152602001908152602001600020600001546126dc90919063ffffffff16565b600460003373ffffffffffffffffffffffffffffffffffffffff1673ffffffffffffffffffffffffffffffffffffffff16815260200190815260200160002060000181905550600260009054906101000a900473ffffffffffffffffffffffffffffffffffffffff1673ffffffffffffffffffffffffffffffffffffffff1663a9059cbb33836040518363ffffffff167c0100000000000000000000000000000000000000000000000000000000028152600401808373ffffffffffffffffffffffffffffffffffffffff1673ffffffffffffffffffffffffffffffffffffffff16815260200182815260200192505050602060405180830381600087803b158015610c4f57600080fd5b505af1158015610c63573d6000803e3d6000fd5b505050506040513d6020811015610c7957600080fd5b8101908080519060200190929190505050503373ffffffffffffffffffffffffffffffffffffffff167f0f5bb82176feb1b5e747e28471aa92156a04d9f3ab9f45f28e2d704232b93f75826040518082815260200191505060405180910390a250565b6001600080828254019250508190555060008054905081600660003373ffffffffffffffffffffffffffffffffffffffff1673ffffffffffffffffffffffffffffffffffffffff1681526020019081526020016000205410151515610d4057600080fd5b610d9282600560003373ffffffffffffffffffffffffffffffffffffffff1673ffffffffffffffffffffffffffffffffffffffff168152602001908152602001600020546126dc90919063ffffffff16565b600560003373ffffffffffffffffffffffffffffffffffffffff1673ffffffffffffffffffffffffffffffffffffffff16815260200190815260200160002081905550610e2782600660003373ffffffffffffffffffffffffffffffffffffffff1673ffffffffffffffffffffffffffffffffffffffff168152602001908152602001600020546126dc90919063ffffffff16565b600660003373ffffffffffffffffffffffffffffffffffffffff1673ffffffffffffffffffffffffffffffffffffffff168152602001908152602001600020819055503373ffffffffffffffffffffffffffffffffffffffff166108fc839081150290604051600060405180830381858888f19350505050158015610eb0573d6000803e3d6000fd5b503373ffffffffffffffffffffffffffffffffffffffff167f7084f5476618d8e60b11ef0d7d3f06914655adb8793e28ff7f018d4c76d505d5836040518082815260200191505060405180910390a260005481141515610f78576040517f08c379a000000000000000000000000000000000000000000000000000000000815260040180806020018281038252601f8152602001807f5265656e7472616e637947756172643a207265656e7472616e742063616c6c0081525060200191505060405180910390fd5b5050565b6000610fdf610f976064600d5461276790919063ffffffff16565b610fd1610fc286610fb46064600d5461276790919063ffffffff16565b6126dc90919063ffffffff16565b8561276790919063ffffffff16565b61283490919063ffffffff16565b905092915050565b6000600660008373ffffffffffffffffffffffffffffffffffffffff1673ffffffffffffffffffffffffffffffffffffffff168152602001908152602001600020549050919050565b6000806000600160009054906101000a900473ffffffffffffffffffffffffffffffffffffffff1673ffffffffffffffffffffffffffffffffffffffff166370a08231866040518263ffffffff167c0100000000000000000000000000000000000000000000000000000000028152600401808273ffffffffffffffffffffffffffffffffffffffff1673ffffffffffffffffffffffffffffffffffffffff16815260200191505060206040518083038186803b1580156110f057600080fd5b505afa158015611104573d6000803e3d6000fd5b505050506040513d602081101561111a57600080fd5b810190808051906020019092919050505090506000600160009054906101000a900473ffffffffffffffffffffffffffffffffffffffff1673ffffffffffffffffffffffffffffffffffffffff166318160ddd6040518163ffffffff167c010000000000000000000000000000000000000000000000000000000002815260040160206040518083038186803b1580156111b357600080fd5b505afa1580156111c7573d6000803e3d6000fd5b505050506040513d60208110156111dd57600080fd5b81019080805190602001909291905050509050600081111561130657611303816112f5600360009054906101000a900473ffffffffffffffffffffffffffffffffffffffff1673ffffffffffffffffffffffffffffffffffffffff166366d4047a6040518163ffffffff167c010000000000000000000000000000000000000000000000000000000002815260040160206040518083038186803b15801561128457600080fd5b505afa158015611298573d6000803e3d6000fd5b505050506040513d60208110156112ae57600080fd5b81019080805190602001909291905050506112e76112d86064600d5461276790919063ffffffff16565b8761276790919063ffffffff16565b61276790919063ffffffff16565b61283490919063ffffffff16565b92505b600085148061132b5750611327600d54600d5461276790919063ffffffff16565b8310155b15611350576113466064600d5461276790919063ffffffff16565b9350505050611357565b8293505050505b92915050565b600a5481565b600360009054906101000a900473ffffffffffffffffffffffffffffffffffffffff1673ffffffffffffffffffffffffffffffffffffffff166245e4e3336040518263ffffffff167c0100000000000000000000000000000000000000000000000000000000028152600401808273ffffffffffffffffffffffffffffffffffffffff1673ffffffffffffffffffffffffffffffffffffffff16815260200191505060206040518083038186803b15801561141d57600080fd5b505afa158015611431573d6000803e3d6000fd5b505050506040513d602081101561144757600080fd5b8101908080519060200190929190505050151561146357600080fd5b600061155d61147e6064600d5461276790919063ffffffff16565b61154f600360009054906101000a900473ffffffffffffffffffffffffffffffffffffffff1673ffffffffffffffffffffffffffffffffffffffff166387350e336040518163ffffffff167c010000000000000000000000000000000000000000000000000000000002815260040160206040518083038186803b15801561150557600080fd5b505afa158015611519573d6000803e3d6000fd5b505050506040513d602081101561152f57600080fd5b81019080805190602001909291905050508561276790919063ffffffff16565b61283490919063ffffffff16565b905061157481600a546107fa90919063ffffffff16565b600a81905550600061169b6115956064600d5461276790919063ffffffff16565b61168d61167e600360009054906101000a900473ffffffffffffffffffffffffffffffffffffffff1673ffffffffffffffffffffffffffffffffffffffff166387350e336040518163ffffffff167c010000000000000000000000000000000000000000000000000000000002815260040160206040518083038186803b15801561161f57600080fd5b505afa158015611633573d6000803e3d6000fd5b505050506040513d602081101561164957600080fd5b81019080805190602001909291905050506116706064600d5461276790919063ffffffff16565b6126dc90919063ffffffff16565b8661276790919063ffffffff16565b61283490919063ffffffff16565b9050600b54600c5411156117125780600c5411156116d3576116c881600c546126dc90919063ffffffff16565b600c8190555061170d565b6000600c819055506117066116f5600b54600c546126dc90919063ffffffff16565b600b546107fa90919063ffffffff16565b600b819055505b611740565b61173961172882856126dc90919063ffffffff16565b600b546107fa90919063ffffffff16565b600b819055505b505050565b600360009054906101000a900473ffffffffffffffffffffffffffffffffffffffff1673ffffffffffffffffffffffffffffffffffffffff166245e4e3336040518263ffffffff167c0100000000000000000000000000000000000000000000000000000000028152600401808273ffffffffffffffffffffffffffffffffffffffff1673ffffffffffffffffffffffffffffffffffffffff16815260200191505060206040518083038186803b1580156117ff57600080fd5b505afa158015611813573d6000803e3d6000fd5b505050506040513d602081101561182957600080fd5b8101908080519060200190929190505050151561184557600080fd5b80600b541015156118705761186581600b546126dc90919063ffffffff16565b600b819055506118a8565b611899611888600b54836126dc90919063ffffffff16565b600c546107fa90919063ffffffff16565b600c819055506000600b819055505b50565b60008060085414156118c05760009050611941565b61193e6008546119306118df6064600d5461276790919063ffffffff16565b600460008773ffffffffffffffffffffffffffffffffffffffff1673ffffffffffffffffffffffffffffffffffffffff1681526020019081526020016000206000015461276790919063ffffffff16565b61283490919063ffffffff16565b90505b919050565b60095481565b600080600360009054906101000a900473ffffffffffffffffffffffffffffffffffffffff1673ffffffffffffffffffffffffffffffffffffffff1663c5ace4436040518163ffffffff167c010000000000000000000000000000000000000000000000000000000002815260040160206040518083038186803b1580156119d357600080fd5b505afa1580156119e7573d6000803e3d6000fd5b505050506040513d60208110156119fd57600080fd5b810190808051906020019092919050505073ffffffffffffffffffffffffffffffffffffffff166359e02dd76040518163ffffffff167c0100000000000000000000000000000000000000000000000000000000028152600401604080518083038186803b158015611a6e57600080fd5b505afa158015611a82573d6000803e3d6000fd5b505050506040513d6040811015611a9857600080fd5b8101908080519060200190929190805190602001909291905050505090506000611ad3633b9aca00836001900461283490919063ffffffff16565b90506000811415611ae957600192505050611b0f565b600066038d7ea4c68000905080821115611b0857809350505050611b0f565b8193505050505b90565b600073ffffffffffffffffffffffffffffffffffffffff163373ffffffffffffffffffffffffffffffffffffffff1614158015611b50575060008114155b1515611b5b57600080fd5b611b63612473565b600260009054906101000a900473ffffffffffffffffffffffffffffffffffffffff1673ffffffffffffffffffffffffffffffffffffffff166323b872dd3330846040518463ffffffff167c0100000000000000000000000000000000000000000000000000000000028152600401808473ffffffffffffffffffffffffffffffffffffffff1673ffffffffffffffffffffffffffffffffffffffff1681526020018373ffffffffffffffffffffffffffffffffffffffff1673ffffffffffffffffffffffffffffffffffffffff1681526020018281526020019350505050602060405180830381600087803b158015611c5c57600080fd5b505af1158015611c70573d6000803e3d6000fd5b505050506040513d6020811015611c8657600080fd5b810190808051906020019092919050505050611cad816008546107fa90919063ffffffff16565b600881905550611d0881600460003373ffffffffffffffffffffffffffffffffffffffff1673ffffffffffffffffffffffffffffffffffffffff168152602001908152602001600020600001546107fa90919063ffffffff16565b600460003373ffffffffffffffffffffffffffffffffffffffff1673ffffffffffffffffffffffffffffffffffffffff168152602001908152602001600020600001819055503373ffffffffffffffffffffffffffffffffffffffff167f9e71bc8eea02a63969f509818f2dafb9254532904319f9dbda79b67bd34a5f3d826040518082815260200191505060405180910390a250565b600b5481565b6000600460008373ffffffffffffffffffffffffffffffffffffffff1673ffffffffffffffffffffffffffffffffffffffff168152602001908152602001600020600101549050919050565b6000600460008373ffffffffffffffffffffffffffffffffffffffff1673ffffffffffffffffffffffffffffffffffffffff168152602001908152602001600020600001549050919050565b6000349050611e9481600560003373ffffffffffffffffffffffffffffffffffffffff1673ffffffffffffffffffffffffffffffffffffffff168152602001908152602001600020546107fa90919063ffffffff16565b600560003373ffffffffffffffffffffffffffffffffffffffff1673ffffffffffffffffffffffffffffffffffffffff16815260200190815260200160002081905550611f2981600660003373ffffffffffffffffffffffffffffffffffffffff1673ffffffffffffffffffffffffffffffffffffffff168152602001908152602001600020546107fa90919063ffffffff16565b600660003373ffffffffffffffffffffffffffffffffffffffff1673ffffffffffffffffffffffffffffffffffffffff168152602001908152602001600020819055503373ffffffffffffffffffffffffffffffffffffffff167f2da466a7b24304f47e87fa2e1e5a81b9831ce54fec19055ce277ca2f39ba42c4826040518082815260200191505060405180910390a250565b600360009054906101000a900473ffffffffffffffffffffffffffffffffffffffff1673ffffffffffffffffffffffffffffffffffffffff166245e4e3336040518263ffffffff167c0100000000000000000000000000000000000000000000000000000000028152600401808273ffffffffffffffffffffffffffffffffffffffff1673ffffffffffffffffffffffffffffffffffffffff16815260200191505060206040518083038186803b15801561207757600080fd5b505afa15801561208b573d6000803e3d6000fd5b505050506040513d60208110156120a157600080fd5b810190808051906020019092919050505080156121b85750600360009054906101000a900473ffffffffffffffffffffffffffffffffffffffff1673ffffffffffffffffffffffffffffffffffffffff1663f9805041336040518263ffffffff167c0100000000000000000000000000000000000000000000000000000000028152600401808273ffffffffffffffffffffffffffffffffffffffff1673ffffffffffffffffffffffffffffffffffffffff16815260200191505060206040518083038186803b15801561217457600080fd5b505afa158015612188573d6000803e3d6000fd5b505050506040513d602081101561219e57600080fd5b8101908080519060200190929190505050806121b75750805b5b15156121c357600080fd5b83600560008773ffffffffffffffffffffffffffffffffffffffff1673ffffffffffffffffffffffffffffffffffffffff16815260200190815260200160002054111561236d57600061225e85600560008973ffffffffffffffffffffffffffffffffffffffff1673ffffffffffffffffffffffffffffffffffffffff168152602001908152602001600020546126dc90919063ffffffff16565b9050600160009054906101000a900473ffffffffffffffffffffffffffffffffffffffff1673ffffffffffffffffffffffffffffffffffffffff166340c10f1987836040518363ffffffff167c0100000000000000000000000000000000000000000000000000000000028152600401808373ffffffffffffffffffffffffffffffffffffffff1673ffffffffffffffffffffffffffffffffffffffff16815260200182815260200192505050602060405180830381600087803b15801561232557600080fd5b505af1158015612339573d6000803e3d6000fd5b505050506040513d602081101561234f57600080fd5b8101908080519060200190929190505050151561236b57600080fd5b505b60006123798684611030565b905060006123878285610f7c565b905061239e81600a546107fa90919063ffffffff16565b600a8190555080851015156123d8576123c081876126dc90919063ffffffff16565b95506123d581866126dc90919063ffffffff16565b94505b85600560008973ffffffffffffffffffffffffffffffffffffffff1673ffffffffffffffffffffffffffffffffffffffff1681526020019081526020016000208190555084600660008973ffffffffffffffffffffffffffffffffffffffff1673ffffffffffffffffffffffffffffffffffffffff1681526020019081526020016000208190555050505050505050565b6000600854905090565b600061247d610890565b90506000811115612625573373ffffffffffffffffffffffffffffffffffffffff166108fc829081150290604051600060405180830381858888f193505050501580156124ce573d6000803e3d6000fd5b50600a54600460003373ffffffffffffffffffffffffffffffffffffffff1673ffffffffffffffffffffffffffffffffffffffff1681526020019081526020016000206001018190555061252d816009546107fa90919063ffffffff16565b60098190555061258581600760003373ffffffffffffffffffffffffffffffffffffffff1673ffffffffffffffffffffffffffffffffffffffff168152602001908152602001600020546107fa90919063ffffffff16565b600760003373ffffffffffffffffffffffffffffffffffffffff1673ffffffffffffffffffffffffffffffffffffffff168152602001908152602001600020819055503373ffffffffffffffffffffffffffffffffffffffff167f8dafec6cb3d6a0e09a73dcf359740786723368add5302962b471ee04f4cfb13d82600a54604051808381526020018281526020019250505060405180910390a261266f565b600a54600460003373ffffffffffffffffffffffffffffffffffffffff1673ffffffffffffffffffffffffffffffffffffffff168152602001908152602001600020600101819055505b50565b60008173ffffffffffffffffffffffffffffffffffffffff16319050919050565b6000600560008373ffffffffffffffffffffffffffffffffffffffff1673ffffffffffffffffffffffffffffffffffffffff168152602001908152602001600020549050919050565b6000828211151515612756576040517f08c379a000000000000000000000000000000000000000000000000000000000815260040180806020018281038252601e8152602001807f536166654d6174683a207375627472616374696f6e206f766572666c6f77000081525060200191505060405180910390fd5b600082840390508091505092915050565b60008083141561277a576000905061282e565b6000828402905082848281151561278d57fe5b04141515612829576040517f08c379a00000000000000000000000000000000000000000000000000000000081526004018080602001828103825260218152602001807f536166654d6174683a206d756c7469706c69636174696f6e206f766572666c6f81526020017f770000000000000000000000000000000000000000000000000000000000000081525060400191505060405180910390fd5b809150505b92915050565b600080821115156128ad576040517f08c379a000000000000000000000000000000000000000000000000000000000815260040180806020018281038252601a8152602001807f536166654d6174683a206469766973696f6e206279207a65726f00000000000081525060200191505060405180910390fd5b600082848115156128ba57fe5b049050809150509291505056fea165627a7a723058203f659eba93bf6dcb06707ee99699f728e1bff6511878bf85269d954bb9f2bf0b0029",
  "source": "pragma solidity ^0.5.0;\r\n\r\nimport \"openzeppelin-solidity/contracts/utils/ReentrancyGuard.sol\";\r\nimport \"openzeppelin-solidity/contracts/math/SafeMath.sol\";\r\nimport \"./Oracle/Medianizer.sol\";\r\nimport \"./Token.sol\";\r\nimport \"./Settings.sol\";\r\n\r\ncontract Depository is ReentrancyGuard{\r\n\r\n    using SafeMath for uint256;\r\n\r\n    ERC20Mintable token;\r\n    ERC20 mainToken;\r\n    Settings settings;\r\n\r\n    struct Staker {\r\n        uint256 amount;\r\n        uint256 prevAllTimeProfit;\r\n    }\r\n\r\n    mapping(address => Staker) private stakedFunds;\r\n    mapping(address => uint256) private balances;\r\n    mapping(address => uint256) private availableBalances;\r\n    mapping(address => uint256) private releasedDividends;\r\n\r\n    \r\n    uint256 public totalStakedFunds;\r\n    uint256 public totalDividends;\r\n    uint256 public allTimeProfit;\r\n    uint256 public marginBank;\r\n    uint256 public debt;\r\n\r\n    uint256 private percentMultiplyer = 100;\r\n\r\n    event Deposited(address indexed payee, uint256 weiAmount);\r\n    event Withdrawn(address indexed payee, uint256 weiAmount);\r\n    event Staked(address indexed payee, uint256 weiAmount);\r\n    event Unstaked(address indexed payee, uint256 weiAmount);\r\n    event DividendsLog(address indexed account, uint256 amount, uint256 allTimeProfit);\r\n    event RecievedLog(address account, uint256 amount);\r\n\r\n\r\n    constructor (\r\n        address _settingsAddress,\r\n        address _tokenAddress,\r\n        address _mainTokenAddress\r\n    ) public payable {\r\n        token = Token(_tokenAddress);\r\n        mainToken = Token(_mainTokenAddress);\r\n        settings = Settings(_settingsAddress);\r\n    }\r\n\r\n    function() external payable {\r\n        allTimeProfit = allTimeProfit.add(msg.value);\r\n        emit RecievedLog(msg.sender, msg.value);\r\n     }\r\n\r\n    function deposit() public payable {\r\n        uint256 amount = msg.value;\r\n        balances[msg.sender] = balances[msg.sender].add(amount);\r\n        availableBalances[msg.sender] = availableBalances[msg.sender].add(amount);\r\n        emit Deposited(msg.sender, amount);\r\n    }\r\n\r\n    function withdraw(uint256 amount) public nonReentrant{\r\n        require(availableBalances[msg.sender] >= amount);\r\n        balances[msg.sender] = balances[msg.sender].sub(amount);\r\n        availableBalances[msg.sender] = availableBalances[msg.sender].sub(amount);\r\n        msg.sender.transfer(amount);\r\n        emit Withdrawn(msg.sender, amount);\r\n    }\r\n\r\n    function stake(uint256 tokens) public payable {\r\n        require(msg.sender != address(0) && tokens != 0);\r\n        getDividends();\r\n        ERC20(address(mainToken)).transferFrom(msg.sender, address(this), tokens);\r\n        totalStakedFunds = totalStakedFunds.add(tokens);\r\n        stakedFunds[msg.sender].amount = stakedFunds[msg.sender].amount.add(tokens);\r\n        emit Staked(msg.sender, tokens);\r\n    }\r\n\r\n    function unstake(uint256 amount) public  {\r\n        require(amount <= stakedFunds[msg.sender].amount && msg.sender != address(0));\r\n        require (!settings.stakeIsLocked(msg.sender));\r\n        getDividends();\r\n        totalStakedFunds = totalStakedFunds.sub(amount);\r\n        stakedFunds[msg.sender].amount = stakedFunds[msg.sender].amount.sub(amount);\r\n        ERC20(address(mainToken)).transfer(msg.sender, amount);\r\n        emit Unstaked(msg.sender, amount);\r\n    }\r\n\r\n    function getDividends() public {\r\n        uint256 accountProfit = calcAccountProfit();\r\n        if (accountProfit>0) {\r\n            msg.sender.transfer(accountProfit);\r\n            stakedFunds[msg.sender].prevAllTimeProfit = allTimeProfit;\r\n            totalDividends = totalDividends.add(accountProfit);    \r\n            releasedDividends[msg.sender] = releasedDividends[msg.sender].add(accountProfit); \r\n            emit DividendsLog(msg.sender, accountProfit, allTimeProfit);    \r\n        } else {\r\n            stakedFunds[msg.sender].prevAllTimeProfit = allTimeProfit;\r\n        }\r\n    }\r\n\r\n\r\n    function updateBalances (address account, uint256 balance, uint256 availableBalance, uint256 feeValue, bool closePosition) public  {\r\n        require(\r\n            settings.contractIsTrusted(msg.sender) && \r\n            (settings.contractIsNotExpired(msg.sender) || closePosition)\r\n        );\r\n\r\n        // if a loss occurs, create new tokens\r\n        if(balances[account] > balance) {\r\n            uint256 lossAmount = balances[account].sub(balance);\r\n            require(token.mint(account, lossAmount));\r\n        }\r\n\r\n        uint256 discountPercent = calcDiscountFeePercent(account, feeValue);\r\n        uint256 feeValueWithDiscount = calcFeeValueWithDiscount(discountPercent, feeValue);\r\n\r\n        allTimeProfit = allTimeProfit.add(feeValueWithDiscount);\r\n\r\n        if(availableBalance >= feeValueWithDiscount) {\r\n            balance = balance.sub(feeValueWithDiscount);\r\n            availableBalance = availableBalance.sub(feeValueWithDiscount);   \r\n        }\r\n\r\n        balances[account] = balance;\r\n        availableBalances[account] = availableBalance; \r\n\r\n    }\r\n\r\n    function decreaseMarginBank(uint256 sum) public {\r\n        require(settings.contractIsTrusted(msg.sender));\r\n        if(marginBank>=sum) {\r\n            marginBank = marginBank.sub(sum);\r\n        } else {\r\n            debt = debt.add(sum.sub(marginBank));\r\n            marginBank = 0;\r\n        }\r\n    }\r\n\r\n    \r\n    function setProfit(uint256 profit) public {\r\n        require(settings.contractIsTrusted(msg.sender));\r\n\r\n        // the profit splitting on 2 parts: \r\n        // 1 - profit that all stakeholders take. Percentage is specified in liquidationProfit();\r\n        uint256 liquidationProfitValue = profit.mul(settings.getLiquidationProfit()).div(percentMultiplyer.mul(100));\r\n         \r\n        allTimeProfit = allTimeProfit.add(liquidationProfitValue);\r\n\r\n        // 2 - the rest goes to the margin bank fund. If the system has a debt we cover debt.\r\n        uint256 marginBankProfitValue = profit.mul(percentMultiplyer.mul(100).sub(settings.getLiquidationProfit())).div(percentMultiplyer.mul(100));\r\n        if(debt > marginBank) {\r\n            if(debt > marginBankProfitValue) {\r\n                debt = debt.sub(marginBankProfitValue);\r\n            } else {\r\n                debt=0;\r\n                marginBank = marginBank.add(debt.sub(marginBank));\r\n            }\r\n        } else {\r\n            marginBank = marginBank.add(profit.sub(marginBankProfitValue));\r\n        }\r\n        \r\n    }\r\n\r\n    /// View methods\r\n\r\n    function calcDiscountFeePercent(address account, uint256 feeValue) public view returns (uint256){\r\n        uint256 discountPercent;\r\n        uint256 accountTokenBalance = token.balanceOf(account);\r\n        uint256 tokenTotalSupply = token.totalSupply();\r\n\r\n        if(tokenTotalSupply>0) discountPercent = accountTokenBalance.mul(percentMultiplyer.mul(100)).mul(settings.getFeeDiscountIndex()).div(tokenTotalSupply);\r\n        if(feeValue == 0 || discountPercent >= percentMultiplyer.mul(percentMultiplyer)) {\r\n            return percentMultiplyer.mul(100);\r\n        }\r\n        return discountPercent;\r\n    }\r\n\r\n    function getAccountStakePercent(address account) public view returns (uint256){\r\n        if(totalStakedFunds==0) return 0;\r\n        return stakedFunds[account].amount.mul(percentMultiplyer.mul(100)).div(totalStakedFunds);\r\n    }\r\n\r\n    function calcAccountProfit() public view returns (uint256){\r\n        uint256 stakePercent = getAccountStakePercent(msg.sender);\r\n        uint256 unreleasedProfit = allTimeProfit.sub(stakedFunds[msg.sender].prevAllTimeProfit);\r\n        uint256 profit = unreleasedProfit.mul(stakePercent).div(percentMultiplyer.mul(100));\r\n        return profit;\r\n    }\r\n\r\n    function calcFeeValueWithDiscount(uint256 discountPercent, uint256 feeValue) public view returns (uint256){\r\n        return feeValue.mul(percentMultiplyer.mul(100).sub(discountPercent)).div(percentMultiplyer.mul(100));\r\n    }\r\n\r\n    function getBalance (address account) public view returns(uint256) {\r\n        return balances[account];\r\n    }\r\n    \r\n    function getAvailableBalance (address account) public view returns(uint256) {\r\n        return availableBalances[account];\r\n    }\r\n\r\n    function getStakedFundsOf(address account) public view returns(uint256) {\r\n        return stakedFunds[account].amount;\r\n    }\r\n    function getPrevAllTimeProfit(address account) public view returns(uint256) {\r\n        return stakedFunds[account].prevAllTimeProfit;\r\n    }\r\n\r\n    function getTotalStakedFunds() public view returns(uint256) {\r\n        return totalStakedFunds;\r\n    }\r\n\r\n    /// @dev returns the USDETH price, ie gets the USD price from Maker feed with 9 digits\r\n    function getUSDETHPrice() public view returns (uint256) {\r\n\r\n        (bytes32 price, ) = Medianizer(settings.priceFeedSource()).peek();\r\n        //uint256 price = 140000000000000000000; //only for testing purposes\r\n        \r\n        // ensuring that there is no underflow or overflow possible,\r\n        // even if the price is compromised\r\n        uint priceUint = uint256(price).div(10**9);\r\n        if (priceUint == 0) {\r\n            return 1;\r\n        }\r\n        uint256 maxval = 1000000*10**9;\r\n        if (priceUint > maxval) {\r\n            return maxval;\r\n        }\r\n        return priceUint;\r\n    }\r\n\r\n    //////// testing \r\n    function getWalletBalance (address account) public view returns(uint256) {\r\n        return address(account).balance;\r\n    }\r\n\r\n\r\n\r\n}\r\n",
  "sourcePath": "/home/arct/projects/etherhedge/contracts/Depository.sol",
  "compiler": {
    "name": "solc",
    "version": "0.5.0+commit.1d4f565a.Emscripten.clang"
  },
  "schemaVersion": "3.0.9",
  "updatedAt": "2019-08-25T02:09:38.420Z",
  "devdoc": {
    "methods": {
      "getUSDETHPrice()": {
        "details": "returns the USDETH price, ie gets the USD price from Maker feed with 9 digits"
      }
    }
  },
  "userdoc": {
    "methods": {
      "calcDiscountFeePercent(address,uint256)": {
        "notice": "View methods"
      },
      "getWalletBalance(address)": {
        "notice": "///// testing "
      }
    }
  }
}