{
  "contractName": "Depository",
  "abi": [
    {
      "constant": true,
      "inputs": [],
      "name": "totalStakedFunds",
      "outputs": [
        {
          "name": "",
          "type": "uint256"
        }
      ],
      "payable": false,
      "stateMutability": "view",
      "type": "function"
    },
    {
      "constant": true,
      "inputs": [],
      "name": "devAccount",
      "outputs": [
        {
          "name": "",
          "type": "address"
        }
      ],
      "payable": false,
      "stateMutability": "view",
      "type": "function"
    },
    {
      "constant": true,
      "inputs": [],
      "name": "totalDividends",
      "outputs": [
        {
          "name": "",
          "type": "uint256"
        }
      ],
      "payable": false,
      "stateMutability": "view",
      "type": "function"
    },
    {
      "constant": true,
      "inputs": [],
      "name": "totalBalance",
      "outputs": [
        {
          "name": "",
          "type": "uint256"
        }
      ],
      "payable": false,
      "stateMutability": "view",
      "type": "function"
    },
    {
      "constant": true,
      "inputs": [],
      "name": "marginBank",
      "outputs": [
        {
          "name": "",
          "type": "uint256"
        }
      ],
      "payable": false,
      "stateMutability": "view",
      "type": "function"
    },
    {
      "constant": true,
      "inputs": [],
      "name": "allTimeTotalProfit",
      "outputs": [
        {
          "name": "",
          "type": "uint256"
        }
      ],
      "payable": false,
      "stateMutability": "view",
      "type": "function"
    },
    {
      "constant": true,
      "inputs": [],
      "name": "priceFeedSource",
      "outputs": [
        {
          "name": "",
          "type": "address"
        }
      ],
      "payable": false,
      "stateMutability": "view",
      "type": "function"
    },
    {
      "inputs": [
        {
          "name": "_settingsAddress",
          "type": "address"
        },
        {
          "name": "_tokenAddress",
          "type": "address"
        },
        {
          "name": "_mainTokenAddress",
          "type": "address"
        },
        {
          "name": "_percentMultiplyer",
          "type": "uint256"
        },
        {
          "name": "_priceFeedSource",
          "type": "address"
        }
      ],
      "payable": false,
      "stateMutability": "nonpayable",
      "type": "constructor"
    },
    {
      "anonymous": false,
      "inputs": [
        {
          "indexed": true,
          "name": "payee",
          "type": "address"
        },
        {
          "indexed": false,
          "name": "weiAmount",
          "type": "uint256"
        }
      ],
      "name": "Deposited",
      "type": "event"
    },
    {
      "anonymous": false,
      "inputs": [
        {
          "indexed": true,
          "name": "payee",
          "type": "address"
        },
        {
          "indexed": false,
          "name": "weiAmount",
          "type": "uint256"
        }
      ],
      "name": "Withdrawn",
      "type": "event"
    },
    {
      "anonymous": false,
      "inputs": [
        {
          "indexed": true,
          "name": "payee",
          "type": "address"
        },
        {
          "indexed": false,
          "name": "weiAmount",
          "type": "uint256"
        }
      ],
      "name": "Staked",
      "type": "event"
    },
    {
      "anonymous": false,
      "inputs": [
        {
          "indexed": true,
          "name": "payee",
          "type": "address"
        },
        {
          "indexed": false,
          "name": "weiAmount",
          "type": "uint256"
        }
      ],
      "name": "Unstaked",
      "type": "event"
    },
    {
      "constant": false,
      "inputs": [],
      "name": "deposit",
      "outputs": [],
      "payable": true,
      "stateMutability": "payable",
      "type": "function"
    },
    {
      "constant": false,
      "inputs": [
        {
          "name": "amount",
          "type": "uint256"
        }
      ],
      "name": "withdraw",
      "outputs": [],
      "payable": false,
      "stateMutability": "nonpayable",
      "type": "function"
    },
    {
      "constant": false,
      "inputs": [],
      "name": "withdrawAll",
      "outputs": [],
      "payable": false,
      "stateMutability": "nonpayable",
      "type": "function"
    },
    {
      "constant": false,
      "inputs": [
        {
          "name": "tokens",
          "type": "uint256"
        }
      ],
      "name": "stake",
      "outputs": [],
      "payable": true,
      "stateMutability": "payable",
      "type": "function"
    },
    {
      "constant": false,
      "inputs": [
        {
          "name": "amount",
          "type": "uint256"
        }
      ],
      "name": "unstake",
      "outputs": [],
      "payable": false,
      "stateMutability": "nonpayable",
      "type": "function"
    },
    {
      "constant": false,
      "inputs": [],
      "name": "getDividends",
      "outputs": [],
      "payable": false,
      "stateMutability": "nonpayable",
      "type": "function"
    },
    {
      "constant": false,
      "inputs": [
        {
          "name": "account",
          "type": "address"
        },
        {
          "name": "balance",
          "type": "uint256"
        },
        {
          "name": "availableBalance",
          "type": "uint256"
        },
        {
          "name": "feeValue",
          "type": "uint256"
        }
      ],
      "name": "updateBalances",
      "outputs": [],
      "payable": false,
      "stateMutability": "nonpayable",
      "type": "function"
    },
    {
      "constant": false,
      "inputs": [
        {
          "name": "profit",
          "type": "uint256"
        }
      ],
      "name": "setLiquidationProfit",
      "outputs": [],
      "payable": false,
      "stateMutability": "nonpayable",
      "type": "function"
    },
    {
      "constant": true,
      "inputs": [
        {
          "name": "account",
          "type": "address"
        },
        {
          "name": "feeValue",
          "type": "uint256"
        }
      ],
      "name": "calcDiscountFeePercent",
      "outputs": [
        {
          "name": "",
          "type": "uint256"
        }
      ],
      "payable": false,
      "stateMutability": "view",
      "type": "function"
    },
    {
      "constant": true,
      "inputs": [
        {
          "name": "account",
          "type": "address"
        }
      ],
      "name": "getAccountStakePercent",
      "outputs": [
        {
          "name": "",
          "type": "uint256"
        }
      ],
      "payable": false,
      "stateMutability": "view",
      "type": "function"
    },
    {
      "constant": true,
      "inputs": [],
      "name": "calcAccountProfit",
      "outputs": [
        {
          "name": "",
          "type": "uint256"
        }
      ],
      "payable": false,
      "stateMutability": "view",
      "type": "function"
    },
    {
      "constant": true,
      "inputs": [
        {
          "name": "discountPercent",
          "type": "uint256"
        },
        {
          "name": "feeValue",
          "type": "uint256"
        }
      ],
      "name": "calcFeeValueWithDiscount",
      "outputs": [
        {
          "name": "",
          "type": "uint256"
        }
      ],
      "payable": false,
      "stateMutability": "view",
      "type": "function"
    },
    {
      "constant": true,
      "inputs": [
        {
          "name": "account",
          "type": "address"
        }
      ],
      "name": "getBalance",
      "outputs": [
        {
          "name": "",
          "type": "uint256"
        }
      ],
      "payable": false,
      "stateMutability": "view",
      "type": "function"
    },
    {
      "constant": true,
      "inputs": [
        {
          "name": "account",
          "type": "address"
        }
      ],
      "name": "getAvailableBalance",
      "outputs": [
        {
          "name": "",
          "type": "uint256"
        }
      ],
      "payable": false,
      "stateMutability": "view",
      "type": "function"
    },
    {
      "constant": true,
      "inputs": [
        {
          "name": "account",
          "type": "address"
        }
      ],
      "name": "getStakedFundsOf",
      "outputs": [
        {
          "name": "",
          "type": "uint256"
        }
      ],
      "payable": false,
      "stateMutability": "view",
      "type": "function"
    },
    {
      "constant": true,
      "inputs": [
        {
          "name": "account",
          "type": "address"
        }
      ],
      "name": "getPrevAllTimeProfit",
      "outputs": [
        {
          "name": "",
          "type": "uint256"
        }
      ],
      "payable": false,
      "stateMutability": "view",
      "type": "function"
    },
    {
      "constant": true,
      "inputs": [],
      "name": "getTotalStakedFunds",
      "outputs": [
        {
          "name": "",
          "type": "uint256"
        }
      ],
      "payable": false,
      "stateMutability": "view",
      "type": "function"
    },
    {
      "constant": true,
      "inputs": [],
      "name": "getUSDETHPrice",
      "outputs": [
        {
          "name": "",
          "type": "uint256"
        }
      ],
      "payable": false,
      "stateMutability": "pure",
      "type": "function"
    },
    {
      "constant": true,
      "inputs": [
        {
          "name": "account",
          "type": "address"
        }
      ],
      "name": "getWalletBalance",
      "outputs": [
        {
          "name": "",
          "type": "uint256"
        }
      ],
      "payable": false,
      "stateMutability": "view",
      "type": "function"
    }
  ],
  "bytecode": "0x608060405234801561001057600080fd5b5060405160a0806200282f833981018060405260a081101561003157600080fd5b810190808051906020019092919080519060200190929190805190602001909291908051906020019092919080519060200190929190505050600160008190555083600160006101000a81548173ffffffffffffffffffffffffffffffffffffffff021916908373ffffffffffffffffffffffffffffffffffffffff16021790555082600260006101000a81548173ffffffffffffffffffffffffffffffffffffffff021916908373ffffffffffffffffffffffffffffffffffffffff16021790555084600360006101000a81548173ffffffffffffffffffffffffffffffffffffffff021916908373ffffffffffffffffffffffffffffffffffffffff16021790555081600c81905550600360009054906101000a900473ffffffffffffffffffffffffffffffffffffffff1673ffffffffffffffffffffffffffffffffffffffff1663fbda66226040518163ffffffff167c010000000000000000000000000000000000000000000000000000000002815260040160206040518083038186803b1580156101c057600080fd5b505afa1580156101d4573d6000803e3d6000fd5b505050506040513d60208110156101ea57600080fd5b8101908080519060200190929190505050600d60006101000a81548173ffffffffffffffffffffffffffffffffffffffff021916908373ffffffffffffffffffffffffffffffffffffffff16021790555080600e60006101000a81548173ffffffffffffffffffffffffffffffffffffffff021916908373ffffffffffffffffffffffffffffffffffffffff160217905550505050505061259e80620002916000396000f3fe608060405260043610610154576000357c0100000000000000000000000000000000000000000000000000000000900463ffffffff16806318ec2d5c14610159578063236df802146101845780632e17de78146101af5780632e1a7d4d146101ea5780636312b7fd14610225578063691edfda1461027e5780636c24a76f146102d55780637260cc131461033a57806381f35bc6146103a9578063853828b6146103e45780638c7513f8146103fb578063997664d714610460578063a3ca17b21461048b578063a694fc3a146104b6578063a8df6743146104e4578063ad7a672f14610553578063ad8f1eab1461057e578063ba5a73a8146105a9578063c052f47d146105d4578063c5ace44314610639578063c7c551b614610690578063d0e30db0146106f5578063e2abad47146106ff578063ed442e141461072a578063ed8ec19414610741578063f8b2cb4f146107a6575b600080fd5b34801561016557600080fd5b5061016e61080b565b6040518082815260200191505060405180910390f35b34801561019057600080fd5b50610199610811565b6040518082815260200191505060405180910390f35b3480156101bb57600080fd5b506101e8600480360360208110156101d257600080fd5b81019080803590602001909291905050506108c1565b005b3480156101f657600080fd5b506102236004803603602081101561020d57600080fd5b8101908080359060200190929190505050610beb565b005b34801561023157600080fd5b506102686004803603604081101561024857600080fd5b810190808035906020019092919080359060200190929190505050610e11565b6040518082815260200191505060405180910390f35b34801561028a57600080fd5b50610293610e7c565b604051808273ffffffffffffffffffffffffffffffffffffffff1673ffffffffffffffffffffffffffffffffffffffff16815260200191505060405180910390f35b3480156102e157600080fd5b50610324600480360360208110156102f857600080fd5b81019080803573ffffffffffffffffffffffffffffffffffffffff169060200190929190505050610ea2565b6040518082815260200191505060405180910390f35b34801561034657600080fd5b506103936004803603604081101561035d57600080fd5b81019080803573ffffffffffffffffffffffffffffffffffffffff16906020019092919080359060200190929190505050610eeb565b6040518082815260200191505060405180910390f35b3480156103b557600080fd5b506103e2600480360360208110156103cc57600080fd5b8101908080359060200190929190505050611218565b005b3480156103f057600080fd5b506103f9611468565b005b34801561040757600080fd5b5061044a6004803603602081101561041e57600080fd5b81019080803573ffffffffffffffffffffffffffffffffffffffff1690602001909291905050506114b2565b6040518082815260200191505060405180910390f35b34801561046c57600080fd5b5061047561154d565b6040518082815260200191505060405180910390f35b34801561049757600080fd5b506104a0611553565b6040518082815260200191505060405180910390f35b6104e2600480360360208110156104cc57600080fd5b81019080803590602001909291905050506115ba565b005b3480156104f057600080fd5b506105516004803603608081101561050757600080fd5b81019080803573ffffffffffffffffffffffffffffffffffffffff169060200190929190803590602001909291908035906020019092919080359060200190929190505050611847565b005b34801561055f57600080fd5b50610568611ddb565b6040518082815260200191505060405180910390f35b34801561058a57600080fd5b50610593611de1565b6040518082815260200191505060405180910390f35b3480156105b557600080fd5b506105be611de7565b6040518082815260200191505060405180910390f35b3480156105e057600080fd5b50610623600480360360208110156105f757600080fd5b81019080803573ffffffffffffffffffffffffffffffffffffffff169060200190929190505050611ded565b6040518082815260200191505060405180910390f35b34801561064557600080fd5b5061064e611e39565b604051808273ffffffffffffffffffffffffffffffffffffffff1673ffffffffffffffffffffffffffffffffffffffff16815260200191505060405180910390f35b34801561069c57600080fd5b506106df600480360360208110156106b357600080fd5b81019080803573ffffffffffffffffffffffffffffffffffffffff169060200190929190505050611e5f565b6040518082815260200191505060405180910390f35b6106fd611eab565b005b34801561070b57600080fd5b50610714612046565b6040518082815260200191505060405180910390f35b34801561073657600080fd5b5061073f612050565b005b34801561074d57600080fd5b506107906004803603602081101561076457600080fd5b81019080803573ffffffffffffffffffffffffffffffffffffffff169060200190929190505050612114565b6040518082815260200191505060405180910390f35b3480156107b257600080fd5b506107f5600480360360208110156107c957600080fd5b81019080803573ffffffffffffffffffffffffffffffffffffffff169060200190929190505050612135565b6040518082815260200191505060405180910390f35b60085481565b60008061081d336114b2565b90506000610878600460003373ffffffffffffffffffffffffffffffffffffffff1673ffffffffffffffffffffffffffffffffffffffff16815260200190815260200160002060010154600a5461217e90919063ffffffff16565b905060006108b66108956064600c5461220990919063ffffffff16565b6108a8858561220990919063ffffffff16565b6122d690919063ffffffff16565b905080935050505090565b60016000808282540192505081905550600080549050600460003373ffffffffffffffffffffffffffffffffffffffff1673ffffffffffffffffffffffffffffffffffffffff1681526020019081526020016000206000015482111580156109565750600073ffffffffffffffffffffffffffffffffffffffff163373ffffffffffffffffffffffffffffffffffffffff1614155b151561096157600080fd5b610969612050565b61097e8260085461217e90919063ffffffff16565b6008819055506109d982600460003373ffffffffffffffffffffffffffffffffffffffff1673ffffffffffffffffffffffffffffffffffffffff1681526020019081526020016000206000015461217e90919063ffffffff16565b600460003373ffffffffffffffffffffffffffffffffffffffff1673ffffffffffffffffffffffffffffffffffffffff16815260200190815260200160002060000181905550600260009054906101000a900473ffffffffffffffffffffffffffffffffffffffff1673ffffffffffffffffffffffffffffffffffffffff1663a9059cbb33846040518363ffffffff167c0100000000000000000000000000000000000000000000000000000000028152600401808373ffffffffffffffffffffffffffffffffffffffff1673ffffffffffffffffffffffffffffffffffffffff16815260200182815260200192505050602060405180830381600087803b158015610ae457600080fd5b505af1158015610af8573d6000803e3d6000fd5b505050506040513d6020811015610b0e57600080fd5b8101908080519060200190929190505050503373ffffffffffffffffffffffffffffffffffffffff167f0f5bb82176feb1b5e747e28471aa92156a04d9f3ab9f45f28e2d704232b93f75836040518082815260200191505060405180910390a260005481141515610be7576040517f08c379a000000000000000000000000000000000000000000000000000000000815260040180806020018281038252601f8152602001807f5265656e7472616e637947756172643a207265656e7472616e742063616c6c0081525060200191505060405180910390fd5b5050565b6001600080828254019250508190555060008054905081600660003373ffffffffffffffffffffffffffffffffffffffff1673ffffffffffffffffffffffffffffffffffffffff1681526020019081526020016000205410151515610c4f57600080fd5b610ca182600560003373ffffffffffffffffffffffffffffffffffffffff1673ffffffffffffffffffffffffffffffffffffffff1681526020019081526020016000205461217e90919063ffffffff16565b600560003373ffffffffffffffffffffffffffffffffffffffff1673ffffffffffffffffffffffffffffffffffffffff16815260200190815260200160002081905550610cf98260075461217e90919063ffffffff16565b6007819055503373ffffffffffffffffffffffffffffffffffffffff166108fc839081150290604051600060405180830381858888f19350505050158015610d45573d6000803e3d6000fd5b503373ffffffffffffffffffffffffffffffffffffffff167f7084f5476618d8e60b11ef0d7d3f06914655adb8793e28ff7f018d4c76d505d5836040518082815260200191505060405180910390a260005481141515610e0d576040517f08c379a000000000000000000000000000000000000000000000000000000000815260040180806020018281038252601f8152602001807f5265656e7472616e637947756172643a207265656e7472616e742063616c6c0081525060200191505060405180910390fd5b5050565b6000610e74610e2c6064600c5461220990919063ffffffff16565b610e66610e5786610e496064600c5461220990919063ffffffff16565b61217e90919063ffffffff16565b8561220990919063ffffffff16565b6122d690919063ffffffff16565b905092915050565b600d60009054906101000a900473ffffffffffffffffffffffffffffffffffffffff1681565b6000600660008373ffffffffffffffffffffffffffffffffffffffff1673ffffffffffffffffffffffffffffffffffffffff168152602001908152602001600020549050919050565b6000806000600160009054906101000a900473ffffffffffffffffffffffffffffffffffffffff1673ffffffffffffffffffffffffffffffffffffffff166370a08231866040518263ffffffff167c0100000000000000000000000000000000000000000000000000000000028152600401808273ffffffffffffffffffffffffffffffffffffffff1673ffffffffffffffffffffffffffffffffffffffff16815260200191505060206040518083038186803b158015610fab57600080fd5b505afa158015610fbf573d6000803e3d6000fd5b505050506040513d6020811015610fd557600080fd5b810190808051906020019092919050505090506000600160009054906101000a900473ffffffffffffffffffffffffffffffffffffffff1673ffffffffffffffffffffffffffffffffffffffff166318160ddd6040518163ffffffff167c010000000000000000000000000000000000000000000000000000000002815260040160206040518083038186803b15801561106e57600080fd5b505afa158015611082573d6000803e3d6000fd5b505050506040513d602081101561109857600080fd5b8101908080519060200190929190505050905060008111156111c1576111be816111b0600360009054906101000a900473ffffffffffffffffffffffffffffffffffffffff1673ffffffffffffffffffffffffffffffffffffffff1663c792ef486040518163ffffffff167c010000000000000000000000000000000000000000000000000000000002815260040160206040518083038186803b15801561113f57600080fd5b505afa158015611153573d6000803e3d6000fd5b505050506040513d602081101561116957600080fd5b81019080805190602001909291905050506111a26111936064600c5461220990919063ffffffff16565b8761220990919063ffffffff16565b61220990919063ffffffff16565b6122d690919063ffffffff16565b92505b60008514806111e657506111e2600c54600c5461220990919063ffffffff16565b8310155b1561120b576112016064600c5461220990919063ffffffff16565b9350505050611212565b8293505050505b92915050565b600360009054906101000a900473ffffffffffffffffffffffffffffffffffffffff1673ffffffffffffffffffffffffffffffffffffffff1663d7a1ac7a336040518263ffffffff167c0100000000000000000000000000000000000000000000000000000000028152600401808273ffffffffffffffffffffffffffffffffffffffff1673ffffffffffffffffffffffffffffffffffffffff16815260200191505060206040518083038186803b1580156112d357600080fd5b505afa1580156112e7573d6000803e3d6000fd5b505050506040513d60208110156112fd57600080fd5b8101908080519060200190929190505050151561131957600080fd5b60006113ff60646113f1600360009054906101000a900473ffffffffffffffffffffffffffffffffffffffff1673ffffffffffffffffffffffffffffffffffffffff16637e7a5f406040518163ffffffff167c010000000000000000000000000000000000000000000000000000000002815260040160206040518083038186803b1580156113a757600080fd5b505afa1580156113bb573d6000803e3d6000fd5b505050506040513d60208110156113d157600080fd5b81019080805190602001909291905050508561220990919063ffffffff16565b6122d690919063ffffffff16565b905061141681600a5461236990919063ffffffff16565b600a819055506114318160075461217e90919063ffffffff16565b60078190555061145e61144d828461217e90919063ffffffff16565b600b5461236990919063ffffffff16565b600b819055505050565b6114b0600560003373ffffffffffffffffffffffffffffffffffffffff1673ffffffffffffffffffffffffffffffffffffffff16815260200190815260200160002054610beb565b565b60008060085414156114c75760009050611548565b6115456008546115376114e66064600c5461220990919063ffffffff16565b600460008773ffffffffffffffffffffffffffffffffffffffff1673ffffffffffffffffffffffffffffffffffffffff1681526020019081526020016000206000015461220990919063ffffffff16565b6122d690919063ffffffff16565b90505b919050565b60095481565b600080680796e3ea3f8ab000009050600061157b633b9aca00836122d690919063ffffffff16565b90506000811415611591576001925050506115b7565b600066038d7ea4c680009050808211156115b0578093505050506115b7565b8193505050505b90565b600073ffffffffffffffffffffffffffffffffffffffff163373ffffffffffffffffffffffffffffffffffffffff16141580156115f8575060008114155b151561160357600080fd5b61160b612050565b6116208160085461236990919063ffffffff16565b60088190555061167b81600460003373ffffffffffffffffffffffffffffffffffffffff1673ffffffffffffffffffffffffffffffffffffffff1681526020019081526020016000206000015461236990919063ffffffff16565b600460003373ffffffffffffffffffffffffffffffffffffffff1673ffffffffffffffffffffffffffffffffffffffff16815260200190815260200160002060000181905550600260009054906101000a900473ffffffffffffffffffffffffffffffffffffffff1673ffffffffffffffffffffffffffffffffffffffff166323b872dd3330846040518463ffffffff167c0100000000000000000000000000000000000000000000000000000000028152600401808473ffffffffffffffffffffffffffffffffffffffff1673ffffffffffffffffffffffffffffffffffffffff1681526020018373ffffffffffffffffffffffffffffffffffffffff1673ffffffffffffffffffffffffffffffffffffffff1681526020018281526020019350505050602060405180830381600087803b1580156117ba57600080fd5b505af11580156117ce573d6000803e3d6000fd5b505050506040513d60208110156117e457600080fd5b8101908080519060200190929190505050503373ffffffffffffffffffffffffffffffffffffffff167f9e71bc8eea02a63969f509818f2dafb9254532904319f9dbda79b67bd34a5f3d826040518082815260200191505060405180910390a250565b600360009054906101000a900473ffffffffffffffffffffffffffffffffffffffff1673ffffffffffffffffffffffffffffffffffffffff1663d7a1ac7a336040518263ffffffff167c0100000000000000000000000000000000000000000000000000000000028152600401808273ffffffffffffffffffffffffffffffffffffffff1673ffffffffffffffffffffffffffffffffffffffff16815260200191505060206040518083038186803b15801561190257600080fd5b505afa158015611916573d6000803e3d6000fd5b505050506040513d602081101561192c57600080fd5b81019080805190602001909291905050508015611a3b5750600360009054906101000a900473ffffffffffffffffffffffffffffffffffffffff1673ffffffffffffffffffffffffffffffffffffffff1663bd10aa48336040518263ffffffff167c0100000000000000000000000000000000000000000000000000000000028152600401808273ffffffffffffffffffffffffffffffffffffffff1673ffffffffffffffffffffffffffffffffffffffff16815260200191505060206040518083038186803b1580156119ff57600080fd5b505afa158015611a13573d6000803e3d6000fd5b505050506040513d6020811015611a2957600080fd5b81019080805190602001909291905050505b8015611b395750600160009054906101000a900473ffffffffffffffffffffffffffffffffffffffff1673ffffffffffffffffffffffffffffffffffffffff1663aa271e1a306040518263ffffffff167c0100000000000000000000000000000000000000000000000000000000028152600401808273ffffffffffffffffffffffffffffffffffffffff1673ffffffffffffffffffffffffffffffffffffffff16815260200191505060206040518083038186803b158015611afd57600080fd5b505afa158015611b11573d6000803e3d6000fd5b505050506040513d6020811015611b2757600080fd5b81019080805190602001909291905050505b1515611b4457600080fd5b82600560008673ffffffffffffffffffffffffffffffffffffffff1673ffffffffffffffffffffffffffffffffffffffff168152602001908152602001600020541115611cee576000611bdf84600560008873ffffffffffffffffffffffffffffffffffffffff1673ffffffffffffffffffffffffffffffffffffffff1681526020019081526020016000205461217e90919063ffffffff16565b9050600160009054906101000a900473ffffffffffffffffffffffffffffffffffffffff1673ffffffffffffffffffffffffffffffffffffffff166340c10f1986836040518363ffffffff167c0100000000000000000000000000000000000000000000000000000000028152600401808373ffffffffffffffffffffffffffffffffffffffff1673ffffffffffffffffffffffffffffffffffffffff16815260200182815260200192505050602060405180830381600087803b158015611ca657600080fd5b505af1158015611cba573d6000803e3d6000fd5b505050506040513d6020811015611cd057600080fd5b81019080805190602001909291905050501515611cec57600080fd5b505b6000611cfa8583610eeb565b90506000611d088284610e11565b9050611d16868686846123f3565b600560008b73ffffffffffffffffffffffffffffffffffffffff1673ffffffffffffffffffffffffffffffffffffffff1681526020019081526020016000206000600660008d73ffffffffffffffffffffffffffffffffffffffff1673ffffffffffffffffffffffffffffffffffffffff168152602001908152602001600020600060076000600b6000889190505587919050558691905055859190505550505050611dcd81600a5461236990919063ffffffff16565b600a81905550505050505050565b60075481565b600b5481565b600a5481565b6000600460008373ffffffffffffffffffffffffffffffffffffffff1673ffffffffffffffffffffffffffffffffffffffff168152602001908152602001600020600101549050919050565b600e60009054906101000a900473ffffffffffffffffffffffffffffffffffffffff1681565b6000600460008373ffffffffffffffffffffffffffffffffffffffff1673ffffffffffffffffffffffffffffffffffffffff168152602001908152602001600020600001549050919050565b6000349050611f0281600560003373ffffffffffffffffffffffffffffffffffffffff1673ffffffffffffffffffffffffffffffffffffffff1681526020019081526020016000205461236990919063ffffffff16565b600560003373ffffffffffffffffffffffffffffffffffffffff1673ffffffffffffffffffffffffffffffffffffffff16815260200190815260200160002081905550611f9781600660003373ffffffffffffffffffffffffffffffffffffffff1673ffffffffffffffffffffffffffffffffffffffff1681526020019081526020016000205461236990919063ffffffff16565b600660003373ffffffffffffffffffffffffffffffffffffffff1673ffffffffffffffffffffffffffffffffffffffff16815260200190815260200160002081905550611fef8160075461236990919063ffffffff16565b6007819055503373ffffffffffffffffffffffffffffffffffffffff167f2da466a7b24304f47e87fa2e1e5a81b9831ce54fec19055ce277ca2f39ba42c4826040518082815260200191505060405180910390a250565b6000600854905090565b600061205a610811565b9050600081111561211157600a54600460003373ffffffffffffffffffffffffffffffffffffffff1673ffffffffffffffffffffffffffffffffffffffff168152602001908152602001600020600101819055506120c38160095461236990919063ffffffff16565b6009819055503373ffffffffffffffffffffffffffffffffffffffff166108fc829081150290604051600060405180830381858888f1935050505015801561210f573d6000803e3d6000fd5b505b50565b60008173ffffffffffffffffffffffffffffffffffffffff16319050919050565b6000600560008373ffffffffffffffffffffffffffffffffffffffff1673ffffffffffffffffffffffffffffffffffffffff168152602001908152602001600020549050919050565b60008282111515156121f8576040517f08c379a000000000000000000000000000000000000000000000000000000000815260040180806020018281038252601e8152602001807f536166654d6174683a207375627472616374696f6e206f766572666c6f77000081525060200191505060405180910390fd5b600082840390508091505092915050565b60008083141561221c57600090506122d0565b6000828402905082848281151561222f57fe5b041415156122cb576040517f08c379a00000000000000000000000000000000000000000000000000000000081526004018080602001828103825260218152602001807f536166654d6174683a206d756c7469706c69636174696f6e206f766572666c6f81526020017f770000000000000000000000000000000000000000000000000000000000000081525060400191505060405180910390fd5b809150505b92915050565b6000808211151561234f576040517f08c379a000000000000000000000000000000000000000000000000000000000815260040180806020018281038252601a8152602001807f536166654d6174683a206469766973696f6e206279207a65726f00000000000081525060200191505060405180910390fd5b6000828481151561235c57fe5b0490508091505092915050565b60008082840190508381101515156123e9576040517f08c379a000000000000000000000000000000000000000000000000000000000815260040180806020018281038252601b8152602001807f536166654d6174683a206164646974696f6e206f766572666c6f77000000000081525060200191505060405180910390fd5b8091505092915050565b600080600080600080600061247688612468600560008f73ffffffffffffffffffffffffffffffffffffffff1673ffffffffffffffffffffffffffffffffffffffff1681526020019081526020016000205461245a8e60075461236990919063ffffffff16565b61217e90919063ffffffff16565b61217e90919063ffffffff16565b905060006124ba600b546124ac600a543073ffffffffffffffffffffffffffffffffffffffff163161217e90919063ffffffff16565b61217e90919063ffffffff16565b9050808211156124dd576124d7818361217e90919063ffffffff16565b93508091505b83600b54101515612504576124fd84600b5461217e90919063ffffffff16565b9250612509565b600092505b61252e89612520868e61217e90919063ffffffff16565b61217e90919063ffffffff16565b9a5061255589612547868d61217e90919063ffffffff16565b61217e90919063ffffffff16565b99508a8a838597509750975097505050505094509450945094905056fea165627a7a7230582096f97052398abbc13a149442e9f01fa822f4d8ef049035ba7cb443d5c012bcef0029",
  "source": "pragma solidity ^0.5.0;\r\n\r\nimport \"openzeppelin-solidity/contracts/utils/ReentrancyGuard.sol\";\r\nimport \"openzeppelin-solidity/contracts/math/SafeMath.sol\";\r\nimport \"./Oracle/PriceFeed.sol\";\r\nimport \"./Oracle/Medianizer.sol\";\r\nimport \"./Token.sol\";\r\nimport \"./Settings.sol\";\r\n\r\ncontract Depository is ReentrancyGuard{\r\n\r\n    using SafeMath for uint256;\r\n\r\n    ERC20Mintable token;\r\n    ERC20 mainToken;\r\n    Settings settings;\r\n\r\n    struct Staker {\r\n        uint256 amount;\r\n        uint256 prevAllTimeProfit;\r\n    }\r\n\r\n    mapping(address => Staker) private stakedFunds;\r\n    mapping(address => uint256) private balances;\r\n    mapping(address => uint256) private availableBalances;\r\n    \r\n    uint256 public totalBalance;\r\n    uint256 public totalStakedFunds;\r\n    uint256 public totalDividends;\r\n    uint256 public allTimeTotalProfit;\r\n    uint256 public marginBank;\r\n    uint256 private percentMultiplyer;\r\n    address public devAccount;\r\n    address public priceFeedSource;\r\n\r\n    event Deposited(address indexed payee, uint256 weiAmount);\r\n    event Withdrawn(address indexed payee, uint256 weiAmount);\r\n    event Staked(address indexed payee, uint256 weiAmount);\r\n    event Unstaked(address indexed payee, uint256 weiAmount);\r\n\r\n    constructor (\r\n        address _settingsAddress,\r\n        address _tokenAddress,\r\n        address _mainTokenAddress,\r\n        uint256 _percentMultiplyer,\r\n        address _priceFeedSource\r\n    ) public {\r\n        token = Token(_tokenAddress);\r\n        mainToken = Token(_mainTokenAddress);\r\n        settings = Settings(_settingsAddress);\r\n        percentMultiplyer = _percentMultiplyer;\r\n        devAccount = settings.getDevAccount();\r\n        priceFeedSource = _priceFeedSource;\r\n    }\r\n\r\n    function deposit() public payable {\r\n        uint256 amount = msg.value;\r\n        balances[msg.sender] = balances[msg.sender].add(amount);\r\n        availableBalances[msg.sender] = availableBalances[msg.sender].add(amount);\r\n        totalBalance = totalBalance.add(amount);\r\n        emit Deposited(msg.sender, amount);\r\n    }\r\n\r\n    function withdraw(uint256 amount) public nonReentrant{\r\n        require(availableBalances[msg.sender] >= amount);\r\n        balances[msg.sender] = balances[msg.sender].sub(amount);\r\n        totalBalance = totalBalance.sub(amount);\r\n        msg.sender.transfer(amount);\r\n\r\n        emit Withdrawn(msg.sender, amount);\r\n    }\r\n\r\n    function withdrawAll() public {\r\n        withdraw(balances[msg.sender]);\r\n    }\r\n\r\n    function stake(uint256 tokens) public payable {\r\n        require(msg.sender != address(0) && tokens != 0);\r\n        getDividends();\r\n        totalStakedFunds = totalStakedFunds.add(tokens);\r\n        stakedFunds[msg.sender].amount = stakedFunds[msg.sender].amount.add(tokens);\r\n        ERC20(address(mainToken)).transferFrom(msg.sender, address(this), tokens);\r\n        emit Staked(msg.sender, tokens);\r\n    }\r\n\r\n\r\n    function unstake(uint256 amount) public nonReentrant {\r\n        require(amount <= stakedFunds[msg.sender].amount && msg.sender != address(0));\r\n        getDividends();\r\n        totalStakedFunds = totalStakedFunds.sub(amount);\r\n        stakedFunds[msg.sender].amount = stakedFunds[msg.sender].amount.sub(amount);\r\n        ERC20(address(mainToken)).transfer(msg.sender, amount);\r\n        emit Unstaked(msg.sender, amount);\r\n    }\r\n\r\n    function getDividends() public  {\r\n        uint256 accountProfit =  calcAccountProfit();\r\n        if (accountProfit>0) {\r\n            stakedFunds[msg.sender].prevAllTimeProfit = allTimeTotalProfit;\r\n            totalDividends = totalDividends.add(accountProfit);           \r\n            msg.sender.transfer(accountProfit);\r\n        }\r\n    }\r\n\r\n    function updateBalances (address account, uint256 balance, uint256 availableBalance, uint256 feeValue) public  {\r\n        require(\r\n            settings.isContractTrusted(msg.sender) && \r\n            settings.isContractNotExpired(msg.sender) && \r\n          //  totalBalance >= balance &&\r\n            token.isMinter(address(this))\r\n        );\r\n\r\n        // if a loss occurs, create new tokens\r\n        if(balances[account] > balance) {\r\n            uint256 lossAmount = balances[account].sub(balance);\r\n            require(token.mint(account, lossAmount));\r\n        }\r\n\r\n        uint256 discountPercent = calcDiscountFeePercent(account, feeValue);\r\n        uint256 feeValueWithDiscount = calcFeeValueWithDiscount(discountPercent, feeValue);\r\n        (balances[account], availableBalances[account], totalBalance, marginBank) = calcBalances (account, balance, availableBalance, feeValueWithDiscount);\r\n\r\n        allTimeTotalProfit = allTimeTotalProfit.add(feeValueWithDiscount);\r\n\r\n    }\r\n\r\n\r\n    function calcBalances (address account, uint256 balance, uint256 availableBalance, uint256 feeValueWithDiscount) private view returns(uint256 _balance, uint256 _availableBalance, uint256 _newTotalBalance, uint256 _newMarginBank)  {\r\n        \r\n        uint256 diff;\r\n        uint256 newMarginBank;\r\n        uint256 newTotalBalance = totalBalance.add(balance).sub(balances[account]).sub(feeValueWithDiscount);\r\n        uint256 availableTotalBalance = address(this).balance.sub(allTimeTotalProfit).sub(marginBank);\r\n\r\n        if(newTotalBalance > availableTotalBalance) {\r\n            diff = newTotalBalance.sub(availableTotalBalance);\r\n            newTotalBalance = availableTotalBalance;\r\n        }\r\n\r\n        if(marginBank >= diff) {\r\n            newMarginBank = marginBank.sub(diff);\r\n        } else {\r\n            newMarginBank = 0;\r\n        }\r\n\r\n        balance = balance.sub(diff).sub(feeValueWithDiscount);\r\n        availableBalance = availableBalance.sub(diff).sub(feeValueWithDiscount);\r\n\r\n        return (balance, availableBalance, newTotalBalance, newMarginBank);\r\n\r\n    }\r\n    \r\n    function setLiquidationProfit(uint256 profit) public {\r\n        require(settings.isContractTrusted(msg.sender));\r\n\r\n        // the profit splitting on 2 parts: \r\n        // 1 - profit that all stakeholders take. Percentage is specified in liquidationProfit();\r\n        uint256 liquidationProfitValue = profit.mul(settings.liquidationProfit()).div(100);\r\n         \r\n        allTimeTotalProfit = allTimeTotalProfit.add(liquidationProfitValue);\r\n        totalBalance = totalBalance.sub(liquidationProfitValue);\r\n\r\n        // 2 - the rest goes to the margin bank fund\r\n        marginBank = marginBank.add(profit.sub(liquidationProfitValue));\r\n    }\r\n\r\n    /// View methods\r\n\r\n    function calcDiscountFeePercent(address account, uint256 feeValue) public view returns (uint256){\r\n        uint256 discountPercent;\r\n        uint256 accountTokenBalance = token.balanceOf(account);\r\n        uint256 tokenTotalSupply = token.totalSupply();\r\n\r\n        if(tokenTotalSupply>0) discountPercent = accountTokenBalance.mul(percentMultiplyer.mul(100)).mul(settings.feeDiscountIndex()).div(tokenTotalSupply);\r\n        if(feeValue==0 || discountPercent >= percentMultiplyer.mul(percentMultiplyer)) {\r\n            return percentMultiplyer.mul(100);\r\n        }\r\n        return discountPercent;\r\n    }\r\n\r\n    function getAccountStakePercent(address account) public view returns (uint256){\r\n        if(totalStakedFunds==0) return 0;\r\n        return stakedFunds[account].amount.mul(percentMultiplyer.mul(100)).div(totalStakedFunds);\r\n    }\r\n\r\n    function calcAccountProfit() public view returns (uint256){\r\n        //if(stakedFunds[msg.sender].amount == 0) return 0;\r\n        uint256 stakePercent = getAccountStakePercent(msg.sender);\r\n        uint256 unreleasedProfit = allTimeTotalProfit.sub(stakedFunds[msg.sender].prevAllTimeProfit);\r\n        uint256 profit = unreleasedProfit.mul(stakePercent).div(percentMultiplyer.mul(100));\r\n        return profit;\r\n    }\r\n\r\n    function calcFeeValueWithDiscount(uint256 discountPercent, uint256 feeValue) public view returns (uint256){\r\n        return feeValue.mul(percentMultiplyer.mul(100).sub(discountPercent)).div(percentMultiplyer.mul(100));\r\n    }\r\n\r\n    function getBalance (address account) public view returns(uint256) {\r\n        return balances[account];\r\n    }\r\n    \r\n    function getAvailableBalance (address account) public view returns(uint256) {\r\n        return availableBalances[account];\r\n    }\r\n\r\n    function getStakedFundsOf(address account) public view returns(uint256) {\r\n        return stakedFunds[account].amount;\r\n    }\r\n    function getPrevAllTimeProfit(address account) public view returns(uint256) {\r\n        return stakedFunds[account].prevAllTimeProfit;\r\n    }\r\n\r\n    function getTotalStakedFunds() public view returns(uint256) {\r\n        return totalStakedFunds;\r\n    }\r\n\r\n    /// @dev returns the USDETH price, ie gets the USD price from Maker feed with 9 digits\r\n    function getUSDETHPrice() public pure returns (uint256) {\r\n\r\n        //(bytes32 price, ) = Medianizer(priceFeedSource).peek();\r\n        uint256 price = 140000000000000000000; //only for testing purposes\r\n        \r\n        // ensuring that there is no underflow or overflow possible,\r\n        // even if the price is compromised\r\n        uint priceUint = uint256(price).div(10**9);\r\n        if (priceUint == 0) {\r\n            return 1;\r\n        }\r\n        uint256 maxval = 1000000*10**9;\r\n        if (priceUint > maxval) {\r\n            return maxval;\r\n        }\r\n        return priceUint;\r\n    }\r\n\r\n    //////// testing \r\n    function getWalletBalance (address account) public view returns(uint256) {\r\n        return address(account).balance;\r\n    }\r\n\r\n\r\n\r\n}\r\n",
  "sourcePath": "/home/arct/projects/etherhedge/contracts/Depository.sol",
  "compiler": {
    "name": "solc",
    "version": "0.5.0+commit.1d4f565a.Emscripten.clang"
  },
  "schemaVersion": "3.0.9",
  "updatedAt": "2019-07-04T01:38:47.498Z",
  "devdoc": {
    "methods": {
      "getUSDETHPrice()": {
        "details": "returns the USDETH price, ie gets the USD price from Maker feed with 9 digits"
      }
    }
  },
  "userdoc": {
    "methods": {
      "calcDiscountFeePercent(address,uint256)": {
        "notice": "View methods"
      },
      "getWalletBalance(address)": {
        "notice": "///// testing "
      }
    }
  }
}