{
  "contractName": "Depository",
  "abi": [
    {
      "constant": true,
      "inputs": [],
      "name": "debt",
      "outputs": [
        {
          "name": "",
          "type": "uint256"
        }
      ],
      "payable": false,
      "stateMutability": "view",
      "type": "function"
    },
    {
      "constant": true,
      "inputs": [],
      "name": "totalStakedFunds",
      "outputs": [
        {
          "name": "",
          "type": "uint256"
        }
      ],
      "payable": false,
      "stateMutability": "view",
      "type": "function"
    },
    {
      "constant": true,
      "inputs": [],
      "name": "allTimeProfit",
      "outputs": [
        {
          "name": "",
          "type": "uint256"
        }
      ],
      "payable": false,
      "stateMutability": "view",
      "type": "function"
    },
    {
      "constant": true,
      "inputs": [],
      "name": "totalDividends",
      "outputs": [
        {
          "name": "",
          "type": "uint256"
        }
      ],
      "payable": false,
      "stateMutability": "view",
      "type": "function"
    },
    {
      "constant": true,
      "inputs": [],
      "name": "marginBank",
      "outputs": [
        {
          "name": "",
          "type": "uint256"
        }
      ],
      "payable": false,
      "stateMutability": "view",
      "type": "function"
    },
    {
      "inputs": [
        {
          "name": "_settingsAddress",
          "type": "address"
        },
        {
          "name": "_tokenAddress",
          "type": "address"
        },
        {
          "name": "_mainTokenAddress",
          "type": "address"
        }
      ],
      "payable": true,
      "stateMutability": "payable",
      "type": "constructor"
    },
    {
      "payable": true,
      "stateMutability": "payable",
      "type": "fallback"
    },
    {
      "anonymous": false,
      "inputs": [
        {
          "indexed": true,
          "name": "payee",
          "type": "address"
        },
        {
          "indexed": false,
          "name": "weiAmount",
          "type": "uint256"
        }
      ],
      "name": "Deposited",
      "type": "event"
    },
    {
      "anonymous": false,
      "inputs": [
        {
          "indexed": true,
          "name": "payee",
          "type": "address"
        },
        {
          "indexed": false,
          "name": "weiAmount",
          "type": "uint256"
        }
      ],
      "name": "Withdrawn",
      "type": "event"
    },
    {
      "anonymous": false,
      "inputs": [
        {
          "indexed": true,
          "name": "payee",
          "type": "address"
        },
        {
          "indexed": false,
          "name": "weiAmount",
          "type": "uint256"
        }
      ],
      "name": "Staked",
      "type": "event"
    },
    {
      "anonymous": false,
      "inputs": [
        {
          "indexed": true,
          "name": "payee",
          "type": "address"
        },
        {
          "indexed": false,
          "name": "weiAmount",
          "type": "uint256"
        }
      ],
      "name": "Unstaked",
      "type": "event"
    },
    {
      "anonymous": false,
      "inputs": [
        {
          "indexed": true,
          "name": "account",
          "type": "address"
        },
        {
          "indexed": false,
          "name": "amount",
          "type": "uint256"
        },
        {
          "indexed": false,
          "name": "allTimeProfit",
          "type": "uint256"
        }
      ],
      "name": "DividendsLog",
      "type": "event"
    },
    {
      "anonymous": false,
      "inputs": [
        {
          "indexed": false,
          "name": "account",
          "type": "address"
        },
        {
          "indexed": false,
          "name": "amount",
          "type": "uint256"
        }
      ],
      "name": "RecievedLog",
      "type": "event"
    },
    {
      "constant": false,
      "inputs": [],
      "name": "deposit",
      "outputs": [],
      "payable": true,
      "stateMutability": "payable",
      "type": "function"
    },
    {
      "constant": false,
      "inputs": [
        {
          "name": "amount",
          "type": "uint256"
        }
      ],
      "name": "withdraw",
      "outputs": [],
      "payable": false,
      "stateMutability": "nonpayable",
      "type": "function"
    },
    {
      "constant": false,
      "inputs": [
        {
          "name": "tokens",
          "type": "uint256"
        }
      ],
      "name": "stake",
      "outputs": [],
      "payable": true,
      "stateMutability": "payable",
      "type": "function"
    },
    {
      "constant": false,
      "inputs": [
        {
          "name": "amount",
          "type": "uint256"
        }
      ],
      "name": "unstake",
      "outputs": [],
      "payable": false,
      "stateMutability": "nonpayable",
      "type": "function"
    },
    {
      "constant": false,
      "inputs": [],
      "name": "getDividends",
      "outputs": [],
      "payable": false,
      "stateMutability": "nonpayable",
      "type": "function"
    },
    {
      "constant": false,
      "inputs": [
        {
          "name": "account",
          "type": "address"
        },
        {
          "name": "balance",
          "type": "uint256"
        },
        {
          "name": "availableBalance",
          "type": "uint256"
        },
        {
          "name": "feeValue",
          "type": "uint256"
        },
        {
          "name": "closePosition",
          "type": "bool"
        }
      ],
      "name": "updateBalances",
      "outputs": [],
      "payable": false,
      "stateMutability": "nonpayable",
      "type": "function"
    },
    {
      "constant": false,
      "inputs": [
        {
          "name": "sum",
          "type": "uint256"
        }
      ],
      "name": "decreaseMarginBank",
      "outputs": [],
      "payable": false,
      "stateMutability": "nonpayable",
      "type": "function"
    },
    {
      "constant": false,
      "inputs": [
        {
          "name": "profit",
          "type": "uint256"
        }
      ],
      "name": "setProfit",
      "outputs": [],
      "payable": false,
      "stateMutability": "nonpayable",
      "type": "function"
    },
    {
      "constant": true,
      "inputs": [
        {
          "name": "account",
          "type": "address"
        },
        {
          "name": "feeValue",
          "type": "uint256"
        }
      ],
      "name": "calcDiscountFeePercent",
      "outputs": [
        {
          "name": "",
          "type": "uint256"
        }
      ],
      "payable": false,
      "stateMutability": "view",
      "type": "function"
    },
    {
      "constant": true,
      "inputs": [
        {
          "name": "account",
          "type": "address"
        }
      ],
      "name": "getAccountStakePercent",
      "outputs": [
        {
          "name": "",
          "type": "uint256"
        }
      ],
      "payable": false,
      "stateMutability": "view",
      "type": "function"
    },
    {
      "constant": true,
      "inputs": [],
      "name": "calcAccountProfit",
      "outputs": [
        {
          "name": "",
          "type": "uint256"
        }
      ],
      "payable": false,
      "stateMutability": "view",
      "type": "function"
    },
    {
      "constant": true,
      "inputs": [
        {
          "name": "discountPercent",
          "type": "uint256"
        },
        {
          "name": "feeValue",
          "type": "uint256"
        }
      ],
      "name": "calcFeeValueWithDiscount",
      "outputs": [
        {
          "name": "",
          "type": "uint256"
        }
      ],
      "payable": false,
      "stateMutability": "view",
      "type": "function"
    },
    {
      "constant": true,
      "inputs": [
        {
          "name": "account",
          "type": "address"
        }
      ],
      "name": "getBalance",
      "outputs": [
        {
          "name": "",
          "type": "uint256"
        }
      ],
      "payable": false,
      "stateMutability": "view",
      "type": "function"
    },
    {
      "constant": true,
      "inputs": [
        {
          "name": "account",
          "type": "address"
        }
      ],
      "name": "getAvailableBalance",
      "outputs": [
        {
          "name": "",
          "type": "uint256"
        }
      ],
      "payable": false,
      "stateMutability": "view",
      "type": "function"
    },
    {
      "constant": true,
      "inputs": [
        {
          "name": "account",
          "type": "address"
        }
      ],
      "name": "getStakedFundsOf",
      "outputs": [
        {
          "name": "",
          "type": "uint256"
        }
      ],
      "payable": false,
      "stateMutability": "view",
      "type": "function"
    },
    {
      "constant": true,
      "inputs": [
        {
          "name": "account",
          "type": "address"
        }
      ],
      "name": "getPrevAllTimeProfit",
      "outputs": [
        {
          "name": "",
          "type": "uint256"
        }
      ],
      "payable": false,
      "stateMutability": "view",
      "type": "function"
    },
    {
      "constant": true,
      "inputs": [],
      "name": "getTotalStakedFunds",
      "outputs": [
        {
          "name": "",
          "type": "uint256"
        }
      ],
      "payable": false,
      "stateMutability": "view",
      "type": "function"
    },
    {
      "constant": true,
      "inputs": [],
      "name": "getUSDETHPrice",
      "outputs": [
        {
          "name": "",
          "type": "uint256"
        }
      ],
      "payable": false,
      "stateMutability": "view",
      "type": "function"
    }
  ],
  "bytecode": "0x60806040526064600d5560405160608061298c8339810180604052606081101561002857600080fd5b81019080805190602001909291908051906020019092919080519060200190929190505050600160008190555081600160006101000a81548173ffffffffffffffffffffffffffffffffffffffff021916908373ffffffffffffffffffffffffffffffffffffffff16021790555080600260006101000a81548173ffffffffffffffffffffffffffffffffffffffff021916908373ffffffffffffffffffffffffffffffffffffffff16021790555082600360006101000a81548173ffffffffffffffffffffffffffffffffffffffff021916908373ffffffffffffffffffffffffffffffffffffffff1602179055505050506128628061012a6000396000f3fe608060405260043610610133576000357c0100000000000000000000000000000000000000000000000000000000900463ffffffff1680630dca59c1146101bb57806318ec2d5c146101e6578063236df802146102115780632e17de781461023c5780632e1a7d4d146102775780636312b7fd146102b25780636c24a76f1461030b5780637260cc131461037057806377a2c680146103df57806380a7f3811461040a5780638411b007146104455780638c7513f814610480578063997664d7146104e5578063a3ca17b214610510578063a694fc3a1461053b578063ad8f1eab14610569578063c052f47d14610594578063c7c551b6146105f9578063d0e30db01461065e578063dbbb3c6f14610668578063e2abad47146106e3578063ed442e141461070e578063f8b2cb4f14610725575b61014834600a5461078a90919063ffffffff16565b600a819055507f3735707bdeeebc6deefbfabf3c2b3ca9bb68a00601b568f0581ffdc3b387630e3334604051808373ffffffffffffffffffffffffffffffffffffffff1673ffffffffffffffffffffffffffffffffffffffff1681526020018281526020019250505060405180910390a1005b3480156101c757600080fd5b506101d0610814565b6040518082815260200191505060405180910390f35b3480156101f257600080fd5b506101fb61081a565b6040518082815260200191505060405180910390f35b34801561021d57600080fd5b50610226610820565b6040518082815260200191505060405180910390f35b34801561024857600080fd5b506102756004803603602081101561025f57600080fd5b81019080803590602001909291905050506108d0565b005b34801561028357600080fd5b506102b06004803603602081101561029a57600080fd5b8101908080359060200190929190505050610c6c565b005b3480156102be57600080fd5b506102f5600480360360408110156102d557600080fd5b810190808035906020019092919080359060200190929190505050610f0c565b6040518082815260200191505060405180910390f35b34801561031757600080fd5b5061035a6004803603602081101561032e57600080fd5b81019080803573ffffffffffffffffffffffffffffffffffffffff169060200190929190505050610f77565b6040518082815260200191505060405180910390f35b34801561037c57600080fd5b506103c96004803603604081101561039357600080fd5b81019080803573ffffffffffffffffffffffffffffffffffffffff16906020019092919080359060200190929190505050610fc0565b6040518082815260200191505060405180910390f35b3480156103eb57600080fd5b506103f46112ed565b6040518082815260200191505060405180910390f35b34801561041657600080fd5b506104436004803603602081101561042d57600080fd5b81019080803590602001909291905050506112f3565b005b34801561045157600080fd5b5061047e6004803603602081101561046857600080fd5b81019080803590602001909291905050506116d5565b005b34801561048c57600080fd5b506104cf600480360360208110156104a357600080fd5b81019080803573ffffffffffffffffffffffffffffffffffffffff16906020019092919050505061183b565b6040518082815260200191505060405180910390f35b3480156104f157600080fd5b506104fa6118d6565b6040518082815260200191505060405180910390f35b34801561051c57600080fd5b506105256118dc565b6040518082815260200191505060405180910390f35b6105676004803603602081101561055157600080fd5b8101908080359060200190929190505050611aa2565b005b34801561057557600080fd5b5061057e611d2f565b6040518082815260200191505060405180910390f35b3480156105a057600080fd5b506105e3600480360360208110156105b757600080fd5b81019080803573ffffffffffffffffffffffffffffffffffffffff169060200190929190505050611d35565b6040518082815260200191505060405180910390f35b34801561060557600080fd5b506106486004803603602081101561061c57600080fd5b81019080803573ffffffffffffffffffffffffffffffffffffffff169060200190929190505050611d81565b6040518082815260200191505060405180910390f35b610666611dcd565b005b34801561067457600080fd5b506106e1600480360360a081101561068b57600080fd5b81019080803573ffffffffffffffffffffffffffffffffffffffff169060200190929190803590602001909291908035906020019092919080359060200190929190803515159060200190929190505050611f4d565b005b3480156106ef57600080fd5b506106f86123f9565b6040518082815260200191505060405180910390f35b34801561071a57600080fd5b50610723612403565b005b34801561073157600080fd5b506107746004803603602081101561074857600080fd5b81019080803573ffffffffffffffffffffffffffffffffffffffff169060200190929190505050612602565b6040518082815260200191505060405180910390f35b600080828401905083811015151561080a576040517f08c379a000000000000000000000000000000000000000000000000000000000815260040180806020018281038252601b8152602001807f536166654d6174683a206164646974696f6e206f766572666c6f77000000000081525060200191505060405180910390fd5b8091505092915050565b600c5481565b60085481565b60008061082c3361183b565b90506000610887600460003373ffffffffffffffffffffffffffffffffffffffff1673ffffffffffffffffffffffffffffffffffffffff16815260200190815260200160002060010154600a5461264b90919063ffffffff16565b905060006108c56108a46064600d546126d690919063ffffffff16565b6108b785856126d690919063ffffffff16565b6127a390919063ffffffff16565b905080935050505090565b600460003373ffffffffffffffffffffffffffffffffffffffff1673ffffffffffffffffffffffffffffffffffffffff16815260200190815260200160002060000154811115801561094f5750600073ffffffffffffffffffffffffffffffffffffffff163373ffffffffffffffffffffffffffffffffffffffff1614155b151561095a57600080fd5b600360009054906101000a900473ffffffffffffffffffffffffffffffffffffffff1673ffffffffffffffffffffffffffffffffffffffff1663ab41daa4336040518263ffffffff167c0100000000000000000000000000000000000000000000000000000000028152600401808273ffffffffffffffffffffffffffffffffffffffff1673ffffffffffffffffffffffffffffffffffffffff16815260200191505060206040518083038186803b158015610a1557600080fd5b505afa158015610a29573d6000803e3d6000fd5b505050506040513d6020811015610a3f57600080fd5b8101908080519060200190929190505050151515610a5c57600080fd5b610a64612403565b610a798160085461264b90919063ffffffff16565b600881905550610ad481600460003373ffffffffffffffffffffffffffffffffffffffff1673ffffffffffffffffffffffffffffffffffffffff1681526020019081526020016000206000015461264b90919063ffffffff16565b600460003373ffffffffffffffffffffffffffffffffffffffff1673ffffffffffffffffffffffffffffffffffffffff16815260200190815260200160002060000181905550600260009054906101000a900473ffffffffffffffffffffffffffffffffffffffff1673ffffffffffffffffffffffffffffffffffffffff1663a9059cbb33836040518363ffffffff167c0100000000000000000000000000000000000000000000000000000000028152600401808373ffffffffffffffffffffffffffffffffffffffff1673ffffffffffffffffffffffffffffffffffffffff16815260200182815260200192505050602060405180830381600087803b158015610bdf57600080fd5b505af1158015610bf3573d6000803e3d6000fd5b505050506040513d6020811015610c0957600080fd5b8101908080519060200190929190505050503373ffffffffffffffffffffffffffffffffffffffff167f0f5bb82176feb1b5e747e28471aa92156a04d9f3ab9f45f28e2d704232b93f75826040518082815260200191505060405180910390a250565b6001600080828254019250508190555060008054905081600660003373ffffffffffffffffffffffffffffffffffffffff1673ffffffffffffffffffffffffffffffffffffffff1681526020019081526020016000205410151515610cd057600080fd5b610d2282600560003373ffffffffffffffffffffffffffffffffffffffff1673ffffffffffffffffffffffffffffffffffffffff1681526020019081526020016000205461264b90919063ffffffff16565b600560003373ffffffffffffffffffffffffffffffffffffffff1673ffffffffffffffffffffffffffffffffffffffff16815260200190815260200160002081905550610db782600660003373ffffffffffffffffffffffffffffffffffffffff1673ffffffffffffffffffffffffffffffffffffffff1681526020019081526020016000205461264b90919063ffffffff16565b600660003373ffffffffffffffffffffffffffffffffffffffff1673ffffffffffffffffffffffffffffffffffffffff168152602001908152602001600020819055503373ffffffffffffffffffffffffffffffffffffffff166108fc839081150290604051600060405180830381858888f19350505050158015610e40573d6000803e3d6000fd5b503373ffffffffffffffffffffffffffffffffffffffff167f7084f5476618d8e60b11ef0d7d3f06914655adb8793e28ff7f018d4c76d505d5836040518082815260200191505060405180910390a260005481141515610f08576040517f08c379a000000000000000000000000000000000000000000000000000000000815260040180806020018281038252601f8152602001807f5265656e7472616e637947756172643a207265656e7472616e742063616c6c0081525060200191505060405180910390fd5b5050565b6000610f6f610f276064600d546126d690919063ffffffff16565b610f61610f5286610f446064600d546126d690919063ffffffff16565b61264b90919063ffffffff16565b856126d690919063ffffffff16565b6127a390919063ffffffff16565b905092915050565b6000600660008373ffffffffffffffffffffffffffffffffffffffff1673ffffffffffffffffffffffffffffffffffffffff168152602001908152602001600020549050919050565b6000806000600160009054906101000a900473ffffffffffffffffffffffffffffffffffffffff1673ffffffffffffffffffffffffffffffffffffffff166370a08231866040518263ffffffff167c0100000000000000000000000000000000000000000000000000000000028152600401808273ffffffffffffffffffffffffffffffffffffffff1673ffffffffffffffffffffffffffffffffffffffff16815260200191505060206040518083038186803b15801561108057600080fd5b505afa158015611094573d6000803e3d6000fd5b505050506040513d60208110156110aa57600080fd5b810190808051906020019092919050505090506000600160009054906101000a900473ffffffffffffffffffffffffffffffffffffffff1673ffffffffffffffffffffffffffffffffffffffff166318160ddd6040518163ffffffff167c010000000000000000000000000000000000000000000000000000000002815260040160206040518083038186803b15801561114357600080fd5b505afa158015611157573d6000803e3d6000fd5b505050506040513d602081101561116d57600080fd5b8101908080519060200190929190505050905060008111156112965761129381611285600360009054906101000a900473ffffffffffffffffffffffffffffffffffffffff1673ffffffffffffffffffffffffffffffffffffffff166366d4047a6040518163ffffffff167c010000000000000000000000000000000000000000000000000000000002815260040160206040518083038186803b15801561121457600080fd5b505afa158015611228573d6000803e3d6000fd5b505050506040513d602081101561123e57600080fd5b81019080805190602001909291905050506112776112686064600d546126d690919063ffffffff16565b876126d690919063ffffffff16565b6126d690919063ffffffff16565b6127a390919063ffffffff16565b92505b60008514806112bb57506112b7600d54600d546126d690919063ffffffff16565b8310155b156112e0576112d66064600d546126d690919063ffffffff16565b93505050506112e7565b8293505050505b92915050565b600a5481565b600360009054906101000a900473ffffffffffffffffffffffffffffffffffffffff1673ffffffffffffffffffffffffffffffffffffffff166245e4e3336040518263ffffffff167c0100000000000000000000000000000000000000000000000000000000028152600401808273ffffffffffffffffffffffffffffffffffffffff1673ffffffffffffffffffffffffffffffffffffffff16815260200191505060206040518083038186803b1580156113ad57600080fd5b505afa1580156113c1573d6000803e3d6000fd5b505050506040513d60208110156113d757600080fd5b810190808051906020019092919050505015156113f357600080fd5b60006114ed61140e6064600d546126d690919063ffffffff16565b6114df600360009054906101000a900473ffffffffffffffffffffffffffffffffffffffff1673ffffffffffffffffffffffffffffffffffffffff166387350e336040518163ffffffff167c010000000000000000000000000000000000000000000000000000000002815260040160206040518083038186803b15801561149557600080fd5b505afa1580156114a9573d6000803e3d6000fd5b505050506040513d60208110156114bf57600080fd5b8101908080519060200190929190505050856126d690919063ffffffff16565b6127a390919063ffffffff16565b905061150481600a5461078a90919063ffffffff16565b600a81905550600061162b6115256064600d546126d690919063ffffffff16565b61161d61160e600360009054906101000a900473ffffffffffffffffffffffffffffffffffffffff1673ffffffffffffffffffffffffffffffffffffffff166387350e336040518163ffffffff167c010000000000000000000000000000000000000000000000000000000002815260040160206040518083038186803b1580156115af57600080fd5b505afa1580156115c3573d6000803e3d6000fd5b505050506040513d60208110156115d957600080fd5b81019080805190602001909291905050506116006064600d546126d690919063ffffffff16565b61264b90919063ffffffff16565b866126d690919063ffffffff16565b6127a390919063ffffffff16565b9050600b54600c5411156116a25780600c5411156116635761165881600c5461264b90919063ffffffff16565b600c8190555061169d565b6000600c81905550611696611685600b54600c5461264b90919063ffffffff16565b600b5461078a90919063ffffffff16565b600b819055505b6116d0565b6116c96116b8828561264b90919063ffffffff16565b600b5461078a90919063ffffffff16565b600b819055505b505050565b600360009054906101000a900473ffffffffffffffffffffffffffffffffffffffff1673ffffffffffffffffffffffffffffffffffffffff166245e4e3336040518263ffffffff167c0100000000000000000000000000000000000000000000000000000000028152600401808273ffffffffffffffffffffffffffffffffffffffff1673ffffffffffffffffffffffffffffffffffffffff16815260200191505060206040518083038186803b15801561178f57600080fd5b505afa1580156117a3573d6000803e3d6000fd5b505050506040513d60208110156117b957600080fd5b810190808051906020019092919050505015156117d557600080fd5b80600b54101515611800576117f581600b5461264b90919063ffffffff16565b600b81905550611838565b611829611818600b548361264b90919063ffffffff16565b600c5461078a90919063ffffffff16565b600c819055506000600b819055505b50565b600080600854141561185057600090506118d1565b6118ce6008546118c061186f6064600d546126d690919063ffffffff16565b600460008773ffffffffffffffffffffffffffffffffffffffff1673ffffffffffffffffffffffffffffffffffffffff168152602001908152602001600020600001546126d690919063ffffffff16565b6127a390919063ffffffff16565b90505b919050565b60095481565b600080600360009054906101000a900473ffffffffffffffffffffffffffffffffffffffff1673ffffffffffffffffffffffffffffffffffffffff1663993d5fce6040518163ffffffff167c010000000000000000000000000000000000000000000000000000000002815260040160206040518083038186803b15801561196357600080fd5b505afa158015611977573d6000803e3d6000fd5b505050506040513d602081101561198d57600080fd5b810190808051906020019092919050505073ffffffffffffffffffffffffffffffffffffffff166359e02dd76040518163ffffffff167c0100000000000000000000000000000000000000000000000000000000028152600401604080518083038186803b1580156119fe57600080fd5b505afa158015611a12573d6000803e3d6000fd5b505050506040513d6040811015611a2857600080fd5b8101908080519060200190929190805190602001909291905050505090506000611a63633b9aca0083600190046127a390919063ffffffff16565b90506000811415611a7957600192505050611a9f565b600066038d7ea4c68000905080821115611a9857809350505050611a9f565b8193505050505b90565b600073ffffffffffffffffffffffffffffffffffffffff163373ffffffffffffffffffffffffffffffffffffffff1614158015611ae0575060008114155b1515611aeb57600080fd5b611af3612403565b600260009054906101000a900473ffffffffffffffffffffffffffffffffffffffff1673ffffffffffffffffffffffffffffffffffffffff166323b872dd3330846040518463ffffffff167c0100000000000000000000000000000000000000000000000000000000028152600401808473ffffffffffffffffffffffffffffffffffffffff1673ffffffffffffffffffffffffffffffffffffffff1681526020018373ffffffffffffffffffffffffffffffffffffffff1673ffffffffffffffffffffffffffffffffffffffff1681526020018281526020019350505050602060405180830381600087803b158015611bec57600080fd5b505af1158015611c00573d6000803e3d6000fd5b505050506040513d6020811015611c1657600080fd5b810190808051906020019092919050505050611c3d8160085461078a90919063ffffffff16565b600881905550611c9881600460003373ffffffffffffffffffffffffffffffffffffffff1673ffffffffffffffffffffffffffffffffffffffff1681526020019081526020016000206000015461078a90919063ffffffff16565b600460003373ffffffffffffffffffffffffffffffffffffffff1673ffffffffffffffffffffffffffffffffffffffff168152602001908152602001600020600001819055503373ffffffffffffffffffffffffffffffffffffffff167f9e71bc8eea02a63969f509818f2dafb9254532904319f9dbda79b67bd34a5f3d826040518082815260200191505060405180910390a250565b600b5481565b6000600460008373ffffffffffffffffffffffffffffffffffffffff1673ffffffffffffffffffffffffffffffffffffffff168152602001908152602001600020600101549050919050565b6000600460008373ffffffffffffffffffffffffffffffffffffffff1673ffffffffffffffffffffffffffffffffffffffff168152602001908152602001600020600001549050919050565b6000349050611e2481600560003373ffffffffffffffffffffffffffffffffffffffff1673ffffffffffffffffffffffffffffffffffffffff1681526020019081526020016000205461078a90919063ffffffff16565b600560003373ffffffffffffffffffffffffffffffffffffffff1673ffffffffffffffffffffffffffffffffffffffff16815260200190815260200160002081905550611eb981600660003373ffffffffffffffffffffffffffffffffffffffff1673ffffffffffffffffffffffffffffffffffffffff1681526020019081526020016000205461078a90919063ffffffff16565b600660003373ffffffffffffffffffffffffffffffffffffffff1673ffffffffffffffffffffffffffffffffffffffff168152602001908152602001600020819055503373ffffffffffffffffffffffffffffffffffffffff167f2da466a7b24304f47e87fa2e1e5a81b9831ce54fec19055ce277ca2f39ba42c4826040518082815260200191505060405180910390a250565b600360009054906101000a900473ffffffffffffffffffffffffffffffffffffffff1673ffffffffffffffffffffffffffffffffffffffff166245e4e3336040518263ffffffff167c0100000000000000000000000000000000000000000000000000000000028152600401808273ffffffffffffffffffffffffffffffffffffffff1673ffffffffffffffffffffffffffffffffffffffff16815260200191505060206040518083038186803b15801561200757600080fd5b505afa15801561201b573d6000803e3d6000fd5b505050506040513d602081101561203157600080fd5b810190808051906020019092919050505080156121485750600360009054906101000a900473ffffffffffffffffffffffffffffffffffffffff1673ffffffffffffffffffffffffffffffffffffffff1663f9805041336040518263ffffffff167c0100000000000000000000000000000000000000000000000000000000028152600401808273ffffffffffffffffffffffffffffffffffffffff1673ffffffffffffffffffffffffffffffffffffffff16815260200191505060206040518083038186803b15801561210457600080fd5b505afa158015612118573d6000803e3d6000fd5b505050506040513d602081101561212e57600080fd5b8101908080519060200190929190505050806121475750805b5b151561215357600080fd5b83600560008773ffffffffffffffffffffffffffffffffffffffff1673ffffffffffffffffffffffffffffffffffffffff1681526020019081526020016000205411156122fd5760006121ee85600560008973ffffffffffffffffffffffffffffffffffffffff1673ffffffffffffffffffffffffffffffffffffffff1681526020019081526020016000205461264b90919063ffffffff16565b9050600160009054906101000a900473ffffffffffffffffffffffffffffffffffffffff1673ffffffffffffffffffffffffffffffffffffffff166340c10f1987836040518363ffffffff167c0100000000000000000000000000000000000000000000000000000000028152600401808373ffffffffffffffffffffffffffffffffffffffff1673ffffffffffffffffffffffffffffffffffffffff16815260200182815260200192505050602060405180830381600087803b1580156122b557600080fd5b505af11580156122c9573d6000803e3d6000fd5b505050506040513d60208110156122df57600080fd5b810190808051906020019092919050505015156122fb57600080fd5b505b60006123098684610fc0565b905060006123178285610f0c565b905061232e81600a5461078a90919063ffffffff16565b600a81905550808510151561236857612350818761264b90919063ffffffff16565b9550612365818661264b90919063ffffffff16565b94505b85600560008973ffffffffffffffffffffffffffffffffffffffff1673ffffffffffffffffffffffffffffffffffffffff1681526020019081526020016000208190555084600660008973ffffffffffffffffffffffffffffffffffffffff1673ffffffffffffffffffffffffffffffffffffffff1681526020019081526020016000208190555050505050505050565b6000600854905090565b600061240d610820565b905060008111156125b5573373ffffffffffffffffffffffffffffffffffffffff166108fc829081150290604051600060405180830381858888f1935050505015801561245e573d6000803e3d6000fd5b50600a54600460003373ffffffffffffffffffffffffffffffffffffffff1673ffffffffffffffffffffffffffffffffffffffff168152602001908152602001600020600101819055506124bd8160095461078a90919063ffffffff16565b60098190555061251581600760003373ffffffffffffffffffffffffffffffffffffffff1673ffffffffffffffffffffffffffffffffffffffff1681526020019081526020016000205461078a90919063ffffffff16565b600760003373ffffffffffffffffffffffffffffffffffffffff1673ffffffffffffffffffffffffffffffffffffffff168152602001908152602001600020819055503373ffffffffffffffffffffffffffffffffffffffff167f8dafec6cb3d6a0e09a73dcf359740786723368add5302962b471ee04f4cfb13d82600a54604051808381526020018281526020019250505060405180910390a26125ff565b600a54600460003373ffffffffffffffffffffffffffffffffffffffff1673ffffffffffffffffffffffffffffffffffffffff168152602001908152602001600020600101819055505b50565b6000600560008373ffffffffffffffffffffffffffffffffffffffff1673ffffffffffffffffffffffffffffffffffffffff168152602001908152602001600020549050919050565b60008282111515156126c5576040517f08c379a000000000000000000000000000000000000000000000000000000000815260040180806020018281038252601e8152602001807f536166654d6174683a207375627472616374696f6e206f766572666c6f77000081525060200191505060405180910390fd5b600082840390508091505092915050565b6000808314156126e9576000905061279d565b600082840290508284828115156126fc57fe5b04141515612798576040517f08c379a00000000000000000000000000000000000000000000000000000000081526004018080602001828103825260218152602001807f536166654d6174683a206d756c7469706c69636174696f6e206f766572666c6f81526020017f770000000000000000000000000000000000000000000000000000000000000081525060400191505060405180910390fd5b809150505b92915050565b6000808211151561281c576040517f08c379a000000000000000000000000000000000000000000000000000000000815260040180806020018281038252601a8152602001807f536166654d6174683a206469766973696f6e206279207a65726f00000000000081525060200191505060405180910390fd5b6000828481151561282957fe5b049050809150509291505056fea165627a7a723058200491c2d8f56695f0a72a7c1e0f4a0d7eb756e6ba7fa643a53d679d6b45f32d100029",
  "source": "pragma solidity ^0.5.0;\r\n\r\nimport \"openzeppelin-solidity/contracts/utils/ReentrancyGuard.sol\";\r\nimport \"openzeppelin-solidity/contracts/math/SafeMath.sol\";\r\nimport \"./Oracle/Medianizer.sol\";\r\nimport \"./Token.sol\";\r\nimport \"./Settings.sol\";\r\n\r\n/**\r\n * @title Depository\r\n * @dev The contract stores and manages all the funds of the project.\r\n */\r\ncontract Depository is ReentrancyGuard{\r\n\r\n    using SafeMath for uint256;\r\n\r\n    ERC20Mintable token;\r\n    ERC20 mainToken;\r\n    Settings settings;\r\n    \r\n\r\n    struct Staker {\r\n        uint256 amount;\r\n        uint256 prevAllTimeProfit;\r\n    }\r\n\r\n    mapping(address => Staker) private stakedFunds;\r\n    mapping(address => uint256) private balances;\r\n    mapping(address => uint256) private availableBalances;\r\n    mapping(address => uint256) private releasedDividends;\r\n\r\n    uint256 public totalStakedFunds;\r\n    uint256 public totalDividends;\r\n    uint256 public allTimeProfit;\r\n    uint256 public marginBank;\r\n    uint256 public debt;\r\n\r\n    uint256 private percentMultiplyer = 100;\r\n\r\n    event Deposited(address indexed payee, uint256 weiAmount);\r\n    event Withdrawn(address indexed payee, uint256 weiAmount);\r\n    event Staked(address indexed payee, uint256 weiAmount);\r\n    event Unstaked(address indexed payee, uint256 weiAmount);\r\n    event DividendsLog(address indexed account, uint256 amount, uint256 allTimeProfit);\r\n    event RecievedLog(address account, uint256 amount);\r\n    \r\n    /**\r\n     * @dev Constructor\r\n     */\r\n    constructor (\r\n        address _settingsAddress,\r\n        address _tokenAddress,\r\n        address _mainTokenAddress\r\n    ) public payable {\r\n        token = Token(_tokenAddress);\r\n        mainToken = Token(_mainTokenAddress);\r\n        settings = Settings(_settingsAddress);\r\n    }\r\n\r\n    /**\r\n     * @dev payable fallback\r\n     */\r\n    function() external payable {\r\n        allTimeProfit = allTimeProfit.add(msg.value);\r\n        emit RecievedLog(msg.sender, msg.value);\r\n     }\r\n\r\n    function deposit() public payable {\r\n        uint256 amount = msg.value;\r\n        balances[msg.sender] = balances[msg.sender].add(amount);\r\n        availableBalances[msg.sender] = availableBalances[msg.sender].add(amount);\r\n        emit Deposited(msg.sender, amount);\r\n    }\r\n\r\n    function withdraw(uint256 amount) public nonReentrant{\r\n        require(availableBalances[msg.sender] >= amount);\r\n        balances[msg.sender] = balances[msg.sender].sub(amount);\r\n        availableBalances[msg.sender] = availableBalances[msg.sender].sub(amount);\r\n        msg.sender.transfer(amount);\r\n        emit Withdrawn(msg.sender, amount);\r\n    }\r\n\r\n    function stake(uint256 tokens) public payable {\r\n        require(msg.sender != address(0) && tokens != 0);\r\n        getDividends();\r\n        ERC20(address(mainToken)).transferFrom(msg.sender, address(this), tokens);\r\n        totalStakedFunds = totalStakedFunds.add(tokens);\r\n        stakedFunds[msg.sender].amount = stakedFunds[msg.sender].amount.add(tokens);\r\n        emit Staked(msg.sender, tokens);\r\n    }\r\n\r\n    function unstake(uint256 amount) public  {\r\n        require(amount <= stakedFunds[msg.sender].amount && msg.sender != address(0));\r\n        require (!settings.stakeIsLocked(msg.sender));\r\n        getDividends();\r\n        totalStakedFunds = totalStakedFunds.sub(amount);\r\n        stakedFunds[msg.sender].amount = stakedFunds[msg.sender].amount.sub(amount);\r\n        ERC20(address(mainToken)).transfer(msg.sender, amount);\r\n        emit Unstaked(msg.sender, amount);\r\n    }\r\n\r\n    function getDividends() public {\r\n        uint256 accountProfit = calcAccountProfit();\r\n        if (accountProfit>0) {\r\n            msg.sender.transfer(accountProfit);\r\n            stakedFunds[msg.sender].prevAllTimeProfit = allTimeProfit;\r\n            totalDividends = totalDividends.add(accountProfit);    \r\n            releasedDividends[msg.sender] = releasedDividends[msg.sender].add(accountProfit); \r\n            emit DividendsLog(msg.sender, accountProfit, allTimeProfit);    \r\n        } else {\r\n            stakedFunds[msg.sender].prevAllTimeProfit = allTimeProfit;\r\n        }\r\n    }\r\n\r\n\r\n    function updateBalances (address account, uint256 balance, uint256 availableBalance, uint256 feeValue, bool closePosition) public  {\r\n        require(\r\n            settings.contractIsTrusted(msg.sender) && \r\n            (settings.contractIsNotExpired(msg.sender) || closePosition)\r\n        );\r\n\r\n        // if a loss occurs, create new tokens\r\n        if(balances[account] > balance) {\r\n            uint256 lossAmount = balances[account].sub(balance);\r\n            require(token.mint(account, lossAmount));\r\n        }\r\n\r\n        uint256 discountPercent = calcDiscountFeePercent(account, feeValue);\r\n        uint256 feeValueWithDiscount = calcFeeValueWithDiscount(discountPercent, feeValue);\r\n\r\n        allTimeProfit = allTimeProfit.add(feeValueWithDiscount);\r\n\r\n        if(availableBalance >= feeValueWithDiscount) {\r\n            balance = balance.sub(feeValueWithDiscount);\r\n            availableBalance = availableBalance.sub(feeValueWithDiscount);   \r\n        }\r\n\r\n        balances[account] = balance;\r\n        availableBalances[account] = availableBalance; \r\n\r\n    }\r\n\r\n    function decreaseMarginBank(uint256 sum) public {\r\n        require(settings.contractIsTrusted(msg.sender));\r\n        if(marginBank>=sum) {\r\n            marginBank = marginBank.sub(sum);\r\n        } else {\r\n            debt = debt.add(sum.sub(marginBank));\r\n            marginBank = 0;\r\n        }\r\n    }\r\n\r\n    \r\n    function setProfit(uint256 profit) public {\r\n        require(settings.contractIsTrusted(msg.sender));\r\n\r\n        // the profit splitting on 2 parts: \r\n        // 1 - profit that all stakeholders take. Percentage is specified in liquidationProfit();\r\n        uint256 liquidationProfitValue = profit.mul(settings.getLiquidationProfit()).div(percentMultiplyer.mul(100));\r\n         \r\n        allTimeProfit = allTimeProfit.add(liquidationProfitValue);\r\n\r\n        // 2 - the rest goes to the margin bank fund. If the system has a debt we cover debt.\r\n        uint256 marginBankProfitValue = profit.mul(percentMultiplyer.mul(100).sub(settings.getLiquidationProfit())).div(percentMultiplyer.mul(100));\r\n        if(debt > marginBank) {\r\n            if(debt > marginBankProfitValue) {\r\n                debt = debt.sub(marginBankProfitValue);\r\n            } else {\r\n                debt=0;\r\n                marginBank = marginBank.add(debt.sub(marginBank));\r\n            }\r\n        } else {\r\n            marginBank = marginBank.add(profit.sub(marginBankProfitValue));\r\n        }\r\n        \r\n    }\r\n\r\n    /// View methods\r\n\r\n    function calcDiscountFeePercent(address account, uint256 feeValue) public view returns (uint256){\r\n        uint256 discountPercent;\r\n        uint256 accountTokenBalance = token.balanceOf(account);\r\n        uint256 tokenTotalSupply = token.totalSupply();\r\n\r\n        if(tokenTotalSupply>0) discountPercent = accountTokenBalance.mul(percentMultiplyer.mul(100)).mul(settings.getFeeDiscountIndex()).div(tokenTotalSupply);\r\n        if(feeValue == 0 || discountPercent >= percentMultiplyer.mul(percentMultiplyer)) {\r\n            return percentMultiplyer.mul(100);\r\n        }\r\n        return discountPercent;\r\n    }\r\n\r\n    function getAccountStakePercent(address account) public view returns (uint256){\r\n        if(totalStakedFunds==0) return 0;\r\n        return stakedFunds[account].amount.mul(percentMultiplyer.mul(100)).div(totalStakedFunds);\r\n    }\r\n\r\n    function calcAccountProfit() public view returns (uint256){\r\n        uint256 stakePercent = getAccountStakePercent(msg.sender);\r\n        uint256 unreleasedProfit = allTimeProfit.sub(stakedFunds[msg.sender].prevAllTimeProfit);\r\n        uint256 profit = unreleasedProfit.mul(stakePercent).div(percentMultiplyer.mul(100));\r\n        return profit;\r\n    }\r\n\r\n    function calcFeeValueWithDiscount(uint256 discountPercent, uint256 feeValue) public view returns (uint256){\r\n        return feeValue.mul(percentMultiplyer.mul(100).sub(discountPercent)).div(percentMultiplyer.mul(100));\r\n    }\r\n\r\n    function getBalance (address account) public view returns(uint256) {\r\n        return balances[account];\r\n    }\r\n    \r\n    function getAvailableBalance (address account) public view returns(uint256) {\r\n        return availableBalances[account];\r\n    }\r\n\r\n    function getStakedFundsOf(address account) public view returns(uint256) {\r\n        return stakedFunds[account].amount;\r\n    }\r\n    function getPrevAllTimeProfit(address account) public view returns(uint256) {\r\n        return stakedFunds[account].prevAllTimeProfit;\r\n    }\r\n\r\n    function getTotalStakedFunds() public view returns(uint256) {\r\n        return totalStakedFunds;\r\n    }\r\n\r\n    /// @dev returns the USDETH price, ie gets the USD price from Maker feed with 9 digits\r\n    function getUSDETHPrice() public view returns (uint256) {\r\n\r\n        (bytes32 price, ) = Medianizer(settings.getPriceFeedSource()).peek();\r\n       // uint256 price = 230000000000000000000; //only for testing purposes\r\n        \r\n        // ensuring that there is no underflow or overflow possible,\r\n        // even if the price is compromised\r\n        uint priceUint = uint256(price).div(10**9);\r\n        if (priceUint == 0) {\r\n            return 1;\r\n        }\r\n        uint256 maxval = 1000000*10**9;\r\n        if (priceUint > maxval) {\r\n            return maxval;\r\n        }\r\n        return priceUint;\r\n    }\r\n\r\n}\r\n",
  "sourcePath": "/home/arct/projects/etherhedge/contracts/Depository.sol",
  "compiler": {
    "name": "solc",
    "version": "0.5.0+commit.1d4f565a.Emscripten.clang"
  },
  "schemaVersion": "3.0.9",
  "updatedAt": "2019-09-03T04:44:16.585Z",
  "devdoc": {
    "details": "The contract stores and manages all the funds of the project.\r",
    "methods": {
      "constructor": {
        "details": "Constructor\r"
      },
      "getUSDETHPrice()": {
        "details": "returns the USDETH price, ie gets the USD price from Maker feed with 9 digits"
      }
    },
    "title": "Depository\r"
  },
  "userdoc": {
    "methods": {
      "calcDiscountFeePercent(address,uint256)": {
        "notice": "View methods"
      }
    }
  }
}