{
  "contractName": "FutureContract",
  "abi": [
    {
      "constant": true,
      "inputs": [],
      "name": "lastPrice",
      "outputs": [
        {
          "name": "",
          "type": "uint256"
        }
      ],
      "payable": false,
      "stateMutability": "view",
      "type": "function"
    },
    {
      "constant": true,
      "inputs": [],
      "name": "totalLiquidated",
      "outputs": [
        {
          "name": "",
          "type": "uint256"
        }
      ],
      "payable": false,
      "stateMutability": "view",
      "type": "function"
    },
    {
      "constant": true,
      "inputs": [],
      "name": "bancrupcyDiff",
      "outputs": [
        {
          "name": "",
          "type": "uint256"
        }
      ],
      "payable": false,
      "stateMutability": "view",
      "type": "function"
    },
    {
      "constant": true,
      "inputs": [],
      "name": "maxOrderValue",
      "outputs": [
        {
          "name": "",
          "type": "uint256"
        }
      ],
      "payable": false,
      "stateMutability": "view",
      "type": "function"
    },
    {
      "constant": true,
      "inputs": [],
      "name": "totalOpenedPositions",
      "outputs": [
        {
          "name": "",
          "type": "uint256"
        }
      ],
      "payable": false,
      "stateMutability": "view",
      "type": "function"
    },
    {
      "constant": true,
      "inputs": [],
      "name": "totalNegativePnl",
      "outputs": [
        {
          "name": "",
          "type": "uint256"
        }
      ],
      "payable": false,
      "stateMutability": "view",
      "type": "function"
    },
    {
      "constant": true,
      "inputs": [
        {
          "name": "",
          "type": "address"
        }
      ],
      "name": "positions",
      "outputs": [
        {
          "name": "amount",
          "type": "uint256"
        },
        {
          "name": "price",
          "type": "uint256"
        },
        {
          "name": "leverage",
          "type": "uint256"
        },
        {
          "name": "positionType",
          "type": "uint256"
        },
        {
          "name": "exists",
          "type": "bool"
        }
      ],
      "payable": false,
      "stateMutability": "view",
      "type": "function"
    },
    {
      "constant": true,
      "inputs": [],
      "name": "totalPositivePnl",
      "outputs": [
        {
          "name": "",
          "type": "uint256"
        }
      ],
      "payable": false,
      "stateMutability": "view",
      "type": "function"
    },
    {
      "constant": true,
      "inputs": [],
      "name": "expirationPrice",
      "outputs": [
        {
          "name": "",
          "type": "uint256"
        }
      ],
      "payable": false,
      "stateMutability": "view",
      "type": "function"
    },
    {
      "constant": true,
      "inputs": [],
      "name": "totalLongsCost",
      "outputs": [
        {
          "name": "",
          "type": "uint256"
        }
      ],
      "payable": false,
      "stateMutability": "view",
      "type": "function"
    },
    {
      "constant": true,
      "inputs": [],
      "name": "number",
      "outputs": [
        {
          "name": "",
          "type": "uint256"
        }
      ],
      "payable": false,
      "stateMutability": "view",
      "type": "function"
    },
    {
      "constant": true,
      "inputs": [],
      "name": "ticker",
      "outputs": [
        {
          "name": "",
          "type": "string"
        }
      ],
      "payable": false,
      "stateMutability": "view",
      "type": "function"
    },
    {
      "constant": true,
      "inputs": [
        {
          "name": "",
          "type": "bytes32"
        }
      ],
      "name": "orders",
      "outputs": [
        {
          "name": "amount",
          "type": "uint256"
        },
        {
          "name": "price",
          "type": "uint256"
        },
        {
          "name": "orderType",
          "type": "uint256"
        },
        {
          "name": "expires",
          "type": "uint256"
        },
        {
          "name": "leverage",
          "type": "uint256"
        },
        {
          "name": "account",
          "type": "address"
        }
      ],
      "payable": false,
      "stateMutability": "view",
      "type": "function"
    },
    {
      "constant": true,
      "inputs": [],
      "name": "minOrderValue",
      "outputs": [
        {
          "name": "",
          "type": "uint256"
        }
      ],
      "payable": false,
      "stateMutability": "view",
      "type": "function"
    },
    {
      "constant": true,
      "inputs": [],
      "name": "maxLeverage",
      "outputs": [
        {
          "name": "",
          "type": "uint256"
        }
      ],
      "payable": false,
      "stateMutability": "view",
      "type": "function"
    },
    {
      "constant": true,
      "inputs": [],
      "name": "totalShortsAmount",
      "outputs": [
        {
          "name": "",
          "type": "uint256"
        }
      ],
      "payable": false,
      "stateMutability": "view",
      "type": "function"
    },
    {
      "constant": true,
      "inputs": [],
      "name": "totalShortsCost",
      "outputs": [
        {
          "name": "",
          "type": "uint256"
        }
      ],
      "payable": false,
      "stateMutability": "view",
      "type": "function"
    },
    {
      "constant": true,
      "inputs": [],
      "name": "redeployedAddress",
      "outputs": [
        {
          "name": "",
          "type": "address"
        }
      ],
      "payable": false,
      "stateMutability": "view",
      "type": "function"
    },
    {
      "constant": true,
      "inputs": [],
      "name": "totalClosedPositions",
      "outputs": [
        {
          "name": "",
          "type": "uint256"
        }
      ],
      "payable": false,
      "stateMutability": "view",
      "type": "function"
    },
    {
      "constant": true,
      "inputs": [],
      "name": "totalLongsAmount",
      "outputs": [
        {
          "name": "",
          "type": "uint256"
        }
      ],
      "payable": false,
      "stateMutability": "view",
      "type": "function"
    },
    {
      "constant": true,
      "inputs": [
        {
          "name": "",
          "type": "bytes32"
        }
      ],
      "name": "orderFills",
      "outputs": [
        {
          "name": "",
          "type": "uint256"
        }
      ],
      "payable": false,
      "stateMutability": "view",
      "type": "function"
    },
    {
      "inputs": [
        {
          "name": "_settingsAddress",
          "type": "address"
        },
        {
          "name": "_depositoryAddress",
          "type": "address"
        },
        {
          "name": "_decimal",
          "type": "uint256"
        },
        {
          "name": "_maxOrderValue",
          "type": "uint256"
        },
        {
          "name": "_minOrderValue",
          "type": "uint256"
        },
        {
          "name": "_bancrupcyDiff",
          "type": "uint256"
        },
        {
          "name": "_ticker",
          "type": "string"
        },
        {
          "name": "_number",
          "type": "uint256"
        },
        {
          "name": "_redeployerAddress",
          "type": "address"
        }
      ],
      "payable": false,
      "stateMutability": "nonpayable",
      "type": "constructor"
    },
    {
      "anonymous": false,
      "inputs": [
        {
          "indexed": true,
          "name": "addr",
          "type": "address"
        },
        {
          "indexed": false,
          "name": "price",
          "type": "uint256"
        },
        {
          "indexed": false,
          "name": "amount",
          "type": "uint256"
        },
        {
          "indexed": false,
          "name": "orderType",
          "type": "uint256"
        },
        {
          "indexed": false,
          "name": "hash",
          "type": "bytes32"
        },
        {
          "indexed": false,
          "name": "leverage",
          "type": "uint256"
        },
        {
          "indexed": false,
          "name": "expires",
          "type": "uint256"
        }
      ],
      "name": "LimitOrderLog",
      "type": "event"
    },
    {
      "anonymous": false,
      "inputs": [
        {
          "indexed": false,
          "name": "orderHash",
          "type": "bytes32"
        },
        {
          "indexed": false,
          "name": "amount",
          "type": "uint256"
        },
        {
          "indexed": false,
          "name": "price",
          "type": "uint256"
        },
        {
          "indexed": false,
          "name": "positionType",
          "type": "uint256"
        },
        {
          "indexed": false,
          "name": "orderUser",
          "type": "address"
        },
        {
          "indexed": false,
          "name": "tradeUser",
          "type": "address"
        },
        {
          "indexed": false,
          "name": "timestamp",
          "type": "uint256"
        }
      ],
      "name": "MarketOrderLog",
      "type": "event"
    },
    {
      "anonymous": false,
      "inputs": [
        {
          "indexed": false,
          "name": "amount",
          "type": "uint256"
        },
        {
          "indexed": false,
          "name": "price",
          "type": "uint256"
        },
        {
          "indexed": false,
          "name": "positionType",
          "type": "uint256"
        },
        {
          "indexed": true,
          "name": "account",
          "type": "address"
        },
        {
          "indexed": false,
          "name": "timestamp",
          "type": "uint256"
        }
      ],
      "name": "LiquidatedPosLog",
      "type": "event"
    },
    {
      "anonymous": false,
      "inputs": [
        {
          "indexed": false,
          "name": "amount",
          "type": "uint256"
        },
        {
          "indexed": false,
          "name": "price",
          "type": "uint256"
        },
        {
          "indexed": false,
          "name": "positionType",
          "type": "uint256"
        },
        {
          "indexed": true,
          "name": "account",
          "type": "address"
        },
        {
          "indexed": false,
          "name": "timestamp",
          "type": "uint256"
        }
      ],
      "name": "ExpiratedPosLog",
      "type": "event"
    },
    {
      "anonymous": false,
      "inputs": [
        {
          "indexed": false,
          "name": "num",
          "type": "uint256"
        }
      ],
      "name": "testLog",
      "type": "event"
    },
    {
      "constant": false,
      "inputs": [
        {
          "name": "price",
          "type": "uint256"
        },
        {
          "name": "amount",
          "type": "uint256"
        },
        {
          "name": "orderType",
          "type": "uint256"
        },
        {
          "name": "leverage",
          "type": "uint256"
        },
        {
          "name": "expiresIn",
          "type": "uint256"
        }
      ],
      "name": "placeLimitOrder",
      "outputs": [
        {
          "name": "",
          "type": "bytes32"
        }
      ],
      "payable": false,
      "stateMutability": "nonpayable",
      "type": "function"
    },
    {
      "constant": false,
      "inputs": [
        {
          "name": "orderList",
          "type": "bytes32[]"
        },
        {
          "name": "amount",
          "type": "uint256"
        },
        {
          "name": "leverage",
          "type": "uint256"
        }
      ],
      "name": "placeMarketOrder",
      "outputs": [],
      "payable": false,
      "stateMutability": "nonpayable",
      "type": "function"
    },
    {
      "constant": false,
      "inputs": [
        {
          "name": "account",
          "type": "address"
        }
      ],
      "name": "expiration",
      "outputs": [],
      "payable": false,
      "stateMutability": "nonpayable",
      "type": "function"
    },
    {
      "constant": false,
      "inputs": [
        {
          "name": "account",
          "type": "address"
        }
      ],
      "name": "liquidatePosition",
      "outputs": [],
      "payable": false,
      "stateMutability": "nonpayable",
      "type": "function"
    },
    {
      "constant": true,
      "inputs": [
        {
          "name": "price",
          "type": "uint256"
        },
        {
          "name": "amount",
          "type": "uint256"
        },
        {
          "name": "leverage",
          "type": "uint256"
        }
      ],
      "name": "getCost",
      "outputs": [
        {
          "name": "",
          "type": "uint256"
        }
      ],
      "payable": false,
      "stateMutability": "view",
      "type": "function"
    },
    {
      "constant": true,
      "inputs": [
        {
          "name": "account",
          "type": "address"
        }
      ],
      "name": "getCurrentPositionPNL",
      "outputs": [
        {
          "name": "pnl",
          "type": "uint256"
        },
        {
          "name": "prefix",
          "type": "bool"
        }
      ],
      "payable": false,
      "stateMutability": "view",
      "type": "function"
    },
    {
      "constant": true,
      "inputs": [
        {
          "name": "account",
          "type": "address"
        }
      ],
      "name": "getPositionLiquidationPrice",
      "outputs": [
        {
          "name": "",
          "type": "uint256"
        },
        {
          "name": "",
          "type": "uint256"
        }
      ],
      "payable": false,
      "stateMutability": "view",
      "type": "function"
    },
    {
      "constant": true,
      "inputs": [
        {
          "name": "account",
          "type": "address"
        },
        {
          "name": "currPrice",
          "type": "uint256"
        }
      ],
      "name": "checkLiquidation",
      "outputs": [
        {
          "name": "",
          "type": "bool"
        }
      ],
      "payable": false,
      "stateMutability": "view",
      "type": "function"
    },
    {
      "constant": true,
      "inputs": [],
      "name": "getTotalClosedPositions",
      "outputs": [
        {
          "name": "",
          "type": "uint256"
        }
      ],
      "payable": false,
      "stateMutability": "view",
      "type": "function"
    },
    {
      "constant": true,
      "inputs": [],
      "name": "getTotalNegativePnl",
      "outputs": [
        {
          "name": "",
          "type": "uint256"
        }
      ],
      "payable": false,
      "stateMutability": "view",
      "type": "function"
    },
    {
      "constant": true,
      "inputs": [],
      "name": "getTotalPositivePnl",
      "outputs": [
        {
          "name": "",
          "type": "uint256"
        }
      ],
      "payable": false,
      "stateMutability": "view",
      "type": "function"
    },
    {
      "constant": false,
      "inputs": [
        {
          "name": "account",
          "type": "address"
        }
      ],
      "name": "expirationTest",
      "outputs": [],
      "payable": false,
      "stateMutability": "nonpayable",
      "type": "function"
    }
  ],
  "bytecode": "0x60806040526064601655606460175560646018553480156200002057600080fd5b5060405162004be738038062004be783398101806040526101208110156200004757600080fd5b8101908080519060200190929190805190602001909291908051906020019092919080519060200190929190805190602001909291908051906020019092919080516401000000008111156200009c57600080fd5b82810190506020810184811115620000b357600080fd5b8151856001820283011164010000000082111715620000d157600080fd5b50509291906020018051906020019092919080519060200190929190505050886000806101000a81548173ffffffffffffffffffffffffffffffffffffffff021916908373ffffffffffffffffffffffffffffffffffffffff16021790555087600160006101000a81548173ffffffffffffffffffffffffffffffffffffffff021916908373ffffffffffffffffffffffffffffffffffffffff16021790555086601581905550620001a0601554600a0a87620002eb64010000000002620022b5179091906401000000009004565b6006819055508460078190555083600981905550816004819055508260039080519060200190620001d3929190620003bc565b5080600260006101000a81548173ffffffffffffffffffffffffffffffffffffffff021916908373ffffffffffffffffffffffffffffffffffffffff1602179055506000809054906101000a900473ffffffffffffffffffffffffffffffffffffffff1673ffffffffffffffffffffffffffffffffffffffff16630ea8b3bf6040518163ffffffff167c010000000000000000000000000000000000000000000000000000000002815260040160206040518083038186803b1580156200029957600080fd5b505afa158015620002ae573d6000803e3d6000fd5b505050506040513d6020811015620002c557600080fd5b81019080805190602001909291905050506005819055505050505050505050506200046b565b600080831415620003005760009050620003b6565b600082840290508284828115156200031457fe5b04141515620003b1576040517f08c379a00000000000000000000000000000000000000000000000000000000081526004018080602001828103825260218152602001807f536166654d6174683a206d756c7469706c69636174696f6e206f766572666c6f81526020017f770000000000000000000000000000000000000000000000000000000000000081525060400191505060405180910390fd5b809150505b92915050565b828054600181600116156101000203166002900490600052602060002090601f016020900481019282601f10620003ff57805160ff191683800117855562000430565b8280016001018555821562000430579182015b828111156200042f57825182559160200191906001019062000412565b5b5090506200043f919062000443565b5090565b6200046891905b80821115620004645760008160009055506001016200044a565b5090565b90565b61476c806200047b6000396000f3fe6080604052600436106101a1576000357c0100000000000000000000000000000000000000000000000000000000900463ffffffff16806304dbe3fe146101a6578063053f14da146101f7578063073e5ae314610222578063083d25201461024d578063084d2b27146102785780630c03e701146102e85780630ce4abf8146103135780631559026f1461033e5780631a98a375146103695780631cfc186214610394578063242df6201461040057806336f49f561461042b5780634b6131761461050457806355f575101461057757806357f920f3146105fc5780635c0b54a11461062757806368d9c9de1461069e57806370e2184b146107015780637498a0f01461072c578063811e5eef1461077d5780638381f58a146107a85780638ba47bdd146107d35780639c3f1e90146108635780639e2c8ff114610901578063ae3302c21461092c578063c5e816e214610957578063c9c8e35614610982578063cb449777146109ad578063cd3fe76914610a04578063cda9592514610a2f578063e8d86bbf14610a80578063f23fbd6f14610aab578063f7213db614610ad6575b600080fd5b3480156101b257600080fd5b506101f5600480360360208110156101c957600080fd5b81019080803573ffffffffffffffffffffffffffffffffffffffff169060200190929190505050610b25565b005b34801561020357600080fd5b5061020c610d3e565b6040518082815260200191505060405180910390f35b34801561022e57600080fd5b50610237610d44565b6040518082815260200191505060405180910390f35b34801561025957600080fd5b50610262610d4e565b6040518082815260200191505060405180910390f35b34801561028457600080fd5b506102c76004803603602081101561029b57600080fd5b81019080803573ffffffffffffffffffffffffffffffffffffffff169060200190929190505050610d54565b60405180838152602001821515151581526020019250505060405180910390f35b3480156102f457600080fd5b506102fd610e13565b6040518082815260200191505060405180910390f35b34801561031f57600080fd5b50610328610e19565b6040518082815260200191505060405180910390f35b34801561034a57600080fd5b50610353610e1f565b6040518082815260200191505060405180910390f35b34801561037557600080fd5b5061037e610e25565b6040518082815260200191505060405180910390f35b3480156103a057600080fd5b506103e3600480360360208110156103b757600080fd5b81019080803573ffffffffffffffffffffffffffffffffffffffff169060200190929190505050610e2b565b604051808381526020018281526020019250505060405180910390f35b34801561040c57600080fd5b50610415611083565b6040518082815260200191505060405180910390f35b34801561043757600080fd5b506105026004803603606081101561044e57600080fd5b810190808035906020019064010000000081111561046b57600080fd5b82018360208201111561047d57600080fd5b8035906020019184602083028401116401000000008311171561049f57600080fd5b919080806020026020016040519081016040528093929190818152602001838360200280828437600081840152601f19601f820116905080830192505050505050509192919290803590602001909291908035906020019092919050505061108d565b005b34801561051057600080fd5b5061055d6004803603604081101561052757600080fd5b81019080803573ffffffffffffffffffffffffffffffffffffffff16906020019092919080359060200190929190505050611239565b604051808215151515815260200191505060405180910390f35b34801561058357600080fd5b506105c66004803603602081101561059a57600080fd5b81019080803573ffffffffffffffffffffffffffffffffffffffff169060200190929190505050611327565b60405180868152602001858152602001848152602001838152602001821515151581526020019550505050505060405180910390f35b34801561060857600080fd5b5061061161136a565b6040518082815260200191505060405180910390f35b34801561063357600080fd5b50610688600480360360a081101561064a57600080fd5b810190808035906020019092919080359060200190929190803590602001909291908035906020019092919080359060200190929190505050611370565b6040518082815260200191505060405180910390f35b3480156106aa57600080fd5b506106eb600480360360608110156106c157600080fd5b8101908080359060200190929190803590602001909291908035906020019092919050505061161b565b6040518082815260200191505060405180910390f35b34801561070d57600080fd5b50610716611676565b6040518082815260200191505060405180910390f35b34801561073857600080fd5b5061077b6004803603602081101561074f57600080fd5b81019080803573ffffffffffffffffffffffffffffffffffffffff16906020019092919050505061167c565b005b34801561078957600080fd5b50610792611b4f565b6040518082815260200191505060405180910390f35b3480156107b457600080fd5b506107bd611b55565b6040518082815260200191505060405180910390f35b3480156107df57600080fd5b506107e8611b5b565b6040518080602001828103825283818151815260200191508051906020019080838360005b8381101561082857808201518184015260208101905061080d565b50505050905090810190601f1680156108555780820380516001836020036101000a031916815260200191505b509250505060405180910390f35b34801561086f57600080fd5b5061089c6004803603602081101561088657600080fd5b8101908080359060200190929190505050611bf9565b604051808781526020018681526020018581526020018481526020018381526020018273ffffffffffffffffffffffffffffffffffffffff1673ffffffffffffffffffffffffffffffffffffffff168152602001965050505050505060405180910390f35b34801561090d57600080fd5b50610916611c55565b6040518082815260200191505060405180910390f35b34801561093857600080fd5b50610941611c5b565b6040518082815260200191505060405180910390f35b34801561096357600080fd5b5061096c611c61565b6040518082815260200191505060405180910390f35b34801561098e57600080fd5b50610997611c67565b6040518082815260200191505060405180910390f35b3480156109b957600080fd5b506109c2611c6d565b604051808273ffffffffffffffffffffffffffffffffffffffff1673ffffffffffffffffffffffffffffffffffffffff16815260200191505060405180910390f35b348015610a1057600080fd5b50610a19611c93565b6040518082815260200191505060405180910390f35b348015610a3b57600080fd5b50610a7e60048036036020811015610a5257600080fd5b81019080803573ffffffffffffffffffffffffffffffffffffffff169060200190929190505050611c9d565b005b348015610a8c57600080fd5b50610a95611cbd565b6040518082815260200191505060405180910390f35b348015610ab757600080fd5b50610ac0611cc3565b6040518082815260200191505060405180910390f35b348015610ae257600080fd5b50610b0f60048036036020811015610af957600080fd5b8101908080359060200190929190505050611cc9565b6040518082815260200191505060405180910390f35b6000600854111515610b3657600080fd5b6000809054906101000a900473ffffffffffffffffffffffffffffffffffffffff1673ffffffffffffffffffffffffffffffffffffffff1663e793a38d6040518163ffffffff167c010000000000000000000000000000000000000000000000000000000002815260040160206040518083038186803b158015610bb957600080fd5b505afa158015610bcd573d6000803e3d6000fd5b505050506040513d6020811015610be357600080fd5b810190808051906020019092919050505015610c4357601a60008273ffffffffffffffffffffffffffffffffffffffff1673ffffffffffffffffffffffffffffffffffffffff168152602001908152602001600020600101546008819055505b610c4f81600854611ce1565b8073ffffffffffffffffffffffffffffffffffffffff167f0daade19c048d255aec8915c02b16856f2ac3b4d767995da0c75b256ac5155b9601a60008473ffffffffffffffffffffffffffffffffffffffff1673ffffffffffffffffffffffffffffffffffffffff16815260200190815260200160002060000154600854601a60008673ffffffffffffffffffffffffffffffffffffffff1673ffffffffffffffffffffffffffffffffffffffff16815260200190815260200160002060030154426040518085815260200184815260200183815260200182815260200194505050505060405180910390a250565b600a5481565b6000600c54905090565b60105481565b600080610d5f614678565b601a60008573ffffffffffffffffffffffffffffffffffffffff1673ffffffffffffffffffffffffffffffffffffffff16815260200190815260200160002060a06040519081016040529081600082015481526020016001820154815260200160028201548152602001600382015481526020016004820160009054906101000a900460ff1615151515815250509050610e098160200151600a5483600001518460600151612106565b9250925050915091565b60095481565b60065481565b600e5481565b600d5481565b600080610e36614678565b601a60008573ffffffffffffffffffffffffffffffffffffffff1673ffffffffffffffffffffffffffffffffffffffff16815260200190815260200160002060a06040519081016040529081600082015481526020016001820154815260200160028201548152602001600382015481526020016004820160009054906101000a900460ff1615151515815250509050600081606001511415610f97576000610f1a610ef1601854846040015161222a90919063ffffffff16565b610f0c846040015185602001516122b590919063ffffffff16565b61238290919063ffffffff16565b90506000610f878360200151610f79601754610f6b610f4688602001518861222a90919063ffffffff16565b610f5d60095460175461222a90919063ffffffff16565b6122b590919063ffffffff16565b61238290919063ffffffff16565b61241590919063ffffffff16565b905081819450945050505061107e565b6000611005610ff2601754610fe48560400151610fd6601854610fc860328a602001516122b590919063ffffffff16565b6122b590919063ffffffff16565b61238290919063ffffffff16565b61238290919063ffffffff16565b836020015161222a90919063ffffffff16565b9050600061107261105f60175461105161102c86886020015161222a90919063ffffffff16565b61104360095460175461222a90919063ffffffff16565b6122b590919063ffffffff16565b61238290919063ffffffff16565b846020015161222a90919063ffffffff16565b90508181945094505050505b915091565b6000600f54905090565b6000809054906101000a900473ffffffffffffffffffffffffffffffffffffffff1673ffffffffffffffffffffffffffffffffffffffff16634da807ca6040518163ffffffff167c010000000000000000000000000000000000000000000000000000000002815260040160206040518083038186803b15801561111057600080fd5b505afa158015611124573d6000803e3d6000fd5b505050506040513d602081101561113a57600080fd5b81019080805190602001909291905050508351111515156111c3576040517f08c379a00000000000000000000000000000000000000000000000000000000081526004018080602001828103825260138152602001807f6f72646572206c69737420746f6f206c6f6e670000000000000000000000000081525060200191505060405180910390fd5b60008090505b83518110156112335760006111f685838151811015156111e557fe5b90602001906020020151858561249f565b90506000811115611225578381141561120f5750611233565b611222818561222a90919063ffffffff16565b93505b5080806001019150506111c9565b50505050565b6000611243614678565b601a60008573ffffffffffffffffffffffffffffffffffffffff1673ffffffffffffffffffffffffffffffffffffffff16815260200190815260200160002060a06040519081016040529081600082015481526020016001820154815260200160028201548152602001600382015481526020016004820160009054906101000a900460ff161515151581525050905060006112de85610e2b565b915050600082606001511415611306578084111561130157600192505050611321565b61131a565b8084101561131957600192505050611321565b5b6000925050505b92915050565b601a6020528060005260406000206000915090508060000154908060010154908060020154908060030154908060040160009054906101000a900460ff16905085565b600c5481565b600061137e86868686613081565b6000600233888842604051602001808573ffffffffffffffffffffffffffffffffffffffff1673ffffffffffffffffffffffffffffffffffffffff166c010000000000000000000000000281526014018481526020018381526020018281526020019450505050506040516020818303038152906040526040518082805190602001908083835b60208310151561142a5780518252602082019150602081019050602083039250611405565b6001836020036101000a038019825116818451168082178552505050505050905001915050602060405180830381855afa15801561146c573d6000803e3d6000fd5b5050506040513d602081101561148157600080fd5b81019080805190602001909291905050509050336019600083815260200190815260200160002060050160006101000a81548173ffffffffffffffffffffffffffffffffffffffff021916908373ffffffffffffffffffffffffffffffffffffffff160217905550866019600083815260200190815260200160002060010181905550856019600083815260200190815260200160002060000181905550836019600083815260200190815260200160002060040181905550846019600083815260200190815260200160002060020181905550611568834361241590919063ffffffff16565b60196000838152602001908152602001600020600301819055503373ffffffffffffffffffffffffffffffffffffffff167fcd5053f3bf22771caa58542afb3d01a18eec0efc39f4631a5cbe610eb31cb65f8888888589601960008981526020019081526020016000206003015460405180878152602001868152602001858152602001848152602001838152602001828152602001965050505050505060405180910390a28091505095945050505050565b600061166d8261165f86611651601554600a0a6116436018548a6122b590919063ffffffff16565b6122b590919063ffffffff16565b61238290919063ffffffff16565b61238290919063ffffffff16565b90509392505050565b60085481565b6000809054906101000a900473ffffffffffffffffffffffffffffffffffffffff1673ffffffffffffffffffffffffffffffffffffffff1663e793a38d6040518163ffffffff167c010000000000000000000000000000000000000000000000000000000002815260040160206040518083038186803b1580156116ff57600080fd5b505afa158015611713573d6000803e3d6000fd5b505050506040513d602081101561172957600080fd5b81019080805190602001909291905050501515156117af576040517f08c379a00000000000000000000000000000000000000000000000000000000081526004018080602001828103825260168152602001807f456d657267656e6379206d6f646520656e61626c65640000000000000000000081525060200191505060405180910390fd5b61187781600160009054906101000a900473ffffffffffffffffffffffffffffffffffffffff1673ffffffffffffffffffffffffffffffffffffffff1663a3ca17b26040518163ffffffff167c010000000000000000000000000000000000000000000000000000000002815260040160206040518083038186803b15801561183757600080fd5b505afa15801561184b573d6000803e3d6000fd5b505050506040513d602081101561186157600080fd5b8101908080519060200190929190505050611239565b1515611911576040517f08c379a000000000000000000000000000000000000000000000000000000000815260040180806020018281038252602e8152602001807f43757272656e7420707269636520697320686967686572207468616e206c697181526020017f7569646174696f6e20707269636500000000000000000000000000000000000081525060400191505060405180910390fd5b60008061191d83610e2b565b91509150611929614678565b601a60008573ffffffffffffffffffffffffffffffffffffffff1673ffffffffffffffffffffffffffffffffffffffff16815260200190815260200160002060a06040519081016040529081600082015481526020016001820154815260200160028201548152602001600382015481526020016004820160009054906101000a900460ff161515151581525050905060006119d382602001518484600001518560600151612106565b50905060006119f083602001518685600001518660600151612106565b5090506000611a08838361222a90919063ffffffff16565b9050611a148786611ce1565b600160009054906101000a900473ffffffffffffffffffffffffffffffffffffffff1673ffffffffffffffffffffffffffffffffffffffff166380a7f381826040518263ffffffff167c010000000000000000000000000000000000000000000000000000000002815260040180828152602001915050600060405180830381600087803b158015611aa557600080fd5b505af1158015611ab9573d6000803e3d6000fd5b50505050611ad28360105461241590919063ffffffff16565b6010819055508673ffffffffffffffffffffffffffffffffffffffff167fcb59cb0b7efdcae9ad008652919e57372c9635a24e7a90dd5f2cce4bf9d034368560000151878760600151426040518085815260200184815260200183815260200182815260200194505050505060405180910390a250505050505050565b60115481565b60045481565b60038054600181600116156101000203166002900480601f016020809104026020016040519081016040528092919081815260200182805460018160011615610100020316600290048015611bf15780601f10611bc657610100808354040283529160200191611bf1565b820191906000526020600020905b815481529060010190602001808311611bd457829003601f168201915b505050505081565b60196020528060005260406000206000915090508060000154908060010154908060020154908060030154908060040154908060050160009054906101000a900473ffffffffffffffffffffffffffffffffffffffff16905086565b60075481565b60055481565b60145481565b60135481565b600b60009054906101000a900473ffffffffffffffffffffffffffffffffffffffff1681565b6000600d54905090565b642098a67800600881905550611cb16131ca565b611cba81610b25565b50565b600f5481565b60125481565b601b6020528060005260406000206000915090505481565b601a60008373ffffffffffffffffffffffffffffffffffffffff1673ffffffffffffffffffffffffffffffffffffffff16815260200190815260200160002060040160009054906101000a900460ff161515611d3c57600080fd5b6000806000611d8e8585601a60008973ffffffffffffffffffffffffffffffffffffffff1673ffffffffffffffffffffffffffffffffffffffff1681526020019081526020016000206000015461362d565b925092509250600160009054906101000a900473ffffffffffffffffffffffffffffffffffffffff1673ffffffffffffffffffffffffffffffffffffffff1663dbbb3c6f868586600060016040518663ffffffff167c0100000000000000000000000000000000000000000000000000000000028152600401808673ffffffffffffffffffffffffffffffffffffffff1673ffffffffffffffffffffffffffffffffffffffff1681526020018581526020018481526020018381526020018215151515815260200195505050505050600060405180830381600087803b158015611e7757600080fd5b505af1158015611e8b573d6000803e3d6000fd5b50505050601a60008673ffffffffffffffffffffffffffffffffffffffff1673ffffffffffffffffffffffffffffffffffffffff1681526020019081526020016000206000808201600090556001820160009055600282016000905560038201600090556004820160006101000a81549060ff02191690555050611f1a82600c5461241590919063ffffffff16565b600c81905550611f3581600d5461241590919063ffffffff16565b600d81905550611f516001600f5461241590919063ffffffff16565b600f81905550600d54600c54111561202357600160009054906101000a900473ffffffffffffffffffffffffffffffffffffffff1673ffffffffffffffffffffffffffffffffffffffff16638411b007611fb8600d54600c5461222a90919063ffffffff16565b6040518263ffffffff167c010000000000000000000000000000000000000000000000000000000002815260040180828152602001915050600060405180830381600087803b15801561200a57600080fd5b505af115801561201e573d6000803e3d6000fd5b505050505b600e54600f5414801561203a5750600c54600d5410155b156120ff57600160009054906101000a900473ffffffffffffffffffffffffffffffffffffffff1673ffffffffffffffffffffffffffffffffffffffff166380a7f381612094600c54600d5461222a90919063ffffffff16565b6040518263ffffffff167c010000000000000000000000000000000000000000000000000000000002815260040180828152602001915050600060405180830381600087803b1580156120e657600080fd5b505af11580156120fa573d6000803e3d6000fd5b505050505b5050505050565b600080600183141561218f5784861115156121555761214a612144612130601554600a0a89612382565b61213f601554600a0a89612382565b61222a565b856122b5565b600191509150612221565b61218461217e61216a601554600a0a88612382565b612179601554600a0a8a612382565b61222a565b856122b5565b600091509150612221565b60008314156122155784861015156121db576121d06121ca6121b6601554600a0a88612382565b6121c5601554600a0a8a612382565b61222a565b856122b5565b600191509150612221565b61220a6122046121f0601554600a0a89612382565b6121ff601554600a0a89612382565b61222a565b856122b5565b600091509150612221565b60006001819150915091505b94509492505050565b60008282111515156122a4576040517f08c379a000000000000000000000000000000000000000000000000000000000815260040180806020018281038252601e8152602001807f536166654d6174683a207375627472616374696f6e206f766572666c6f77000081525060200191505060405180910390fd5b600082840390508091505092915050565b6000808314156122c8576000905061237c565b600082840290508284828115156122db57fe5b04141515612377576040517f08c379a00000000000000000000000000000000000000000000000000000000081526004018080602001828103825260218152602001807f536166654d6174683a206d756c7469706c69636174696f6e206f766572666c6f81526020017f770000000000000000000000000000000000000000000000000000000000000081525060400191505060405180910390fd5b809150505b92915050565b600080821115156123fb576040517f08c379a000000000000000000000000000000000000000000000000000000000815260040180806020018281038252601a8152602001807f536166654d6174683a206469766973696f6e206279207a65726f00000000000081525060200191505060405180910390fd5b6000828481151561240857fe5b0490508091505092915050565b6000808284019050838110151515612495576040517f08c379a000000000000000000000000000000000000000000000000000000000815260040180806020018281038252601b8152602001807f536166654d6174683a206164646974696f6e206f766572666c6f77000000000081525060200191505060405180910390fd5b8091505092915050565b60006124a96146aa565b8381602001818152505082816040018181525050848160000181815250506124cf6146cf565b601960008360000151815260200190815260200160002060c0604051908101604052908160008201548152602001600182015481526020016002820154815260200160038201548152602001600482015481526020016005820160009054906101000a900473ffffffffffffffffffffffffffffffffffffffff1673ffffffffffffffffffffffffffffffffffffffff1673ffffffffffffffffffffffffffffffffffffffff16815250509050600081600001511180156125aa57508060000151601b60008460000151815260200190815260200160002054105b80156125ba575043816060015110155b156130735780600001516125f28360200151601b6000866000015181526020019081526020016000205461241590919063ffffffff16565b111561263057612626601b60008460000151815260200190815260200160002054826000015161222a90919063ffffffff16565b8260200181815250505b61264c8160200151836020015183604001518560400151613081565b8060a0015173ffffffffffffffffffffffffffffffffffffffff163373ffffffffffffffffffffffffffffffffffffffff1614151561307257600033905060008260a00151905060008360800151905060008560400151905060008060009054906101000a900473ffffffffffffffffffffffffffffffffffffffff1673ffffffffffffffffffffffffffffffffffffffff166334b08c056040518163ffffffff167c010000000000000000000000000000000000000000000000000000000002815260040160206040518083038186803b15801561272a57600080fd5b505afa15801561273e573d6000803e3d6000fd5b505050506040513d602081101561275457600080fd5b8101908080519060200190929190505050905060008060009054906101000a900473ffffffffffffffffffffffffffffffffffffffff1673ffffffffffffffffffffffffffffffffffffffff1663ec1eb46e6040518163ffffffff167c010000000000000000000000000000000000000000000000000000000002815260040160206040518083038186803b1580156127ec57600080fd5b505afa158015612800573d6000803e3d6000fd5b505050506040513d602081101561281657600080fd5b810190808051906020019092919050505090506001876040015114156129cf573394508660a00151955087604001519350866080015192506000809054906101000a900473ffffffffffffffffffffffffffffffffffffffff1673ffffffffffffffffffffffffffffffffffffffff1663ec1eb46e6040518163ffffffff167c010000000000000000000000000000000000000000000000000000000002815260040160206040518083038186803b1580156128d157600080fd5b505afa1580156128e5573d6000803e3d6000fd5b505050506040513d60208110156128fb57600080fd5b810190808051906020019092919050505091506000809054906101000a900473ffffffffffffffffffffffffffffffffffffffff1673ffffffffffffffffffffffffffffffffffffffff166334b08c056040518163ffffffff167c010000000000000000000000000000000000000000000000000000000002815260040160206040518083038186803b15801561299157600080fd5b505afa1580156129a5573d6000803e3d6000fd5b505050506040513d60208110156129bb57600080fd5b810190808051906020019092919050505090505b6000600160009054906101000a900473ffffffffffffffffffffffffffffffffffffffff1673ffffffffffffffffffffffffffffffffffffffff1663f8b2cb4f876040518263ffffffff167c0100000000000000000000000000000000000000000000000000000000028152600401808273ffffffffffffffffffffffffffffffffffffffff1673ffffffffffffffffffffffffffffffffffffffff16815260200191505060206040518083038186803b158015612a8c57600080fd5b505afa158015612aa0573d6000803e3d6000fd5b505050506040513d6020811015612ab657600080fd5b810190808051906020019092919050505090506000600160009054906101000a900473ffffffffffffffffffffffffffffffffffffffff1673ffffffffffffffffffffffffffffffffffffffff1663f8b2cb4f896040518263ffffffff167c0100000000000000000000000000000000000000000000000000000000028152600401808273ffffffffffffffffffffffffffffffffffffffff1673ffffffffffffffffffffffffffffffffffffffff16815260200191505060206040518083038186803b158015612b8657600080fd5b505afa158015612b9a573d6000803e3d6000fd5b505050506040513d6020811015612bb057600080fd5b81019080805190602001909291905050509050612bcb61471c565b612be1888b602001518d6020015160008b61387f565b9050612beb61471c565b612c018a8c602001518e6020015160018b61387f565b9050816000600881101515612c1257fe5b6020020151816000600881101515612c2657fe5b60200201511015612c5957612c56898c60200151836000600881101515612c4957fe5b602002015160008c61387f565b91505b816000600881101515612c6857fe5b6020020151816000600881101515612c7c57fe5b60200201511115612caf57612cac8a8c60200151846000600881101515612c9f57fe5b602002015160018b61387f565b90505b600160009054906101000a900473ffffffffffffffffffffffffffffffffffffffff1673ffffffffffffffffffffffffffffffffffffffff1663f8b2cb4f8a6040518263ffffffff167c0100000000000000000000000000000000000000000000000000000000028152600401808273ffffffffffffffffffffffffffffffffffffffff1673ffffffffffffffffffffffffffffffffffffffff16815260200191505060206040518083038186803b158015612d6a57600080fd5b505afa158015612d7e573d6000803e3d6000fd5b505050506040513d6020811015612d9457600080fd5b810190808051906020019092919050505084148015612ea75750600160009054906101000a900473ffffffffffffffffffffffffffffffffffffffff1673ffffffffffffffffffffffffffffffffffffffff1663f8b2cb4f8b6040518263ffffffff167c0100000000000000000000000000000000000000000000000000000000028152600401808273ffffffffffffffffffffffffffffffffffffffff1673ffffffffffffffffffffffffffffffffffffffff16815260200191505060206040518083038186803b158015612e6957600080fd5b505afa158015612e7d573d6000803e3d6000fd5b505050506040513d6020811015612e9357600080fd5b810190808051906020019092919050505083145b1561305d576000826001600881101515612ebd57fe5b6020020151111561303657612ed88983888e60200151613dbf565b612ee88a82878e60200151613dbf565b612f25826000600881101515612efa57fe5b6020020151601b60008f6000015181526020019081526020016000205461241590919063ffffffff16565b601b60008e600001518152602001908152602001600020819055508a60200151600a819055507fac958855789d1f52c520ffd0035fd63793f46bda4ad55277f9eafedd29cf3fe68c60000151836000600881101515612f8057fe5b60200201518d60200151612f978f60400151614544565b8f60a001513342604051808881526020018781526020018681526020018581526020018473ffffffffffffffffffffffffffffffffffffffff1673ffffffffffffffffffffffffffffffffffffffff1681526020018373ffffffffffffffffffffffffffffffffffffffff1673ffffffffffffffffffffffffffffffffffffffff16815260200182815260200197505050505050505060405180910390a15b81600060088110151561304557fe5b60200201519c5050505050505050505050505061307a565b60009c5050505050505050505050505061307a565b5b6000925050505b9392505050565b6016548110156130915760165490505b6000841180156130a15750600083115b80156130b8575060008214806130b75750600182145b5b80156130c657508060055410155b80156130d457508060185411155b80156130e257506000600854145b8015613119575061311384613105601554600a0a866122b590919063ffffffff16565b61238290919063ffffffff16565b60065410155b8015613150575061314a8461313c601554600a0a866122b590919063ffffffff16565b61238290919063ffffffff16565b60075411155b15156131c4576040517f08c379a00000000000000000000000000000000000000000000000000000000081526004018080602001828103825260108152602001807f4e6f742056616c696420506172616d730000000000000000000000000000000081525060200191505060405180910390fd5b50505050565b600260009054906101000a900473ffffffffffffffffffffffffffffffffffffffff1673ffffffffffffffffffffffffffffffffffffffff1663f89ffeac6000809054906101000a900473ffffffffffffffffffffffffffffffffffffffff16600160009054906101000a900473ffffffffffffffffffffffffffffffffffffffff1660155460065460075460095460036001600454016040518963ffffffff167c0100000000000000000000000000000000000000000000000000000000028152600401808973ffffffffffffffffffffffffffffffffffffffff1673ffffffffffffffffffffffffffffffffffffffff1681526020018873ffffffffffffffffffffffffffffffffffffffff1673ffffffffffffffffffffffffffffffffffffffff168152602001878152602001868152602001858152602001848152602001806020018381526020018281038252848181546001816001161561010002031660029004815260200191508054600181600116156101000203166002900480156133975780601f1061336c57610100808354040283529160200191613397565b820191906000526020600020905b81548152906001019060200180831161337a57829003601f168201915b50509950505050505050505050602060405180830381600087803b1580156133be57600080fd5b505af11580156133d2573d6000803e3d6000fd5b505050506040513d60208110156133e857600080fd5b8101908080519060200190929190505050600b60006101000a81548173ffffffffffffffffffffffffffffffffffffffff021916908373ffffffffffffffffffffffffffffffffffffffff1602179055506000809054906101000a900473ffffffffffffffffffffffffffffffffffffffff1673ffffffffffffffffffffffffffffffffffffffff1663b5522e89600b60009054906101000a900473ffffffffffffffffffffffffffffffffffffffff166000809054906101000a900473ffffffffffffffffffffffffffffffffffffffff1673ffffffffffffffffffffffffffffffffffffffff1663aa52e64c306040518263ffffffff167c0100000000000000000000000000000000000000000000000000000000028152600401808273ffffffffffffffffffffffffffffffffffffffff1673ffffffffffffffffffffffffffffffffffffffff16815260200191505060206040518083038186803b15801561355357600080fd5b505afa158015613567573d6000803e3d6000fd5b505050506040513d602081101561357d57600080fd5b81019080805190602001909291905050506040518363ffffffff167c0100000000000000000000000000000000000000000000000000000000028152600401808373ffffffffffffffffffffffffffffffffffffffff1673ffffffffffffffffffffffffffffffffffffffff16815260200182815260200192505050600060405180830381600087803b15801561361357600080fd5b505af1158015613627573d6000803e3d6000fd5b50505050565b600080600080600160009054906101000a900473ffffffffffffffffffffffffffffffffffffffff1673ffffffffffffffffffffffffffffffffffffffff1663f8b2cb4f886040518263ffffffff167c0100000000000000000000000000000000000000000000000000000000028152600401808273ffffffffffffffffffffffffffffffffffffffff1673ffffffffffffffffffffffffffffffffffffffff16815260200191505060206040518083038186803b1580156136ee57600080fd5b505afa158015613702573d6000803e3d6000fd5b505050506040513d602081101561371857600080fd5b81019080805190602001909291905050509050613733614678565b601a60008973ffffffffffffffffffffffffffffffffffffffff1673ffffffffffffffffffffffffffffffffffffffff16815260200190815260200160002060a06040519081016040529081600082015481526020016001820154815260200160028201548152602001600382015481526020016004820160009054906101000a900460ff16151515158152505090506000816000015114156137e757816000808191508090509450945094505050613876565b6000806137fe83602001518a8a8660600151612106565b9150915080156138305761381b828561241590919063ffffffff16565b82600080905096509650965050505050613876565b8382101515613852576000808382925081915096509650965050505050613876565b613865828561222a90919063ffffffff16565b600083819150965096509650505050505b93509350939050565b61388761471c565b61388f614678565b85816020018181525050848160000181815250508281604001818152505083816060018181525050600087905060008690506000879050600089905060008790506000600160009054906101000a900473ffffffffffffffffffffffffffffffffffffffff1673ffffffffffffffffffffffffffffffffffffffff1663f8b2cb4f876040518263ffffffff167c0100000000000000000000000000000000000000000000000000000000028152600401808273ffffffffffffffffffffffffffffffffffffffff1673ffffffffffffffffffffffffffffffffffffffff16815260200191505060206040518083038186803b15801561398d57600080fd5b505afa1580156139a1573d6000803e3d6000fd5b505050506040513d60208110156139b757600080fd5b810190808051906020019092919050505090506000600160009054906101000a900473ffffffffffffffffffffffffffffffffffffffff1673ffffffffffffffffffffffffffffffffffffffff16636c24a76f886040518263ffffffff167c0100000000000000000000000000000000000000000000000000000000028152600401808273ffffffffffffffffffffffffffffffffffffffff1673ffffffffffffffffffffffffffffffffffffffff16815260200191505060206040518083038186803b158015613a8757600080fd5b505afa158015613a9b573d6000803e3d6000fd5b505050506040513d6020811015613ab157600080fd5b81019080805190602001909291905050509050600080613acf614678565b601a60008b73ffffffffffffffffffffffffffffffffffffffff1673ffffffffffffffffffffffffffffffffffffffff16815260200190815260200160002060a06040519081016040529081600082015481526020016001820154815260200160028201548152602001600382015481526020016004820160009054906101000a900460ff161515151581525050905060008160000151118015613b7a57508a606001518160600151145b15613be757613b968b602001518c600001518d6040015161161b565b841015613bb357613bb0848c602001518d60400151614572565b98505b613bcb816020015182600001518d602001518c6145cc565b9650613be489826000015161241590919063ffffffff16565b97505b60008160000151118015613c0357508a60600151816060015114155b8015613c16575080600001518b60000151115b15613ca757613c2e8a8c60200151836000015161362d565b809450819550829750505050613c5581600001518c6000015161222a90919063ffffffff16565b97506000613c6c8c602001518a8e6040015161161b565b905080861015613ca557613c89868d602001518e60400151614572565b9850613ca2898d6000015161222a90919063ffffffff16565b99505b505b60008160000151118015613cc357508a60600151816060015114155b8015613cd7575080600001518b6000015111155b15613d2757613cef8a8c602001518d6000015161362d565b80945081955082975050505080606001519d5080602001519650613d248b60000151826000015161222a90919063ffffffff16565b97505b60008160000151148015613d505750613d4d8b602001518c600001518d6040015161161b565b84105b15613d6e57613d68848c602001518d60400151614572565b98508897505b610100604051908101604052808a81526020018981526020018881526020018f8152602001878152602001868152602001848152602001838152509b50505050505050505050505095945050505050565b6000809054906101000a900473ffffffffffffffffffffffffffffffffffffffff1673ffffffffffffffffffffffffffffffffffffffff1663f9805041306040518263ffffffff167c0100000000000000000000000000000000000000000000000000000000028152600401808273ffffffffffffffffffffffffffffffffffffffff1673ffffffffffffffffffffffffffffffffffffffff16815260200191505060206040518083038186803b158015613e7957600080fd5b505afa158015613e8d573d6000803e3d6000fd5b505050506040513d6020811015613ea357600080fd5b810190808051906020019092919050505015614470576000809054906101000a900473ffffffffffffffffffffffffffffffffffffffff1673ffffffffffffffffffffffffffffffffffffffff1663e793a38d6040518163ffffffff167c010000000000000000000000000000000000000000000000000000000002815260040160206040518083038186803b158015613f3c57600080fd5b505afa158015613f50573d6000803e3d6000fd5b505050506040513d6020811015613f6657600080fd5b8101908080519060200190929190505050151515613f8357600080fd5b6000601a60008673ffffffffffffffffffffffffffffffffffffffff1673ffffffffffffffffffffffffffffffffffffffff16815260200190815260200160002060040160009054906101000a900460ff169050613fdf614678565b846001600881101515613fee57fe5b602002015181600001818152505084600260088110151561400b57fe5b602002015181602001818152505084600360088110151561402857fe5b602002015181606001818152505084600460088110151561404557fe5b60200201518160400181815250506001816080019015159081151581525050600085600560088110151561407557fe5b6020020151905060006140a761409884602001518560000151866040015161161b565b8361222a90919063ffffffff16565b905060006140cd868960006008811015156140be57fe5b6020020151866040015161161b565b9050600061410b6140ea60646018546122b590919063ffffffff16565b6140fd8a856122b590919063ffffffff16565b61238290919063ffffffff16565b905084601a60008c73ffffffffffffffffffffffffffffffffffffffff1673ffffffffffffffffffffffffffffffffffffffff1681526020019081526020016000206000820151816000015560208201518160010155604082015181600201556060820151816003015560808201518160040160006101000a81548160ff021916908315150217905550905050600160009054906101000a900473ffffffffffffffffffffffffffffffffffffffff1673ffffffffffffffffffffffffffffffffffffffff1663dbbb3c6f8b86868560006040518663ffffffff167c0100000000000000000000000000000000000000000000000000000000028152600401808673ffffffffffffffffffffffffffffffffffffffff1673ffffffffffffffffffffffffffffffffffffffff1681526020018581526020018481526020018381526020018215151515815260200195505050505050600060405180830381600087803b15801561427a57600080fd5b505af115801561428e573d6000803e3d6000fd5b505050506001856060015114156142de576142b48260115461241590919063ffffffff16565b6011819055506142d3856000015160125461241590919063ffffffff16565b601281905550614319565b6142f38260135461241590919063ffffffff16565b601381905550614312856000015160145461241590919063ffffffff16565b6014819055505b61434189600660088110151561432b57fe5b6020020151600c5461241590919063ffffffff16565b600c8190555061436f89600760088110151561435957fe5b6020020151600d5461241590919063ffffffff16565b600d81905550600d54600c54111561444157600160009054906101000a900473ffffffffffffffffffffffffffffffffffffffff1673ffffffffffffffffffffffffffffffffffffffff16638411b0076143d6600d54600c5461222a90919063ffffffff16565b6040518263ffffffff167c010000000000000000000000000000000000000000000000000000000002815260040180828152602001915050600060405180830381600087803b15801561442857600080fd5b505af115801561443c573d6000803e3d6000fd5b505050505b8515156144655761445e6001600e5461241590919063ffffffff16565b600e819055505b50505050505061453e565b600160009054906101000a900473ffffffffffffffffffffffffffffffffffffffff1673ffffffffffffffffffffffffffffffffffffffff1663a3ca17b26040518163ffffffff167c010000000000000000000000000000000000000000000000000000000002815260040160206040518083038186803b1580156144f457600080fd5b505afa158015614508573d6000803e3d6000fd5b505050506040513d602081101561451e57600080fd5b810190808051906020019092919050505060088190555061453d6131ca565b5b50505050565b600080821415614557576001905061456d565b6001821415614569576000905061456d565b8190505b919050565b60006145c3601554600a0a6145b560646145a786614599898b6122b590919063ffffffff16565b6122b590919063ffffffff16565b61238290919063ffffffff16565b61238290919063ffffffff16565b90509392505050565b600061466e6146366145fe876145f0601554600a0a896122b590919063ffffffff16565b61238290919063ffffffff16565b6146288661461a601554600a0a886122b590919063ffffffff16565b61238290919063ffffffff16565b61241590919063ffffffff16565b614660601554600a0a614652868961241590919063ffffffff16565b6122b590919063ffffffff16565b61238290919063ffffffff16565b9050949350505050565b60a060405190810160405280600081526020016000815260200160008152602001600081526020016000151581525090565b6060604051908101604052806000801916815260200160008152602001600081525090565b60c0604051908101604052806000815260200160008152602001600081526020016000815260200160008152602001600073ffffffffffffffffffffffffffffffffffffffff1681525090565b6101006040519081016040528060089060208202803883398082019150509050509056fea165627a7a72305820e6b8bfddd7e903b7ad40803221fc96bb588e1e1ae4cbdbd5f2bcf37dee8c5fb90029",
  "source": "pragma solidity ^0.5.0;\r\n\r\nimport \"openzeppelin-solidity/contracts/math/SafeMath.sol\";\r\nimport \"./Oracle/PriceFeed.sol\";\r\nimport \"./Settings.sol\";\r\nimport \"./Depository.sol\";\r\nimport \"./Redeployer.sol\";\r\n\r\ncontract FutureContract {\r\n    \r\n    using SafeMath for uint256;\r\n    \r\n    Settings settings;\r\n    Depository depository;\r\n    Redeployer redeployer;\r\n    \r\n    string  public  ticker;\r\n    uint256 public  number;\r\n    uint256 public  maxLeverage;\r\n    uint256 public  maxOrderValue;\r\n    uint256 public  minOrderValue;\r\n    uint256 public  expirationPrice;\r\n    uint256 public  bancrupcyDiff;    \r\n    uint256 public  lastPrice;  \r\n    address public  redeployedAddress;\r\n\r\n    uint256 public totalPositivePnl;\r\n    uint256 public totalNegativePnl;\r\n    uint256 public totalOpenedPositions;\r\n    uint256 public totalClosedPositions;\r\n    uint256 public totalLiquidated;\r\n    uint256 public totalLongsCost;\r\n    uint256 public totalLongsAmount;\r\n    uint256 public totalShortsCost;\r\n    uint256 public totalShortsAmount;\r\n   \r\n    uint256 private decimal;  \r\n    uint256 private minLeverage = 100;\r\n    uint256 private hundr = 100;\r\n    uint256 private percentMultiplyer = 100;\r\n\r\n\r\n    constructor (\r\n        address _settingsAddress, \r\n        address payable _depositoryAddress, \r\n        uint256 _decimal,\r\n        uint256 _maxOrderValue,\r\n        uint256 _minOrderValue,\r\n        uint256 _bancrupcyDiff,\r\n        string memory _ticker,\r\n        uint256 _number,\r\n        address _redeployerAddress\r\n    ) public {\r\n        settings = Settings(_settingsAddress);\r\n        depository = Depository(_depositoryAddress);\r\n        decimal = _decimal;\r\n        maxOrderValue = _maxOrderValue.mul(10**decimal);\r\n        minOrderValue = _minOrderValue;\r\n        bancrupcyDiff = _bancrupcyDiff;\r\n        number =_number;\r\n        ticker = _ticker;\r\n        redeployer = Redeployer(_redeployerAddress);\r\n        maxLeverage = settings.getMaxLeverage();\r\n    }\r\n\r\n    struct Limit {\r\n        uint256 amount;\r\n        uint256 price;\r\n        uint256 orderType;\r\n        uint256 expires;\r\n        uint256 leverage;\r\n        address account;\r\n    }\r\n    \r\n    struct Market {\r\n        bytes32 orderHash;\r\n        uint256 amount;\r\n        uint256 leverage;\r\n    } \r\n    \r\n    struct Position {\r\n        uint256 amount;\r\n        uint256 price;\r\n        uint256 leverage;\r\n        uint256 positionType;\r\n        bool exists;\r\n    } \r\n    \r\n    mapping (bytes32 => Limit) public orders;\r\n    mapping (address => Position) public positions;\r\n    mapping (bytes32 => uint256) public orderFills;\r\n    \r\n    event LimitOrderLog(address indexed addr, uint256 price, uint256 amount, uint256 orderType, bytes32 hash, uint256 leverage, uint256 expires);\r\n    event MarketOrderLog(bytes32 orderHash, uint256 amount, uint256 price, uint256 positionType, address orderUser, address tradeUser, uint256 timestamp);\r\n    event LiquidatedPosLog(uint256 amount, uint256 price, uint256 positionType, address indexed account, uint256 timestamp);\r\n    event ExpiratedPosLog(uint256 amount, uint256 price, uint256 positionType, address indexed account, uint256 timestamp);\r\n\r\n    event testLog(uint256 num);\r\n\r\n    function placeLimitOrder(uint256 price, uint256 amount, uint256 orderType, uint256 leverage, uint256 expiresIn) public returns (bytes32){\r\n        isValid(price, amount, orderType, leverage);\r\n\r\n        bytes32 hash = sha256(abi.encodePacked(msg.sender, price, amount, now)); \r\n        orders[hash].account = msg.sender;\r\n        orders[hash].price = price;\r\n        orders[hash].amount = amount;\r\n        orders[hash].leverage = leverage;\r\n        orders[hash].orderType = orderType;\r\n        orders[hash].expires = block.number.add(expiresIn)  ;\r\n\r\n        emit LimitOrderLog(msg.sender, price, amount, orderType, hash, leverage, orders[hash].expires);\r\n        return hash;\r\n    }    \r\n    \r\n    function placeMarketOrder(bytes32[] memory orderList, uint256 amount, uint256 leverage) public {\r\n        require(orderList.length <= settings.getMaxMarketLength(), \"order list too long\");\r\n        for (uint256 i=0; i<orderList.length; i++) {\r\n            uint256 submitAmount = trade(orderList[i], amount, leverage);\r\n            if (submitAmount>0) {\r\n                if (submitAmount == amount) break;\r\n                amount = amount.sub(submitAmount);\r\n            }\r\n        }\r\n    }  \r\n\r\n    function expiration(address account) public {\r\n        require(expirationPrice>0);\r\n        // if emergencyMode == true users don't loose and don't earn anythig, pos just closing with initial price        \r\n        if(settings.getEmergencyMode()) expirationPrice = positions[account].price;\r\n        closePosition(account, expirationPrice);\r\n        emit ExpiratedPosLog(positions[account].amount, expirationPrice, positions[account].positionType, account, now);\r\n    }\r\n\r\n\r\n    function liquidatePosition(address account) public {\r\n        require (!settings.getEmergencyMode(), 'Emergency mode enabled');\r\n        require (checkLiquidation(account, depository.getUSDETHPrice()), \"Current price is higher than liquidation price\"); \r\n\r\n        (uint256 bancrupcyPrice, uint256 liquidationPrice) = getPositionLiquidationPrice(account);\r\n               \r\n        Position memory pos = positions[account];\r\n\r\n        (uint256 liquidationPNL, ) = calcPNL(pos.price, liquidationPrice, pos.amount, pos.positionType);\r\n        (uint256 bancrupcyPNL, ) = calcPNL(pos.price, bancrupcyPrice, pos.amount, pos.positionType);       \r\n\r\n        uint256 profit = bancrupcyPNL.sub(liquidationPNL); // count profit for the platform\r\n        closePosition(account, liquidationPrice);\r\n\r\n       depository.setProfit(profit);\r\n       totalLiquidated = totalLiquidated.add(liquidationPNL);\r\n       emit LiquidatedPosLog(pos.amount, liquidationPrice, pos.positionType, account, now);\r\n    }\r\n\r\n    function closePosition(address account, uint256 price) private {\r\n        require (positions[account].exists);\r\n        (uint256 bal, uint256 positivePnl, uint256 negativePnl) = calcBalancePNL(account, price, positions[account].amount);    \r\n        \r\n        depository.updateBalances (account, bal, bal, 0, true);\r\n\r\n        delete positions[account];\r\n        totalPositivePnl = totalPositivePnl.add(positivePnl);\r\n        totalNegativePnl = totalNegativePnl.add(negativePnl);\r\n        totalClosedPositions = totalClosedPositions.add(1);\r\n\r\n        if(totalPositivePnl > totalNegativePnl){ \r\n            depository.decreaseMarginBank(totalPositivePnl.sub(totalNegativePnl));\r\n        }\r\n\r\n        // After closing all opened positions we can get additional profit - difference between total negative pnl and total positve pnl taken by traders.\r\n        if(totalClosedPositions == totalOpenedPositions && totalNegativePnl >= totalPositivePnl  ) {\r\n            depository.setProfit(totalNegativePnl.sub(totalPositivePnl));\r\n        }\r\n    }\r\n\r\n    function setPosition(address account, uint256[8] memory result, uint256 fee, uint256 submitPrice) private {\r\n\r\n        if(settings.contractIsNotExpired(address(this))){\r\n            require (!settings.getEmergencyMode());\r\n            bool exists = positions[account].exists;\r\n            Position memory pos;\r\n            pos.amount = result[1];\r\n            pos.price = result[2];\r\n            pos.positionType = result[3];\r\n            pos.leverage = result[4];\r\n            pos.exists = true;\r\n            uint256 newBal = result[5];\r\n            uint256 availableBalance = newBal.sub(getCost(pos.price, pos.amount, pos.leverage));\r\n            uint256 submitCost = getCost(submitPrice, result[0], pos.leverage);\r\n            uint256 feeValue = submitCost.mul(fee).div(percentMultiplyer.mul(100));\r\n\r\n            positions[account] = pos;\r\n            depository.updateBalances (account, newBal, availableBalance, feeValue, false);\r\n\r\n            if(pos.positionType == 1) {\r\n                totalLongsCost = totalLongsCost.add(submitCost);\r\n                totalLongsAmount = totalLongsAmount.add(pos.amount);\r\n            } else {\r\n                totalShortsCost = totalShortsCost.add(submitCost);\r\n                totalShortsAmount = totalShortsAmount.add(pos.amount);\r\n            }\r\n\r\n            totalPositivePnl = totalPositivePnl.add(result[6]);\r\n            totalNegativePnl = totalNegativePnl.add(result[7]);\r\n\r\n            if(totalPositivePnl > totalNegativePnl){\r\n                depository.decreaseMarginBank(totalPositivePnl.sub(totalNegativePnl));\r\n            }\r\n            \r\n            if(!exists) totalOpenedPositions = totalOpenedPositions.add(1);\r\n\r\n        } else {\r\n            expirationPrice = depository.getUSDETHPrice();\r\n            redeploy();\r\n        }\r\n    }\r\n\r\n    function trade(bytes32 _hash, uint256 _submitAmount, uint256 _leverage) private returns (uint256){\r\n        Market memory m;\r\n        m.amount = _submitAmount;\r\n        m.leverage = _leverage;\r\n        m.orderHash = _hash;        \r\n\r\n        Limit memory limitOrder = orders[m.orderHash];\r\n\r\n        if (limitOrder.amount > 0 && orderFills[m.orderHash] < limitOrder.amount && limitOrder.expires >= block.number) {\r\n            if (orderFills[m.orderHash].add(m.amount) > limitOrder.amount) {\r\n                m.amount = limitOrder.amount.sub(orderFills[m.orderHash]);\r\n            } \r\n\r\n            isValid(limitOrder.price, m.amount, limitOrder.orderType, m.leverage);\r\n\r\n            if (msg.sender!=limitOrder.account) {\r\n                address longAddress = msg.sender;\r\n                address shortAddress = limitOrder.account;\r\n                uint256 shortLeverage  = limitOrder.leverage;\r\n                uint256 longLeverage = m.leverage;\r\n                uint256 shortFee = settings.getLimitOrderFee();\r\n                uint256 longFee = settings.getMarketOrderFee();\r\n           \r\n                if (limitOrder.orderType == 1) {\r\n                    shortAddress = msg.sender;                \r\n                    longAddress = limitOrder.account;\r\n                    shortLeverage  = m.leverage;\r\n                    longLeverage = limitOrder.leverage;\r\n                    shortFee = settings.getMarketOrderFee();\r\n                    longFee = settings.getLimitOrderFee();\r\n                }\r\n                \r\n                uint256 balBeforeShort = depository.getBalance(shortAddress);\r\n                uint256 balBeforeLong = depository.getBalance(longAddress);\r\n\r\n                uint256[8] memory shortResult = calcPosition(shortAddress, limitOrder.price, m.amount, 0, shortLeverage);\r\n                uint256[8] memory longResult = calcPosition(longAddress, limitOrder.price, m.amount, 1, longLeverage);\r\n    \r\n                //recalculate if tradeAmount is less than m.amount\r\n                if(longResult[0] < shortResult[0]) {\r\n                    shortResult = calcPosition(shortAddress, limitOrder.price, longResult[0], 0, shortLeverage);\r\n                } \r\n    \r\n                if(longResult[0] > shortResult[0]) {\r\n                    longResult = calcPosition(longAddress, limitOrder.price, shortResult[0], 1, longLeverage);\r\n                }\r\n\r\n                //prevent frontrunning;\r\n                if(balBeforeShort == depository.getBalance(shortAddress) && balBeforeLong == depository.getBalance(longAddress)){\r\n                    if(shortResult[1]>0) {\r\n                        setPosition(shortAddress, shortResult, shortFee, limitOrder.price);\r\n                        setPosition(longAddress, longResult, longFee, limitOrder.price);\r\n                        orderFills[m.orderHash] = orderFills[m.orderHash].add(shortResult[0]);\r\n                        lastPrice = limitOrder.price; \r\n\r\n                        emit MarketOrderLog(m.orderHash, shortResult[0], limitOrder.price, switchValue(limitOrder.orderType), limitOrder.account, msg.sender, now);\r\n\r\n                    }\r\n                    return shortResult[0];\r\n                } else {\r\n                    return 0;\r\n                }\r\n            }\r\n        }\r\n        return 0;\r\n    }  \r\n\r\n    // View and Pure methods\r\n    \r\n    function isValid(uint256 price, uint256 amount, uint256 orderType, uint256 leverage) private view {\r\n        if (leverage<minLeverage) leverage = minLeverage;\r\n        require(price>0 && \r\n            amount>0 && \r\n            (orderType==0 || orderType==1) &&\r\n            maxLeverage >= leverage &&\r\n            percentMultiplyer <= leverage &&\r\n            expirationPrice==0 &&\r\n            maxOrderValue >= amount.mul(10**decimal).div(price) && \r\n            minOrderValue <= amount.mul(10**decimal).div(price) \r\n            , \"Not Valid Params\");\r\n    }\r\n\r\n    function calcPosition(address _account, uint256 price, uint256 amount, uint256 positionType, uint256 leverage) private view returns(uint256[8] memory) {\r\n        \r\n        Position memory newPos;\r\n        newPos.price = price;\r\n        newPos.amount = amount;\r\n        newPos.leverage = leverage;\r\n        newPos.positionType = positionType;\r\n        \r\n        address account = _account;\r\n        uint256 tradeAmount = amount;        \r\n        uint256 posAmount = amount;\r\n        uint256 posPrice = price;\r\n        uint256 posLeverage = leverage;\r\n        uint256 bal = depository.getBalance(account);\r\n        uint256 availableBal =  depository.getAvailableBalance(account);\r\n        uint256 positivePnl;\r\n        uint256 negativePnl;\r\n\r\n        Position memory pos = positions[account];\r\n\r\n        if (pos.amount > 0 && pos.positionType == newPos.positionType) {\r\n            if(availableBal < getCost(newPos.price, newPos.amount, newPos.leverage)){ \r\n                tradeAmount = getAvailableAmount(availableBal, newPos.price, newPos.leverage);\r\n            }\r\n            posPrice = calcPrice(pos.price, pos.amount, newPos.price, tradeAmount);\r\n            posAmount = pos.amount.add(tradeAmount);\r\n            \r\n        }\r\n        if (pos.amount > 0 && pos.positionType != newPos.positionType && newPos.amount > pos.amount) {\r\n            (bal, positivePnl, negativePnl) = calcBalancePNL(account, newPos.price, pos.amount);\r\n            posAmount = newPos.amount.sub(pos.amount);\r\n            uint256 posCost = getCost(newPos.price, posAmount, newPos.leverage);\r\n            if(bal<posCost) {\r\n                posAmount = getAvailableAmount(bal, newPos.price, newPos.leverage);\r\n                tradeAmount = newPos.amount.sub(posAmount);\r\n            }\r\n        }\r\n        if (pos.amount > 0 && pos.positionType != newPos.positionType && newPos.amount <= pos.amount) {\r\n            (bal, positivePnl, negativePnl) = calcBalancePNL(account, newPos.price, newPos.amount);\r\n            positionType = pos.positionType;\r\n            posPrice = pos.price;\r\n            posAmount = pos.amount.sub(newPos.amount);\r\n        }\r\n        \r\n        if(pos.amount == 0 && availableBal < getCost(newPos.price, newPos.amount, newPos.leverage)) {\r\n            tradeAmount = getAvailableAmount(availableBal, newPos.price, newPos.leverage);\r\n            posAmount = tradeAmount;\r\n        }\r\n\r\n        return [\r\n            tradeAmount,    \r\n            posAmount,\r\n            posPrice,\r\n            positionType, \r\n            posLeverage,\r\n            bal,\r\n            positivePnl,\r\n            negativePnl\r\n        ];\r\n    }\r\n\r\n    function getCost(uint256 price, uint256 amount, uint256 leverage) public view returns (uint256) {\r\n        return amount.mul(percentMultiplyer).mul(10**decimal).div(price).div(leverage);\r\n    }\r\n\r\n    function getAvailableAmount(uint256 availableBal, uint256 price, uint256 leverage) private view returns(uint256){\r\n        return availableBal.mul(price).mul(leverage).div(100).div(10**decimal);\r\n    }   \r\n\r\n    function getCurrentPositionPNL(address account) public view returns (uint256 pnl, bool prefix) {\r\n        Position memory pos = positions[account];\r\n        return calcPNL(pos.price, lastPrice, pos.amount, pos.positionType);\r\n    }\r\n\r\n    function calcPNL(uint256 initialPrice, uint256 currentPrice, uint256 amount, uint256 positionType) private view returns (uint256 pnl, bool prefix) { \r\n        \r\n        //prefix mean: false - negative, true - positive\r\n\r\n        if(positionType == 1) {\r\n            if(initialPrice<=currentPrice) {\r\n                return (SafeMath.mul(SafeMath.sub(SafeMath.div(10**decimal,initialPrice), SafeMath.div(10**decimal,currentPrice)),amount), true);\r\n            } else {\r\n                return (SafeMath.mul(SafeMath.sub(SafeMath.div(10**decimal,currentPrice), SafeMath.div(10**decimal,initialPrice)),amount), false);\r\n            }\r\n        }\r\n\r\n        if(positionType == 0) {\r\n            if(initialPrice>=currentPrice) {\r\n                return (SafeMath.mul(SafeMath.sub(SafeMath.div(10**decimal,currentPrice), SafeMath.div(10**decimal,initialPrice)),amount), true);\r\n            } else {\r\n                return (SafeMath.mul(SafeMath.sub(SafeMath.div(10**decimal,initialPrice), SafeMath.div(10**decimal,currentPrice)),amount), false);\r\n            }\r\n        }\r\n        \r\n        return (0, true);\r\n    }\r\n\r\n    function calcPrice(uint256 initPrice, uint256 initAmount, uint256 price, uint256 amount) private view returns (uint256 _price){\r\n        return initAmount.add(amount).mul(10**decimal).div(amount.mul(10**decimal).div(price).add(initAmount.mul(10**decimal).div(initPrice)));\r\n    }\r\n   \r\n    function calcBalancePNL(address account, uint256 price, uint256 amount) private view returns (uint256, uint256, uint256){\r\n        uint256 bal = depository.getBalance(account);\r\n        Position memory pos = positions[account];\r\n        \r\n        if (pos.amount==0) return (bal, 0, 0);\r\n        (uint256 pnl, bool prefix) = calcPNL(pos.price, price, amount, pos.positionType);\r\n        \r\n        if (prefix) {\r\n            return (bal.add(pnl), pnl, 0);\r\n        } else {\r\n            if(pnl>=bal) return (0, 0, pnl);\r\n            return (bal.sub(pnl), 0, pnl) ;\r\n        }\r\n    }\r\n\r\n\r\n\r\n    function getPositionLiquidationPrice(address account) public view returns (uint256, uint256) {\r\n        Position memory pos = positions[account];\r\n        if(pos.positionType==0){\r\n            uint256 bancrupcyPrice = pos.price.mul(pos.leverage).div((pos.leverage.sub(percentMultiplyer)));\r\n            uint256 liquidationPrice = hundr.sub(bancrupcyDiff).mul(bancrupcyPrice.sub(pos.price)).div(hundr).add(pos.price);\r\n            return (bancrupcyPrice, liquidationPrice);\r\n        } else {\r\n            uint256 bancrupcyPrice = pos.price.sub(pos.price.mul(50).mul(percentMultiplyer).div(pos.leverage).div(hundr));\r\n            uint256 liquidationPrice = pos.price.sub((hundr.sub(bancrupcyDiff)).mul(pos.price.sub(bancrupcyPrice)).div(hundr));\r\n            return (bancrupcyPrice, liquidationPrice);\r\n        }\r\n    }\r\n\r\n    function checkLiquidation(address account, uint256 currPrice) public view returns (bool){\r\n        Position memory pos = positions[account];\r\n        (, uint256 liquidationPrice) = getPositionLiquidationPrice(account);\r\n        if(pos.positionType==0){\r\n            if(currPrice > liquidationPrice) return true;\r\n        } else {\r\n            if(currPrice < liquidationPrice) return true;\r\n        }\r\n        return false;\r\n    } \r\n\r\n    function switchValue(uint256 value) private pure returns (uint256 _value){\r\n        if (value == 0) return 1;\r\n        if (value == 1) return 0;\r\n        return value;\r\n    }\r\n\r\n    function redeploy() private {\r\n        redeployedAddress = redeployer.deploy(address(settings), address(depository), decimal, maxOrderValue, minOrderValue, bancrupcyDiff, ticker, number+1);\r\n        settings.addContract(redeployedAddress, settings.getContractTerms(address(this)));\r\n    }\r\n\r\n\r\n\r\n    function getTotalClosedPositions () public view returns(uint256) {\r\n        return totalClosedPositions;\r\n    }\r\n\r\n    function getTotalNegativePnl () public view returns(uint256) {\r\n        return totalNegativePnl;\r\n    }\r\n\r\n\r\n    function getTotalPositivePnl () public view returns(uint256) {\r\n        return totalPositivePnl;\r\n    }\r\n\r\n\r\n\r\n\r\n    // Testing\r\n    function expirationTest(address account) public {\r\n        expirationPrice = 140*10**9;\r\n        redeploy();\r\n        expiration(account);\r\n    }\r\n}\r\n\r\n",
  "sourcePath": "/home/arct/projects/etherhedge/contracts/FutureContract.sol",
  "compiler": {
    "name": "solc",
    "version": "0.5.0+commit.1d4f565a.Emscripten.clang"
  },
  "schemaVersion": "3.0.9",
  "updatedAt": "2019-09-03T04:44:16.753Z",
  "devdoc": {
    "methods": {}
  },
  "userdoc": {
    "methods": {}
  }
}