{
  "contractName": "PriceOracleInterface",
  "abi": [
    {
      "constant": true,
      "inputs": [],
      "name": "emergencyMode",
      "outputs": [
        {
          "name": "",
          "type": "bool"
        }
      ],
      "payable": false,
      "stateMutability": "view",
      "type": "function"
    },
    {
      "constant": true,
      "inputs": [],
      "name": "owner",
      "outputs": [
        {
          "name": "",
          "type": "address"
        }
      ],
      "payable": false,
      "stateMutability": "view",
      "type": "function"
    },
    {
      "constant": true,
      "inputs": [],
      "name": "priceFeedSource",
      "outputs": [
        {
          "name": "",
          "type": "address"
        }
      ],
      "payable": false,
      "stateMutability": "view",
      "type": "function"
    },
    {
      "inputs": [
        {
          "name": "_owner",
          "type": "address"
        },
        {
          "name": "_priceFeedSource",
          "type": "address"
        }
      ],
      "payable": false,
      "stateMutability": "nonpayable",
      "type": "constructor"
    },
    {
      "constant": false,
      "inputs": [
        {
          "name": "_emergencyMode",
          "type": "bool"
        }
      ],
      "name": "raiseEmergency",
      "outputs": [],
      "payable": false,
      "stateMutability": "nonpayable",
      "type": "function"
    },
    {
      "constant": false,
      "inputs": [
        {
          "name": "_owner",
          "type": "address"
        }
      ],
      "name": "updateCurator",
      "outputs": [],
      "payable": false,
      "stateMutability": "nonpayable",
      "type": "function"
    },
    {
      "constant": true,
      "inputs": [],
      "name": "getUsdEthPricePeek",
      "outputs": [
        {
          "name": "price",
          "type": "bytes32"
        },
        {
          "name": "valid",
          "type": "bool"
        }
      ],
      "payable": false,
      "stateMutability": "view",
      "type": "function"
    },
    {
      "constant": true,
      "inputs": [],
      "name": "getUSDETHPrice",
      "outputs": [
        {
          "name": "",
          "type": "uint256"
        }
      ],
      "payable": false,
      "stateMutability": "view",
      "type": "function"
    }
  ],
  "bytecode": "0x608060405234801561001057600080fd5b506040516040806108028339810180604052604081101561003057600080fd5b81019080805190602001909291908051906020019092919050505081600160006101000a81548173ffffffffffffffffffffffffffffffffffffffff021916908373ffffffffffffffffffffffffffffffffffffffff160217905550806000806101000a81548173ffffffffffffffffffffffffffffffffffffffff021916908373ffffffffffffffffffffffffffffffffffffffff1602179055505050610725806100dd6000396000f3fe608060405260043610610083576000357c0100000000000000000000000000000000000000000000000000000000900463ffffffff1680630905f560146100885780630c6a62dd146100b75780630c8fe9db146101085780638da5cb5b1461013e5780639e385fa414610195578063a3ca17b2146101d2578063c5ace443146101fd575b600080fd5b34801561009457600080fd5b5061009d610254565b604051808215151515815260200191505060405180910390f35b3480156100c357600080fd5b50610106600480360360208110156100da57600080fd5b81019080803573ffffffffffffffffffffffffffffffffffffffff169060200190929190505050610267565b005b34801561011457600080fd5b5061011d610396565b60405180838152602001821515151581526020019250505060405180910390f35b34801561014a57600080fd5b50610153610468565b604051808273ffffffffffffffffffffffffffffffffffffffff1673ffffffffffffffffffffffffffffffffffffffff16815260200191505060405180910390f35b3480156101a157600080fd5b506101d0600480360360208110156101b857600080fd5b8101908080351515906020019092919050505061048e565b005b3480156101de57600080fd5b506101e7610596565b6040518082815260200191505060405180910390f35b34801561020957600080fd5b506102126106d4565b604051808273ffffffffffffffffffffffffffffffffffffffff1673ffffffffffffffffffffffffffffffffffffffff16815260200191505060405180910390f35b600160149054906101000a900460ff1681565b600160009054906101000a900473ffffffffffffffffffffffffffffffffffffffff1673ffffffffffffffffffffffffffffffffffffffff163373ffffffffffffffffffffffffffffffffffffffff16141515610352576040517f08c379a00000000000000000000000000000000000000000000000000000000081526004018080602001828103825260238152602001807f4f6e6c7920746865206f776e65722063616e20646f20746865206f706572617481526020017f696f6e000000000000000000000000000000000000000000000000000000000081525060400191505060405180910390fd5b80600160006101000a81548173ffffffffffffffffffffffffffffffffffffffff021916908373ffffffffffffffffffffffffffffffffffffffff16021790555050565b6000806000809054906101000a900473ffffffffffffffffffffffffffffffffffffffff1673ffffffffffffffffffffffffffffffffffffffff166359e02dd76040518163ffffffff167c0100000000000000000000000000000000000000000000000000000000028152600401604080518083038186803b15801561041b57600080fd5b505afa15801561042f573d6000803e3d6000fd5b505050506040513d604081101561044557600080fd5b810190808051906020019092919080519060200190929190505050915091509091565b600160009054906101000a900473ffffffffffffffffffffffffffffffffffffffff1681565b600160009054906101000a900473ffffffffffffffffffffffffffffffffffffffff1673ffffffffffffffffffffffffffffffffffffffff163373ffffffffffffffffffffffffffffffffffffffff16141515610579576040517f08c379a00000000000000000000000000000000000000000000000000000000081526004018080602001828103825260238152602001807f4f6e6c7920746865206f776e65722063616e20646f20746865206f706572617481526020017f696f6e000000000000000000000000000000000000000000000000000000000081525060400191505060405180910390fd5b80600160146101000a81548160ff02191690831515021790555050565b6000600160149054906101000a900460ff16156105b75761025890506106d1565b60008060009054906101000a900473ffffffffffffffffffffffffffffffffffffffff1673ffffffffffffffffffffffffffffffffffffffff166359e02dd76040518163ffffffff167c0100000000000000000000000000000000000000000000000000000000028152600401604080518083038186803b15801561063b57600080fd5b505afa15801561064f573d6000803e3d6000fd5b505050506040513d604081101561066557600080fd5b8101908080519060200190929190805190602001909291905050505090506000670de0b6b3a7640000826001900481151561069c57fe5b04905060008114156106b3576001925050506106d1565b620f42408111156106cb57620f4240925050506106d1565b80925050505b90565b6000809054906101000a900473ffffffffffffffffffffffffffffffffffffffff168156fea165627a7a72305820905c8fab232248651f8ea7e1f2e41da5af8a8e4931457cf5ae8446d40b34341e0029",
  "source": "pragma solidity ^0.5.0;\n\n/*\nThis contract is the interface between the MakerDAO priceFeed and our DX platform.\n*/\n\nimport \"../Oracle/PriceFeed.sol\";\nimport \"../Oracle/Medianizer.sol\";\n\n\ncontract PriceOracleInterface {\n    address public priceFeedSource;\n    address public owner;\n    bool public emergencyMode;\n\n    // Modifiers\n    modifier onlyOwner() {\n        require(msg.sender == owner, \"Only the owner can do the operation\");\n        _;\n    }\n\n    /// @dev constructor of the contract\n    /// @param _priceFeedSource address of price Feed Source -> should be maker feeds Medianizer contract\n    constructor(address _owner, address _priceFeedSource) public {\n        owner = _owner;\n        priceFeedSource = _priceFeedSource;\n    }\n    \n    /// @dev gives the owner the possibility to put the Interface into an emergencyMode, which will\n    /// output always a price of 600 USD. This gives everyone time to set up a new pricefeed.\n    function raiseEmergency(bool _emergencyMode) public onlyOwner {\n        emergencyMode = _emergencyMode;\n    }\n\n    /// @dev updates the priceFeedSource\n    /// @param _owner address of owner\n    function updateCurator(address _owner) public onlyOwner {\n        owner = _owner;\n    }\n\n    /// @dev returns the USDETH price\n    function getUsdEthPricePeek() public view returns (bytes32 price, bool valid) {\n        return Medianizer(priceFeedSource).peek();\n    }\n\n    /// @dev returns the USDETH price, ie gets the USD price from Maker feed with 18 digits, but last 18 digits are cut off\n    function getUSDETHPrice() public view returns (uint256) {\n        // if the contract is in the emergencyMode, because there is an issue with the oracle, we will simply return a price of 600 USD\n        if (emergencyMode) {\n            return 600;\n        }\n        (bytes32 price, ) = Medianizer(priceFeedSource).peek();\n\n        // ensuring that there is no underflow or overflow possible,\n        // even if the price is compromised\n        uint priceUint = uint256(price)/(1 ether);\n        if (priceUint == 0) {\n            return 1;\n        }\n        if (priceUint > 1000000) {\n            return 1000000; \n        }\n        return priceUint;\n    }\n}\n",
  "sourcePath": "/home/arct/projects/etherhedge/contracts/Oracle/PriceOracleInterface.sol",
  "compiler": {
    "name": "solc",
    "version": "0.5.0+commit.1d4f565a.Emscripten.clang"
  },
  "schemaVersion": "3.0.9",
  "updatedAt": "2019-07-04T01:38:47.553Z",
  "devdoc": {
    "methods": {
      "constructor": {
        "details": "constructor of the contract",
        "params": {
          "_priceFeedSource": "address of price Feed Source -> should be maker feeds Medianizer contract"
        }
      },
      "getUSDETHPrice()": {
        "details": "returns the USDETH price, ie gets the USD price from Maker feed with 18 digits, but last 18 digits are cut off"
      },
      "getUsdEthPricePeek()": {
        "details": "returns the USDETH price"
      },
      "raiseEmergency(bool)": {
        "details": "gives the owner the possibility to put the Interface into an emergencyMode, which will output always a price of 600 USD. This gives everyone time to set up a new pricefeed."
      },
      "updateCurator(address)": {
        "details": "updates the priceFeedSource",
        "params": {
          "_owner": "address of owner"
        }
      }
    }
  },
  "userdoc": {
    "methods": {}
  }
}