{
  "contractName": "Sale",
  "abi": [
    {
      "constant": true,
      "inputs": [],
      "name": "hasClosed",
      "outputs": [
        {
          "name": "",
          "type": "bool"
        }
      ],
      "payable": false,
      "stateMutability": "view",
      "type": "function"
    },
    {
      "constant": true,
      "inputs": [],
      "name": "finalRate",
      "outputs": [
        {
          "name": "",
          "type": "uint256"
        }
      ],
      "payable": false,
      "stateMutability": "view",
      "type": "function"
    },
    {
      "constant": true,
      "inputs": [],
      "name": "rate",
      "outputs": [
        {
          "name": "",
          "type": "uint256"
        }
      ],
      "payable": false,
      "stateMutability": "view",
      "type": "function"
    },
    {
      "constant": true,
      "inputs": [],
      "name": "weiRaised",
      "outputs": [
        {
          "name": "",
          "type": "uint256"
        }
      ],
      "payable": false,
      "stateMutability": "view",
      "type": "function"
    },
    {
      "constant": true,
      "inputs": [],
      "name": "isOpen",
      "outputs": [
        {
          "name": "",
          "type": "bool"
        }
      ],
      "payable": false,
      "stateMutability": "view",
      "type": "function"
    },
    {
      "constant": true,
      "inputs": [],
      "name": "closingTime",
      "outputs": [
        {
          "name": "",
          "type": "uint256"
        }
      ],
      "payable": false,
      "stateMutability": "view",
      "type": "function"
    },
    {
      "constant": true,
      "inputs": [],
      "name": "wallet",
      "outputs": [
        {
          "name": "",
          "type": "address"
        }
      ],
      "payable": false,
      "stateMutability": "view",
      "type": "function"
    },
    {
      "constant": true,
      "inputs": [],
      "name": "initialRate",
      "outputs": [
        {
          "name": "",
          "type": "uint256"
        }
      ],
      "payable": false,
      "stateMutability": "view",
      "type": "function"
    },
    {
      "constant": true,
      "inputs": [],
      "name": "openingTime",
      "outputs": [
        {
          "name": "",
          "type": "uint256"
        }
      ],
      "payable": false,
      "stateMutability": "view",
      "type": "function"
    },
    {
      "constant": false,
      "inputs": [
        {
          "name": "beneficiary",
          "type": "address"
        }
      ],
      "name": "buyTokens",
      "outputs": [],
      "payable": true,
      "stateMutability": "payable",
      "type": "function"
    },
    {
      "constant": true,
      "inputs": [],
      "name": "getCurrentRate",
      "outputs": [
        {
          "name": "",
          "type": "uint256"
        }
      ],
      "payable": false,
      "stateMutability": "view",
      "type": "function"
    },
    {
      "constant": true,
      "inputs": [],
      "name": "token",
      "outputs": [
        {
          "name": "",
          "type": "address"
        }
      ],
      "payable": false,
      "stateMutability": "view",
      "type": "function"
    },
    {
      "inputs": [
        {
          "name": "_rate",
          "type": "uint256"
        },
        {
          "name": "_wallet",
          "type": "address"
        },
        {
          "name": "_token",
          "type": "address"
        },
        {
          "name": "_openingTime",
          "type": "uint256"
        },
        {
          "name": "_closingTime",
          "type": "uint256"
        },
        {
          "name": "_initialRate",
          "type": "uint256"
        },
        {
          "name": "_finalRate",
          "type": "uint256"
        }
      ],
      "payable": false,
      "stateMutability": "nonpayable",
      "type": "constructor"
    },
    {
      "payable": true,
      "stateMutability": "payable",
      "type": "fallback"
    },
    {
      "anonymous": false,
      "inputs": [
        {
          "indexed": false,
          "name": "prevClosingTime",
          "type": "uint256"
        },
        {
          "indexed": false,
          "name": "newClosingTime",
          "type": "uint256"
        }
      ],
      "name": "TimedCrowdsaleExtended",
      "type": "event"
    },
    {
      "anonymous": false,
      "inputs": [
        {
          "indexed": true,
          "name": "purchaser",
          "type": "address"
        },
        {
          "indexed": true,
          "name": "beneficiary",
          "type": "address"
        },
        {
          "indexed": false,
          "name": "value",
          "type": "uint256"
        },
        {
          "indexed": false,
          "name": "amount",
          "type": "uint256"
        }
      ],
      "name": "TokensPurchased",
      "type": "event"
    }
  ],
  "bytecode": "0x608060405234801561001057600080fd5b5060405160e08061130e833981018060405260e081101561003057600080fd5b8101908080519060200190929190805190602001909291908051906020019092919080519060200190929190805190602001909291908051906020019092919080519060200190929190505050818185858a8a8a6001600081905550600083111515610104576040517f08c379a00000000000000000000000000000000000000000000000000000000081526004018080602001828103825260148152602001807f43726f776473616c653a2072617465206973203000000000000000000000000081525060200191505060405180910390fd5b600073ffffffffffffffffffffffffffffffffffffffff168273ffffffffffffffffffffffffffffffffffffffff16141515156101cf576040517f08c379a00000000000000000000000000000000000000000000000000000000081526004018080602001828103825260258152602001807f43726f776473616c653a2077616c6c657420697320746865207a65726f20616481526020017f647265737300000000000000000000000000000000000000000000000000000081525060400191505060405180910390fd5b600073ffffffffffffffffffffffffffffffffffffffff168173ffffffffffffffffffffffffffffffffffffffff161415151561029a576040517f08c379a00000000000000000000000000000000000000000000000000000000081526004018080602001828103825260248152602001807f43726f776473616c653a20746f6b656e20697320746865207a65726f2061646481526020017f726573730000000000000000000000000000000000000000000000000000000081525060400191505060405180910390fd5b8260038190555081600260006101000a81548173ffffffffffffffffffffffffffffffffffffffff021916908373ffffffffffffffffffffffffffffffffffffffff16021790555080600160006101000a81548173ffffffffffffffffffffffffffffffffffffffff021916908373ffffffffffffffffffffffffffffffffffffffff1602179055505050504282101515156103c4576040517f08c379a00000000000000000000000000000000000000000000000000000000081526004018080602001828103825260338152602001807f54696d656443726f776473616c653a206f70656e696e672074696d652069732081526020017f6265666f72652063757272656e742074696d650000000000000000000000000081525060400191505060405180910390fd5b8181111515610461576040517f08c379a00000000000000000000000000000000000000000000000000000000081526004018080602001828103825260378152602001807f54696d656443726f776473616c653a206f70656e696e672074696d652069732081526020017f6e6f74206265666f726520636c6f73696e672074696d6500000000000000000081525060400191505060405180910390fd5b8160058190555080600681905550505060008111151561050f576040517f08c379a00000000000000000000000000000000000000000000000000000000081526004018080602001828103825260298152602001807f496e6372656173696e67507269636543726f776473616c653a2066696e616c2081526020017f726174652069732030000000000000000000000000000000000000000000000081525060400191505060405180910390fd5b80821115156105d2576040517f08c379a00000000000000000000000000000000000000000000000000000000081526004018080602001828103825260458152602001807f496e6372656173696e67507269636543726f776473616c653a20696e6974696181526020017f6c2072617465206973206e6f742067726561746572207468616e2066696e616c81526020017f207261746500000000000000000000000000000000000000000000000000000081525060600191505060405180910390fd5b8160078190555080600881905550505050505050505050610d16806105f86000396000f3fe6080604052600436106100ba576000357c0100000000000000000000000000000000000000000000000000000000900463ffffffff1680631515bc2b146100c557806321106109146100f45780632c4e722e1461011f5780634042b66f1461014a57806347535d7b146101755780634b6753bc146101a4578063521eb273146101cf5780639e51051f14610226578063b7a8807c14610251578063ec8ac4d81461027c578063f7fb07b0146102c0578063fc0c546a146102eb575b6100c333610342565b005b3480156100d157600080fd5b506100da6104a1565b604051808215151515815260200191505060405180910390f35b34801561010057600080fd5b506101096104ad565b6040518082815260200191505060405180910390f35b34801561012b57600080fd5b506101346104b7565b6040518082815260200191505060405180910390f35b34801561015657600080fd5b5061015f61054d565b6040518082815260200191505060405180910390f35b34801561018157600080fd5b5061018a610557565b604051808215151515815260200191505060405180910390f35b3480156101b057600080fd5b506101b9610572565b6040518082815260200191505060405180910390f35b3480156101db57600080fd5b506101e461057c565b604051808273ffffffffffffffffffffffffffffffffffffffff1673ffffffffffffffffffffffffffffffffffffffff16815260200191505060405180910390f35b34801561023257600080fd5b5061023b6105a6565b6040518082815260200191505060405180910390f35b34801561025d57600080fd5b506102666105b0565b6040518082815260200191505060405180910390f35b6102be6004803603602081101561029257600080fd5b81019080803573ffffffffffffffffffffffffffffffffffffffff169060200190929190505050610342565b005b3480156102cc57600080fd5b506102d56105ba565b6040518082815260200191505060405180910390f35b3480156102f757600080fd5b50610300610673565b604051808273ffffffffffffffffffffffffffffffffffffffff1673ffffffffffffffffffffffffffffffffffffffff16815260200191505060405180910390f35b600160008082825401925050819055506000805490506000349050610367838261069d565b600061037282610727565b90506103898260045461074f90919063ffffffff16565b60048190555061039984826107d9565b8373ffffffffffffffffffffffffffffffffffffffff163373ffffffffffffffffffffffffffffffffffffffff167f6faf93231a456e552dbc9961f58d9713ee4f2e69d15f1975b050ef0911053a7b8484604051808381526020018281526020019250505060405180910390a361041084836107e7565b6104186107eb565b6104228483610856565b50506000548114151561049d576040517f08c379a000000000000000000000000000000000000000000000000000000000815260040180806020018281038252601f8152602001807f5265656e7472616e637947756172643a207265656e7472616e742063616c6c0081525060200191505060405180910390fd5b5050565b60006006544211905090565b6000600854905090565b60006040517f08c379a00000000000000000000000000000000000000000000000000000000081526004018080602001828103825260278152602001807f496e6372656173696e67507269636543726f776473616c653a2072617465282981526020017f2063616c6c65640000000000000000000000000000000000000000000000000081525060400191505060405180910390fd5b6000600454905090565b6000600554421015801561056d57506006544211155b905090565b6000600654905090565b6000600260009054906101000a900473ffffffffffffffffffffffffffffffffffffffff16905090565b6000600754905090565b6000600554905090565b60006105c4610557565b15156105d35760009050610670565b60006105ef6105e06105b0565b4261085a90919063ffffffff16565b905060006106146105fe6105b0565b610606610572565b61085a90919063ffffffff16565b9050600061062f60085460075461085a90919063ffffffff16565b905061066a6106598361064b84876108e590919063ffffffff16565b6109b290919063ffffffff16565b60075461085a90919063ffffffff16565b93505050505b90565b6000600160009054906101000a900473ffffffffffffffffffffffffffffffffffffffff16905090565b6106a5610557565b1515610719576040517f08c379a00000000000000000000000000000000000000000000000000000000081526004018080602001828103825260188152602001807f54696d656443726f776473616c653a206e6f74206f70656e000000000000000081525060200191505060405180910390fd5b6107238282610a45565b5050565b6000806107326105ba565b905061074783826108e590919063ffffffff16565b915050919050565b60008082840190508381101515156107cf576040517f08c379a000000000000000000000000000000000000000000000000000000000815260040180806020018281038252601b8152602001807f536166654d6174683a206164646974696f6e206f766572666c6f77000000000081525060200191505060405180910390fd5b8091505092915050565b6107e38282610b8d565b5050565b5050565b600260009054906101000a900473ffffffffffffffffffffffffffffffffffffffff1673ffffffffffffffffffffffffffffffffffffffff166108fc349081150290604051600060405180830381858888f19350505050158015610853573d6000803e3d6000fd5b50565b5050565b60008282111515156108d4576040517f08c379a000000000000000000000000000000000000000000000000000000000815260040180806020018281038252601e8152602001807f536166654d6174683a207375627472616374696f6e206f766572666c6f77000081525060200191505060405180910390fd5b600082840390508091505092915050565b6000808314156108f857600090506109ac565b6000828402905082848281151561090b57fe5b041415156109a7576040517f08c379a00000000000000000000000000000000000000000000000000000000081526004018080602001828103825260218152602001807f536166654d6174683a206d756c7469706c69636174696f6e206f766572666c6f81526020017f770000000000000000000000000000000000000000000000000000000000000081525060400191505060405180910390fd5b809150505b92915050565b60008082111515610a2b576040517f08c379a000000000000000000000000000000000000000000000000000000000815260040180806020018281038252601a8152602001807f536166654d6174683a206469766973696f6e206279207a65726f00000000000081525060200191505060405180910390fd5b60008284811515610a3857fe5b0490508091505092915050565b600073ffffffffffffffffffffffffffffffffffffffff168273ffffffffffffffffffffffffffffffffffffffff1614151515610b10576040517f08c379a000000000000000000000000000000000000000000000000000000000815260040180806020018281038252602a8152602001807f43726f776473616c653a2062656e656669636961727920697320746865207a6581526020017f726f20616464726573730000000000000000000000000000000000000000000081525060400191505060405180910390fd5b60008114151515610b89576040517f08c379a00000000000000000000000000000000000000000000000000000000081526004018080602001828103825260198152602001807f43726f776473616c653a20776569416d6f756e7420697320300000000000000081525060200191505060405180910390fd5b5050565b610b95610673565b73ffffffffffffffffffffffffffffffffffffffff166340c10f1983836040518363ffffffff167c0100000000000000000000000000000000000000000000000000000000028152600401808373ffffffffffffffffffffffffffffffffffffffff1673ffffffffffffffffffffffffffffffffffffffff16815260200182815260200192505050602060405180830381600087803b158015610c3757600080fd5b505af1158015610c4b573d6000803e3d6000fd5b505050506040513d6020811015610c6157600080fd5b81019080805190602001909291905050501515610ce6576040517f08c379a000000000000000000000000000000000000000000000000000000000815260040180806020018281038252601f8152602001807f4d696e74656443726f776473616c653a206d696e74696e67206661696c65640081525060200191505060405180910390fd5b505056fea165627a7a723058200425e66e20858035ff26ee7035f14c2101ff05c7a827b31ef3a11bc8c9109d130029",
  "source": "pragma solidity ^0.5.0;\n\nimport \"openzeppelin-solidity/contracts/token/ERC20/ERC20.sol\";\nimport \"openzeppelin-solidity/contracts/crowdsale/Crowdsale.sol\";\nimport \"openzeppelin-solidity/contracts/crowdsale/emission/MintedCrowdsale.sol\";\nimport \"openzeppelin-solidity/contracts/crowdsale/validation/TimedCrowdsale.sol\";\nimport \"openzeppelin-solidity/contracts/crowdsale/price/IncreasingPriceCrowdsale.sol\";\n\n\ncontract Sale is Crowdsale, TimedCrowdsale, IncreasingPriceCrowdsale, MintedCrowdsale {\n    constructor(\n        uint256 _rate,\n        address payable _wallet,\n        ERC20 _token,\n        uint256 _openingTime,\n        uint256 _closingTime,\n        uint256 _initialRate, \n        uint256 _finalRate\n    )\n        TimedCrowdsale(_openingTime, _closingTime)\n        IncreasingPriceCrowdsale(_initialRate, _finalRate)\n        MintedCrowdsale()\n        Crowdsale(_rate, _wallet, _token)\n        public\n    {\n\n    }\n}\n",
  "sourcePath": "/home/arct/projects/etherhedge/contracts/Sale.sol",
  "compiler": {
    "name": "solc",
    "version": "0.5.0+commit.1d4f565a.Emscripten.clang"
  },
  "schemaVersion": "3.0.9",
  "updatedAt": "2019-08-25T02:09:38.468Z",
  "devdoc": {
    "methods": {
      "buyTokens(address)": {
        "details": "low level token purchase ***DO NOT OVERRIDE*** This function has a non-reentrancy guard, so it shouldn't be called by another `nonReentrant` function.",
        "params": {
          "beneficiary": "Recipient of the token purchase"
        }
      },
      "closingTime()": {
        "return": "the crowdsale closing time."
      },
      "finalRate()": {
        "return": "the final rate of the crowdsale."
      },
      "getCurrentRate()": {
        "details": "Returns the rate of tokens per wei at the present time. Note that, as price _increases_ with time, the rate _decreases_.",
        "return": "The number of tokens a buyer gets per wei at a given time"
      },
      "hasClosed()": {
        "details": "Checks whether the period in which the crowdsale is open has already elapsed.",
        "return": "Whether crowdsale period has elapsed"
      },
      "initialRate()": {
        "return": "the initial rate of the crowdsale."
      },
      "isOpen()": {
        "return": "true if the crowdsale is open, false otherwise."
      },
      "openingTime()": {
        "return": "the crowdsale opening time."
      },
      "token()": {
        "return": "the token being sold."
      },
      "wallet()": {
        "return": "the address where funds are collected."
      },
      "weiRaised()": {
        "return": "the amount of wei raised."
      }
    }
  },
  "userdoc": {
    "methods": {
      "rate()": {
        "notice": "The base rate function is overridden to revert, since this crowdsale doesn't use it, and all calls to it are a mistake."
      }
    }
  }
}