{
  "contractName": "Settings",
  "abi": [
    {
      "constant": true,
      "inputs": [],
      "name": "emergencyMode",
      "outputs": [
        {
          "name": "",
          "type": "bool"
        }
      ],
      "payable": false,
      "stateMutability": "view",
      "type": "function"
    },
    {
      "constant": true,
      "inputs": [
        {
          "name": "",
          "type": "bytes32"
        }
      ],
      "name": "proposals",
      "outputs": [
        {
          "name": "yes",
          "type": "uint256"
        },
        {
          "name": "no",
          "type": "uint256"
        },
        {
          "name": "totalAccounts",
          "type": "uint256"
        },
        {
          "name": "endVotingDate",
          "type": "uint256"
        },
        {
          "name": "activationDate",
          "type": "uint256"
        },
        {
          "name": "propType",
          "type": "uint256"
        },
        {
          "name": "activated",
          "type": "bool"
        },
        {
          "name": "creator",
          "type": "address"
        },
        {
          "name": "expiresIn",
          "type": "uint256"
        },
        {
          "name": "payment",
          "type": "uint256"
        },
        {
          "name": "futureContract",
          "type": "address"
        },
        {
          "name": "param",
          "type": "uint256"
        },
        {
          "name": "value",
          "type": "uint256"
        },
        {
          "name": "priceFeedSource",
          "type": "address"
        }
      ],
      "payable": false,
      "stateMutability": "view",
      "type": "function"
    },
    {
      "constant": false,
      "inputs": [],
      "name": "renounceOwnership",
      "outputs": [],
      "payable": false,
      "stateMutability": "nonpayable",
      "type": "function"
    },
    {
      "constant": true,
      "inputs": [],
      "name": "owner",
      "outputs": [
        {
          "name": "",
          "type": "address"
        }
      ],
      "payable": false,
      "stateMutability": "view",
      "type": "function"
    },
    {
      "constant": true,
      "inputs": [],
      "name": "isOwner",
      "outputs": [
        {
          "name": "",
          "type": "bool"
        }
      ],
      "payable": false,
      "stateMutability": "view",
      "type": "function"
    },
    {
      "constant": true,
      "inputs": [
        {
          "name": "",
          "type": "uint256"
        }
      ],
      "name": "params",
      "outputs": [
        {
          "name": "value",
          "type": "uint256"
        },
        {
          "name": "proposalHash",
          "type": "bytes32"
        },
        {
          "name": "activationDate",
          "type": "uint256"
        }
      ],
      "payable": false,
      "stateMutability": "view",
      "type": "function"
    },
    {
      "constant": true,
      "inputs": [],
      "name": "depositoryAddress",
      "outputs": [
        {
          "name": "",
          "type": "address"
        }
      ],
      "payable": false,
      "stateMutability": "view",
      "type": "function"
    },
    {
      "constant": true,
      "inputs": [],
      "name": "depository",
      "outputs": [
        {
          "name": "",
          "type": "address"
        }
      ],
      "payable": false,
      "stateMutability": "view",
      "type": "function"
    },
    {
      "constant": true,
      "inputs": [],
      "name": "priceFeedSource",
      "outputs": [
        {
          "name": "",
          "type": "address"
        }
      ],
      "payable": false,
      "stateMutability": "view",
      "type": "function"
    },
    {
      "constant": true,
      "inputs": [
        {
          "name": "",
          "type": "address"
        }
      ],
      "name": "stakeLockedUntil",
      "outputs": [
        {
          "name": "",
          "type": "uint256"
        }
      ],
      "payable": false,
      "stateMutability": "view",
      "type": "function"
    },
    {
      "constant": true,
      "inputs": [
        {
          "name": "",
          "type": "address"
        },
        {
          "name": "",
          "type": "bytes32"
        }
      ],
      "name": "voters",
      "outputs": [
        {
          "name": "amount",
          "type": "uint256"
        },
        {
          "name": "vote",
          "type": "bool"
        }
      ],
      "payable": false,
      "stateMutability": "view",
      "type": "function"
    },
    {
      "constant": true,
      "inputs": [
        {
          "name": "",
          "type": "address"
        }
      ],
      "name": "trustedContracts",
      "outputs": [
        {
          "name": "trusted",
          "type": "bool"
        },
        {
          "name": "expirationDate",
          "type": "uint256"
        },
        {
          "name": "activationDate",
          "type": "uint256"
        },
        {
          "name": "terms",
          "type": "uint256"
        }
      ],
      "payable": false,
      "stateMutability": "view",
      "type": "function"
    },
    {
      "constant": false,
      "inputs": [
        {
          "name": "newOwner",
          "type": "address"
        }
      ],
      "name": "transferOwnership",
      "outputs": [],
      "payable": false,
      "stateMutability": "nonpayable",
      "type": "function"
    },
    {
      "constant": true,
      "inputs": [
        {
          "name": "",
          "type": "bytes32"
        }
      ],
      "name": "blocks",
      "outputs": [
        {
          "name": "",
          "type": "uint256"
        }
      ],
      "payable": false,
      "stateMutability": "view",
      "type": "function"
    },
    {
      "inputs": [
        {
          "name": "_votingTime",
          "type": "uint256"
        },
        {
          "name": "_activationIn",
          "type": "uint256"
        },
        {
          "name": "_feeLimit",
          "type": "uint256"
        },
        {
          "name": "_feeMarket",
          "type": "uint256"
        },
        {
          "name": "_maxLeverage",
          "type": "uint256"
        },
        {
          "name": "_liquidationProfit",
          "type": "uint256"
        },
        {
          "name": "_minVotingPercent",
          "type": "uint256"
        },
        {
          "name": "_paramProposalFee",
          "type": "uint256"
        },
        {
          "name": "futureContractProposalFee",
          "type": "uint256"
        },
        {
          "name": "_feeDiscountIndex",
          "type": "uint256"
        },
        {
          "name": "_maxMarketLength",
          "type": "uint256"
        },
        {
          "name": "_blockVotingFee",
          "type": "uint256"
        },
        {
          "name": "_mainTokenAddress",
          "type": "address"
        },
        {
          "name": "_priceFeedSource",
          "type": "address"
        }
      ],
      "payable": false,
      "stateMutability": "nonpayable",
      "type": "constructor"
    },
    {
      "anonymous": false,
      "inputs": [
        {
          "indexed": true,
          "name": "hash",
          "type": "bytes32"
        },
        {
          "indexed": true,
          "name": "creator",
          "type": "address"
        },
        {
          "indexed": true,
          "name": "futureContract",
          "type": "address"
        },
        {
          "indexed": false,
          "name": "startDate",
          "type": "uint256"
        },
        {
          "indexed": false,
          "name": "endDate",
          "type": "uint256"
        },
        {
          "indexed": false,
          "name": "activationDate",
          "type": "uint256"
        },
        {
          "indexed": false,
          "name": "expiresIn",
          "type": "uint256"
        },
        {
          "indexed": false,
          "name": "title",
          "type": "string"
        },
        {
          "indexed": false,
          "name": "description",
          "type": "string"
        },
        {
          "indexed": false,
          "name": "ipfs",
          "type": "string"
        },
        {
          "indexed": false,
          "name": "url",
          "type": "string"
        },
        {
          "indexed": false,
          "name": "propType",
          "type": "uint256"
        }
      ],
      "name": "AddContractProposalLog",
      "type": "event"
    },
    {
      "anonymous": false,
      "inputs": [
        {
          "indexed": true,
          "name": "hash",
          "type": "bytes32"
        },
        {
          "indexed": true,
          "name": "creator",
          "type": "address"
        },
        {
          "indexed": true,
          "name": "futureContract",
          "type": "address"
        },
        {
          "indexed": false,
          "name": "startDate",
          "type": "uint256"
        },
        {
          "indexed": false,
          "name": "endDate",
          "type": "uint256"
        },
        {
          "indexed": false,
          "name": "activationDate",
          "type": "uint256"
        },
        {
          "indexed": false,
          "name": "description",
          "type": "string"
        },
        {
          "indexed": false,
          "name": "ipfs",
          "type": "string"
        },
        {
          "indexed": false,
          "name": "propType",
          "type": "uint256"
        }
      ],
      "name": "RemoveContractProposalLog",
      "type": "event"
    },
    {
      "anonymous": false,
      "inputs": [
        {
          "indexed": true,
          "name": "hash",
          "type": "bytes32"
        },
        {
          "indexed": true,
          "name": "creator",
          "type": "address"
        },
        {
          "indexed": false,
          "name": "param",
          "type": "uint256"
        },
        {
          "indexed": false,
          "name": "value",
          "type": "uint256"
        },
        {
          "indexed": false,
          "name": "startDate",
          "type": "uint256"
        },
        {
          "indexed": false,
          "name": "endDate",
          "type": "uint256"
        },
        {
          "indexed": false,
          "name": "activationDate",
          "type": "uint256"
        },
        {
          "indexed": false,
          "name": "description",
          "type": "string"
        },
        {
          "indexed": false,
          "name": "propType",
          "type": "uint256"
        }
      ],
      "name": "paramProposaLog",
      "type": "event"
    },
    {
      "anonymous": false,
      "inputs": [
        {
          "indexed": true,
          "name": "hash",
          "type": "bytes32"
        },
        {
          "indexed": true,
          "name": "creator",
          "type": "address"
        },
        {
          "indexed": false,
          "name": "startDate",
          "type": "uint256"
        },
        {
          "indexed": false,
          "name": "endDate",
          "type": "uint256"
        },
        {
          "indexed": false,
          "name": "activationDate",
          "type": "uint256"
        },
        {
          "indexed": false,
          "name": "title",
          "type": "string"
        },
        {
          "indexed": false,
          "name": "description",
          "type": "string"
        },
        {
          "indexed": false,
          "name": "url",
          "type": "string"
        },
        {
          "indexed": false,
          "name": "propType",
          "type": "uint256"
        }
      ],
      "name": "AddProjectProposalLog",
      "type": "event"
    },
    {
      "anonymous": false,
      "inputs": [
        {
          "indexed": true,
          "name": "hash",
          "type": "bytes32"
        },
        {
          "indexed": true,
          "name": "creator",
          "type": "address"
        },
        {
          "indexed": false,
          "name": "startDate",
          "type": "uint256"
        },
        {
          "indexed": false,
          "name": "endDate",
          "type": "uint256"
        },
        {
          "indexed": false,
          "name": "activationDate",
          "type": "uint256"
        },
        {
          "indexed": false,
          "name": "title",
          "type": "string"
        },
        {
          "indexed": false,
          "name": "description",
          "type": "string"
        },
        {
          "indexed": false,
          "name": "propType",
          "type": "uint256"
        }
      ],
      "name": "ChangePriceFeedProposalLog",
      "type": "event"
    },
    {
      "anonymous": false,
      "inputs": [
        {
          "indexed": true,
          "name": "voter",
          "type": "address"
        },
        {
          "indexed": false,
          "name": "vote",
          "type": "bool"
        },
        {
          "indexed": true,
          "name": "hash",
          "type": "bytes32"
        }
      ],
      "name": "votedLog",
      "type": "event"
    },
    {
      "anonymous": false,
      "inputs": [
        {
          "indexed": true,
          "name": "futureContract",
          "type": "address"
        }
      ],
      "name": "addedContractLog",
      "type": "event"
    },
    {
      "anonymous": false,
      "inputs": [
        {
          "indexed": true,
          "name": "futureContract",
          "type": "address"
        }
      ],
      "name": "removedContractLog",
      "type": "event"
    },
    {
      "anonymous": false,
      "inputs": [
        {
          "indexed": true,
          "name": "sender",
          "type": "address"
        },
        {
          "indexed": true,
          "name": "hash",
          "type": "bytes32"
        }
      ],
      "name": "activatedAddContractProposal",
      "type": "event"
    },
    {
      "anonymous": false,
      "inputs": [
        {
          "indexed": true,
          "name": "previousOwner",
          "type": "address"
        },
        {
          "indexed": true,
          "name": "newOwner",
          "type": "address"
        }
      ],
      "name": "OwnershipTransferred",
      "type": "event"
    },
    {
      "constant": false,
      "inputs": [
        {
          "name": "addr",
          "type": "address"
        }
      ],
      "name": "setDepository",
      "outputs": [],
      "payable": false,
      "stateMutability": "nonpayable",
      "type": "function"
    },
    {
      "constant": false,
      "inputs": [
        {
          "name": "futureContract",
          "type": "address"
        },
        {
          "name": "expiresIn",
          "type": "uint256"
        },
        {
          "name": "title",
          "type": "string"
        },
        {
          "name": "description",
          "type": "string"
        },
        {
          "name": "ipfs",
          "type": "string"
        },
        {
          "name": "url",
          "type": "string"
        },
        {
          "name": "payment",
          "type": "uint256"
        }
      ],
      "name": "addContractProposal",
      "outputs": [],
      "payable": true,
      "stateMutability": "payable",
      "type": "function"
    },
    {
      "constant": false,
      "inputs": [
        {
          "name": "futureContract",
          "type": "address"
        },
        {
          "name": "description",
          "type": "string"
        },
        {
          "name": "ipfs",
          "type": "string"
        }
      ],
      "name": "removeContractProposal",
      "outputs": [],
      "payable": true,
      "stateMutability": "payable",
      "type": "function"
    },
    {
      "constant": false,
      "inputs": [
        {
          "name": "param",
          "type": "uint256"
        },
        {
          "name": "value",
          "type": "uint256"
        },
        {
          "name": "description",
          "type": "string"
        }
      ],
      "name": "paramProposal",
      "outputs": [],
      "payable": true,
      "stateMutability": "payable",
      "type": "function"
    },
    {
      "constant": false,
      "inputs": [
        {
          "name": "title",
          "type": "string"
        },
        {
          "name": "description",
          "type": "string"
        },
        {
          "name": "url",
          "type": "string"
        },
        {
          "name": "payment",
          "type": "uint256"
        }
      ],
      "name": "addProjectProposal",
      "outputs": [],
      "payable": true,
      "stateMutability": "payable",
      "type": "function"
    },
    {
      "constant": false,
      "inputs": [
        {
          "name": "title",
          "type": "string"
        },
        {
          "name": "description",
          "type": "string"
        },
        {
          "name": "_priceFeedSource",
          "type": "address"
        }
      ],
      "name": "changePriceFeedProposal",
      "outputs": [],
      "payable": true,
      "stateMutability": "payable",
      "type": "function"
    },
    {
      "constant": false,
      "inputs": [
        {
          "name": "vote",
          "type": "bool"
        },
        {
          "name": "hash",
          "type": "bytes32"
        }
      ],
      "name": "voteProposal",
      "outputs": [],
      "payable": false,
      "stateMutability": "nonpayable",
      "type": "function"
    },
    {
      "constant": false,
      "inputs": [
        {
          "name": "hash",
          "type": "bytes32"
        }
      ],
      "name": "activateProposal",
      "outputs": [],
      "payable": false,
      "stateMutability": "nonpayable",
      "type": "function"
    },
    {
      "constant": false,
      "inputs": [
        {
          "name": "hash",
          "type": "bytes32"
        }
      ],
      "name": "blockVoting",
      "outputs": [],
      "payable": true,
      "stateMutability": "payable",
      "type": "function"
    },
    {
      "constant": false,
      "inputs": [
        {
          "name": "addr",
          "type": "address"
        },
        {
          "name": "expiresIn",
          "type": "uint256"
        }
      ],
      "name": "addContract",
      "outputs": [],
      "payable": false,
      "stateMutability": "nonpayable",
      "type": "function"
    },
    {
      "constant": true,
      "inputs": [
        {
          "name": "totalAmountVoted",
          "type": "uint256"
        }
      ],
      "name": "checkMinVotingPercent",
      "outputs": [
        {
          "name": "",
          "type": "bool"
        }
      ],
      "payable": false,
      "stateMutability": "view",
      "type": "function"
    },
    {
      "constant": true,
      "inputs": [],
      "name": "getVotingTime",
      "outputs": [
        {
          "name": "",
          "type": "uint256"
        }
      ],
      "payable": false,
      "stateMutability": "view",
      "type": "function"
    },
    {
      "constant": true,
      "inputs": [],
      "name": "getActivationTime",
      "outputs": [
        {
          "name": "",
          "type": "uint256"
        }
      ],
      "payable": false,
      "stateMutability": "view",
      "type": "function"
    },
    {
      "constant": true,
      "inputs": [],
      "name": "getLimitOrderFee",
      "outputs": [
        {
          "name": "",
          "type": "uint256"
        }
      ],
      "payable": false,
      "stateMutability": "view",
      "type": "function"
    },
    {
      "constant": true,
      "inputs": [],
      "name": "getMarketOrderFee",
      "outputs": [
        {
          "name": "",
          "type": "uint256"
        }
      ],
      "payable": false,
      "stateMutability": "view",
      "type": "function"
    },
    {
      "constant": true,
      "inputs": [],
      "name": "getMaxLeverage",
      "outputs": [
        {
          "name": "",
          "type": "uint256"
        }
      ],
      "payable": false,
      "stateMutability": "view",
      "type": "function"
    },
    {
      "constant": true,
      "inputs": [],
      "name": "getLiquidationProfit",
      "outputs": [
        {
          "name": "",
          "type": "uint256"
        }
      ],
      "payable": false,
      "stateMutability": "view",
      "type": "function"
    },
    {
      "constant": true,
      "inputs": [],
      "name": "getMinVotingPercent",
      "outputs": [
        {
          "name": "",
          "type": "uint256"
        }
      ],
      "payable": false,
      "stateMutability": "view",
      "type": "function"
    },
    {
      "constant": true,
      "inputs": [],
      "name": "getParamProposalFee",
      "outputs": [
        {
          "name": "",
          "type": "uint256"
        }
      ],
      "payable": false,
      "stateMutability": "view",
      "type": "function"
    },
    {
      "constant": true,
      "inputs": [],
      "name": "getContractProposalFee",
      "outputs": [
        {
          "name": "",
          "type": "uint256"
        }
      ],
      "payable": false,
      "stateMutability": "view",
      "type": "function"
    },
    {
      "constant": true,
      "inputs": [],
      "name": "getFeeDiscountIndex",
      "outputs": [
        {
          "name": "",
          "type": "uint256"
        }
      ],
      "payable": false,
      "stateMutability": "view",
      "type": "function"
    },
    {
      "constant": true,
      "inputs": [],
      "name": "getMaxMarketLength",
      "outputs": [
        {
          "name": "",
          "type": "uint256"
        }
      ],
      "payable": false,
      "stateMutability": "view",
      "type": "function"
    },
    {
      "constant": true,
      "inputs": [],
      "name": "getBlockVotingFee",
      "outputs": [
        {
          "name": "",
          "type": "uint256"
        }
      ],
      "payable": false,
      "stateMutability": "view",
      "type": "function"
    },
    {
      "constant": true,
      "inputs": [
        {
          "name": "account",
          "type": "address"
        },
        {
          "name": "hash",
          "type": "bytes32"
        }
      ],
      "name": "getAccountVote",
      "outputs": [
        {
          "name": "",
          "type": "bool"
        }
      ],
      "payable": false,
      "stateMutability": "view",
      "type": "function"
    },
    {
      "constant": true,
      "inputs": [
        {
          "name": "account",
          "type": "address"
        },
        {
          "name": "hash",
          "type": "bytes32"
        }
      ],
      "name": "getAccountVoteAmount",
      "outputs": [
        {
          "name": "",
          "type": "uint256"
        }
      ],
      "payable": false,
      "stateMutability": "view",
      "type": "function"
    },
    {
      "constant": false,
      "inputs": [
        {
          "name": "_emergencyMode",
          "type": "bool"
        }
      ],
      "name": "raiseEmergency",
      "outputs": [],
      "payable": false,
      "stateMutability": "nonpayable",
      "type": "function"
    },
    {
      "constant": true,
      "inputs": [
        {
          "name": "account",
          "type": "address"
        }
      ],
      "name": "contractIsTrusted",
      "outputs": [
        {
          "name": "",
          "type": "bool"
        }
      ],
      "payable": false,
      "stateMutability": "view",
      "type": "function"
    },
    {
      "constant": true,
      "inputs": [
        {
          "name": "account",
          "type": "address"
        }
      ],
      "name": "contractIsNotExpired",
      "outputs": [
        {
          "name": "",
          "type": "bool"
        }
      ],
      "payable": false,
      "stateMutability": "view",
      "type": "function"
    },
    {
      "constant": true,
      "inputs": [
        {
          "name": "account",
          "type": "address"
        }
      ],
      "name": "getContractTerms",
      "outputs": [
        {
          "name": "",
          "type": "uint256"
        }
      ],
      "payable": false,
      "stateMutability": "view",
      "type": "function"
    },
    {
      "constant": true,
      "inputs": [],
      "name": "getEmergencyMode",
      "outputs": [
        {
          "name": "",
          "type": "bool"
        }
      ],
      "payable": false,
      "stateMutability": "view",
      "type": "function"
    },
    {
      "constant": true,
      "inputs": [
        {
          "name": "account",
          "type": "address"
        }
      ],
      "name": "stakeIsLocked",
      "outputs": [
        {
          "name": "",
          "type": "bool"
        }
      ],
      "payable": false,
      "stateMutability": "view",
      "type": "function"
    }
  ],
  "bytecode": "0x60806040523480156200001157600080fd5b506040516101c080620057e783398101806040526101c08110156200003557600080fd5b810190808051906020019092919080519060200190929190805190602001909291908051906020019092919080519060200190929190805190602001909291908051906020019092919080519060200190929190805190602001909291908051906020019092919080519060200190929190805190602001909291908051906020019092919080519060200190929190505050336000806101000a81548173ffffffffffffffffffffffffffffffffffffffff021916908373ffffffffffffffffffffffffffffffffffffffff1602179055506000809054906101000a900473ffffffffffffffffffffffffffffffffffffffff1673ffffffffffffffffffffffffffffffffffffffff16600073ffffffffffffffffffffffffffffffffffffffff167f8be0079c531659141344cd1fd0a4f28419497f9722a3daafe3b4186f6b6457e060405160405180910390a360008090505b600c81101562000206576200019e62000470565b42816040018181525050600a81908060018154018082558091505090600182039060005260206000209060030201600090919290919091506000820151816000015560208201518160010155604082015181600201555050505080806001019150506200018a565b508d600a60008154811015156200021957fe5b9060005260206000209060030201600001819055508c600a60018154811015156200024057fe5b9060005260206000209060030201600001819055508b600a60028154811015156200026757fe5b9060005260206000209060030201600001819055508a600a60038154811015156200028e57fe5b90600052602060002090600302016000018190555089600a6004815481101515620002b557fe5b90600052602060002090600302016000018190555088600a6005815481101515620002dc57fe5b90600052602060002090600302016000018190555087600a60068154811015156200030357fe5b90600052602060002090600302016000018190555086600a60078154811015156200032a57fe5b90600052602060002090600302016000018190555085600a60088154811015156200035157fe5b90600052602060002090600302016000018190555084600a60098154811015156200037857fe5b90600052602060002090600302016000018190555083600a808154811015156200039e57fe5b90600052602060002090600302016000018190555082600a600b815481101515620003c557fe5b90600052602060002090600302016000018190555080600960006101000a81548173ffffffffffffffffffffffffffffffffffffffff021916908373ffffffffffffffffffffffffffffffffffffffff16021790555081600660006101000a81548173ffffffffffffffffffffffffffffffffffffffff021916908373ffffffffffffffffffffffffffffffffffffffff160217905550505050505050505050505050505062000495565b6060604051908101604052806000815260200160008019168152602001600081525090565b61534280620004a56000396000f3fe608060405260043610610224576000357c0100000000000000000000000000000000000000000000000000000000900463ffffffff16806245e4e3146102295780630905f5601461029257806309f127ee146102c15780630bae037a146102ec5780630ea8b3bf1461031757806315c2f6361461034257806332ed5b121461036d57806334b08c051461049f57806337472c4b146104ca578063407e678c1461051b5780634da807ca1461056e5780635f891cce1461059957806366d4047a146106085780636b1500c8146106335780636f8264cb146106a6578063715018a6146106d457806377335ba6146106eb578063782c0092146107325780637aa980241461080157806387350e331461082c5780638da5cb5b146108575780638f32d59b146108ae57806396b63e3d146108dd5780639a1cb76d146109185780639d2f053c14610bcc5780639e385fa414610c29578063a6cce4dd14610c66578063aa52e64c14610cbd578063ab41daa414610d22578063adaa139914610d8b578063b5522e8914610db6578063ba26aca414610e11578063bedd12a514610e3c578063c5ace44314610e93578063c76e796a14610eea578063c80048bb146110dd578063cb75e1f414611142578063d95e0e36146112b4578063e5919a4f1461132e578063e793a38d146113ac578063ec1eb46e146113db578063f025ac6214611406578063f2fde38b14611578578063f588a96a146115c9578063f980504114611618575b600080fd5b34801561023557600080fd5b506102786004803603602081101561024c57600080fd5b81019080803573ffffffffffffffffffffffffffffffffffffffff169060200190929190505050611681565b604051808215151515815260200191505060405180910390f35b34801561029e57600080fd5b506102a76116da565b604051808215151515815260200191505060405180910390f35b3480156102cd57600080fd5b506102d66116ed565b6040518082815260200191505060405180910390f35b3480156102f857600080fd5b50610301611716565b6040518082815260200191505060405180910390f35b34801561032357600080fd5b5061032c61173f565b6040518082815260200191505060405180910390f35b34801561034e57600080fd5b50610357611768565b6040518082815260200191505060405180910390f35b34801561037957600080fd5b506103a66004803603602081101561039057600080fd5b8101908080359060200190929190505050611791565b604051808f81526020018e81526020018d81526020018c81526020018b81526020018a8152602001891515151581526020018873ffffffffffffffffffffffffffffffffffffffff1673ffffffffffffffffffffffffffffffffffffffff1681526020018781526020018681526020018573ffffffffffffffffffffffffffffffffffffffff1673ffffffffffffffffffffffffffffffffffffffff1681526020018481526020018381526020018273ffffffffffffffffffffffffffffffffffffffff1673ffffffffffffffffffffffffffffffffffffffff1681526020019e50505050505050505050505050505060405180910390f35b3480156104ab57600080fd5b506104b461186a565b6040518082815260200191505060405180910390f35b3480156104d657600080fd5b50610519600480360360208110156104ed57600080fd5b81019080803573ffffffffffffffffffffffffffffffffffffffff169060200190929190505050611893565b005b34801561052757600080fd5b506105546004803603602081101561053e57600080fd5b81019080803590602001909291905050506119f1565b604051808215151515815260200191505060405180910390f35b34801561057a57600080fd5b50610583611ae7565b6040518082815260200191505060405180910390f35b3480156105a557600080fd5b506105f2600480360360408110156105bc57600080fd5b81019080803573ffffffffffffffffffffffffffffffffffffffff16906020019092919080359060200190929190505050611b0f565b6040518082815260200191505060405180910390f35b34801561061457600080fd5b5061061d611b6d565b6040518082815260200191505060405180910390f35b34801561063f57600080fd5b5061068c6004803603604081101561065657600080fd5b81019080803573ffffffffffffffffffffffffffffffffffffffff16906020019092919080359060200190929190505050611b96565b604051808215151515815260200191505060405180910390f35b6106d2600480360360208110156106bc57600080fd5b8101908080359060200190929190505050611c01565b005b3480156106e057600080fd5b506106e96121fd565b005b3480156106f757600080fd5b506107306004803603604081101561070e57600080fd5b8101908080351515906020019092919080359060200190929190505050612338565b005b6107ff6004803603606081101561074857600080fd5b8101908080359060200190929190803590602001909291908035906020019064010000000081111561077957600080fd5b82018360208201111561078b57600080fd5b803590602001918460018302840111640100000000831117156107ad57600080fd5b91908080601f016020809104026020016040519081016040528093929190818152602001838380828437600081840152601f19601f820116905080830192505050505050509192919290505050612872565b005b34801561080d57600080fd5b50610816612c05565b6040518082815260200191505060405180910390f35b34801561083857600080fd5b50610841612c2e565b6040518082815260200191505060405180910390f35b34801561086357600080fd5b5061086c612c57565b604051808273ffffffffffffffffffffffffffffffffffffffff1673ffffffffffffffffffffffffffffffffffffffff16815260200191505060405180910390f35b3480156108ba57600080fd5b506108c3612c80565b604051808215151515815260200191505060405180910390f35b3480156108e957600080fd5b506109166004803603602081101561090057600080fd5b8101908080359060200190929190505050612cd7565b005b610bca600480360360e081101561092e57600080fd5b81019080803573ffffffffffffffffffffffffffffffffffffffff169060200190929190803590602001909291908035906020019064010000000081111561097557600080fd5b82018360208201111561098757600080fd5b803590602001918460018302840111640100000000831117156109a957600080fd5b91908080601f016020809104026020016040519081016040528093929190818152602001838380828437600081840152601f19601f82011690508083019250505050505050919291929080359060200190640100000000811115610a0c57600080fd5b820183602082011115610a1e57600080fd5b80359060200191846001830284011164010000000083111715610a4057600080fd5b91908080601f016020809104026020016040519081016040528093929190818152602001838380828437600081840152601f19601f82011690508083019250505050505050919291929080359060200190640100000000811115610aa357600080fd5b820183602082011115610ab557600080fd5b80359060200191846001830284011164010000000083111715610ad757600080fd5b91908080601f016020809104026020016040519081016040528093929190818152602001838380828437600081840152601f19601f82011690508083019250505050505050919291929080359060200190640100000000811115610b3a57600080fd5b820183602082011115610b4c57600080fd5b80359060200191846001830284011164010000000083111715610b6e57600080fd5b91908080601f016020809104026020016040519081016040528093929190818152602001838380828437600081840152601f19601f82011690508083019250505050505050919291929080359060200190929190505050613618565b005b348015610bd857600080fd5b50610c0560048036036020811015610bef57600080fd5b8101908080359060200190929190505050613b90565b60405180848152602001838152602001828152602001935050505060405180910390f35b348015610c3557600080fd5b50610c6460048036036020811015610c4c57600080fd5b81019080803515159060200190929190505050613bc9565b005b348015610c7257600080fd5b50610c7b613c62565b604051808273ffffffffffffffffffffffffffffffffffffffff1673ffffffffffffffffffffffffffffffffffffffff16815260200191505060405180910390f35b348015610cc957600080fd5b50610d0c60048036036020811015610ce057600080fd5b81019080803573ffffffffffffffffffffffffffffffffffffffff169060200190929190505050613c88565b6040518082815260200191505060405180910390f35b348015610d2e57600080fd5b50610d7160048036036020811015610d4557600080fd5b81019080803573ffffffffffffffffffffffffffffffffffffffff169060200190929190505050613cd4565b604051808215151515815260200191505060405180910390f35b348015610d9757600080fd5b50610da0613d1f565b6040518082815260200191505060405180910390f35b348015610dc257600080fd5b50610e0f60048036036040811015610dd957600080fd5b81019080803573ffffffffffffffffffffffffffffffffffffffff16906020019092919080359060200190929190505050613d48565b005b348015610e1d57600080fd5b50610e26613eec565b6040518082815260200191505060405180910390f35b348015610e4857600080fd5b50610e51613f15565b604051808273ffffffffffffffffffffffffffffffffffffffff1673ffffffffffffffffffffffffffffffffffffffff16815260200191505060405180910390f35b348015610e9f57600080fd5b50610ea8613f3b565b604051808273ffffffffffffffffffffffffffffffffffffffff1673ffffffffffffffffffffffffffffffffffffffff16815260200191505060405180910390f35b6110db60048036036080811015610f0057600080fd5b8101908080359060200190640100000000811115610f1d57600080fd5b820183602082011115610f2f57600080fd5b80359060200191846001830284011164010000000083111715610f5157600080fd5b91908080601f016020809104026020016040519081016040528093929190818152602001838380828437600081840152601f19601f82011690508083019250505050505050919291929080359060200190640100000000811115610fb457600080fd5b820183602082011115610fc657600080fd5b80359060200191846001830284011164010000000083111715610fe857600080fd5b91908080601f016020809104026020016040519081016040528093929190818152602001838380828437600081840152601f19601f8201169050808301925050505050505091929192908035906020019064010000000081111561104b57600080fd5b82018360208201111561105d57600080fd5b8035906020019184600183028401116401000000008311171561107f57600080fd5b91908080601f016020809104026020016040519081016040528093929190818152602001838380828437600081840152601f19601f82011690508083019250505050505050919291929080359060200190929190505050613f61565b005b3480156110e957600080fd5b5061112c6004803603602081101561110057600080fd5b81019080803573ffffffffffffffffffffffffffffffffffffffff1690602001909291905050506144ed565b6040518082815260200191505060405180910390f35b6112b26004803603606081101561115857600080fd5b81019080803573ffffffffffffffffffffffffffffffffffffffff1690602001909291908035906020019064010000000081111561119557600080fd5b8201836020820111156111a757600080fd5b803590602001918460018302840111640100000000831117156111c957600080fd5b91908080601f016020809104026020016040519081016040528093929190818152602001838380828437600081840152601f19601f8201169050808301925050505050505091929192908035906020019064010000000081111561122c57600080fd5b82018360208201111561123e57600080fd5b8035906020019184600183028401116401000000008311171561126057600080fd5b91908080601f016020809104026020016040519081016040528093929190818152602001838380828437600081840152601f19601f820116905080830192505050505050509192919290505050614505565b005b3480156112c057600080fd5b5061130d600480360360408110156112d757600080fd5b81019080803573ffffffffffffffffffffffffffffffffffffffff16906020019092919080359060200190929190505050614960565b60405180838152602001821515151581526020019250505060405180910390f35b34801561133a57600080fd5b5061137d6004803603602081101561135157600080fd5b81019080803573ffffffffffffffffffffffffffffffffffffffff16906020019092919050505061499e565b604051808515151515815260200184815260200183815260200182815260200194505050505060405180910390f35b3480156113b857600080fd5b506113c16149db565b604051808215151515815260200191505060405180910390f35b3480156113e757600080fd5b506113f06149f2565b6040518082815260200191505060405180910390f35b6115766004803603606081101561141c57600080fd5b810190808035906020019064010000000081111561143957600080fd5b82018360208201111561144b57600080fd5b8035906020019184600183028401116401000000008311171561146d57600080fd5b91908080601f016020809104026020016040519081016040528093929190818152602001838380828437600081840152601f19601f820116905080830192505050505050509192919290803590602001906401000000008111156114d057600080fd5b8201836020820111156114e257600080fd5b8035906020019184600183028401116401000000008311171561150457600080fd5b91908080601f016020809104026020016040519081016040528093929190818152602001838380828437600081840152601f19601f820116905080830192505050505050509192919290803573ffffffffffffffffffffffffffffffffffffffff169060200190929190505050614a1b565b005b34801561158457600080fd5b506115c76004803603602081101561159b57600080fd5b81019080803573ffffffffffffffffffffffffffffffffffffffff169060200190929190505050614e2a565b005b3480156115d557600080fd5b50611602600480360360208110156115ec57600080fd5b8101908080359060200190929190505050614eb2565b6040518082815260200191505060405180910390f35b34801561162457600080fd5b506116676004803603602081101561163b57600080fd5b81019080803573ffffffffffffffffffffffffffffffffffffffff169060200190929190505050614eca565b604051808215151515815260200191505060405180910390f35b6000600560008373ffffffffffffffffffffffffffffffffffffffff1673ffffffffffffffffffffffffffffffffffffffff16815260200190815260200160002060000160009054906101000a900460ff169050919050565b600960149054906101000a900460ff1681565b6000600a600b8154811015156116ff57fe5b906000526020600020906003020160000154905090565b6000600a600781548110151561172857fe5b906000526020600020906003020160000154905090565b6000600a600481548110151561175157fe5b906000526020600020906003020160000154905090565b6000600a600081548110151561177a57fe5b906000526020600020906003020160000154905090565b60016020528060005260406000206000915090508060000154908060010154908060020154908060030154908060040154908060050154908060060160009054906101000a900460ff16908060060160019054906101000a900473ffffffffffffffffffffffffffffffffffffffff16908060070154908060080154908060090160009054906101000a900473ffffffffffffffffffffffffffffffffffffffff169080600a01549080600b01549080600c0160009054906101000a900473ffffffffffffffffffffffffffffffffffffffff1690508e565b6000600a600281548110151561187c57fe5b906000526020600020906003020160000154905090565b61189b612c80565b151561190f576040517f08c379a00000000000000000000000000000000000000000000000000000000081526004018080602001828103825260208152602001807f4f776e61626c653a2063616c6c6572206973206e6f7420746865206f776e657281525060200191505060405180910390fd5b600073ffffffffffffffffffffffffffffffffffffffff16600860009054906101000a900473ffffffffffffffffffffffffffffffffffffffff1673ffffffffffffffffffffffffffffffffffffffff1614151561196c57600080fd5b80600760006101000a81548173ffffffffffffffffffffffffffffffffffffffff021916908373ffffffffffffffffffffffffffffffffffffffff16021790555080600860006101000a81548173ffffffffffffffffffffffffffffffffffffffff021916908373ffffffffffffffffffffffffffffffffffffffff16021790555050565b6000611ad782611ac96064600760009054906101000a900473ffffffffffffffffffffffffffffffffffffffff1673ffffffffffffffffffffffffffffffffffffffff166318ec2d5c6040518163ffffffff167c010000000000000000000000000000000000000000000000000000000002815260040160206040518083038186803b158015611a8057600080fd5b505afa158015611a94573d6000803e3d6000fd5b505050506040513d6020811015611aaa57600080fd5b8101908080519060200190929190505050614f1890919063ffffffff16565b614fe590919063ffffffff16565b611adf613eec565b119050919050565b6000600a80815481101515611af857fe5b906000526020600020906003020160000154905090565b6000600360008473ffffffffffffffffffffffffffffffffffffffff1673ffffffffffffffffffffffffffffffffffffffff168152602001908152602001600020600083815260200190815260200160002060000154905092915050565b6000600a6009815481101515611b7f57fe5b906000526020600020906003020160000154905090565b6000600360008473ffffffffffffffffffffffffffffffffffffffff1673ffffffffffffffffffffffffffffffffffffffff168152602001908152602001600020600083815260200190815260200160002060010160009054906101000a900460ff16905092915050565b6000600760009054906101000a900473ffffffffffffffffffffffffffffffffffffffff1673ffffffffffffffffffffffffffffffffffffffff1663c7c551b6336040518263ffffffff167c0100000000000000000000000000000000000000000000000000000000028152600401808273ffffffffffffffffffffffffffffffffffffffff1673ffffffffffffffffffffffffffffffffffffffff16815260200191505060206040518083038186803b158015611cbe57600080fd5b505afa158015611cd2573d6000803e3d6000fd5b505050506040513d6020811015611ce857600080fd5b810190808051906020019092919050505090506000600760009054906101000a900473ffffffffffffffffffffffffffffffffffffffff1673ffffffffffffffffffffffffffffffffffffffff1663c7c551b6336040518263ffffffff167c0100000000000000000000000000000000000000000000000000000000028152600401808273ffffffffffffffffffffffffffffffffffffffff1673ffffffffffffffffffffffffffffffffffffffff16815260200191505060206040518083038186803b158015611db857600080fd5b505afa158015611dcc573d6000803e3d6000fd5b505050506040513d6020811015611de257600080fd5b8101908080519060200190929190505050111515611e8e576040517f08c379a00000000000000000000000000000000000000000000000000000000081526004018080602001828103825260248152602001807f5374616b656420616d6f756e742073686f756c64206265206d6f72652074686581526020017f6e20302e0000000000000000000000000000000000000000000000000000000081525060400191505060405180910390fd5b60016000838152602001908152602001600020600101546001600084815260200190815260200160002060000154111515611f31576040517f08c379a00000000000000000000000000000000000000000000000000000000081526004018080602001828103825260088152602001807f596573203c204e6f00000000000000000000000000000000000000000000000081525060200191505060405180910390fd5b426001600084815260200190815260200160002060030154101515611fbe576040517f08c379a00000000000000000000000000000000000000000000000000000000081526004018080602001828103825260148152602001807f566f74696e67207374696c6c2070656e64696e6700000000000000000000000081525060200191505060405180910390fd5b42600160008481526020019081526020016000206004015411151561204b576040517f08c379a00000000000000000000000000000000000000000000000000000000081526004018080602001828103825260148152602001807f506173742041637469766174696f6e206461746500000000000000000000000081525060200191505060405180910390fd5b6001600083815260200190815260200160002060060160009054906101000a900460ff161515156120e4576040517f08c379a000000000000000000000000000000000000000000000000000000000815260040180806020018281038252601a8152602001807f50726f706f73616c2041637469766174656420416c726561647900000000000081525060200191505060405180910390fd5b346120ed6116ed565b141515612162576040517f08c379a00000000000000000000000000000000000000000000000000000000081526004018080602001828103825260078152602001807f4e6f204665652e0000000000000000000000000000000000000000000000000081525060200191505060405180910390fd5b6001600083815260200190815260200160002060040154600460003373ffffffffffffffffffffffffffffffffffffffff1673ffffffffffffffffffffffffffffffffffffffff168152602001908152602001600020819055506121e281600260008581526020019081526020016000205461507890919063ffffffff16565b60026000848152602001908152602001600020819055505050565b612205612c80565b1515612279576040517f08c379a00000000000000000000000000000000000000000000000000000000081526004018080602001828103825260208152602001807f4f776e61626c653a2063616c6c6572206973206e6f7420746865206f776e657281525060200191505060405180910390fd5b600073ffffffffffffffffffffffffffffffffffffffff166000809054906101000a900473ffffffffffffffffffffffffffffffffffffffff1673ffffffffffffffffffffffffffffffffffffffff167f8be0079c531659141344cd1fd0a4f28419497f9722a3daafe3b4186f6b6457e060405160405180910390a360008060006101000a81548173ffffffffffffffffffffffffffffffffffffffff021916908373ffffffffffffffffffffffffffffffffffffffff160217905550565b6000600760009054906101000a900473ffffffffffffffffffffffffffffffffffffffff1673ffffffffffffffffffffffffffffffffffffffff1663c7c551b6336040518263ffffffff167c0100000000000000000000000000000000000000000000000000000000028152600401808273ffffffffffffffffffffffffffffffffffffffff1673ffffffffffffffffffffffffffffffffffffffff16815260200191505060206040518083038186803b1580156123f557600080fd5b505afa158015612409573d6000803e3d6000fd5b505050506040513d602081101561241f57600080fd5b810190808051906020019092919050505090506000811115156124d0576040517f08c379a00000000000000000000000000000000000000000000000000000000081526004018080602001828103825260248152602001807f5374616b656420616d6f756e742073686f756c64206265206d6f72652074686581526020017f6e20302e0000000000000000000000000000000000000000000000000000000081525060400191505060405180910390fd5b42600160008481526020019081526020016000206003015411151561255d576040517f08c379a00000000000000000000000000000000000000000000000000000000081526004018080602001828103825260148152602001807f566f74696e672054696d6520457870697265642e00000000000000000000000081525060200191505060405180910390fd5b6000600360003373ffffffffffffffffffffffffffffffffffffffff1673ffffffffffffffffffffffffffffffffffffffff168152602001908152602001600020600084815260200190815260200160002060000154141515612628576040517f08c379a000000000000000000000000000000000000000000000000000000000815260040180806020018281038252601a8152602001807f546865206163636f756e7420766f74656420616c72656164792e00000000000081525060200191505060405180910390fd5b82156126765761265781600160008581526020019081526020016000206000015461507890919063ffffffff16565b60016000848152602001908152602001600020600001819055506126ba565b61269f81600160008581526020019081526020016000206001015461507890919063ffffffff16565b60016000848152602001908152602001600020600101819055505b6126e360018060008581526020019081526020016000206002015461507890919063ffffffff16565b600160008481526020019081526020016000206002018190555080600360003373ffffffffffffffffffffffffffffffffffffffff1673ffffffffffffffffffffffffffffffffffffffff16815260200190815260200160002060008481526020019081526020016000206000018190555082600360003373ffffffffffffffffffffffffffffffffffffffff1673ffffffffffffffffffffffffffffffffffffffff168152602001908152602001600020600084815260200190815260200160002060010160006101000a81548160ff0219169083151502179055506001600083815260200190815260200160002060030154600460003373ffffffffffffffffffffffffffffffffffffffff1673ffffffffffffffffffffffffffffffffffffffff16815260200190815260200160002081905550813373ffffffffffffffffffffffffffffffffffffffff167f4b112f1c01fe8412fa03dae0b4632be742b5fad9d31fb751a946ce14eb5c803985604051808215151515815260200191505060405180910390a3505050565b3461287b611716565b1415156128f0576040517f08c379a00000000000000000000000000000000000000000000000000000000081526004018080602001828103825260178152602001807f43726561746f722073686f756c6420706179206665652e00000000000000000081525060200191505060405180910390fd5b600060023342604051602001808373ffffffffffffffffffffffffffffffffffffffff1673ffffffffffffffffffffffffffffffffffffffff166c01000000000000000000000000028152601401828152602001925050506040516020818303038152906040526040518082805190602001908083835b60208310151561298c5780518252602082019150602081019050602083039250612967565b6001836020036101000a038019825116818451168082178552505050505050905001915050602060405180830381855afa1580156129ce573d6000803e3d6000fd5b5050506040513d60208110156129e357600080fd5b810190808051906020019092919050505090506129fe611768565b42016001600083815260200190815260200160002060030181905550612a22613d1f565b612a2a611768565b4201016001600083815260200190815260200160002060040181905550336001600083815260200190815260200160002060060160016101000a81548173ffffffffffffffffffffffffffffffffffffffff021916908373ffffffffffffffffffffffffffffffffffffffff160217905550600260016000838152602001908152602001600020600501819055508260016000838152602001908152602001600020600b01819055508360016000838152602001908152602001600020600a01819055503373ffffffffffffffffffffffffffffffffffffffff16817fb24d4e975546df892988c3cbe3d1a5b73f760261758bc6642719e0fc200f2eea868642600160008881526020019081526020016000206003015460016000898152602001908152602001600020600401548960026040518088815260200187815260200186815260200185815260200184815260200180602001838152602001828103825284818151815260200191508051906020019080838360005b83811015612bbf578082015181840152602081019050612ba4565b50505050905090810190601f168015612bec5780820380516001836020036101000a031916815260200191505b509850505050505050505060405180910390a350505050565b6000600a6008815481101515612c1757fe5b906000526020600020906003020160000154905090565b6000600a6005815481101515612c4057fe5b906000526020600020906003020160000154905090565b60008060009054906101000a900473ffffffffffffffffffffffffffffffffffffffff16905090565b60008060009054906101000a900473ffffffffffffffffffffffffffffffffffffffff1673ffffffffffffffffffffffffffffffffffffffff163373ffffffffffffffffffffffffffffffffffffffff1614905090565b6000612d186001600084815260200190815260200160002060010154600160008581526020019081526020016000206000015461507890919063ffffffff16565b9050612d23816119f1565b1515612d2e57600080fd5b60016000838152602001908152602001600020600101546001600084815260200190815260200160002060000154111515612d6857600080fd5b426001600084815260200190815260200160002060040154101515612d8c57600080fd5b6001600083815260200190815260200160002060060160009054906101000a900460ff16151515612dbc57600080fd5b6001600083815260200190815260200160002060000154612e0f6001600085815260200190815260200160002060010154600260008681526020019081526020016000205461507890919063ffffffff16565b101515612e1b57600080fd5b60006001600084815260200190815260200160002060050154141561314c576080604051908101604052806001151581526020016001600085815260200190815260200160002060070154420181526020014281526020016001600085815260200190815260200160002060070154815250600560006001600086815260200190815260200160002060090160009054906101000a900473ffffffffffffffffffffffffffffffffffffffff1673ffffffffffffffffffffffffffffffffffffffff1673ffffffffffffffffffffffffffffffffffffffff16815260200190815260200160002060008201518160000160006101000a81548160ff021916908315150217905550602082015181600101556040820151816002015560608201518160030155905050612f596001600b5461507890919063ffffffff16565b600b81905550612f756001600c5461507890919063ffffffff16565b600c81905550600660009054906101000a900473ffffffffffffffffffffffffffffffffffffffff1673ffffffffffffffffffffffffffffffffffffffff166340c10f196001600085815260200190815260200160002060060160019054906101000a900473ffffffffffffffffffffffffffffffffffffffff1660016000868152602001908152602001600020600801546040518363ffffffff167c0100000000000000000000000000000000000000000000000000000000028152600401808373ffffffffffffffffffffffffffffffffffffffff1673ffffffffffffffffffffffffffffffffffffffff16815260200182815260200192505050602060405180830381600087803b15801561308c57600080fd5b505af11580156130a0573d6000803e3d6000fd5b505050506040513d60208110156130b657600080fd5b810190808051906020019092919050505015156130d257600080fd5b6001600083815260200190815260200160002060090160009054906101000a900473ffffffffffffffffffffffffffffffffffffffff1673ffffffffffffffffffffffffffffffffffffffff167fab84c691f37b66687de4886287d08cd81767d67d05ea51274f3577ccfde2650d60405160405180910390a25b60018060008481526020019081526020016000206005015414156132ad576000600560006001600086815260200190815260200160002060090160009054906101000a900473ffffffffffffffffffffffffffffffffffffffff1673ffffffffffffffffffffffffffffffffffffffff1673ffffffffffffffffffffffffffffffffffffffff16815260200190815260200160002060000160006101000a81548160ff0219169083151502179055506132116001600b5461510290919063ffffffff16565b600b8190555061322d6001600c5461507890919063ffffffff16565b600c819055506001600083815260200190815260200160002060090160009054906101000a900473ffffffffffffffffffffffffffffffffffffffff1673ffffffffffffffffffffffffffffffffffffffff167f2cca8c59724a24e4fdd2d3204034db9cbfa2b1863e0d1fd62e1bb13d0707332f60405160405180910390a25b6002600160008481526020019081526020016000206005015414156133945760016000838152602001908152602001600020600b0154600a60016000858152602001908152602001600020600a015481548110151561330857fe5b90600052602060002090600302016000018190555042600a60016000858152602001908152602001600020600a015481548110151561334357fe5b90600052602060002090600302016002018190555081600a60016000858152602001908152602001600020600a015481548110151561337e57fe5b9060005260206000209060030201600101819055505b60036001600084815260200190815260200160002060050154141561350b57600660009054906101000a900473ffffffffffffffffffffffffffffffffffffffff1673ffffffffffffffffffffffffffffffffffffffff166340c10f196001600085815260200190815260200160002060060160019054906101000a900473ffffffffffffffffffffffffffffffffffffffff1660016000868152602001908152602001600020600801546040518363ffffffff167c0100000000000000000000000000000000000000000000000000000000028152600401808373ffffffffffffffffffffffffffffffffffffffff1673ffffffffffffffffffffffffffffffffffffffff16815260200182815260200192505050602060405180830381600087803b1580156134c457600080fd5b505af11580156134d8573d6000803e3d6000fd5b505050506040513d60208110156134ee57600080fd5b8101908080519060200190929190505050151561350a57600080fd5b5b6004600160008481526020019081526020016000206005015414156135a25760016000838152602001908152602001600020600c0160009054906101000a900473ffffffffffffffffffffffffffffffffffffffff16600960006101000a81548173ffffffffffffffffffffffffffffffffffffffff021916908373ffffffffffffffffffffffffffffffffffffffff1602179055505b600180600084815260200190815260200160002060060160006101000a81548160ff021916908315150217905550813373ffffffffffffffffffffffffffffffffffffffff167fd620851b2c2782ebed7b8b4717a216092489996ca11e1093f26cfe0914cefafb60405160405180910390a35050565b34613621612c05565b141515613696576040517f08c379a00000000000000000000000000000000000000000000000000000000081526004018080602001828103825260178152602001807f43726561746f722073686f756c6420706179206665652e00000000000000000081525060200191505060405180910390fd5b600060023342604051602001808373ffffffffffffffffffffffffffffffffffffffff1673ffffffffffffffffffffffffffffffffffffffff166c01000000000000000000000000028152601401828152602001925050506040516020818303038152906040526040518082805190602001908083835b602083101515613732578051825260208201915060208101905060208303925061370d565b6001836020036101000a038019825116818451168082178552505050505050905001915050602060405180830381855afa158015613774573d6000803e3d6000fd5b5050506040513d602081101561378957600080fd5b810190808051906020019092919050505090506137a4611768565b420160016000838152602001908152602001600020600301819055506137c8613d1f565b6137d0611768565b4201016001600083815260200190815260200160002060040181905550336001600083815260200190815260200160002060060160016101000a81548173ffffffffffffffffffffffffffffffffffffffff021916908373ffffffffffffffffffffffffffffffffffffffff16021790555060006001600083815260200190815260200160002060050181905550866001600083815260200190815260200160002060070181905550816001600083815260200190815260200160002060080181905550876001600083815260200190815260200160002060090160006101000a81548173ffffffffffffffffffffffffffffffffffffffff021916908373ffffffffffffffffffffffffffffffffffffffff1602179055506001600082815260200190815260200160002060090160009054906101000a900473ffffffffffffffffffffffffffffffffffffffff1673ffffffffffffffffffffffffffffffffffffffff163373ffffffffffffffffffffffffffffffffffffffff16827fcc20a2105e5aaf9cbad36c47cc15d1d7b0f0a0bff3a76a843ace1d0b6093d21242600160008781526020019081526020016000206003015460016000888152602001908152602001600020600401548d8d8d8d8d6000604051808a81526020018981526020018881526020018781526020018060200180602001806020018060200186815260200185810385528a818151815260200191508051906020019080838360005b83811015613a0f5780820151818401526020810190506139f4565b50505050905090810190601f168015613a3c5780820380516001836020036101000a031916815260200191505b50858103845289818151815260200191508051906020019080838360005b83811015613a75578082015181840152602081019050613a5a565b50505050905090810190601f168015613aa25780820380516001836020036101000a031916815260200191505b50858103835288818151815260200191508051906020019080838360005b83811015613adb578082015181840152602081019050613ac0565b50505050905090810190601f168015613b085780820380516001836020036101000a031916815260200191505b50858103825287818151815260200191508051906020019080838360005b83811015613b41578082015181840152602081019050613b26565b50505050905090810190601f168015613b6e5780820380516001836020036101000a031916815260200191505b509d505050505050505050505050505060405180910390a45050505050505050565b600a81815481101515613b9f57fe5b90600052602060002090600302016000915090508060000154908060010154908060020154905083565b613bd1612c80565b1515613c45576040517f08c379a00000000000000000000000000000000000000000000000000000000081526004018080602001828103825260208152602001807f4f776e61626c653a2063616c6c6572206973206e6f7420746865206f776e657281525060200191505060405180910390fd5b80600960146101000a81548160ff02191690831515021790555050565b600860009054906101000a900473ffffffffffffffffffffffffffffffffffffffff1681565b6000600560008373ffffffffffffffffffffffffffffffffffffffff1673ffffffffffffffffffffffffffffffffffffffff168152602001908152602001600020600301549050919050565b6000600460008373ffffffffffffffffffffffffffffffffffffffff1673ffffffffffffffffffffffffffffffffffffffff1681526020019081526020016000205442109050919050565b6000600a6001815481101515613d3157fe5b906000526020600020906003020160000154905090565b613d5133611681565b80613d6e5750613d5f612c80565b8015613d6d57506000600b54145b5b1515613de2576040517f08c379a00000000000000000000000000000000000000000000000000000000081526004018080602001828103825260198152602001807f6f6e6c79206f776e657220616e642066697273742074696d650000000000000081525060200191505060405180910390fd5b608060405190810160405280600115158152602001824201815260200142815260200182815250600560008473ffffffffffffffffffffffffffffffffffffffff1673ffffffffffffffffffffffffffffffffffffffff16815260200190815260200160002060008201518160000160006101000a81548160ff021916908315150217905550602082015181600101556040820151816002015560608201518160030155905050613e9f6001600b5461507890919063ffffffff16565b600b819055508173ffffffffffffffffffffffffffffffffffffffff167fab84c691f37b66687de4886287d08cd81767d67d05ea51274f3577ccfde2650d60405160405180910390a25050565b6000600a6006815481101515613efe57fe5b906000526020600020906003020160000154905090565b600760009054906101000a900473ffffffffffffffffffffffffffffffffffffffff1681565b600960009054906101000a900473ffffffffffffffffffffffffffffffffffffffff1681565b34613f6a611716565b141515613fdf576040517f08c379a00000000000000000000000000000000000000000000000000000000081526004018080602001828103825260178152602001807f43726561746f722073686f756c6420706179206665652e00000000000000000081525060200191505060405180910390fd5b806140b36103e8600660009054906101000a900473ffffffffffffffffffffffffffffffffffffffff1673ffffffffffffffffffffffffffffffffffffffff166318160ddd6040518163ffffffff167c010000000000000000000000000000000000000000000000000000000002815260040160206040518083038186803b15801561406a57600080fd5b505afa15801561407e573d6000803e3d6000fd5b505050506040513d602081101561409457600080fd5b8101908080519060200190929190505050614fe590919063ffffffff16565b101515614128576040517f08c379a000000000000000000000000000000000000000000000000000000000815260040180806020018281038252601e8152602001807f526571756573746564207061796d656e7420697320746f6f206c61726765000081525060200191505060405180910390fd5b600060023342604051602001808373ffffffffffffffffffffffffffffffffffffffff1673ffffffffffffffffffffffffffffffffffffffff166c01000000000000000000000000028152601401828152602001925050506040516020818303038152906040526040518082805190602001908083835b6020831015156141c4578051825260208201915060208101905060208303925061419f565b6001836020036101000a038019825116818451168082178552505050505050905001915050602060405180830381855afa158015614206573d6000803e3d6000fd5b5050506040513d602081101561421b57600080fd5b81019080805190602001909291905050509050614236611768565b4201600160008381526020019081526020016000206003018190555061425a613d1f565b614262611768565b4201016001600083815260200190815260200160002060040181905550336001600083815260200190815260200160002060060160016101000a81548173ffffffffffffffffffffffffffffffffffffffff021916908373ffffffffffffffffffffffffffffffffffffffff160217905550600360016000838152602001908152602001600020600501819055508160016000838152602001908152602001600020600801819055503373ffffffffffffffffffffffffffffffffffffffff16817fa3ef050276b080ca6b111fe5b9146278a2adcee4babadc290367e072e8e2d80f42600160008681526020019081526020016000206003015460016000878152602001908152602001600020600401548a8a8a600360405180888152602001878152602001868152602001806020018060200180602001858152602001848103845288818151815260200191508051906020019080838360005b838110156143d85780820151818401526020810190506143bd565b50505050905090810190601f1680156144055780820380516001836020036101000a031916815260200191505b50848103835287818151815260200191508051906020019080838360005b8381101561443e578082015181840152602081019050614423565b50505050905090810190601f16801561446b5780820380516001836020036101000a031916815260200191505b50848103825286818151815260200191508051906020019080838360005b838110156144a4578082015181840152602081019050614489565b50505050905090810190601f1680156144d15780820380516001836020036101000a031916815260200191505b509a505050505050505050505060405180910390a35050505050565b60046020528060005260406000206000915090505481565b3461450e612c05565b141515614583576040517f08c379a00000000000000000000000000000000000000000000000000000000081526004018080602001828103825260178152602001807f43726561746f722073686f756c6420706179206665652e00000000000000000081525060200191505060405180910390fd5b600060023342604051602001808373ffffffffffffffffffffffffffffffffffffffff1673ffffffffffffffffffffffffffffffffffffffff166c01000000000000000000000000028152601401828152602001925050506040516020818303038152906040526040518082805190602001908083835b60208310151561461f57805182526020820191506020810190506020830392506145fa565b6001836020036101000a038019825116818451168082178552505050505050905001915050602060405180830381855afa158015614661573d6000803e3d6000fd5b5050506040513d602081101561467657600080fd5b81019080805190602001909291905050509050614691611768565b420160016000838152602001908152602001600020600301819055506146b5613d1f565b6146bd611768565b4201016001600083815260200190815260200160002060040181905550336001600083815260200190815260200160002060060160016101000a81548173ffffffffffffffffffffffffffffffffffffffff021916908373ffffffffffffffffffffffffffffffffffffffff160217905550600180600083815260200190815260200160002060050181905550836001600083815260200190815260200160002060090160006101000a81548173ffffffffffffffffffffffffffffffffffffffff021916908373ffffffffffffffffffffffffffffffffffffffff1602179055506001600082815260200190815260200160002060090160009054906101000a900473ffffffffffffffffffffffffffffffffffffffff1673ffffffffffffffffffffffffffffffffffffffff163373ffffffffffffffffffffffffffffffffffffffff16827f6271a936cf42b0ed86480ca05f9a908da6a6f661b805be638ea6c9ccc8f63a1a426001600087815260200190815260200160002060030154600160008881526020019081526020016000206004015489896001604051808781526020018681526020018581526020018060200180602001848152602001838103835286818151815260200191508051906020019080838360005b838110156148b4578082015181840152602081019050614899565b50505050905090810190601f1680156148e15780820380516001836020036101000a031916815260200191505b50838103825285818151815260200191508051906020019080838360005b8381101561491a5780820151818401526020810190506148ff565b50505050905090810190601f1680156149475780820380516001836020036101000a031916815260200191505b509850505050505050505060405180910390a450505050565b6003602052816000526040600020602052806000526040600020600091509150508060000154908060010160009054906101000a900460ff16905082565b60056020528060005260406000206000915090508060000160009054906101000a900460ff16908060010154908060020154908060030154905084565b6000600960149054906101000a900460ff16905090565b6000600a6003815481101515614a0457fe5b906000526020600020906003020160000154905090565b34614a24611716565b141515614a99576040517f08c379a00000000000000000000000000000000000000000000000000000000081526004018080602001828103825260178152602001807f43726561746f722073686f756c6420706179206665652e00000000000000000081525060200191505060405180910390fd5b600060023342604051602001808373ffffffffffffffffffffffffffffffffffffffff1673ffffffffffffffffffffffffffffffffffffffff166c01000000000000000000000000028152601401828152602001925050506040516020818303038152906040526040518082805190602001908083835b602083101515614b355780518252602082019150602081019050602083039250614b10565b6001836020036101000a038019825116818451168082178552505050505050905001915050602060405180830381855afa158015614b77573d6000803e3d6000fd5b5050506040513d6020811015614b8c57600080fd5b81019080805190602001909291905050509050614ba7611768565b42016001600083815260200190815260200160002060030181905550614bcb613d1f565b614bd3611768565b4201016001600083815260200190815260200160002060040181905550336001600083815260200190815260200160002060060160016101000a81548173ffffffffffffffffffffffffffffffffffffffff021916908373ffffffffffffffffffffffffffffffffffffffff160217905550600460016000838152602001908152602001600020600501819055508160016000838152602001908152602001600020600c0160006101000a81548173ffffffffffffffffffffffffffffffffffffffff021916908373ffffffffffffffffffffffffffffffffffffffff1602179055503373ffffffffffffffffffffffffffffffffffffffff16817f3df482d72d98fa8a9724211298d56235f460488424763e93fcbaadb7926f9528426001600086815260200190815260200160002060030154600160008781526020019081526020016000206004015489896004604051808781526020018681526020018581526020018060200180602001848152602001838103835286818151815260200191508051906020019080838360005b83811015614d7e578082015181840152602081019050614d63565b50505050905090810190601f168015614dab5780820380516001836020036101000a031916815260200191505b50838103825285818151815260200191508051906020019080838360005b83811015614de4578082015181840152602081019050614dc9565b50505050905090810190601f168015614e115780820380516001836020036101000a031916815260200191505b509850505050505050505060405180910390a350505050565b614e32612c80565b1515614ea6576040517f08c379a00000000000000000000000000000000000000000000000000000000081526004018080602001828103825260208152602001807f4f776e61626c653a2063616c6c6572206973206e6f7420746865206f776e657281525060200191505060405180910390fd5b614eaf8161518d565b50565b60026020528060005260406000206000915090505481565b6000600560008373ffffffffffffffffffffffffffffffffffffffff1673ffffffffffffffffffffffffffffffffffffffff1681526020019081526020016000206001015442109050919050565b600080831415614f2b5760009050614fdf565b60008284029050828482811515614f3e57fe5b04141515614fda576040517f08c379a00000000000000000000000000000000000000000000000000000000081526004018080602001828103825260218152602001807f536166654d6174683a206d756c7469706c69636174696f6e206f766572666c6f81526020017f770000000000000000000000000000000000000000000000000000000000000081525060400191505060405180910390fd5b809150505b92915050565b6000808211151561505e576040517f08c379a000000000000000000000000000000000000000000000000000000000815260040180806020018281038252601a8152602001807f536166654d6174683a206469766973696f6e206279207a65726f00000000000081525060200191505060405180910390fd5b6000828481151561506b57fe5b0490508091505092915050565b60008082840190508381101515156150f8576040517f08c379a000000000000000000000000000000000000000000000000000000000815260040180806020018281038252601b8152602001807f536166654d6174683a206164646974696f6e206f766572666c6f77000000000081525060200191505060405180910390fd5b8091505092915050565b600082821115151561517c576040517f08c379a000000000000000000000000000000000000000000000000000000000815260040180806020018281038252601e8152602001807f536166654d6174683a207375627472616374696f6e206f766572666c6f77000081525060200191505060405180910390fd5b600082840390508091505092915050565b600073ffffffffffffffffffffffffffffffffffffffff168173ffffffffffffffffffffffffffffffffffffffff1614151515615258576040517f08c379a00000000000000000000000000000000000000000000000000000000081526004018080602001828103825260268152602001807f4f776e61626c653a206e6577206f776e657220697320746865207a65726f206181526020017f646472657373000000000000000000000000000000000000000000000000000081525060400191505060405180910390fd5b8073ffffffffffffffffffffffffffffffffffffffff166000809054906101000a900473ffffffffffffffffffffffffffffffffffffffff1673ffffffffffffffffffffffffffffffffffffffff167f8be0079c531659141344cd1fd0a4f28419497f9722a3daafe3b4186f6b6457e060405160405180910390a3806000806101000a81548173ffffffffffffffffffffffffffffffffffffffff021916908373ffffffffffffffffffffffffffffffffffffffff1602179055505056fea165627a7a723058202ec8c9ad183640559441c31b06dcf3832425bc872632378fdc21dc90eb623f320029",
  "source": "pragma solidity ^0.5.0;\n\nimport \"openzeppelin-solidity/contracts/math/SafeMath.sol\";\nimport \"openzeppelin-solidity/contracts/ownership/Ownable.sol\";\nimport \"./Depository.sol\";\nimport \"./MainToken.sol\";\n\ncontract Settings is Ownable{\n        \n        using SafeMath for uint256;\n    \n        event AddContractProposalLog(\n            bytes32 indexed hash, \n            address indexed creator, \n            address indexed futureContract, \n            uint256 startDate, \n            uint256 endDate, \n            uint256 activationDate, \n            uint256 expiresIn, \n            string title, \n            string description, \n            string ipfs, \n            string url, \n            uint256 propType);   \n\n        event RemoveContractProposalLog(\n            bytes32 indexed hash, \n            address indexed creator, \n            address indexed futureContract, \n            uint256 startDate, \n            uint256 endDate, \n            uint256 activationDate, \n            string description, \n            string ipfs, \n            uint256 propType); \n\n        event paramProposaLog(\n            bytes32 indexed hash, \n            address indexed creator, \n            uint256 param, \n            uint256 value, \n            uint256 startDate, \n            uint256 endDate, \n            uint256 activationDate, \n            string description, \n            uint256 propType);   \n\n        event AddProjectProposalLog(\n            bytes32 indexed hash, \n            address indexed creator, \n            uint256 startDate, \n            uint256 endDate, \n            uint256 activationDate, \n            string title, \n            string description, \n            string url, \n            uint256 propType);   \n\n        event ChangePriceFeedProposalLog(\n            bytes32 indexed hash, \n            address indexed creator, \n            uint256 startDate, \n            uint256 endDate, \n            uint256 activationDate, \n            string title, \n            string description, \n            uint256 propType);   \n\n        event votedLog(address indexed voter, bool vote, bytes32 indexed hash);\n        event addedContractLog(address indexed futureContract);\n        event removedContractLog (address indexed futureContract);\n        event activatedAddContractProposal (address indexed sender, bytes32 indexed hash);\n        \n        struct Proposal {\n            // general\n            uint256 yes;\n            uint256 no;\n            uint256 totalAccounts;\n            uint256 endVotingDate;\n            uint256 activationDate;\n            uint256 propType;\n            bool    activated;\n            address creator;\n\n            // future contracts\n            uint256 expiresIn;\n            uint256 payment;\n            address futureContract;\n\n            // params\n            uint256 param;\n            uint256 value;\n\n            address priceFeedSource;\n\n        }\n\n        struct FContract {\n            bool trusted;\n            uint256 expirationDate;\n            uint256 activationDate;\n            uint256 terms;\n        }\n            \n        struct Voter {\n            uint256 amount;\n            bool vote;\n        }\n        \n        struct Param {\n            uint256 value;\n            bytes32 proposalHash;\n            uint256 activationDate;\n        }\n\n        mapping(bytes32 => Proposal) public proposals;\n        mapping(bytes32 => uint256) public blocks;\n        mapping(address => mapping(bytes32 => Voter)) public voters;\n/*         mapping(address => uint256) public blockedAddContractVoting;*/\n\n\n        mapping(address => uint256) public stakeLockedUntil;\n        mapping(address => FContract) public trustedContracts;\n\n        ERC20Mintable mainToken;\n        Depository public depository;\n        address payable public depositoryAddress;\n        address public  priceFeedSource;\n        bool public emergencyMode;\n        Param[] public params;\n        uint256 trustedContractsNum;\n        uint256 version;\n\n        \n        constructor(\n            uint256  _votingTime,\n            uint256  _activationIn,\n            uint256  _feeLimit,\n            uint256  _feeMarket,\n            uint256  _maxLeverage,\n            uint256  _liquidationProfit,\n            uint256  _minVotingPercent,\n            uint256  _paramProposalFee,\n            uint256  futureContractProposalFee,\n            uint256  _feeDiscountIndex,\n            uint256  _maxMarketLength,\n            uint256  _blockVotingFee,\n            address  _mainTokenAddress,\n            address  _priceFeedSource\n        ) public {\n            \n            for (uint256 n = 0; n < 12; n++) {\n                Param memory param;\n                param.activationDate = now;\n                params.push(param); \n            }\n            \n            params[0].value = _votingTime;\n            params[1].value = _activationIn;\n            params[2].value = _feeLimit;\n            params[3].value = _feeMarket;\n            params[4].value = _maxLeverage;\n            params[5].value = _liquidationProfit;\n            params[6].value = _minVotingPercent;\n            params[7].value = _paramProposalFee;\n            params[8].value = futureContractProposalFee;\n            params[9].value = _feeDiscountIndex;\n            params[10].value = _maxMarketLength;\n            params[11].value = _blockVotingFee;\n\n            priceFeedSource = _priceFeedSource;\n            mainToken = MainToken(_mainTokenAddress);\n        }\n\n        function setDepository(address payable addr ) public onlyOwner{\n            require (depositoryAddress == address(0));\n            depository = Depository(addr);\n            depositoryAddress = addr;\n        }\n\n        function addContractProposal(\n            address futureContract, \n            uint256 expiresIn, \n            string memory title, \n            string memory description, \n            string memory ipfs, \n            string memory url, \n            uint256 payment\n        ) public payable {\n\n            require(getContractProposalFee() == msg.value, 'Creator should pay fee.');\n            bytes32 hash = sha256(abi.encodePacked(msg.sender, now));\n\n            proposals[hash].endVotingDate = now + getVotingTime();\n            proposals[hash].activationDate = now + getVotingTime() + getActivationTime();\n            proposals[hash].creator = msg.sender;\n            proposals[hash].propType = 0;\n            proposals[hash].expiresIn = expiresIn;\n            proposals[hash].payment = payment;\n            proposals[hash].futureContract = futureContract;\n\n            //depositoryAddress.transfer(msg.value);\n\n            emit AddContractProposalLog(hash, msg.sender, proposals[hash].futureContract, now, proposals[hash].endVotingDate, proposals[hash].activationDate, expiresIn, title, description, ipfs, url, 0);\n        }\n\n\n        function removeContractProposal(\n            address futureContract, \n            string memory description, \n            string memory ipfs\n        ) public payable {\n\n            require(getContractProposalFee() == msg.value, 'Creator should pay fee.');\n            bytes32 hash = sha256(abi.encodePacked(msg.sender, now));\n\n            proposals[hash].endVotingDate = now + getVotingTime();\n            proposals[hash].activationDate = now + getVotingTime() + getActivationTime();\n            proposals[hash].creator = msg.sender;\n            proposals[hash].propType = 1;\n            proposals[hash].futureContract = futureContract;\n\n           // depositoryAddress.transfer(msg.value);\n            emit RemoveContractProposalLog(hash, msg.sender, proposals[hash].futureContract, now, proposals[hash].endVotingDate, proposals[hash].activationDate, description, ipfs, 1);\n        }\n\n\n        function paramProposal(\n            uint256 param,\n            uint256 value,\n            string memory description\n        ) public payable {\n\n            require(getParamProposalFee() == msg.value, 'Creator should pay fee.');\n            bytes32 hash = sha256(abi.encodePacked(msg.sender, now));\n\n            proposals[hash].endVotingDate = now + getVotingTime();\n            proposals[hash].activationDate = now + getVotingTime() + getActivationTime();\n            proposals[hash].creator = msg.sender;\n            proposals[hash].propType = 2;\n            proposals[hash].value = value;\n            proposals[hash].param = param;\n        \n            //depositoryAddress.transfer(msg.value);\n            emit paramProposaLog(hash, msg.sender, param, value, now, proposals[hash].endVotingDate, proposals[hash].activationDate, description, 2);\n        }\n\n        function addProjectProposal(\n            string memory title, \n            string memory description, \n            string memory url, \n            uint256 payment\n        ) public payable {\n\n            require(getParamProposalFee() == msg.value, 'Creator should pay fee.');\n            require (mainToken.totalSupply().div(1000) < payment, 'Requested payment is too large');\n            bytes32 hash = sha256(abi.encodePacked(msg.sender, now));\n\n            proposals[hash].endVotingDate = now + getVotingTime();\n            proposals[hash].activationDate = now + getVotingTime() + getActivationTime();\n            proposals[hash].creator = msg.sender;\n            proposals[hash].propType = 3;\n            proposals[hash].payment = payment;\n\n            //depositoryAddress.transfer(msg.value);\n            emit AddProjectProposalLog(hash, msg.sender, now, proposals[hash].endVotingDate, proposals[hash].activationDate, title, description, url, 3);\n        }\n\n        function changePriceFeedProposal(\n            string memory title, \n            string memory description, \n            address _priceFeedSource\n        ) public payable {\n\n            require(getParamProposalFee() == msg.value, 'Creator should pay fee.');\n            bytes32 hash = sha256(abi.encodePacked(msg.sender, now));\n\n            proposals[hash].endVotingDate = now + getVotingTime();\n            proposals[hash].activationDate = now + getVotingTime() + getActivationTime();\n            proposals[hash].creator = msg.sender;\n            proposals[hash].propType = 4;\n            proposals[hash].priceFeedSource = _priceFeedSource;\n\n            //depositoryAddress.transfer(msg.value);\n            emit ChangePriceFeedProposalLog(hash, msg.sender, now, proposals[hash].endVotingDate, proposals[hash].activationDate, title, description, 4);\n        }\n\n\n        function voteProposal(bool vote, bytes32 hash ) public {\n            uint256 amount = depository.getStakedFundsOf(msg.sender);\n           \n            require(amount>0, 'Staked amount should be more then 0.');\n            require(proposals[hash].endVotingDate > now, 'Voting Time Expired.');\n            require(voters[msg.sender][hash].amount == 0, 'The account voted already.');\n\n            if(vote) {\n                proposals[hash].yes = proposals[hash].yes.add(amount);\n            } else {\n                proposals[hash].no = proposals[hash].no.add(amount);\n            }\n\n            proposals[hash].totalAccounts = proposals[hash].totalAccounts.add(1);\n            voters[msg.sender][hash].amount = amount;\n            voters[msg.sender][hash].vote = vote;\n            stakeLockedUntil[msg.sender] = proposals[hash].endVotingDate;\n\n            emit votedLog(msg.sender, vote, hash);\n        }\n\n        function activateProposal(bytes32 hash) public {\n            uint totalAmountVoted = proposals[hash].yes.add(proposals[hash].no);\n            require(checkMinVotingPercent(totalAmountVoted));\n            require(proposals[hash].yes > proposals[hash].no);\n            require(proposals[hash].activationDate < now);\n            require(!proposals[hash].activated);\n            require (blocks[hash].add(proposals[hash].no)<proposals[hash].yes);\n            \n            if(proposals[hash].propType == 0) { \n                trustedContracts[proposals[hash].futureContract] = FContract({\n                    trusted: true, \n                    expirationDate: now + proposals[hash].expiresIn,\n                    terms: proposals[hash].expiresIn,\n                    activationDate: now\n                });\n                trustedContractsNum = trustedContractsNum.add(1);\n                version = version.add(1);\n                require(mainToken.mint(proposals[hash].creator, proposals[hash].payment));\n                emit addedContractLog (proposals[hash].futureContract);\n            }\n\n            if(proposals[hash].propType == 1) { \n                trustedContracts[proposals[hash].futureContract].trusted = false;\n                trustedContractsNum = trustedContractsNum.sub(1);\n                version = version.add(1);\n                emit removedContractLog (proposals[hash].futureContract);\n            }\n\n            if(proposals[hash].propType == 2) { \n                params[proposals[hash].param].value = proposals[hash].value;\n                params[proposals[hash].param].activationDate = now;\n                params[proposals[hash].param].proposalHash = hash;\n            }\n\n            if(proposals[hash].propType == 3) { \n                require(mainToken.mint(proposals[hash].creator, proposals[hash].payment));\n            }\n\n            if(proposals[hash].propType == 4) { \n                priceFeedSource = proposals[hash].priceFeedSource;\n            }\n\n            proposals[hash].activated = true;\n\n            emit activatedAddContractProposal(msg.sender, hash);\n        }\n    \n        function blockVoting(bytes32 hash) payable public {\n            uint256 amount = depository.getStakedFundsOf(msg.sender);\n            require(depository.getStakedFundsOf(msg.sender)>0, 'Staked amount should be more then 0.');\n            require(proposals[hash].yes > proposals[hash].no, 'Yes < No');\n            require(proposals[hash].endVotingDate < now, 'Voting still pending');\n            require(proposals[hash].activationDate > now, 'Past Activation date');\n            require(!proposals[hash].activated, 'Proposal Activated Already');\n            require(getBlockVotingFee() == msg.value, 'No Fee.');\n            stakeLockedUntil[msg.sender] = proposals[hash].activationDate;\n            blocks[hash] = blocks[hash].add(amount);\n            //depositoryAddress.transfer(msg.value);\n        }\n\n        function addContract(address addr, uint256 expiresIn) public {\n            // Posible to add very first futureContract or redeploy the existing one\n            require(\n                contractIsTrusted(msg.sender) || \n                (isOwner() && trustedContractsNum == 0), \n                'only owner and first time'\n            );\n            trustedContracts[addr] = FContract({\n                trusted: true,  \n                expirationDate: now + expiresIn,\n                activationDate: now,\n                terms: expiresIn\n            });\n\n            trustedContractsNum = trustedContractsNum.add(1);\n            emit addedContractLog (addr);\n        }\n\n        function checkMinVotingPercent(uint totalAmountVoted) public view returns(bool) {\n            return (getMinVotingPercent() > depository.totalStakedFunds().mul(100).div(totalAmountVoted));\n        }\n    \n        function getVotingTime() public view returns (uint256) { return params[0].value; }\n        function getActivationTime() public view returns (uint256) { return params[1].value; }\n        function getLimitOrderFee() public view returns (uint256) { return params[2].value; }\n        function getMarketOrderFee() public view returns (uint256) { return params[3].value; }        \n        function getMaxLeverage() public view returns (uint256) { return params[4].value; }        \n        function getLiquidationProfit() public view returns (uint256) { return params[5].value; }        \n        function getMinVotingPercent() public view returns (uint256) { return params[6].value; }        \n        function getParamProposalFee() public view returns (uint256) { return params[7].value; }        \n        function getContractProposalFee() public view returns (uint256) { return params[8].value; }        \n        function getFeeDiscountIndex() public view returns (uint256) { return params[9].value; }        \n        function getMaxMarketLength() public view returns (uint256) { return params[10].value; }\n        function getBlockVotingFee() public view returns (uint256) { return params[11].value; }  \n\n        function getAccountVote(address account, bytes32 hash) public view returns(bool){\n            return voters[account][hash].vote;\n        }\n        function getAccountVoteAmount(address account, bytes32 hash) public view returns(uint256){\n            return voters[account][hash].amount;\n        }\n\n        /// @dev gives the owner the possibility to put the Interface into an emergencyMode, which will\n        /// output always a price of 600 USD. This gives everyone time to set up a new pricefeed.\n        function raiseEmergency(bool _emergencyMode) public onlyOwner {\n            emergencyMode = _emergencyMode;\n        }\n\n        function contractIsTrusted (address account) public view returns(bool) {\n            return trustedContracts[account].trusted;\n        }\n\n        function contractIsNotExpired (address account) public view returns(bool) {\n            return (now < trustedContracts[account].expirationDate);\n        }\n\n        function getContractTerms (address account) public view returns(uint256) {\n            return trustedContracts[account].terms;\n        }\n\n        function getEmergencyMode() public view returns (bool) {\n            return emergencyMode;\n        }\n\n        function stakeIsLocked(address account) public view returns (bool) {\n            return now < stakeLockedUntil[account];\n        }\n\n}\n",
  "sourcePath": "/home/arct/projects/etherhedge/contracts/Settings.sol",
  "compiler": {
    "name": "solc",
    "version": "0.5.0+commit.1d4f565a.Emscripten.clang"
  },
  "schemaVersion": "3.0.9",
  "updatedAt": "2019-08-25T02:09:38.468Z",
  "devdoc": {
    "methods": {
      "isOwner()": {
        "details": "Returns true if the caller is the current owner."
      },
      "owner()": {
        "details": "Returns the address of the current owner."
      },
      "raiseEmergency(bool)": {
        "details": "gives the owner the possibility to put the Interface into an emergencyMode, which will output always a price of 600 USD. This gives everyone time to set up a new pricefeed."
      },
      "renounceOwnership()": {
        "details": "Leaves the contract without owner. It will not be possible to call `onlyOwner` functions anymore. Can only be called by the current owner.     * > Note: Renouncing ownership will leave the contract without an owner, thereby removing any functionality that is only available to the owner."
      },
      "transferOwnership(address)": {
        "details": "Transfers ownership of the contract to a new account (`newOwner`). Can only be called by the current owner."
      }
    }
  },
  "userdoc": {
    "methods": {}
  }
}