{
  "contractName": "SettingsNew",
  "abi": [
    {
      "constant": true,
      "inputs": [
        {
          "name": "",
          "type": "uint256"
        },
        {
          "name": "",
          "type": "bytes32"
        }
      ],
      "name": "paramProposals",
      "outputs": [
        {
          "name": "yes",
          "type": "uint256"
        },
        {
          "name": "no",
          "type": "uint256"
        },
        {
          "name": "endVotingDate",
          "type": "uint256"
        },
        {
          "name": "activationDate",
          "type": "uint256"
        },
        {
          "name": "activated",
          "type": "bool"
        },
        {
          "name": "newValue",
          "type": "uint256"
        }
      ],
      "payable": false,
      "stateMutability": "view",
      "type": "function"
    },
    {
      "constant": true,
      "inputs": [
        {
          "name": "",
          "type": "address"
        },
        {
          "name": "",
          "type": "address"
        }
      ],
      "name": "votersCP",
      "outputs": [
        {
          "name": "amount",
          "type": "uint256"
        },
        {
          "name": "vote",
          "type": "bool"
        }
      ],
      "payable": false,
      "stateMutability": "view",
      "type": "function"
    },
    {
      "constant": true,
      "inputs": [
        {
          "name": "",
          "type": "address"
        }
      ],
      "name": "lockedStakes",
      "outputs": [
        {
          "name": "until",
          "type": "uint256"
        },
        {
          "name": "votings",
          "type": "uint256"
        }
      ],
      "payable": false,
      "stateMutability": "view",
      "type": "function"
    },
    {
      "constant": true,
      "inputs": [
        {
          "name": "",
          "type": "address"
        }
      ],
      "name": "contrProposals",
      "outputs": [
        {
          "name": "yes",
          "type": "uint256"
        },
        {
          "name": "no",
          "type": "uint256"
        },
        {
          "name": "endVotingDate",
          "type": "uint256"
        },
        {
          "name": "activationDate",
          "type": "uint256"
        },
        {
          "name": "activated",
          "type": "bool"
        },
        {
          "name": "expirationDate",
          "type": "uint256"
        }
      ],
      "payable": false,
      "stateMutability": "view",
      "type": "function"
    },
    {
      "constant": true,
      "inputs": [
        {
          "name": "",
          "type": "uint256"
        }
      ],
      "name": "params",
      "outputs": [
        {
          "name": "",
          "type": "uint256"
        }
      ],
      "payable": false,
      "stateMutability": "view",
      "type": "function"
    },
    {
      "constant": true,
      "inputs": [],
      "name": "depositoryAddress",
      "outputs": [
        {
          "name": "",
          "type": "address"
        }
      ],
      "payable": false,
      "stateMutability": "view",
      "type": "function"
    },
    {
      "constant": true,
      "inputs": [
        {
          "name": "",
          "type": "address"
        },
        {
          "name": "",
          "type": "uint256"
        },
        {
          "name": "",
          "type": "bytes32"
        }
      ],
      "name": "votersPP",
      "outputs": [
        {
          "name": "amount",
          "type": "uint256"
        },
        {
          "name": "vote",
          "type": "bool"
        }
      ],
      "payable": false,
      "stateMutability": "view",
      "type": "function"
    },
    {
      "constant": true,
      "inputs": [],
      "name": "depository",
      "outputs": [
        {
          "name": "",
          "type": "address"
        }
      ],
      "payable": false,
      "stateMutability": "view",
      "type": "function"
    },
    {
      "constant": true,
      "inputs": [
        {
          "name": "",
          "type": "address"
        }
      ],
      "name": "trustedContracts",
      "outputs": [
        {
          "name": "trusted",
          "type": "bool"
        },
        {
          "name": "expirationDate",
          "type": "uint256"
        }
      ],
      "payable": false,
      "stateMutability": "view",
      "type": "function"
    },
    {
      "inputs": [
        {
          "name": "_votingTime",
          "type": "uint256"
        },
        {
          "name": "_activationIn",
          "type": "uint256"
        },
        {
          "name": "_feeLimit",
          "type": "uint256"
        },
        {
          "name": "_feeMarket",
          "type": "uint256"
        },
        {
          "name": "_maxLeverage",
          "type": "uint256"
        },
        {
          "name": "_liquidationProfit",
          "type": "uint256"
        },
        {
          "name": "_minVotingPercent",
          "type": "uint256"
        },
        {
          "name": "_paramProposalFee",
          "type": "uint256"
        },
        {
          "name": "_contractProposalFee",
          "type": "uint256"
        },
        {
          "name": "_feeDiscountIndex",
          "type": "uint256"
        },
        {
          "name": "_maxMarketLength",
          "type": "uint256"
        },
        {
          "name": "_depository",
          "type": "address"
        }
      ],
      "payable": false,
      "stateMutability": "nonpayable",
      "type": "constructor"
    },
    {
      "anonymous": false,
      "inputs": [
        {
          "indexed": true,
          "name": "voter",
          "type": "address"
        },
        {
          "indexed": false,
          "name": "vote",
          "type": "bool"
        },
        {
          "indexed": true,
          "name": "addr",
          "type": "address"
        }
      ],
      "name": "contractVoteLog",
      "type": "event"
    },
    {
      "anonymous": false,
      "inputs": [
        {
          "indexed": true,
          "name": "voter",
          "type": "address"
        },
        {
          "indexed": false,
          "name": "_contract",
          "type": "address"
        },
        {
          "indexed": false,
          "name": "startDate",
          "type": "uint256"
        },
        {
          "indexed": false,
          "name": "endDate",
          "type": "uint256"
        },
        {
          "indexed": false,
          "name": "activationDate",
          "type": "uint256"
        },
        {
          "indexed": false,
          "name": "expirationDate",
          "type": "uint256"
        },
        {
          "indexed": false,
          "name": "title",
          "type": "string"
        },
        {
          "indexed": false,
          "name": "description",
          "type": "string"
        },
        {
          "indexed": false,
          "name": "extra",
          "type": "string"
        }
      ],
      "name": "createContractProposalLog",
      "type": "event"
    },
    {
      "anonymous": false,
      "inputs": [
        {
          "indexed": true,
          "name": "voter",
          "type": "address"
        },
        {
          "indexed": false,
          "name": "vote",
          "type": "bool"
        },
        {
          "indexed": false,
          "name": "amount",
          "type": "uint256"
        },
        {
          "indexed": true,
          "name": "addr",
          "type": "address"
        }
      ],
      "name": "quitContractVotingLog",
      "type": "event"
    },
    {
      "anonymous": false,
      "inputs": [
        {
          "indexed": true,
          "name": "voter",
          "type": "address"
        },
        {
          "indexed": false,
          "name": "param",
          "type": "uint256"
        },
        {
          "indexed": false,
          "name": "hash",
          "type": "bytes32"
        },
        {
          "indexed": false,
          "name": "newValue",
          "type": "uint256"
        },
        {
          "indexed": false,
          "name": "startDate",
          "type": "uint256"
        },
        {
          "indexed": false,
          "name": "endDate",
          "type": "uint256"
        },
        {
          "indexed": false,
          "name": "activationDate",
          "type": "uint256"
        }
      ],
      "name": "createParamProposalLog",
      "type": "event"
    },
    {
      "anonymous": false,
      "inputs": [
        {
          "indexed": true,
          "name": "voter",
          "type": "address"
        },
        {
          "indexed": false,
          "name": "vote",
          "type": "bool"
        },
        {
          "indexed": true,
          "name": "hash",
          "type": "bytes32"
        },
        {
          "indexed": true,
          "name": "param",
          "type": "uint256"
        }
      ],
      "name": "paramVoteLog",
      "type": "event"
    },
    {
      "anonymous": false,
      "inputs": [
        {
          "indexed": true,
          "name": "voter",
          "type": "address"
        },
        {
          "indexed": false,
          "name": "vote",
          "type": "bool"
        },
        {
          "indexed": false,
          "name": "amount",
          "type": "uint256"
        },
        {
          "indexed": false,
          "name": "hash",
          "type": "bytes32"
        },
        {
          "indexed": false,
          "name": "param",
          "type": "uint256"
        }
      ],
      "name": "quitParamsVotingLog",
      "type": "event"
    },
    {
      "constant": false,
      "inputs": [
        {
          "name": "addr",
          "type": "address"
        },
        {
          "name": "expiresIn",
          "type": "uint256"
        },
        {
          "name": "title",
          "type": "string"
        },
        {
          "name": "description",
          "type": "string"
        },
        {
          "name": "extra",
          "type": "string"
        }
      ],
      "name": "createContractProposal",
      "outputs": [],
      "payable": true,
      "stateMutability": "payable",
      "type": "function"
    },
    {
      "constant": false,
      "inputs": [
        {
          "name": "vote",
          "type": "bool"
        },
        {
          "name": "addr",
          "type": "address"
        }
      ],
      "name": "voteContractProposal",
      "outputs": [],
      "payable": false,
      "stateMutability": "nonpayable",
      "type": "function"
    },
    {
      "constant": false,
      "inputs": [
        {
          "name": "addr",
          "type": "address"
        }
      ],
      "name": "quitContractVoting",
      "outputs": [],
      "payable": false,
      "stateMutability": "nonpayable",
      "type": "function"
    },
    {
      "constant": false,
      "inputs": [
        {
          "name": "addr",
          "type": "address"
        }
      ],
      "name": "activateContractProposal",
      "outputs": [],
      "payable": false,
      "stateMutability": "nonpayable",
      "type": "function"
    },
    {
      "constant": false,
      "inputs": [
        {
          "name": "param",
          "type": "uint256"
        },
        {
          "name": "value",
          "type": "uint256"
        }
      ],
      "name": "createParamProposal",
      "outputs": [],
      "payable": true,
      "stateMutability": "payable",
      "type": "function"
    },
    {
      "constant": false,
      "inputs": [
        {
          "name": "vote",
          "type": "bool"
        },
        {
          "name": "param",
          "type": "uint256"
        },
        {
          "name": "hash",
          "type": "bytes32"
        }
      ],
      "name": "voteParamProposal",
      "outputs": [],
      "payable": false,
      "stateMutability": "nonpayable",
      "type": "function"
    },
    {
      "constant": false,
      "inputs": [
        {
          "name": "param",
          "type": "uint256"
        },
        {
          "name": "hash",
          "type": "bytes32"
        }
      ],
      "name": "quitParamsVoting",
      "outputs": [],
      "payable": false,
      "stateMutability": "nonpayable",
      "type": "function"
    },
    {
      "constant": false,
      "inputs": [
        {
          "name": "param",
          "type": "uint256"
        },
        {
          "name": "hash",
          "type": "bytes32"
        }
      ],
      "name": "activateParamProposal",
      "outputs": [],
      "payable": false,
      "stateMutability": "nonpayable",
      "type": "function"
    },
    {
      "constant": true,
      "inputs": [
        {
          "name": "totalAmountVoted",
          "type": "uint256"
        }
      ],
      "name": "checkMinVotingPercent",
      "outputs": [
        {
          "name": "",
          "type": "bool"
        }
      ],
      "payable": false,
      "stateMutability": "view",
      "type": "function"
    },
    {
      "constant": true,
      "inputs": [],
      "name": "getVotingTime",
      "outputs": [
        {
          "name": "",
          "type": "uint256"
        }
      ],
      "payable": false,
      "stateMutability": "view",
      "type": "function"
    },
    {
      "constant": true,
      "inputs": [],
      "name": "getActivationTime",
      "outputs": [
        {
          "name": "",
          "type": "uint256"
        }
      ],
      "payable": false,
      "stateMutability": "view",
      "type": "function"
    },
    {
      "constant": true,
      "inputs": [],
      "name": "getLimitOrderFee",
      "outputs": [
        {
          "name": "",
          "type": "uint256"
        }
      ],
      "payable": false,
      "stateMutability": "view",
      "type": "function"
    },
    {
      "constant": true,
      "inputs": [],
      "name": "getMarketOrderFee",
      "outputs": [
        {
          "name": "",
          "type": "uint256"
        }
      ],
      "payable": false,
      "stateMutability": "view",
      "type": "function"
    },
    {
      "constant": true,
      "inputs": [],
      "name": "getMaxLeverage",
      "outputs": [
        {
          "name": "",
          "type": "uint256"
        }
      ],
      "payable": false,
      "stateMutability": "view",
      "type": "function"
    },
    {
      "constant": true,
      "inputs": [],
      "name": "getLiquidationProfit",
      "outputs": [
        {
          "name": "",
          "type": "uint256"
        }
      ],
      "payable": false,
      "stateMutability": "view",
      "type": "function"
    },
    {
      "constant": true,
      "inputs": [],
      "name": "getMinVotingPercent",
      "outputs": [
        {
          "name": "",
          "type": "uint256"
        }
      ],
      "payable": false,
      "stateMutability": "view",
      "type": "function"
    },
    {
      "constant": true,
      "inputs": [],
      "name": "getParamProposalFee",
      "outputs": [
        {
          "name": "",
          "type": "uint256"
        }
      ],
      "payable": false,
      "stateMutability": "view",
      "type": "function"
    },
    {
      "constant": true,
      "inputs": [],
      "name": "getContractProposalFee",
      "outputs": [
        {
          "name": "",
          "type": "uint256"
        }
      ],
      "payable": false,
      "stateMutability": "view",
      "type": "function"
    },
    {
      "constant": true,
      "inputs": [],
      "name": "getFeeDiscountIndex",
      "outputs": [
        {
          "name": "",
          "type": "uint256"
        }
      ],
      "payable": false,
      "stateMutability": "view",
      "type": "function"
    },
    {
      "constant": true,
      "inputs": [],
      "name": "getMaxMarketLength",
      "outputs": [
        {
          "name": "",
          "type": "uint256"
        }
      ],
      "payable": false,
      "stateMutability": "view",
      "type": "function"
    }
  ],
  "bytecode": "0x608060405234801561001057600080fd5b50604051610180806135cf833981018060405261018081101561003257600080fd5b8101908080519060200190929190805190602001909291908051906020019092919080519060200190929190805190602001909291908051906020019092919080519060200190929190805190602001909291908051906020019092919080519060200190929190805190602001909291908051906020019092919050505060078c908060018154018082558091505090600182039060005260206000200160009091929091909150555060078b908060018154018082558091505090600182039060005260206000200160009091929091909150555060078a908060018154018082558091505090600182039060005260206000200160009091929091909150555060078990806001815401808255809150509060018203906000526020600020016000909192909190915055506007889080600181540180825580915050906001820390600052602060002001600090919290919091505550600787908060018154018082558091505090600182039060005260206000200160009091929091909150555060078690806001815401808255809150509060018203906000526020600020016000909192909190915055506007859080600181540180825580915050906001820390600052602060002001600090919290919091505550600784908060018154018082558091505090600182039060005260206000200160009091929091909150555060078390806001815401808255809150509060018203906000526020600020016000909192909190915055506007829080600181540180825580915050906001820390600052602060002001600090919290919091505550806000806101000a81548173ffffffffffffffffffffffffffffffffffffffff021916908373ffffffffffffffffffffffffffffffffffffffff16021790555080600860006101000a81548173ffffffffffffffffffffffffffffffffffffffff021916908373ffffffffffffffffffffffffffffffffffffffff16021790555050505050505050505050505061329e806103316000396000f3fe608060405260043610610175576000357c0100000000000000000000000000000000000000000000000000000000900463ffffffff168063071f2e8c1461017a5780630bae037a146101cb5780630c27d7a1146101f65780630ea8b3bf14610409578063128339d11461043457806315c2f636146104b457806316084afb146104df5780631a37bde11461053c5780633090c0e91461058157806334b08c05146105b9578063407e678c146105e45780634da807ca14610637578063519500321461066257806365d49588146106b357806366d4047a146107435780637aa980241461076e57806387350e33146107995780638eaa0162146107c457806392417dc7146108095780639a7596a8146108755780639d2f053c14610901578063a6cce4dd14610950578063aa258fad146109a7578063adaa139914610a2b578063ba26aca414610a56578063bedd12a514610a81578063e5919a4f14610ad8578063ec1eb46e14610b48578063fc19ad6014610b73575b600080fd5b34801561018657600080fd5b506101c96004803603606081101561019d57600080fd5b810190808035151590602001909291908035906020019092919080359060200190929190505050610bc4565b005b3480156101d757600080fd5b506101e0611105565b6040518082815260200191505060405180910390f35b610407600480360360a081101561020c57600080fd5b81019080803573ffffffffffffffffffffffffffffffffffffffff169060200190929190803590602001909291908035906020019064010000000081111561025357600080fd5b82018360208201111561026557600080fd5b8035906020019184600183028401116401000000008311171561028757600080fd5b91908080601f016020809104026020016040519081016040528093929190818152602001838380828437600081840152601f19601f820116905080830192505050505050509192919290803590602001906401000000008111156102ea57600080fd5b8201836020820111156102fc57600080fd5b8035906020019184600183028401116401000000008311171561031e57600080fd5b91908080601f016020809104026020016040519081016040528093929190818152602001838380828437600081840152601f19601f8201169050808301925050505050505091929192908035906020019064010000000081111561038157600080fd5b82018360208201111561039357600080fd5b803590602001918460018302840111640100000000831117156103b557600080fd5b91908080601f016020809104026020016040519081016040528093929190818152602001838380828437600081840152601f19601f820116905080830192505050505050509192919290505050611126565b005b34801561041557600080fd5b5061041e6114de565b6040518082815260200191505060405180910390f35b34801561044057600080fd5b506104776004803603604081101561045757600080fd5b810190808035906020019092919080359060200190929190505050611500565b6040518087815260200186815260200185815260200184815260200183151515158152602001828152602001965050505050505060405180910390f35b3480156104c057600080fd5b506104c9611556565b6040518082815260200191505060405180910390f35b3480156104eb57600080fd5b5061053a6004803603604081101561050257600080fd5b81019080803515159060200190929190803573ffffffffffffffffffffffffffffffffffffffff169060200190929190505050611578565b005b34801561054857600080fd5b5061057f6004803603604081101561055f57600080fd5b810190808035906020019092919080359060200190929190505050611bea565b005b6105b76004803603604081101561059757600080fd5b810190808035906020019092919080359060200190929190505050611fad565b005b3480156105c557600080fd5b506105ce612257565b6040518082815260200191505060405180910390f35b3480156105f057600080fd5b5061061d6004803603602081101561060757600080fd5b8101908080359060200190929190505050612279565b604051808215151515815260200191505060405180910390f35b34801561064357600080fd5b5061064c61236e565b6040518082815260200191505060405180910390f35b34801561066e57600080fd5b506106b16004803603602081101561068557600080fd5b81019080803573ffffffffffffffffffffffffffffffffffffffff169060200190929190505050612390565b005b3480156106bf57600080fd5b50610722600480360360408110156106d657600080fd5b81019080803573ffffffffffffffffffffffffffffffffffffffff169060200190929190803573ffffffffffffffffffffffffffffffffffffffff1690602001909291905050506126f2565b60405180838152602001821515151581526020019250505060405180910390f35b34801561074f57600080fd5b50610758612730565b6040518082815260200191505060405180910390f35b34801561077a57600080fd5b50610783612752565b6040518082815260200191505060405180910390f35b3480156107a557600080fd5b506107ae612774565b6040518082815260200191505060405180910390f35b3480156107d057600080fd5b50610807600480360360408110156107e757600080fd5b810190808035906020019092919080359060200190929190505050612796565b005b34801561081557600080fd5b506108586004803603602081101561082c57600080fd5b81019080803573ffffffffffffffffffffffffffffffffffffffff16906020019092919050505061299f565b604051808381526020018281526020019250505060405180910390f35b34801561088157600080fd5b506108c46004803603602081101561089857600080fd5b81019080803573ffffffffffffffffffffffffffffffffffffffff1690602001909291905050506129c3565b6040518087815260200186815260200185815260200184815260200183151515158152602001828152602001965050505050505060405180910390f35b34801561090d57600080fd5b5061093a6004803603602081101561092457600080fd5b8101908080359060200190929190505050612a0c565b6040518082815260200191505060405180910390f35b34801561095c57600080fd5b50610965612a2f565b604051808273ffffffffffffffffffffffffffffffffffffffff1673ffffffffffffffffffffffffffffffffffffffff16815260200191505060405180910390f35b3480156109b357600080fd5b50610a0a600480360360608110156109ca57600080fd5b81019080803573ffffffffffffffffffffffffffffffffffffffff1690602001909291908035906020019092919080359060200190929190505050612a55565b60405180838152602001821515151581526020019250505060405180910390f35b348015610a3757600080fd5b50610a40612aa0565b6040518082815260200191505060405180910390f35b348015610a6257600080fd5b50610a6b612ac2565b6040518082815260200191505060405180910390f35b348015610a8d57600080fd5b50610a96612ae4565b604051808273ffffffffffffffffffffffffffffffffffffffff1673ffffffffffffffffffffffffffffffffffffffff16815260200191505060405180910390f35b348015610ae457600080fd5b50610b2760048036036020811015610afb57600080fd5b81019080803573ffffffffffffffffffffffffffffffffffffffff169060200190929190505050612b09565b60405180831515151581526020018281526020019250505060405180910390f35b348015610b5457600080fd5b50610b5d612b3a565b6040518082815260200191505060405180910390f35b348015610b7f57600080fd5b50610bc260048036036020811015610b9657600080fd5b81019080803573ffffffffffffffffffffffffffffffffffffffff169060200190929190505050612b5c565b005b60008060009054906101000a900473ffffffffffffffffffffffffffffffffffffffff1673ffffffffffffffffffffffffffffffffffffffff1663c7c551b6336040518263ffffffff167c0100000000000000000000000000000000000000000000000000000000028152600401808273ffffffffffffffffffffffffffffffffffffffff1673ffffffffffffffffffffffffffffffffffffffff16815260200191505060206040518083038186803b158015610c8057600080fd5b505afa158015610c94573d6000803e3d6000fd5b505050506040513d6020811015610caa57600080fd5b81019080805190602001909291905050509050600081111515610ccc57600080fd5b4260016000858152602001908152602001600020600084815260200190815260200160002060020154111515610d0157600080fd5b6000600260003373ffffffffffffffffffffffffffffffffffffffff1673ffffffffffffffffffffffffffffffffffffffff1681526020019081526020016000206000858152602001908152602001600020600084815260200190815260200160002060000154141515610d7457600080fd5b8315610de457610db48160016000868152602001908152602001600020600085815260200190815260200160002060000154612ffd90919063ffffffff16565b60016000858152602001908152602001600020600084815260200190815260200160002060000181905550610e4a565b610e1e8160016000868152602001908152602001600020600085815260200190815260200160002060010154612ffd90919063ffffffff16565b600160008581526020019081526020016000206000848152602001908152602001600020600101819055505b80600260003373ffffffffffffffffffffffffffffffffffffffff1673ffffffffffffffffffffffffffffffffffffffff168152602001908152602001600020600085815260200190815260200160002060008481526020019081526020016000206000018190555083600260003373ffffffffffffffffffffffffffffffffffffffff1673ffffffffffffffffffffffffffffffffffffffff1681526020019081526020016000206000858152602001908152602001600020600084815260200190815260200160002060010160006101000a81548160ff02191690831515021790555060016000848152602001908152602001600020600083815260200190815260200160002060020154600560003373ffffffffffffffffffffffffffffffffffffffff1673ffffffffffffffffffffffffffffffffffffffff1681526020019081526020016000206000015410156110ab5760016000848152602001908152602001600020600083815260200190815260200160002060020154600560003373ffffffffffffffffffffffffffffffffffffffff1673ffffffffffffffffffffffffffffffffffffffff168152602001908152602001600020600001819055506110646001600560003373ffffffffffffffffffffffffffffffffffffffff1673ffffffffffffffffffffffffffffffffffffffff16815260200190815260200160002060010154612ffd90919063ffffffff16565b600560003373ffffffffffffffffffffffffffffffffffffffff1673ffffffffffffffffffffffffffffffffffffffff168152602001908152602001600020600101819055505b82823373ffffffffffffffffffffffffffffffffffffffff167f5984ee0b6f8a8d4a7ae6fce2e416cc2d3653fb524f9b3971aef2a17db662b1f287604051808215151515815260200191505060405180910390a450505050565b600060078081548110151561111657fe5b9060005260206000200154905090565b3461112f612752565b14151561113b57600080fd5b6000611145611556565b420190506000611153612aa0565b61115b611556565b420101905081600360008973ffffffffffffffffffffffffffffffffffffffff1673ffffffffffffffffffffffffffffffffffffffff1681526020019081526020016000206002018190555080600360008973ffffffffffffffffffffffffffffffffffffffff1673ffffffffffffffffffffffffffffffffffffffff16815260200190815260200160002060030181905550856111f7612aa0565b6111ff611556565b42010101600360008973ffffffffffffffffffffffffffffffffffffffff1673ffffffffffffffffffffffffffffffffffffffff16815260200190815260200160002060050181905550600860009054906101000a900473ffffffffffffffffffffffffffffffffffffffff1673ffffffffffffffffffffffffffffffffffffffff166108fc349081150290604051600060405180830381858888f193505050501580156112b1573d6000803e3d6000fd5b503373ffffffffffffffffffffffffffffffffffffffff167f260642d81195f8dba97b20d2f6c36bc3ffb5c7306da7a1c135ad7cb27f28627d88428585600360008e73ffffffffffffffffffffffffffffffffffffffff1673ffffffffffffffffffffffffffffffffffffffff168152602001908152602001600020600501548b8b8b604051808973ffffffffffffffffffffffffffffffffffffffff1673ffffffffffffffffffffffffffffffffffffffff168152602001888152602001878152602001868152602001858152602001806020018060200180602001848103845287818151815260200191508051906020019080838360005b838110156113c65780820151818401526020810190506113ab565b50505050905090810190601f1680156113f35780820380516001836020036101000a031916815260200191505b50848103835286818151815260200191508051906020019080838360005b8381101561142c578082015181840152602081019050611411565b50505050905090810190601f1680156114595780820380516001836020036101000a031916815260200191505b50848103825285818151815260200191508051906020019080838360005b83811015611492578082015181840152602081019050611477565b50505050905090810190601f1680156114bf5780820380516001836020036101000a031916815260200191505b509b50505050505050505050505060405180910390a250505050505050565b6000600760048154811015156114f057fe5b9060005260206000200154905090565b6001602052816000526040600020602052806000526040600020600091509150508060000154908060010154908060020154908060030154908060040160009054906101000a900460ff16908060050154905086565b60006007600081548110151561156857fe5b9060005260206000200154905090565b60008060009054906101000a900473ffffffffffffffffffffffffffffffffffffffff1673ffffffffffffffffffffffffffffffffffffffff1663c7c551b6336040518263ffffffff167c0100000000000000000000000000000000000000000000000000000000028152600401808273ffffffffffffffffffffffffffffffffffffffff1673ffffffffffffffffffffffffffffffffffffffff16815260200191505060206040518083038186803b15801561163457600080fd5b505afa158015611648573d6000803e3d6000fd5b505050506040513d602081101561165e57600080fd5b8101908080519060200190929190505050905060008111151561168057600080fd5b42600360008473ffffffffffffffffffffffffffffffffffffffff1673ffffffffffffffffffffffffffffffffffffffff168152602001908152602001600020600201541115156116d057600080fd5b6000600460003373ffffffffffffffffffffffffffffffffffffffff1673ffffffffffffffffffffffffffffffffffffffff16815260200190815260200160002060008473ffffffffffffffffffffffffffffffffffffffff1673ffffffffffffffffffffffffffffffffffffffff1681526020019081526020016000206000015414151561175e57600080fd5b8215611804576117b981600360008573ffffffffffffffffffffffffffffffffffffffff1673ffffffffffffffffffffffffffffffffffffffff16815260200190815260200160002060000154612ffd90919063ffffffff16565b600360008473ffffffffffffffffffffffffffffffffffffffff1673ffffffffffffffffffffffffffffffffffffffff168152602001908152602001600020600001819055506118a0565b61185981600360008573ffffffffffffffffffffffffffffffffffffffff1673ffffffffffffffffffffffffffffffffffffffff16815260200190815260200160002060010154612ffd90919063ffffffff16565b600360008473ffffffffffffffffffffffffffffffffffffffff1673ffffffffffffffffffffffffffffffffffffffff168152602001908152602001600020600101819055505b61193281600460003373ffffffffffffffffffffffffffffffffffffffff1673ffffffffffffffffffffffffffffffffffffffff16815260200190815260200160002060008573ffffffffffffffffffffffffffffffffffffffff1673ffffffffffffffffffffffffffffffffffffffff16815260200190815260200160002060000154612ffd90919063ffffffff16565b5082600460003373ffffffffffffffffffffffffffffffffffffffff1673ffffffffffffffffffffffffffffffffffffffff16815260200190815260200160002060008473ffffffffffffffffffffffffffffffffffffffff1673ffffffffffffffffffffffffffffffffffffffff16815260200190815260200160002060010160006101000a81548160ff021916908315150217905550600360008373ffffffffffffffffffffffffffffffffffffffff1673ffffffffffffffffffffffffffffffffffffffff16815260200190815260200160002060020154600560003373ffffffffffffffffffffffffffffffffffffffff1673ffffffffffffffffffffffffffffffffffffffff168152602001908152602001600020600001541015611b7c57600360008373ffffffffffffffffffffffffffffffffffffffff1673ffffffffffffffffffffffffffffffffffffffff16815260200190815260200160002060020154600560003373ffffffffffffffffffffffffffffffffffffffff1673ffffffffffffffffffffffffffffffffffffffff16815260200190815260200160002060000181905550611b356001600560003373ffffffffffffffffffffffffffffffffffffffff1673ffffffffffffffffffffffffffffffffffffffff16815260200190815260200160002060010154612ffd90919063ffffffff16565b600560003373ffffffffffffffffffffffffffffffffffffffff1673ffffffffffffffffffffffffffffffffffffffff168152602001908152602001600020600101819055505b8173ffffffffffffffffffffffffffffffffffffffff163373ffffffffffffffffffffffffffffffffffffffff167f907d1708cab8eaebd92dcadc0186c11a072eefba735c6bde6a0864826a978fb185604051808215151515815260200191505060405180910390a3505050565b6000600260003373ffffffffffffffffffffffffffffffffffffffff1673ffffffffffffffffffffffffffffffffffffffff16815260200190815260200160002060008481526020019081526020016000206000838152602001908152602001600020600001541115611e6a57611cad6001600560003373ffffffffffffffffffffffffffffffffffffffff1673ffffffffffffffffffffffffffffffffffffffff1681526020019081526020016000206001015461308790919063ffffffff16565b50600260003373ffffffffffffffffffffffffffffffffffffffff1673ffffffffffffffffffffffffffffffffffffffff1681526020019081526020016000206000838152602001908152602001600020600082815260200190815260200160002060010160009054906101000a900460ff1615611dc957611dc3600260003373ffffffffffffffffffffffffffffffffffffffff1673ffffffffffffffffffffffffffffffffffffffff16815260200190815260200160002060008481526020019081526020016000206000838152602001908152602001600020600001546001600085815260200190815260200160002060008481526020019081526020016000206000015461308790919063ffffffff16565b50611e69565b611e67600260003373ffffffffffffffffffffffffffffffffffffffff1673ffffffffffffffffffffffffffffffffffffffff16815260200190815260200160002060008481526020019081526020016000206000838152602001908152602001600020600001546001600085815260200190815260200160002060008481526020019081526020016000206001015461308790919063ffffffff16565b505b5b3373ffffffffffffffffffffffffffffffffffffffff167f82b222dc6df7220221128d01934e54761c8e136c2ca8cd1429b03071da2baacd600260003373ffffffffffffffffffffffffffffffffffffffff1673ffffffffffffffffffffffffffffffffffffffff1681526020019081526020016000206000858152602001908152602001600020600084815260200190815260200160002060010160009054906101000a900460ff16600260003373ffffffffffffffffffffffffffffffffffffffff1673ffffffffffffffffffffffffffffffffffffffff16815260200190815260200160002060008681526020019081526020016000206000858152602001908152602001600020600001548486604051808515151515815260200184815260200183815260200182815260200194505050505060405180910390a25050565b34611fb6611105565b141515611fc257600080fd5b6000611fcc611556565b420190506000611fda612aa0565b611fe2611556565b4201019050600060023342604051602001808373ffffffffffffffffffffffffffffffffffffffff1673ffffffffffffffffffffffffffffffffffffffff166c01000000000000000000000000028152601401828152602001925050506040516020818303038152906040526040518082805190602001908083835b602083101515612083578051825260208201915060208101905060208303925061205e565b6001836020036101000a038019825116818451168082178552505050505050905001915050602060405180830381855afa1580156120c5573d6000803e3d6000fd5b5050506040513d60208110156120da57600080fd5b81019080805190602001909291905050509050836001600087815260200190815260200160002060008381526020019081526020016000206005018190555082600160008781526020019081526020016000206000838152602001908152602001600020600201819055508160016000878152602001908152602001600020600083815260200190815260200160002060030181905550600860009054906101000a900473ffffffffffffffffffffffffffffffffffffffff1673ffffffffffffffffffffffffffffffffffffffff166108fc349081150290604051600060405180830381858888f193505050501580156121d9573d6000803e3d6000fd5b503373ffffffffffffffffffffffffffffffffffffffff167f0c2ee5cf28eff885cb7dec270a69f9498c35d1157cfca113d9814ff827c9ffd386838742888860405180878152602001868152602001858152602001848152602001838152602001828152602001965050505050505060405180910390a25050505050565b60006007600281548110151561226957fe5b9060005260206000200154905090565b600061235e8261235060646000809054906101000a900473ffffffffffffffffffffffffffffffffffffffff1673ffffffffffffffffffffffffffffffffffffffff166318ec2d5c6040518163ffffffff167c010000000000000000000000000000000000000000000000000000000002815260040160206040518083038186803b15801561230757600080fd5b505afa15801561231b573d6000803e3d6000fd5b505050506040513d602081101561233157600080fd5b810190808051906020019092919050505061311290919063ffffffff16565b6131df90919063ffffffff16565b612366612ac2565b119050919050565b60006007600a81548110151561238057fe5b9060005260206000200154905090565b6000612429600360008473ffffffffffffffffffffffffffffffffffffffff1673ffffffffffffffffffffffffffffffffffffffff16815260200190815260200160002060010154600360008573ffffffffffffffffffffffffffffffffffffffff1673ffffffffffffffffffffffffffffffffffffffff16815260200190815260200160002060000154612ffd90919063ffffffff16565b905061243481612279565b151561243f57600080fd5b600360008373ffffffffffffffffffffffffffffffffffffffff1673ffffffffffffffffffffffffffffffffffffffff16815260200190815260200160002060040160009054906101000a900460ff1615151561249b57600080fd5b600360008373ffffffffffffffffffffffffffffffffffffffff1673ffffffffffffffffffffffffffffffffffffffff16815260200190815260200160002060010154600360008473ffffffffffffffffffffffffffffffffffffffff1673ffffffffffffffffffffffffffffffffffffffff1681526020019081526020016000206000015411151561252d57600080fd5b42600360008473ffffffffffffffffffffffffffffffffffffffff1673ffffffffffffffffffffffffffffffffffffffff1681526020019081526020016000206002015410151561257d57600080fd5b42600360008473ffffffffffffffffffffffffffffffffffffffff1673ffffffffffffffffffffffffffffffffffffffff168152602001908152602001600020600301541015156125cd57600080fd5b6040805190810160405280600115158152602001600360008573ffffffffffffffffffffffffffffffffffffffff1673ffffffffffffffffffffffffffffffffffffffff16815260200190815260200160002060050154815250600660008473ffffffffffffffffffffffffffffffffffffffff1673ffffffffffffffffffffffffffffffffffffffff16815260200190815260200160002060008201518160000160006101000a81548160ff021916908315150217905550602082015181600101559050506001600360008473ffffffffffffffffffffffffffffffffffffffff1673ffffffffffffffffffffffffffffffffffffffff16815260200190815260200160002060040160006101000a81548160ff0219169083151502179055505050565b6004602052816000526040600020602052806000526040600020600091509150508060000154908060010160009054906101000a900460ff16905082565b60006007600981548110151561274257fe5b9060005260206000200154905090565b60006007600881548110151561276457fe5b9060005260206000200154905090565b60006007600581548110151561278657fe5b9060005260206000200154905090565b60006127f96001600085815260200190815260200160002060008481526020019081526020016000206001015460016000868152602001908152602001600020600085815260200190815260200160002060000154612ffd90919063ffffffff16565b905061280481612279565b151561280f57600080fd5b60016000848152602001908152602001600020600083815260200190815260200160002060040160009054906101000a900460ff1615151561285057600080fd5b60016000848152602001908152602001600020600083815260200190815260200160002060010154600160008581526020019081526020016000206000848152602001908152602001600020600001541115156128ac57600080fd5b42600160008581526020019081526020016000206000848152602001908152602001600020600201541015156128e157600080fd5b426001600085815260200190815260200160002060008481526020019081526020016000206003015410151561291657600080fd5b6001600084815260200190815260200160002060008381526020019081526020016000206005015460078481548110151561294d57fe5b90600052602060002001819055506001806000858152602001908152602001600020600084815260200190815260200160002060040160006101000a81548160ff021916908315150217905550505050565b60056020528060005260406000206000915090508060000154908060010154905082565b60036020528060005260406000206000915090508060000154908060010154908060020154908060030154908060040160009054906101000a900460ff16908060050154905086565b600781815481101515612a1b57fe5b906000526020600020016000915090505481565b600860009054906101000a900473ffffffffffffffffffffffffffffffffffffffff1681565b600260205282600052604060002060205281600052604060002060205280600052604060002060009250925050508060000154908060010160009054906101000a900460ff16905082565b600060076001815481101515612ab257fe5b9060005260206000200154905090565b600060076006815481101515612ad457fe5b9060005260206000200154905090565b6000809054906101000a900473ffffffffffffffffffffffffffffffffffffffff1681565b60066020528060005260406000206000915090508060000160009054906101000a900460ff16908060010154905082565b600060076003815481101515612b4c57fe5b9060005260206000200154905090565b6000600460003373ffffffffffffffffffffffffffffffffffffffff1673ffffffffffffffffffffffffffffffffffffffff16815260200190815260200160002060008373ffffffffffffffffffffffffffffffffffffffff1673ffffffffffffffffffffffffffffffffffffffff168152602001908152602001600020600001541115612e7e57612c3a6001600560003373ffffffffffffffffffffffffffffffffffffffff1673ffffffffffffffffffffffffffffffffffffffff1681526020019081526020016000206001015461308790919063ffffffff16565b50600460003373ffffffffffffffffffffffffffffffffffffffff1673ffffffffffffffffffffffffffffffffffffffff16815260200190815260200160002060008273ffffffffffffffffffffffffffffffffffffffff1673ffffffffffffffffffffffffffffffffffffffff16815260200190815260200160002060010160009054906101000a900460ff1615612da757612da1600460003373ffffffffffffffffffffffffffffffffffffffff1673ffffffffffffffffffffffffffffffffffffffff16815260200190815260200160002060008373ffffffffffffffffffffffffffffffffffffffff1673ffffffffffffffffffffffffffffffffffffffff16815260200190815260200160002060000154600360008473ffffffffffffffffffffffffffffffffffffffff1673ffffffffffffffffffffffffffffffffffffffff1681526020019081526020016000206000015461308790919063ffffffff16565b50612e7d565b612e7b600460003373ffffffffffffffffffffffffffffffffffffffff1673ffffffffffffffffffffffffffffffffffffffff16815260200190815260200160002060008373ffffffffffffffffffffffffffffffffffffffff1673ffffffffffffffffffffffffffffffffffffffff16815260200190815260200160002060000154600360008473ffffffffffffffffffffffffffffffffffffffff1673ffffffffffffffffffffffffffffffffffffffff1681526020019081526020016000206001015461308790919063ffffffff16565b505b5b8073ffffffffffffffffffffffffffffffffffffffff163373ffffffffffffffffffffffffffffffffffffffff167f757099a1445de7271034a303c136f46e401f8cd4b67ae366fee96bf42fe76419600460003373ffffffffffffffffffffffffffffffffffffffff1673ffffffffffffffffffffffffffffffffffffffff16815260200190815260200160002060008573ffffffffffffffffffffffffffffffffffffffff1673ffffffffffffffffffffffffffffffffffffffff16815260200190815260200160002060010160009054906101000a900460ff16600460003373ffffffffffffffffffffffffffffffffffffffff1673ffffffffffffffffffffffffffffffffffffffff16815260200190815260200160002060008673ffffffffffffffffffffffffffffffffffffffff1673ffffffffffffffffffffffffffffffffffffffff1681526020019081526020016000206000015460405180831515151581526020018281526020019250505060405180910390a350565b600080828401905083811015151561307d576040517f08c379a000000000000000000000000000000000000000000000000000000000815260040180806020018281038252601b8152602001807f536166654d6174683a206164646974696f6e206f766572666c6f77000000000081525060200191505060405180910390fd5b8091505092915050565b6000828211151515613101576040517f08c379a000000000000000000000000000000000000000000000000000000000815260040180806020018281038252601e8152602001807f536166654d6174683a207375627472616374696f6e206f766572666c6f77000081525060200191505060405180910390fd5b600082840390508091505092915050565b60008083141561312557600090506131d9565b6000828402905082848281151561313857fe5b041415156131d4576040517f08c379a00000000000000000000000000000000000000000000000000000000081526004018080602001828103825260218152602001807f536166654d6174683a206d756c7469706c69636174696f6e206f766572666c6f81526020017f770000000000000000000000000000000000000000000000000000000000000081525060400191505060405180910390fd5b809150505b92915050565b60008082111515613258576040517f08c379a000000000000000000000000000000000000000000000000000000000815260040180806020018281038252601a8152602001807f536166654d6174683a206469766973696f6e206279207a65726f00000000000081525060200191505060405180910390fd5b6000828481151561326557fe5b049050809150509291505056fea165627a7a7230582000cb5a10ae0f86a03c3ec6fe7777c8272af08e1bf7fa8c87bd3ceb878f8480fb0029",
  "source": "pragma solidity ^0.5.0;\n\nimport \"./Depository.sol\";\nimport \"openzeppelin-solidity/contracts/math/SafeMath.sol\";\n\ncontract SettingsNew {\n        \n        using SafeMath for uint256;\n    \n        event contractVoteLog(address indexed voter, bool vote,address indexed addr);\n        event createContractProposalLog(address indexed voter, address _contract, uint256 startDate, uint256 endDate, uint256 activationDate, uint256 expirationDate, string title, string description, string extra);   \n        event quitContractVotingLog(address indexed voter,  bool vote, uint256 amount, address indexed addr);\n        event createParamProposalLog(address indexed voter, uint256 param, bytes32 hash, uint256 newValue, uint256 startDate, uint256 endDate, uint256 activationDate);\n        event paramVoteLog(address indexed voter, bool vote, bytes32 indexed hash, uint256 indexed param);\n        event quitParamsVotingLog(address indexed voter, bool vote, uint256 amount, bytes32 hash, uint256 param);\n        \n        Depository public depository;\n        \n        struct ParamsProposal {\n            uint256 yes;\n            uint256 no;\n            uint256 endVotingDate;\n            uint256 activationDate;\n            bool activated;\n            uint256 newValue;\n        }\n        \n        struct ContractProposal {\n            uint256 yes;\n            uint256 no;\n            uint256 endVotingDate;\n            uint256 activationDate;\n            bool activated;\n            uint256 expirationDate;\n        }\n\n        struct FContract {\n            bool trusted;\n            uint256 expirationDate;\n        }\n\n        struct lockedStake {\n            uint256 until;\n            uint256 votings;\n        }\n        \n        struct Voter {\n            uint256 amount;\n            bool vote;\n        }\n\n        mapping(uint256 => mapping(bytes32 => ParamsProposal)) public paramProposals;\n        mapping(address => mapping(uint256 => mapping(bytes32 => Voter))) public votersPP;\n        mapping(address => ContractProposal) public contrProposals;\n        mapping(address => mapping(address => Voter)) public votersCP;\n        mapping(address => lockedStake) public lockedStakes;\n        mapping(address => FContract) public trustedContracts;\n        uint256[] public params;\n        address payable public depositoryAddress;\n\n        \n        constructor(\n            uint256  _votingTime,\n            uint256  _activationIn,\n            uint256  _feeLimit,\n            uint256  _feeMarket,\n            uint256  _maxLeverage,\n            uint256  _liquidationProfit,\n            uint256  _minVotingPercent,\n            uint256  _paramProposalFee,\n            uint256  _contractProposalFee,\n            uint256  _feeDiscountIndex,\n            uint256  _maxMarketLength,\n            address  payable _depository\n        ) public {\n            params.push(_votingTime); \n            params.push(_activationIn); \n            params.push(_feeLimit);\n            params.push(_feeMarket);\n            params.push(_maxLeverage);\n            params.push(_liquidationProfit);\n            params.push(_minVotingPercent);\n            params.push(_paramProposalFee);\n            params.push(_contractProposalFee);\n            params.push(_feeDiscountIndex);\n            params.push(_maxMarketLength);\n            depository = Depository(_depository);\n            depositoryAddress = _depository;\n        }\n\n\n        /*------------------------ Add Contract ---------------------*/\n\n        function createContractProposal(address addr, uint256 expiresIn, string memory title, string memory description, string memory extra) public payable {\n            require(getContractProposalFee() == msg.value);\n            uint256 endVotingDate = now + getVotingTime();\n            uint256 activationDate = now + getVotingTime() + getActivationTime();\n            contrProposals[addr].endVotingDate = endVotingDate;\n            contrProposals[addr].activationDate = activationDate;\n            contrProposals[addr].expirationDate = now + getVotingTime() + getActivationTime() + expiresIn;\n\n            depositoryAddress.transfer(msg.value);\n            emit createContractProposalLog(msg.sender, addr, now, endVotingDate, activationDate, contrProposals[addr].expirationDate, title, description, extra);\n        }\n\n        function voteContractProposal(bool vote, address addr ) public {\n            uint256 amount = depository.getStakedFundsOf(msg.sender);\n            require(amount>0);\n            require(contrProposals[addr].endVotingDate > now);\n            require(votersCP[msg.sender][addr].amount == 0);\n\n            if(vote) {\n                contrProposals[addr].yes = contrProposals[addr].yes.add(amount);\n            } else {\n                contrProposals[addr].no = contrProposals[addr].no.add(amount);\n            }\n\n            votersCP[msg.sender][addr].amount.add(amount);\n            votersCP[msg.sender][addr].vote = vote;\n\n            if(lockedStakes[msg.sender].until < contrProposals[addr].endVotingDate) {\n                lockedStakes[msg.sender].until = contrProposals[addr].endVotingDate;\n                lockedStakes[msg.sender].votings = lockedStakes[msg.sender].votings.add(1);\n            }\n            \n            emit contractVoteLog(msg.sender, vote, addr);\n        }\n\n        \n        function quitContractVoting(address addr) public {\n\n            if(votersCP[msg.sender][addr].amount > 0){\n                lockedStakes[msg.sender].votings.sub(1);\n                \n                if(votersCP[msg.sender][addr].vote){ \n                    contrProposals[addr].yes.sub(votersCP[msg.sender][addr].amount);\n                } else {\n                    contrProposals[addr].no.sub(votersCP[msg.sender][addr].amount);\n                }\n            }\n\n            emit quitContractVotingLog(\n                msg.sender, \n                votersCP[msg.sender][addr].vote, \n                votersCP[msg.sender][addr].amount, \n                addr\n                );\n        }\n          \n        function activateContractProposal(address addr) public {\n            uint totalAmountVoted = contrProposals[addr].yes.add(contrProposals[addr].no);\n            require(checkMinVotingPercent(totalAmountVoted));\n            require(!contrProposals[addr].activated);\n            require(contrProposals[addr].yes > contrProposals[addr].no);\n            require(contrProposals[addr].endVotingDate < now);\n            require(contrProposals[addr].activationDate < now);\n            trustedContracts[addr] = FContract({trusted: true, expirationDate: contrProposals[addr].expirationDate});\n            contrProposals[addr].activated = true;\n        }\n        \n\n        /*------------------------ Params ---------------------*/\n\n        function createParamProposal(uint256 param, uint256 value) public payable {\n            require(getParamProposalFee() == msg.value);\n\n            uint256 endVotingDate = now + getVotingTime();\n            uint256 activationDate = now + getVotingTime() + getActivationTime();\n            bytes32 hash = sha256(abi.encodePacked(msg.sender, now));\n            \n            paramProposals[param][hash].newValue = value;\n            paramProposals[param][hash].endVotingDate = endVotingDate;\n            paramProposals[param][hash].activationDate = activationDate;\n            \n            depositoryAddress.transfer(msg.value);\n            emit createParamProposalLog(msg.sender, param, hash, value, now, endVotingDate, activationDate);\n        }\n    \n        function voteParamProposal(bool vote, uint256 param, bytes32 hash ) public {\n            uint256 amount = depository.getStakedFundsOf(msg.sender);\n    \n            require(amount>0);\n            require(paramProposals[param][hash].endVotingDate > now);\n            require(votersPP[msg.sender][param][hash].amount == 0);\n\n            if(vote) {\n                paramProposals[param][hash].yes = paramProposals[param][hash].yes.add(amount);\n            } else {\n                paramProposals[param][hash].no = paramProposals[param][hash].no.add(amount);\n            }\n\n            votersPP[msg.sender][param][hash].amount = amount;\n            votersPP[msg.sender][param][hash].vote = vote;\n\n            if(lockedStakes[msg.sender].until < paramProposals[param][hash].endVotingDate) {\n                lockedStakes[msg.sender].until = paramProposals[param][hash].endVotingDate;\n                lockedStakes[msg.sender].votings = lockedStakes[msg.sender].votings.add(1);\n            }\n            \n            emit paramVoteLog(msg.sender, vote, hash, param);\n        }\n        \n        \n        function quitParamsVoting(uint256 param, bytes32 hash) public {\n            if(votersPP[msg.sender][param][hash].amount > 0){\n                lockedStakes[msg.sender].votings.sub(1);\n                \n                if(votersPP[msg.sender][param][hash].vote){ \n                    paramProposals[param][hash].yes.sub(votersPP[msg.sender][param][hash].amount);\n                } else {\n                    paramProposals[param][hash].no.sub(votersPP[msg.sender][param][hash].amount);\n                }\n            }\n            emit quitParamsVotingLog(\n                msg.sender, \n                votersPP[msg.sender][param][hash].vote, \n                votersPP[msg.sender][param][hash].amount, \n                hash, \n                param);\n        }\n    \n    \n        function activateParamProposal(uint256 param, bytes32 hash ) public {\n            \n            uint totalAmountVoted = paramProposals[param][hash].yes.add(paramProposals[param][hash].no);\n            require(checkMinVotingPercent(totalAmountVoted));\n            require(!paramProposals[param][hash].activated);\n            require(paramProposals[param][hash].yes > paramProposals[param][hash].no);\n            require(paramProposals[param][hash].endVotingDate < now);\n            require(paramProposals[param][hash].activationDate < now);\n            params[param] = paramProposals[param][hash].newValue;\n            paramProposals[param][hash].activated = true;\n        }\n    \n\n        function checkMinVotingPercent(uint totalAmountVoted) public view returns(bool) {\n            return (getMinVotingPercent() > depository.totalStakedFunds().mul(100).div(totalAmountVoted));\n        }\n    \n    \n        function getVotingTime() public view returns (uint256) { return params[0]; }\n        function getActivationTime() public view returns (uint256) { return params[1]; }\n        function getLimitOrderFee() public view returns (uint256) { return params[2]; }\n        function getMarketOrderFee() public view returns (uint256) { return params[3]; }        \n        function getMaxLeverage() public view returns (uint256) { return params[4]; }        \n        function getLiquidationProfit() public view returns (uint256) { return params[5]; }        \n        function getMinVotingPercent() public view returns (uint256) { return params[6]; }        \n        function getParamProposalFee() public view returns (uint256) { return params[7]; }        \n        function getContractProposalFee() public view returns (uint256) { return params[8]; }        \n        function getFeeDiscountIndex() public view returns (uint256) { return params[9]; }        \n        function getMaxMarketLength() public view returns (uint256) { return params[10]; }\n    \n}\n\n\n\n\n\n",
  "sourcePath": "/home/arct/projects/etherhedge/contracts/NewSettings.sol",
  "compiler": {
    "name": "solc",
    "version": "0.5.0+commit.1d4f565a.Emscripten.clang"
  },
  "schemaVersion": "3.0.9",
  "updatedAt": "2019-07-15T06:41:01.879Z",
  "devdoc": {
    "methods": {}
  },
  "userdoc": {
    "methods": {}
  }
}