{
  "contractName": "Settings",
  "abi": [
    {
      "constant": true,
      "inputs": [],
      "name": "emergencyMode",
      "outputs": [
        {
          "name": "",
          "type": "bool"
        }
      ],
      "payable": false,
      "stateMutability": "view",
      "type": "function"
    },
    {
      "constant": true,
      "inputs": [
        {
          "name": "",
          "type": "address"
        }
      ],
      "name": "requestedToAddContracts",
      "outputs": [
        {
          "name": "",
          "type": "uint256"
        }
      ],
      "payable": false,
      "stateMutability": "view",
      "type": "function"
    },
    {
      "constant": true,
      "inputs": [],
      "name": "maxMarketLength",
      "outputs": [
        {
          "name": "",
          "type": "uint256"
        }
      ],
      "payable": false,
      "stateMutability": "view",
      "type": "function"
    },
    {
      "constant": true,
      "inputs": [],
      "name": "devAddress",
      "outputs": [
        {
          "name": "",
          "type": "address"
        }
      ],
      "payable": false,
      "stateMutability": "view",
      "type": "function"
    },
    {
      "constant": true,
      "inputs": [],
      "name": "feeMarket",
      "outputs": [
        {
          "name": "",
          "type": "uint256"
        }
      ],
      "payable": false,
      "stateMutability": "view",
      "type": "function"
    },
    {
      "constant": true,
      "inputs": [
        {
          "name": "",
          "type": "address"
        }
      ],
      "name": "requestedToRemoveContracts",
      "outputs": [
        {
          "name": "",
          "type": "uint256"
        }
      ],
      "payable": false,
      "stateMutability": "view",
      "type": "function"
    },
    {
      "constant": true,
      "inputs": [],
      "name": "feeLimit",
      "outputs": [
        {
          "name": "",
          "type": "uint256"
        }
      ],
      "payable": false,
      "stateMutability": "view",
      "type": "function"
    },
    {
      "constant": false,
      "inputs": [],
      "name": "renounceOwnership",
      "outputs": [],
      "payable": false,
      "stateMutability": "nonpayable",
      "type": "function"
    },
    {
      "constant": true,
      "inputs": [],
      "name": "liquidationProfit",
      "outputs": [
        {
          "name": "",
          "type": "uint256"
        }
      ],
      "payable": false,
      "stateMutability": "view",
      "type": "function"
    },
    {
      "constant": true,
      "inputs": [],
      "name": "requestedToChangeFeeLimitDate",
      "outputs": [
        {
          "name": "",
          "type": "uint256"
        }
      ],
      "payable": false,
      "stateMutability": "view",
      "type": "function"
    },
    {
      "constant": true,
      "inputs": [],
      "name": "owner",
      "outputs": [
        {
          "name": "",
          "type": "address"
        }
      ],
      "payable": false,
      "stateMutability": "view",
      "type": "function"
    },
    {
      "constant": true,
      "inputs": [],
      "name": "isOwner",
      "outputs": [
        {
          "name": "",
          "type": "bool"
        }
      ],
      "payable": false,
      "stateMutability": "view",
      "type": "function"
    },
    {
      "constant": true,
      "inputs": [],
      "name": "requestedToChangeFeeMarketDate",
      "outputs": [
        {
          "name": "",
          "type": "uint256"
        }
      ],
      "payable": false,
      "stateMutability": "view",
      "type": "function"
    },
    {
      "constant": true,
      "inputs": [],
      "name": "maxLeverage",
      "outputs": [
        {
          "name": "",
          "type": "uint256"
        }
      ],
      "payable": false,
      "stateMutability": "view",
      "type": "function"
    },
    {
      "constant": true,
      "inputs": [],
      "name": "requestedToChangeFeeMarketOrder",
      "outputs": [
        {
          "name": "",
          "type": "uint256"
        }
      ],
      "payable": false,
      "stateMutability": "view",
      "type": "function"
    },
    {
      "constant": true,
      "inputs": [],
      "name": "requestedToChangeFeeLimitOrder",
      "outputs": [
        {
          "name": "",
          "type": "uint256"
        }
      ],
      "payable": false,
      "stateMutability": "view",
      "type": "function"
    },
    {
      "constant": true,
      "inputs": [],
      "name": "feeDiscountIndex",
      "outputs": [
        {
          "name": "",
          "type": "uint256"
        }
      ],
      "payable": false,
      "stateMutability": "view",
      "type": "function"
    },
    {
      "constant": true,
      "inputs": [],
      "name": "activationIn",
      "outputs": [
        {
          "name": "",
          "type": "uint256"
        }
      ],
      "payable": false,
      "stateMutability": "view",
      "type": "function"
    },
    {
      "constant": true,
      "inputs": [
        {
          "name": "",
          "type": "address"
        }
      ],
      "name": "trustedContracts",
      "outputs": [
        {
          "name": "trusted",
          "type": "bool"
        },
        {
          "name": "expirationDate",
          "type": "uint256"
        }
      ],
      "payable": false,
      "stateMutability": "view",
      "type": "function"
    },
    {
      "constant": false,
      "inputs": [
        {
          "name": "newOwner",
          "type": "address"
        }
      ],
      "name": "transferOwnership",
      "outputs": [],
      "payable": false,
      "stateMutability": "nonpayable",
      "type": "function"
    },
    {
      "inputs": [
        {
          "name": "_activationIn",
          "type": "uint256"
        },
        {
          "name": "_liquidationProfit",
          "type": "uint256"
        },
        {
          "name": "_feeDiscountIndex",
          "type": "uint256"
        },
        {
          "name": "_maxMarketLength",
          "type": "uint256"
        },
        {
          "name": "_maxLeverage",
          "type": "uint256"
        }
      ],
      "payable": false,
      "stateMutability": "nonpayable",
      "type": "constructor"
    },
    {
      "anonymous": false,
      "inputs": [
        {
          "indexed": false,
          "name": "account",
          "type": "address"
        }
      ],
      "name": "addedContract",
      "type": "event"
    },
    {
      "anonymous": false,
      "inputs": [
        {
          "indexed": true,
          "name": "previousOwner",
          "type": "address"
        },
        {
          "indexed": true,
          "name": "newOwner",
          "type": "address"
        }
      ],
      "name": "OwnershipTransferred",
      "type": "event"
    },
    {
      "constant": false,
      "inputs": [
        {
          "name": "account",
          "type": "address"
        }
      ],
      "name": "requestToAddContract",
      "outputs": [],
      "payable": false,
      "stateMutability": "nonpayable",
      "type": "function"
    },
    {
      "constant": false,
      "inputs": [
        {
          "name": "account",
          "type": "address"
        },
        {
          "name": "contractDuration",
          "type": "uint256"
        }
      ],
      "name": "addContract",
      "outputs": [],
      "payable": false,
      "stateMutability": "nonpayable",
      "type": "function"
    },
    {
      "constant": false,
      "inputs": [
        {
          "name": "account",
          "type": "address"
        }
      ],
      "name": "requestToRemoveContract",
      "outputs": [],
      "payable": false,
      "stateMutability": "nonpayable",
      "type": "function"
    },
    {
      "constant": false,
      "inputs": [
        {
          "name": "account",
          "type": "address"
        }
      ],
      "name": "removeContract",
      "outputs": [],
      "payable": false,
      "stateMutability": "nonpayable",
      "type": "function"
    },
    {
      "constant": false,
      "inputs": [
        {
          "name": "fee",
          "type": "uint256"
        }
      ],
      "name": "requestToChangeFeeLimit",
      "outputs": [],
      "payable": false,
      "stateMutability": "nonpayable",
      "type": "function"
    },
    {
      "constant": false,
      "inputs": [],
      "name": "changeFeeLimit",
      "outputs": [],
      "payable": false,
      "stateMutability": "nonpayable",
      "type": "function"
    },
    {
      "constant": false,
      "inputs": [
        {
          "name": "fee",
          "type": "uint256"
        }
      ],
      "name": "requestToChangeFeeMarket",
      "outputs": [],
      "payable": false,
      "stateMutability": "nonpayable",
      "type": "function"
    },
    {
      "constant": false,
      "inputs": [],
      "name": "changeFeeMarket",
      "outputs": [],
      "payable": false,
      "stateMutability": "nonpayable",
      "type": "function"
    },
    {
      "constant": true,
      "inputs": [],
      "name": "getDevAccount",
      "outputs": [
        {
          "name": "",
          "type": "address"
        }
      ],
      "payable": false,
      "stateMutability": "view",
      "type": "function"
    },
    {
      "constant": false,
      "inputs": [
        {
          "name": "_emergencyMode",
          "type": "bool"
        }
      ],
      "name": "raiseEmergency",
      "outputs": [],
      "payable": false,
      "stateMutability": "nonpayable",
      "type": "function"
    },
    {
      "constant": true,
      "inputs": [],
      "name": "getFeeMarketOrder",
      "outputs": [
        {
          "name": "",
          "type": "uint256"
        }
      ],
      "payable": false,
      "stateMutability": "view",
      "type": "function"
    },
    {
      "constant": true,
      "inputs": [
        {
          "name": "account",
          "type": "address"
        }
      ],
      "name": "isContractTrusted",
      "outputs": [
        {
          "name": "",
          "type": "bool"
        }
      ],
      "payable": false,
      "stateMutability": "view",
      "type": "function"
    },
    {
      "constant": true,
      "inputs": [
        {
          "name": "account",
          "type": "address"
        }
      ],
      "name": "isContractNotExpired",
      "outputs": [
        {
          "name": "",
          "type": "bool"
        }
      ],
      "payable": false,
      "stateMutability": "view",
      "type": "function"
    },
    {
      "constant": true,
      "inputs": [],
      "name": "getFeeLimitOrder",
      "outputs": [
        {
          "name": "",
          "type": "uint256"
        }
      ],
      "payable": false,
      "stateMutability": "view",
      "type": "function"
    },
    {
      "constant": true,
      "inputs": [],
      "name": "getEmergencyMode",
      "outputs": [
        {
          "name": "",
          "type": "bool"
        }
      ],
      "payable": false,
      "stateMutability": "view",
      "type": "function"
    },
    {
      "constant": true,
      "inputs": [],
      "name": "getmaxLeverage",
      "outputs": [
        {
          "name": "",
          "type": "uint256"
        }
      ],
      "payable": false,
      "stateMutability": "view",
      "type": "function"
    }
  ],
  "bytecode": "0x60806040523480156200001157600080fd5b5060405160a08062001d11833981018060405260a08110156200003357600080fd5b810190808051906020019092919080519060200190929190805190602001909291908051906020019092919080519060200190929190505050336000806101000a81548173ffffffffffffffffffffffffffffffffffffffff021916908373ffffffffffffffffffffffffffffffffffffffff1602179055506000809054906101000a900473ffffffffffffffffffffffffffffffffffffffff1673ffffffffffffffffffffffffffffffffffffffff16600073ffffffffffffffffffffffffffffffffffffffff167f8be0079c531659141344cd1fd0a4f28419497f9722a3daafe3b4186f6b6457e060405160405180910390a36200014233620001b1640100000000026401000000009004565b8460038190555083600581905550826006819055508160078190555033600860006101000a81548173ffffffffffffffffffffffffffffffffffffffff021916908373ffffffffffffffffffffffffffffffffffffffff1602179055508060048190555050505050506200043d565b620001ca6200025c640100000000026401000000009004565b15156200023f576040517f08c379a00000000000000000000000000000000000000000000000000000000081526004018080602001828103825260208152602001807f4f776e61626c653a2063616c6c6572206973206e6f7420746865206f776e657281525060200191505060405180910390fd5b6200025981620002b3640100000000026401000000009004565b50565b60008060009054906101000a900473ffffffffffffffffffffffffffffffffffffffff1673ffffffffffffffffffffffffffffffffffffffff163373ffffffffffffffffffffffffffffffffffffffff1614905090565b600073ffffffffffffffffffffffffffffffffffffffff168173ffffffffffffffffffffffffffffffffffffffff16141515156200037f576040517f08c379a00000000000000000000000000000000000000000000000000000000081526004018080602001828103825260268152602001807f4f776e61626c653a206e6577206f776e657220697320746865207a65726f206181526020017f646472657373000000000000000000000000000000000000000000000000000081525060400191505060405180910390fd5b8073ffffffffffffffffffffffffffffffffffffffff166000809054906101000a900473ffffffffffffffffffffffffffffffffffffffff1673ffffffffffffffffffffffffffffffffffffffff167f8be0079c531659141344cd1fd0a4f28419497f9722a3daafe3b4186f6b6457e060405160405180910390a3806000806101000a81548173ffffffffffffffffffffffffffffffffffffffff021916908373ffffffffffffffffffffffffffffffffffffffff16021790555050565b6118c4806200044d6000396000f3fe6080604052600436106101c2576000357c0100000000000000000000000000000000000000000000000000000000900463ffffffff1680630905f560146101c7578063194097fc146101f6578063237e8cf1146102215780633a63cfc4146102865780633ad10ef6146102b1578063410f0710146103085780634244d0b214610333578063455a33af1461039857806356ecb267146103e95780635b19333214610414578063715018a61461043f5780637ba7b4fe146104565780637e7a5f401461048157806383c77d18146104ac5780638da5cb5b146104d75780638f32d59b1461052e57806391a088e61461055d578063945216bd146105885780639e385fa41461059f578063ab5c9e5e146105dc578063ae3302c214610617578063b5522e8914610642578063ba281c101461069d578063bd10aa48146106c8578063c375c2ef14610731578063c3973afd14610782578063c792ef48146107ad578063d17233b9146107d8578063d45e68a314610829578063d7a1ac7a14610840578063d8552da8146108a9578063e5919a4f146108d4578063e793a38d14610944578063f2fde38b14610973578063fbda6622146109c4578063ff92f06e14610a1b575b600080fd5b3480156101d357600080fd5b506101dc610a56565b604051808215151515815260200191505060405180910390f35b34801561020257600080fd5b5061020b610a69565b6040518082815260200191505060405180910390f35b34801561022d57600080fd5b506102706004803603602081101561024457600080fd5b81019080803573ffffffffffffffffffffffffffffffffffffffff169060200190929190505050610a73565b6040518082815260200191505060405180910390f35b34801561029257600080fd5b5061029b610a8b565b6040518082815260200191505060405180910390f35b3480156102bd57600080fd5b506102c6610a91565b604051808273ffffffffffffffffffffffffffffffffffffffff1673ffffffffffffffffffffffffffffffffffffffff16815260200191505060405180910390f35b34801561031457600080fd5b5061031d610ab7565b6040518082815260200191505060405180910390f35b34801561033f57600080fd5b506103826004803603602081101561035657600080fd5b81019080803573ffffffffffffffffffffffffffffffffffffffff169060200190929190505050610abd565b6040518082815260200191505060405180910390f35b3480156103a457600080fd5b506103e7600480360360208110156103bb57600080fd5b81019080803573ffffffffffffffffffffffffffffffffffffffff169060200190929190505050610ad5565b005b3480156103f557600080fd5b506103fe610b9c565b6040518082815260200191505060405180910390f35b34801561042057600080fd5b50610429610ba6565b6040518082815260200191505060405180910390f35b34801561044b57600080fd5b50610454610bac565b005b34801561046257600080fd5b5061046b610ce7565b6040518082815260200191505060405180910390f35b34801561048d57600080fd5b50610496610cf1565b6040518082815260200191505060405180910390f35b3480156104b857600080fd5b506104c1610cf7565b6040518082815260200191505060405180910390f35b3480156104e357600080fd5b506104ec610cfd565b604051808273ffffffffffffffffffffffffffffffffffffffff1673ffffffffffffffffffffffffffffffffffffffff16815260200191505060405180910390f35b34801561053a57600080fd5b50610543610d26565b604051808215151515815260200191505060405180910390f35b34801561056957600080fd5b50610572610d7d565b6040518082815260200191505060405180910390f35b34801561059457600080fd5b5061059d610d83565b005b3480156105ab57600080fd5b506105da600480360360208110156105c257600080fd5b81019080803515159060200190929190505050610e31565b005b3480156105e857600080fd5b50610615600480360360208110156105ff57600080fd5b8101908080359060200190929190505050610eca565b005b34801561062357600080fd5b5061062c610f5b565b6040518082815260200191505060405180910390f35b34801561064e57600080fd5b5061069b6004803603604081101561066557600080fd5b81019080803573ffffffffffffffffffffffffffffffffffffffff16906020019092919080359060200190929190505050610f61565b005b3480156106a957600080fd5b506106b26111b6565b6040518082815260200191505060405180910390f35b3480156106d457600080fd5b50610717600480360360208110156106eb57600080fd5b81019080803573ffffffffffffffffffffffffffffffffffffffff1690602001909291905050506111bc565b604051808215151515815260200191505060405180910390f35b34801561073d57600080fd5b506107806004803603602081101561075457600080fd5b81019080803573ffffffffffffffffffffffffffffffffffffffff16906020019092919050505061120a565b005b34801561078e57600080fd5b506107976113bf565b6040518082815260200191505060405180910390f35b3480156107b957600080fd5b506107c26113c5565b6040518082815260200191505060405180910390f35b3480156107e457600080fd5b50610827600480360360208110156107fb57600080fd5b81019080803573ffffffffffffffffffffffffffffffffffffffff1690602001909291905050506113cb565b005b34801561083557600080fd5b5061083e611492565b005b34801561084c57600080fd5b5061088f6004803603602081101561086357600080fd5b81019080803573ffffffffffffffffffffffffffffffffffffffff169060200190929190505050611540565b604051808215151515815260200191505060405180910390f35b3480156108b557600080fd5b506108be611599565b6040518082815260200191505060405180910390f35b3480156108e057600080fd5b50610923600480360360208110156108f757600080fd5b81019080803573ffffffffffffffffffffffffffffffffffffffff16906020019092919050505061159f565b60405180831515151581526020018281526020019250505060405180910390f35b34801561095057600080fd5b506109596115d0565b604051808215151515815260200191505060405180910390f35b34801561097f57600080fd5b506109c26004803603602081101561099657600080fd5b81019080803573ffffffffffffffffffffffffffffffffffffffff1690602001909291905050506115e7565b005b3480156109d057600080fd5b506109d961166f565b604051808273ffffffffffffffffffffffffffffffffffffffff1673ffffffffffffffffffffffffffffffffffffffff16815260200191505060405180910390f35b348015610a2757600080fd5b50610a5460048036036020811015610a3e57600080fd5b810190808035906020019092919050505061167e565b005b600d60009054906101000a900460ff1681565b6000600254905090565b600f6020528060005260406000206000915090505481565b60075481565b600860009054906101000a900473ffffffffffffffffffffffffffffffffffffffff1681565b60025481565b60106020528060005260406000206000915090505481565b610add610d26565b1515610b51576040517f08c379a00000000000000000000000000000000000000000000000000000000081526004018080602001828103825260208152602001807f4f776e61626c653a2063616c6c6572206973206e6f7420746865206f776e657281525060200191505060405180910390fd5b6003544201600f60008373ffffffffffffffffffffffffffffffffffffffff1673ffffffffffffffffffffffffffffffffffffffff1681526020019081526020016000208190555050565b6000600154905090565b60015481565b610bb4610d26565b1515610c28576040517f08c379a00000000000000000000000000000000000000000000000000000000081526004018080602001828103825260208152602001807f4f776e61626c653a2063616c6c6572206973206e6f7420746865206f776e657281525060200191505060405180910390fd5b600073ffffffffffffffffffffffffffffffffffffffff166000809054906101000a900473ffffffffffffffffffffffffffffffffffffffff1673ffffffffffffffffffffffffffffffffffffffff167f8be0079c531659141344cd1fd0a4f28419497f9722a3daafe3b4186f6b6457e060405160405180910390a360008060006101000a81548173ffffffffffffffffffffffffffffffffffffffff021916908373ffffffffffffffffffffffffffffffffffffffff160217905550565b6000600454905090565b60055481565b600a5481565b60008060009054906101000a900473ffffffffffffffffffffffffffffffffffffffff16905090565b60008060009054906101000a900473ffffffffffffffffffffffffffffffffffffffff1673ffffffffffffffffffffffffffffffffffffffff163373ffffffffffffffffffffffffffffffffffffffff1614905090565b600c5481565b610d8b610d26565b1515610dff576040517f08c379a00000000000000000000000000000000000000000000000000000000081526004018080602001828103825260208152602001807f4f776e61626c653a2063616c6c6572206973206e6f7420746865206f776e657281525060200191505060405180910390fd5b6000600c54118015610e13575042600c5411155b1515610e1e57600080fd5b600b546002819055506000600c81905550565b610e39610d26565b1515610ead576040517f08c379a00000000000000000000000000000000000000000000000000000000081526004018080602001828103825260208152602001807f4f776e61626c653a2063616c6c6572206973206e6f7420746865206f776e657281525060200191505060405180910390fd5b80600d60006101000a81548160ff02191690831515021790555050565b610ed2610d26565b1515610f46576040517f08c379a00000000000000000000000000000000000000000000000000000000081526004018080602001828103825260208152602001807f4f776e61626c653a2063616c6c6572206973206e6f7420746865206f776e657281525060200191505060405180910390fd5b6003544201600c8190555080600b8190555050565b60045481565b6000600f60008473ffffffffffffffffffffffffffffffffffffffff1673ffffffffffffffffffffffffffffffffffffffff16815260200190815260200160002054118015610fef575042600f60008473ffffffffffffffffffffffffffffffffffffffff1673ffffffffffffffffffffffffffffffffffffffff1681526020019081526020016000205411155b8015610fff5750610ffe610d26565b5b8061105d575060011515600e60003373ffffffffffffffffffffffffffffffffffffffff1673ffffffffffffffffffffffffffffffffffffffff16815260200190815260200160002060000160009054906101000a900460ff161515145b151561106857600080fd5b6001600e60008473ffffffffffffffffffffffffffffffffffffffff1673ffffffffffffffffffffffffffffffffffffffff16815260200190815260200160002060000160006101000a81548160ff021916908315150217905550804201600e60008473ffffffffffffffffffffffffffffffffffffffff1673ffffffffffffffffffffffffffffffffffffffff16815260200190815260200160002060010181905550600f60008373ffffffffffffffffffffffffffffffffffffffff1673ffffffffffffffffffffffffffffffffffffffff168152602001908152602001600020600090557f060857bb29298740e095fd992ca2b19e464d922d82b3a2e021c1aedfee393d7882604051808273ffffffffffffffffffffffffffffffffffffffff1673ffffffffffffffffffffffffffffffffffffffff16815260200191505060405180910390a15050565b600b5481565b6000600e60008373ffffffffffffffffffffffffffffffffffffffff1673ffffffffffffffffffffffffffffffffffffffff1681526020019081526020016000206001015442109050919050565b611212610d26565b1515611286576040517f08c379a00000000000000000000000000000000000000000000000000000000081526004018080602001828103825260208152602001807f4f776e61626c653a2063616c6c6572206973206e6f7420746865206f776e657281525060200191505060405180910390fd5b6000601060008373ffffffffffffffffffffffffffffffffffffffff1673ffffffffffffffffffffffffffffffffffffffff16815260200190815260200160002054118015611313575042601060008373ffffffffffffffffffffffffffffffffffffffff1673ffffffffffffffffffffffffffffffffffffffff16815260200190815260200160002054105b151561131e57600080fd5b6000600e60008373ffffffffffffffffffffffffffffffffffffffff1673ffffffffffffffffffffffffffffffffffffffff16815260200190815260200160002060000160006101000a81548160ff021916908315150217905550601060008273ffffffffffffffffffffffffffffffffffffffff1673ffffffffffffffffffffffffffffffffffffffff1681526020019081526020016000206000905550565b60095481565b60065481565b6113d3610d26565b1515611447576040517f08c379a00000000000000000000000000000000000000000000000000000000081526004018080602001828103825260208152602001807f4f776e61626c653a2063616c6c6572206973206e6f7420746865206f776e657281525060200191505060405180910390fd5b6003544201601060008373ffffffffffffffffffffffffffffffffffffffff1673ffffffffffffffffffffffffffffffffffffffff1681526020019081526020016000208190555050565b61149a610d26565b151561150e576040517f08c379a00000000000000000000000000000000000000000000000000000000081526004018080602001828103825260208152602001807f4f776e61626c653a2063616c6c6572206973206e6f7420746865206f776e657281525060200191505060405180910390fd5b6000600a54118015611522575042600a5411155b151561152d57600080fd5b6009546001819055506000600a81905550565b6000600e60008373ffffffffffffffffffffffffffffffffffffffff1673ffffffffffffffffffffffffffffffffffffffff16815260200190815260200160002060000160009054906101000a900460ff169050919050565b60035481565b600e6020528060005260406000206000915090508060000160009054906101000a900460ff16908060010154905082565b6000600d60009054906101000a900460ff16905090565b6115ef610d26565b1515611663576040517f08c379a00000000000000000000000000000000000000000000000000000000081526004018080602001828103825260208152602001807f4f776e61626c653a2063616c6c6572206973206e6f7420746865206f776e657281525060200191505060405180910390fd5b61166c8161170f565b50565b6000611679610cfd565b905090565b611686610d26565b15156116fa576040517f08c379a00000000000000000000000000000000000000000000000000000000081526004018080602001828103825260208152602001807f4f776e61626c653a2063616c6c6572206973206e6f7420746865206f776e657281525060200191505060405180910390fd5b6003544201600a819055508060098190555050565b600073ffffffffffffffffffffffffffffffffffffffff168173ffffffffffffffffffffffffffffffffffffffff16141515156117da576040517f08c379a00000000000000000000000000000000000000000000000000000000081526004018080602001828103825260268152602001807f4f776e61626c653a206e6577206f776e657220697320746865207a65726f206181526020017f646472657373000000000000000000000000000000000000000000000000000081525060400191505060405180910390fd5b8073ffffffffffffffffffffffffffffffffffffffff166000809054906101000a900473ffffffffffffffffffffffffffffffffffffffff1673ffffffffffffffffffffffffffffffffffffffff167f8be0079c531659141344cd1fd0a4f28419497f9722a3daafe3b4186f6b6457e060405160405180910390a3806000806101000a81548173ffffffffffffffffffffffffffffffffffffffff021916908373ffffffffffffffffffffffffffffffffffffffff1602179055505056fea165627a7a72305820e6e1f2bf59d7e08ab9ff473cb952e6072ef4419fb94a3cc4c2d52af50c3fbf3b0029",
  "source": "pragma solidity ^0.5.0;\r\n\r\nimport \"openzeppelin-solidity/contracts/ownership/Ownable.sol\";\r\nimport \"openzeppelin-solidity/contracts/math/SafeMath.sol\";\r\n\r\ncontract Settings is Ownable {\r\n    using SafeMath for uint256;\r\n    \r\n    struct FutureContract {\r\n        bool trusted;\r\n        uint256 expirationDate;\r\n    }\r\n\r\n    uint256 public feeLimit;\r\n    uint256 public feeMarket;\r\n    uint256 public activationIn;\r\n    uint256 public maxLeverage;\r\n    uint256 public liquidationProfit;\r\n    uint256 public feeDiscountIndex;\r\n    uint256 public maxMarketLength; \r\n    \r\n    address public devAddress;\r\n\r\n    uint256 public requestedToChangeFeeLimitOrder;\r\n    uint256 public requestedToChangeFeeLimitDate;\r\n    uint256 public requestedToChangeFeeMarketOrder;\r\n    uint256 public requestedToChangeFeeMarketDate;\r\n    bool public emergencyMode;\r\n\r\n    mapping(address => FutureContract) public trustedContracts;\r\n    mapping(address => uint256) public requestedToAddContracts;\r\n    mapping(address => uint256) public requestedToRemoveContracts;\r\n\r\n    event addedContract(address account);\r\n\r\n    constructor(\r\n        uint256 _activationIn,\r\n        uint256 _liquidationProfit,\r\n        uint256 _feeDiscountIndex,\r\n        uint256 _maxMarketLength,\r\n        uint256 _maxLeverage\r\n        )\r\n        public Ownable() {\r\n            transferOwnership(msg.sender);\r\n            \r\n            activationIn = _activationIn;\r\n            liquidationProfit = _liquidationProfit;\r\n            feeDiscountIndex = _feeDiscountIndex;\r\n            maxMarketLength = _maxMarketLength;\r\n            devAddress = msg.sender;\r\n            maxLeverage = _maxLeverage;\r\n        }\r\n\r\n\r\n    /// Add new contract\r\n    function requestToAddContract(address account) onlyOwner public{\r\n        requestedToAddContracts[account] = now + activationIn;\r\n    }\r\n\r\n    function addContract(address account, uint256 contractDuration) public {\r\n        require((requestedToAddContracts[account]>0 && requestedToAddContracts[account] <= now && isOwner()) || \r\n            trustedContracts[msg.sender].trusted == true);\r\n        trustedContracts[account].trusted = true;\r\n        trustedContracts[account].expirationDate = now + contractDuration;\r\n        delete requestedToAddContracts[account];\r\n        emit addedContract(account);\r\n    }\r\n\r\n    /// Remove contract\r\n    function requestToRemoveContract(address account) onlyOwner public{\r\n        requestedToRemoveContracts[account] = now + activationIn;\r\n    }\r\n\r\n    function removeContract(address account) onlyOwner public {\r\n        require(requestedToRemoveContracts[account]>0 && requestedToRemoveContracts[account]<now);\r\n        trustedContracts[account].trusted = false;\r\n        delete requestedToRemoveContracts[account];\r\n    }\r\n\r\n    /// Change limit order fee\r\n    function requestToChangeFeeLimit(uint256 fee) onlyOwner public{\r\n        requestedToChangeFeeLimitDate = now + activationIn;\r\n        requestedToChangeFeeLimitOrder = fee;\r\n    }\r\n\r\n    function changeFeeLimit() onlyOwner public {\r\n        require(requestedToChangeFeeLimitDate>0 && requestedToChangeFeeLimitDate<=now);\r\n        feeLimit = requestedToChangeFeeLimitOrder;\r\n        requestedToChangeFeeLimitDate = 0;\r\n    }\r\n\r\n    /// Change market order fee\r\n    function requestToChangeFeeMarket(uint256 fee) onlyOwner public{\r\n        requestedToChangeFeeMarketDate = now + activationIn;\r\n        requestedToChangeFeeMarketOrder = fee;\r\n    }\r\n\r\n    function changeFeeMarket() onlyOwner public {\r\n        require(requestedToChangeFeeMarketDate>0 && requestedToChangeFeeMarketDate<=now);\r\n        feeMarket = requestedToChangeFeeMarketOrder;\r\n        requestedToChangeFeeMarketDate = 0;\r\n    }\r\n\r\n    function getDevAccount() public view returns (address){\r\n        return owner();\r\n    }\r\n\r\n\r\n    /// @dev gives the owner the possibility to put the Interface into an emergencyMode, which will\r\n    /// output always a price of 600 USD. This gives everyone time to set up a new pricefeed.\r\n    function raiseEmergency(bool _emergencyMode) public onlyOwner {\r\n        emergencyMode = _emergencyMode;\r\n    }\r\n\r\n    function getFeeMarketOrder() public view returns (uint256) {\r\n        return feeMarket;\r\n    }\r\n\r\n    function isContractTrusted (address account) public view returns(bool) {\r\n        return trustedContracts[account].trusted;\r\n    }\r\n\r\n    function isContractNotExpired (address account) public view returns(bool) {\r\n        return (now < trustedContracts[account].expirationDate);\r\n    }\r\n\r\n    function getFeeLimitOrder() public view returns (uint256) {\r\n        return feeLimit;\r\n    }\r\n\r\n    function getEmergencyMode() public view returns (bool) {\r\n        return emergencyMode;\r\n    }\r\n\r\n    function getmaxLeverage() public view returns (uint256) {\r\n        return maxLeverage;\r\n    }\r\n}\r\n",
  "sourcePath": "/home/arct/projects/etherhedge/contracts/Settings.sol",
  "compiler": {
    "name": "solc",
    "version": "0.5.0+commit.1d4f565a.Emscripten.clang"
  },
  "schemaVersion": "3.0.9",
  "updatedAt": "2019-07-04T01:38:47.561Z",
  "devdoc": {
    "methods": {
      "isOwner()": {
        "details": "Returns true if the caller is the current owner."
      },
      "owner()": {
        "details": "Returns the address of the current owner."
      },
      "renounceOwnership()": {
        "details": "Leaves the contract without owner. It will not be possible to call `onlyOwner` functions anymore. Can only be called by the current owner.     * > Note: Renouncing ownership will leave the contract without an owner, thereby removing any functionality that is only available to the owner."
      },
      "transferOwnership(address)": {
        "details": "Transfers ownership of the contract to a new account (`newOwner`). Can only be called by the current owner."
      }
    }
  },
  "userdoc": {
    "methods": {
      "raiseEmergency(bool)": {
        "notice": "output always a price of 600 USD. This gives everyone time to set up a new pricefeed."
      },
      "requestToAddContract(address)": {
        "notice": "Add new contract"
      },
      "requestToChangeFeeLimit(uint256)": {
        "notice": "Change limit order fee"
      },
      "requestToChangeFeeMarket(uint256)": {
        "notice": "Change market order fee"
      },
      "requestToRemoveContract(address)": {
        "notice": "Remove contract"
      }
    }
  }
}