{
  "contractName": "Settings",
  "abi": [
    {
      "constant": true,
      "inputs": [],
      "name": "emergencyMode",
      "outputs": [
        {
          "name": "",
          "type": "bool"
        }
      ],
      "payable": false,
      "stateMutability": "view",
      "type": "function"
    },
    {
      "constant": true,
      "inputs": [
        {
          "name": "",
          "type": "address"
        }
      ],
      "name": "requestedToAddContracts",
      "outputs": [
        {
          "name": "",
          "type": "uint256"
        }
      ],
      "payable": false,
      "stateMutability": "view",
      "type": "function"
    },
    {
      "constant": true,
      "inputs": [],
      "name": "maxMarketLength",
      "outputs": [
        {
          "name": "",
          "type": "uint256"
        }
      ],
      "payable": false,
      "stateMutability": "view",
      "type": "function"
    },
    {
      "constant": true,
      "inputs": [],
      "name": "devAddress",
      "outputs": [
        {
          "name": "",
          "type": "address"
        }
      ],
      "payable": false,
      "stateMutability": "view",
      "type": "function"
    },
    {
      "constant": true,
      "inputs": [],
      "name": "feeMarket",
      "outputs": [
        {
          "name": "",
          "type": "uint256"
        }
      ],
      "payable": false,
      "stateMutability": "view",
      "type": "function"
    },
    {
      "constant": true,
      "inputs": [
        {
          "name": "",
          "type": "address"
        }
      ],
      "name": "requestedToRemoveContracts",
      "outputs": [
        {
          "name": "",
          "type": "uint256"
        }
      ],
      "payable": false,
      "stateMutability": "view",
      "type": "function"
    },
    {
      "constant": true,
      "inputs": [],
      "name": "feeLimit",
      "outputs": [
        {
          "name": "",
          "type": "uint256"
        }
      ],
      "payable": false,
      "stateMutability": "view",
      "type": "function"
    },
    {
      "constant": false,
      "inputs": [],
      "name": "renounceOwnership",
      "outputs": [],
      "payable": false,
      "stateMutability": "nonpayable",
      "type": "function"
    },
    {
      "constant": true,
      "inputs": [],
      "name": "liquidationProfit",
      "outputs": [
        {
          "name": "",
          "type": "uint256"
        }
      ],
      "payable": false,
      "stateMutability": "view",
      "type": "function"
    },
    {
      "constant": true,
      "inputs": [],
      "name": "requestedToChangeFeeLimitDate",
      "outputs": [
        {
          "name": "",
          "type": "uint256"
        }
      ],
      "payable": false,
      "stateMutability": "view",
      "type": "function"
    },
    {
      "constant": true,
      "inputs": [],
      "name": "owner",
      "outputs": [
        {
          "name": "",
          "type": "address"
        }
      ],
      "payable": false,
      "stateMutability": "view",
      "type": "function"
    },
    {
      "constant": true,
      "inputs": [],
      "name": "isOwner",
      "outputs": [
        {
          "name": "",
          "type": "bool"
        }
      ],
      "payable": false,
      "stateMutability": "view",
      "type": "function"
    },
    {
      "constant": true,
      "inputs": [],
      "name": "requestedToChangeFeeMarketDate",
      "outputs": [
        {
          "name": "",
          "type": "uint256"
        }
      ],
      "payable": false,
      "stateMutability": "view",
      "type": "function"
    },
    {
      "constant": true,
      "inputs": [],
      "name": "requestedToChangeFeeMarketOrder",
      "outputs": [
        {
          "name": "",
          "type": "uint256"
        }
      ],
      "payable": false,
      "stateMutability": "view",
      "type": "function"
    },
    {
      "constant": true,
      "inputs": [],
      "name": "requestedToChangeFeeLimitOrder",
      "outputs": [
        {
          "name": "",
          "type": "uint256"
        }
      ],
      "payable": false,
      "stateMutability": "view",
      "type": "function"
    },
    {
      "constant": true,
      "inputs": [],
      "name": "priceFeedSource",
      "outputs": [
        {
          "name": "",
          "type": "address"
        }
      ],
      "payable": false,
      "stateMutability": "view",
      "type": "function"
    },
    {
      "constant": true,
      "inputs": [],
      "name": "feeDiscountIndex",
      "outputs": [
        {
          "name": "",
          "type": "uint256"
        }
      ],
      "payable": false,
      "stateMutability": "view",
      "type": "function"
    },
    {
      "constant": true,
      "inputs": [],
      "name": "activationIn",
      "outputs": [
        {
          "name": "",
          "type": "uint256"
        }
      ],
      "payable": false,
      "stateMutability": "view",
      "type": "function"
    },
    {
      "constant": true,
      "inputs": [
        {
          "name": "",
          "type": "address"
        }
      ],
      "name": "trustedContracts",
      "outputs": [
        {
          "name": "trusted",
          "type": "bool"
        },
        {
          "name": "expirationDate",
          "type": "uint256"
        }
      ],
      "payable": false,
      "stateMutability": "view",
      "type": "function"
    },
    {
      "constant": false,
      "inputs": [
        {
          "name": "newOwner",
          "type": "address"
        }
      ],
      "name": "transferOwnership",
      "outputs": [],
      "payable": false,
      "stateMutability": "nonpayable",
      "type": "function"
    },
    {
      "inputs": [
        {
          "name": "_priceFeedSource",
          "type": "address"
        },
        {
          "name": "_activationIn",
          "type": "uint256"
        },
        {
          "name": "_liquidationProfit",
          "type": "uint256"
        },
        {
          "name": "_feeDiscountIndex",
          "type": "uint256"
        },
        {
          "name": "_maxMarketLength",
          "type": "uint256"
        }
      ],
      "payable": false,
      "stateMutability": "nonpayable",
      "type": "constructor"
    },
    {
      "anonymous": false,
      "inputs": [
        {
          "indexed": true,
          "name": "previousOwner",
          "type": "address"
        },
        {
          "indexed": true,
          "name": "newOwner",
          "type": "address"
        }
      ],
      "name": "OwnershipTransferred",
      "type": "event"
    },
    {
      "constant": false,
      "inputs": [
        {
          "name": "account",
          "type": "address"
        }
      ],
      "name": "requestToAddContract",
      "outputs": [],
      "payable": false,
      "stateMutability": "nonpayable",
      "type": "function"
    },
    {
      "constant": false,
      "inputs": [
        {
          "name": "account",
          "type": "address"
        },
        {
          "name": "contractDuration",
          "type": "uint256"
        }
      ],
      "name": "addContract",
      "outputs": [],
      "payable": false,
      "stateMutability": "nonpayable",
      "type": "function"
    },
    {
      "constant": false,
      "inputs": [
        {
          "name": "account",
          "type": "address"
        }
      ],
      "name": "requestToRemoveContract",
      "outputs": [],
      "payable": false,
      "stateMutability": "nonpayable",
      "type": "function"
    },
    {
      "constant": false,
      "inputs": [
        {
          "name": "account",
          "type": "address"
        }
      ],
      "name": "removeContract",
      "outputs": [],
      "payable": false,
      "stateMutability": "nonpayable",
      "type": "function"
    },
    {
      "constant": false,
      "inputs": [
        {
          "name": "fee",
          "type": "uint256"
        }
      ],
      "name": "requestToChangeFeeLimit",
      "outputs": [],
      "payable": false,
      "stateMutability": "nonpayable",
      "type": "function"
    },
    {
      "constant": false,
      "inputs": [],
      "name": "changeFeeLimit",
      "outputs": [],
      "payable": false,
      "stateMutability": "nonpayable",
      "type": "function"
    },
    {
      "constant": false,
      "inputs": [
        {
          "name": "fee",
          "type": "uint256"
        }
      ],
      "name": "requestToChangeFeeMarket",
      "outputs": [],
      "payable": false,
      "stateMutability": "nonpayable",
      "type": "function"
    },
    {
      "constant": false,
      "inputs": [],
      "name": "changeFeeMarket",
      "outputs": [],
      "payable": false,
      "stateMutability": "nonpayable",
      "type": "function"
    },
    {
      "constant": false,
      "inputs": [
        {
          "name": "_emergencyMode",
          "type": "bool"
        }
      ],
      "name": "raiseEmergency",
      "outputs": [],
      "payable": false,
      "stateMutability": "nonpayable",
      "type": "function"
    },
    {
      "constant": true,
      "inputs": [],
      "name": "getUSDETHPrice",
      "outputs": [
        {
          "name": "",
          "type": "uint256"
        }
      ],
      "payable": false,
      "stateMutability": "pure",
      "type": "function"
    },
    {
      "constant": true,
      "inputs": [],
      "name": "getFeeMarketOrder",
      "outputs": [
        {
          "name": "",
          "type": "uint256"
        }
      ],
      "payable": false,
      "stateMutability": "view",
      "type": "function"
    },
    {
      "constant": true,
      "inputs": [
        {
          "name": "account",
          "type": "address"
        }
      ],
      "name": "isContractTrusted",
      "outputs": [
        {
          "name": "",
          "type": "bool"
        }
      ],
      "payable": false,
      "stateMutability": "view",
      "type": "function"
    },
    {
      "constant": true,
      "inputs": [
        {
          "name": "account",
          "type": "address"
        }
      ],
      "name": "isContractNotExpired",
      "outputs": [
        {
          "name": "",
          "type": "bool"
        }
      ],
      "payable": false,
      "stateMutability": "view",
      "type": "function"
    },
    {
      "constant": true,
      "inputs": [
        {
          "name": "account",
          "type": "address"
        }
      ],
      "name": "checkContract",
      "outputs": [
        {
          "name": "",
          "type": "bool"
        }
      ],
      "payable": false,
      "stateMutability": "view",
      "type": "function"
    },
    {
      "constant": true,
      "inputs": [],
      "name": "getFeeLimitOrder",
      "outputs": [
        {
          "name": "",
          "type": "uint256"
        }
      ],
      "payable": false,
      "stateMutability": "view",
      "type": "function"
    },
    {
      "constant": true,
      "inputs": [],
      "name": "getEmergencyMode",
      "outputs": [
        {
          "name": "",
          "type": "bool"
        }
      ],
      "payable": false,
      "stateMutability": "view",
      "type": "function"
    }
  ],
  "bytecode": "0x608060405234801561001057600080fd5b5060405160a08061178a833981018060405260a081101561003057600080fd5b810190808051906020019092919080519060200190929190805190602001909291908051906020019092919080519060200190929190505050336000806101000a81548173ffffffffffffffffffffffffffffffffffffffff021916908373ffffffffffffffffffffffffffffffffffffffff1602179055506000809054906101000a900473ffffffffffffffffffffffffffffffffffffffff1673ffffffffffffffffffffffffffffffffffffffff16600073ffffffffffffffffffffffffffffffffffffffff167f8be0079c531659141344cd1fd0a4f28419497f9722a3daafe3b4186f6b6457e060405160405180910390a361013d336101e5640100000000026401000000009004565b84600760006101000a81548173ffffffffffffffffffffffffffffffffffffffff021916908373ffffffffffffffffffffffffffffffffffffffff1602179055508360038190555082600481905550816005819055508060068190555033600860006101000a81548173ffffffffffffffffffffffffffffffffffffffff021916908373ffffffffffffffffffffffffffffffffffffffff1602179055505050505050610373565b6101fc610222640100000000026401000000009004565b151561020757600080fd5b61021f81610279640100000000026401000000009004565b50565b60008060009054906101000a900473ffffffffffffffffffffffffffffffffffffffff1673ffffffffffffffffffffffffffffffffffffffff163373ffffffffffffffffffffffffffffffffffffffff1614905090565b600073ffffffffffffffffffffffffffffffffffffffff168173ffffffffffffffffffffffffffffffffffffffff16141515156102b557600080fd5b8073ffffffffffffffffffffffffffffffffffffffff166000809054906101000a900473ffffffffffffffffffffffffffffffffffffffff1673ffffffffffffffffffffffffffffffffffffffff167f8be0079c531659141344cd1fd0a4f28419497f9722a3daafe3b4186f6b6457e060405160405180910390a3806000806101000a81548173ffffffffffffffffffffffffffffffffffffffff021916908373ffffffffffffffffffffffffffffffffffffffff16021790555050565b611408806103826000396000f3fe6080604052600436106101c2576000357c0100000000000000000000000000000000000000000000000000000000900463ffffffff1680630905f560146101c7578063194097fc146101f6578063237e8cf1146102215780633a63cfc4146102865780633ad10ef6146102b1578063410f0710146103085780634244d0b214610333578063455a33af1461039857806356ecb267146103e95780635b19333214610414578063715018a61461043f5780637e7a5f401461045657806383c77d18146104815780638da5cb5b146104ac5780638f32d59b1461050357806391a088e614610532578063945216bd1461055d5780639e385fa414610574578063a3ca17b2146105b1578063ab5c9e5e146105dc578063b5522e8914610617578063ba281c1014610672578063bd10aa481461069d578063c375c2ef14610706578063c3973afd14610757578063c5ace44314610782578063c792ef48146107d9578063d17233b914610804578063d45e68a314610855578063d7a1ac7a1461086c578063d7b12454146108d5578063d8552da81461093e578063e5919a4f14610969578063e793a38d146109d9578063f2fde38b14610a08578063ff92f06e14610a59575b600080fd5b3480156101d357600080fd5b506101dc610a94565b604051808215151515815260200191505060405180910390f35b34801561020257600080fd5b5061020b610aa7565b6040518082815260200191505060405180910390f35b34801561022d57600080fd5b506102706004803603602081101561024457600080fd5b81019080803573ffffffffffffffffffffffffffffffffffffffff169060200190929190505050610ab1565b6040518082815260200191505060405180910390f35b34801561029257600080fd5b5061029b610ac9565b6040518082815260200191505060405180910390f35b3480156102bd57600080fd5b506102c6610acf565b604051808273ffffffffffffffffffffffffffffffffffffffff1673ffffffffffffffffffffffffffffffffffffffff16815260200191505060405180910390f35b34801561031457600080fd5b5061031d610af5565b6040518082815260200191505060405180910390f35b34801561033f57600080fd5b506103826004803603602081101561035657600080fd5b81019080803573ffffffffffffffffffffffffffffffffffffffff169060200190929190505050610afb565b6040518082815260200191505060405180910390f35b3480156103a457600080fd5b506103e7600480360360208110156103bb57600080fd5b81019080803573ffffffffffffffffffffffffffffffffffffffff169060200190929190505050610b13565b005b3480156103f557600080fd5b506103fe610b71565b6040518082815260200191505060405180910390f35b34801561042057600080fd5b50610429610b7b565b6040518082815260200191505060405180910390f35b34801561044b57600080fd5b50610454610b81565b005b34801561046257600080fd5b5061046b610c53565b6040518082815260200191505060405180910390f35b34801561048d57600080fd5b50610496610c59565b6040518082815260200191505060405180910390f35b3480156104b857600080fd5b506104c1610c5f565b604051808273ffffffffffffffffffffffffffffffffffffffff1673ffffffffffffffffffffffffffffffffffffffff16815260200191505060405180910390f35b34801561050f57600080fd5b50610518610c88565b604051808215151515815260200191505060405180910390f35b34801561053e57600080fd5b50610547610cdf565b6040518082815260200191505060405180910390f35b34801561056957600080fd5b50610572610ce5565b005b34801561058057600080fd5b506105af6004803603602081101561059757600080fd5b81019080803515159060200190929190505050610d2a565b005b3480156105bd57600080fd5b506105c6610d5a565b6040518082815260200191505060405180910390f35b3480156105e857600080fd5b50610615600480360360208110156105ff57600080fd5b8101908080359060200190929190505050610d67565b005b34801561062357600080fd5b506106706004803603604081101561063a57600080fd5b81019080803573ffffffffffffffffffffffffffffffffffffffff16906020019092919080359060200190929190505050610d8f565b005b34801561067e57600080fd5b50610687610f26565b6040518082815260200191505060405180910390f35b3480156106a957600080fd5b506106ec600480360360208110156106c057600080fd5b81019080803573ffffffffffffffffffffffffffffffffffffffff169060200190929190505050610f2c565b604051808215151515815260200191505060405180910390f35b34801561071257600080fd5b506107556004803603602081101561072957600080fd5b81019080803573ffffffffffffffffffffffffffffffffffffffff169060200190929190505050610f7a565b005b34801561076357600080fd5b5061076c6110c6565b6040518082815260200191505060405180910390f35b34801561078e57600080fd5b506107976110cc565b604051808273ffffffffffffffffffffffffffffffffffffffff1673ffffffffffffffffffffffffffffffffffffffff16815260200191505060405180910390f35b3480156107e557600080fd5b506107ee6110f2565b6040518082815260200191505060405180910390f35b34801561081057600080fd5b506108536004803603602081101561082757600080fd5b81019080803573ffffffffffffffffffffffffffffffffffffffff1690602001909291905050506110f8565b005b34801561086157600080fd5b5061086a611156565b005b34801561087857600080fd5b506108bb6004803603602081101561088f57600080fd5b81019080803573ffffffffffffffffffffffffffffffffffffffff16906020019092919050505061119b565b604051808215151515815260200191505060405180910390f35b3480156108e157600080fd5b50610924600480360360208110156108f857600080fd5b81019080803573ffffffffffffffffffffffffffffffffffffffff1690602001909291905050506111f4565b604051808215151515815260200191505060405180910390f35b34801561094a57600080fd5b5061095361124d565b6040518082815260200191505060405180910390f35b34801561097557600080fd5b506109b86004803603602081101561098c57600080fd5b81019080803573ffffffffffffffffffffffffffffffffffffffff169060200190929190505050611253565b60405180831515151581526020018281526020019250505060405180910390f35b3480156109e557600080fd5b506109ee611284565b604051808215151515815260200191505060405180910390f35b348015610a1457600080fd5b50610a5760048036036020811015610a2b57600080fd5b81019080803573ffffffffffffffffffffffffffffffffffffffff16906020019092919050505061129b565b005b348015610a6557600080fd5b50610a9260048036036020811015610a7c57600080fd5b81019080803590602001909291905050506112ba565b005b600d60009054906101000a900460ff1681565b6000600254905090565b600f6020528060005260406000206000915090505481565b60065481565b600860009054906101000a900473ffffffffffffffffffffffffffffffffffffffff1681565b60025481565b60106020528060005260406000206000915090505481565b610b1b610c88565b1515610b2657600080fd5b6003544201600f60008373ffffffffffffffffffffffffffffffffffffffff1673ffffffffffffffffffffffffffffffffffffffff1681526020019081526020016000208190555050565b6000600154905090565b60015481565b610b89610c88565b1515610b9457600080fd5b600073ffffffffffffffffffffffffffffffffffffffff166000809054906101000a900473ffffffffffffffffffffffffffffffffffffffff1673ffffffffffffffffffffffffffffffffffffffff167f8be0079c531659141344cd1fd0a4f28419497f9722a3daafe3b4186f6b6457e060405160405180910390a360008060006101000a81548173ffffffffffffffffffffffffffffffffffffffff021916908373ffffffffffffffffffffffffffffffffffffffff160217905550565b60045481565b600a5481565b60008060009054906101000a900473ffffffffffffffffffffffffffffffffffffffff16905090565b60008060009054906101000a900473ffffffffffffffffffffffffffffffffffffffff1673ffffffffffffffffffffffffffffffffffffffff163373ffffffffffffffffffffffffffffffffffffffff1614905090565b600c5481565b610ced610c88565b1515610cf857600080fd5b6000600c54118015610d0c575042600c5411155b1515610d1757600080fd5b600b546002819055506000600c81905550565b610d32610c88565b1515610d3d57600080fd5b80600d60006101000a81548160ff02191690831515021790555050565b6000642098a67800905090565b610d6f610c88565b1515610d7a57600080fd5b6003544201600c8190555080600b8190555050565b610d97610c88565b1515610da257600080fd5b6000600f60008473ffffffffffffffffffffffffffffffffffffffff1673ffffffffffffffffffffffffffffffffffffffff16815260200190815260200160002054118015610e30575042600f60008473ffffffffffffffffffffffffffffffffffffffff1673ffffffffffffffffffffffffffffffffffffffff1681526020019081526020016000205411155b1515610e3b57600080fd5b6001600e60008473ffffffffffffffffffffffffffffffffffffffff1673ffffffffffffffffffffffffffffffffffffffff16815260200190815260200160002060000160006101000a81548160ff021916908315150217905550804201600e60008473ffffffffffffffffffffffffffffffffffffffff1673ffffffffffffffffffffffffffffffffffffffff16815260200190815260200160002060010181905550600f60008373ffffffffffffffffffffffffffffffffffffffff1673ffffffffffffffffffffffffffffffffffffffff168152602001908152602001600020600090555050565b600b5481565b6000600e60008373ffffffffffffffffffffffffffffffffffffffff1673ffffffffffffffffffffffffffffffffffffffff1681526020019081526020016000206001015442109050919050565b610f82610c88565b1515610f8d57600080fd5b6000601060008373ffffffffffffffffffffffffffffffffffffffff1673ffffffffffffffffffffffffffffffffffffffff1681526020019081526020016000205411801561101a575042601060008373ffffffffffffffffffffffffffffffffffffffff1673ffffffffffffffffffffffffffffffffffffffff16815260200190815260200160002054105b151561102557600080fd5b6000600e60008373ffffffffffffffffffffffffffffffffffffffff1673ffffffffffffffffffffffffffffffffffffffff16815260200190815260200160002060000160006101000a81548160ff021916908315150217905550601060008273ffffffffffffffffffffffffffffffffffffffff1673ffffffffffffffffffffffffffffffffffffffff1681526020019081526020016000206000905550565b60095481565b600760009054906101000a900473ffffffffffffffffffffffffffffffffffffffff1681565b60055481565b611100610c88565b151561110b57600080fd5b6003544201601060008373ffffffffffffffffffffffffffffffffffffffff1673ffffffffffffffffffffffffffffffffffffffff1681526020019081526020016000208190555050565b61115e610c88565b151561116957600080fd5b6000600a5411801561117d575042600a5411155b151561118857600080fd5b6009546001819055506000600a81905550565b6000600e60008373ffffffffffffffffffffffffffffffffffffffff1673ffffffffffffffffffffffffffffffffffffffff16815260200190815260200160002060000160009054906101000a900460ff169050919050565b6000600e60008373ffffffffffffffffffffffffffffffffffffffff1673ffffffffffffffffffffffffffffffffffffffff16815260200190815260200160002060000160009054906101000a900460ff169050919050565b60035481565b600e6020528060005260406000206000915090508060000160009054906101000a900460ff16908060010154905082565b6000600d60009054906101000a900460ff16905090565b6112a3610c88565b15156112ae57600080fd5b6112b7816112e2565b50565b6112c2610c88565b15156112cd57600080fd5b6003544201600a819055508060098190555050565b600073ffffffffffffffffffffffffffffffffffffffff168173ffffffffffffffffffffffffffffffffffffffff161415151561131e57600080fd5b8073ffffffffffffffffffffffffffffffffffffffff166000809054906101000a900473ffffffffffffffffffffffffffffffffffffffff1673ffffffffffffffffffffffffffffffffffffffff167f8be0079c531659141344cd1fd0a4f28419497f9722a3daafe3b4186f6b6457e060405160405180910390a3806000806101000a81548173ffffffffffffffffffffffffffffffffffffffff021916908373ffffffffffffffffffffffffffffffffffffffff1602179055505056fea165627a7a7230582035a7e80183d4cb997feab9cef3f47958360f6faafa3881e38ccc60664b9b6dfb0029",
  "source": "pragma solidity ^0.5.0;\r\nimport \"openzeppelin-solidity/contracts/ownership/Ownable.sol\";\r\nimport \"./Oracle/PriceFeed.sol\";\r\nimport \"./Oracle/Medianizer.sol\";\r\n\r\ncontract Settings is Ownable {\r\n    \r\n    struct FutureContract {\r\n        bool trusted;\r\n        uint256 expirationDate;\r\n    }\r\n\r\n    uint256 public feeLimit;\r\n    uint256 public feeMarket;\r\n    uint256 public activationIn;\r\n    \r\n    uint256 public liquidationProfit;\r\n    uint256 public feeDiscountIndex;\r\n    uint256 public maxMarketLength; \r\n    address public priceFeedSource;\r\n    address public devAddress;\r\n\r\n    uint256 public requestedToChangeFeeLimitOrder;\r\n    uint256 public requestedToChangeFeeLimitDate;\r\n    uint256 public requestedToChangeFeeMarketOrder;\r\n    uint256 public requestedToChangeFeeMarketDate;\r\n    bool public emergencyMode;\r\n\r\n    mapping(address => FutureContract) public trustedContracts;\r\n    mapping(address => uint256) public requestedToAddContracts;\r\n    mapping(address => uint256) public requestedToRemoveContracts;\r\n\r\n    constructor(\r\n        address _priceFeedSource, \r\n        uint256 _activationIn,\r\n        uint256 _liquidationProfit,\r\n        uint256 _feeDiscountIndex,\r\n        uint256 _maxMarketLength\r\n        )\r\n        public Ownable() {\r\n            transferOwnership(msg.sender);\r\n            priceFeedSource = _priceFeedSource;\r\n            activationIn = _activationIn;\r\n            liquidationProfit = _liquidationProfit;\r\n            feeDiscountIndex = _feeDiscountIndex;\r\n            maxMarketLength = _maxMarketLength;\r\n            devAddress = msg.sender;\r\n        }\r\n\r\n    /// Add new contract\r\n    function requestToAddContract(address account) onlyOwner public{\r\n        requestedToAddContracts[account] = now + activationIn;\r\n    }\r\n\r\n    function addContract(address account, uint256 contractDuration) onlyOwner public {\r\n        require(requestedToAddContracts[account]>0 && requestedToAddContracts[account] <= now);\r\n        trustedContracts[account].trusted = true;\r\n        trustedContracts[account].expirationDate = now + contractDuration;\r\n        delete requestedToAddContracts[account];\r\n    }\r\n\r\n    /// Remove contract\r\n    function requestToRemoveContract(address account) onlyOwner public{\r\n        requestedToRemoveContracts[account] = now + activationIn;\r\n    }\r\n\r\n    function removeContract(address account) onlyOwner public {\r\n        require(requestedToRemoveContracts[account]>0 && requestedToRemoveContracts[account]<now);\r\n        trustedContracts[account].trusted = false;\r\n        delete requestedToRemoveContracts[account];\r\n    }\r\n\r\n    /// Change limit order fee\r\n    function requestToChangeFeeLimit(uint256 fee) onlyOwner public{\r\n        requestedToChangeFeeLimitDate = now + activationIn;\r\n        requestedToChangeFeeLimitOrder = fee;\r\n    }\r\n\r\n    function changeFeeLimit() onlyOwner public {\r\n        require(requestedToChangeFeeLimitDate>0 && requestedToChangeFeeLimitDate<=now);\r\n        feeLimit = requestedToChangeFeeLimitOrder;\r\n        requestedToChangeFeeLimitDate = 0;\r\n    }\r\n\r\n    /// Change market order fee\r\n    function requestToChangeFeeMarket(uint256 fee) onlyOwner public{\r\n        requestedToChangeFeeMarketDate = now + activationIn;\r\n        requestedToChangeFeeMarketOrder = fee;\r\n    }\r\n\r\n    function changeFeeMarket() onlyOwner public {\r\n        require(requestedToChangeFeeMarketDate>0 && requestedToChangeFeeMarketDate<=now);\r\n        feeMarket = requestedToChangeFeeMarketOrder;\r\n        requestedToChangeFeeMarketDate = 0;\r\n    }\r\n\r\n    /// @dev gives the owner the possibility to put the Interface into an emergencyMode, which will\r\n    /// output always a price of 600 USD. This gives everyone time to set up a new pricefeed.\r\n    function raiseEmergency(bool _emergencyMode) public onlyOwner {\r\n        emergencyMode = _emergencyMode;\r\n    }\r\n\r\n    /// @dev returns the USDETH price, ie gets the USD price from Maker feed with 18 digits, but last 18 digits are cut off\r\n    function getUSDETHPrice() public pure returns (uint256) {\r\n\r\n/*        // if the contract is in the emergencyMode, because there is an issue with the oracle\r\n        require (!emergencyMode);\r\n\r\n        (bytes32 price, ) = Medianizer(priceFeedSource).peek();\r\n\r\n        // ensuring that there is no underflow or overflow possible,\r\n        // even if the price is compromised\r\n        uint priceUint = uint256(price)/(1 ether);\r\n        if (priceUint == 0) {\r\n            return 1;\r\n        }\r\n        if (priceUint > 1000000) {\r\n            return 1000000;\r\n        }\r\n        return priceUint;*/\r\n        return 140000000000;\r\n    }\r\n\r\n\r\n\r\n\r\n    /// View methods\r\n\r\n    function getFeeMarketOrder() public view returns (uint256) {\r\n        return feeMarket;\r\n    }\r\n\r\n    function isContractTrusted (address account) public view returns(bool) {\r\n        return trustedContracts[account].trusted;\r\n    }\r\n\r\n    function isContractNotExpired (address account) public view returns(bool) {\r\n        return (now < trustedContracts[account].expirationDate);\r\n    }\r\n\r\n    function checkContract(address account) public view returns (bool) {\r\n        return trustedContracts[account].trusted;\r\n    }\r\n\r\n    function getFeeLimitOrder() public view returns (uint256) {\r\n        return feeLimit;\r\n    }\r\n\r\n    function getEmergencyMode() public view returns (bool) {\r\n        return emergencyMode;\r\n    }\r\n\r\n\r\n\r\n\r\n\r\n\r\n}\r\n",
  "sourcePath": "/home/arct/projects/etherHedgeProject/contracts/Settings.sol",
  "compiler": {
    "name": "solc",
    "version": "0.5.0+commit.1d4f565a.Emscripten.clang"
  },
  "schemaVersion": "3.0.6",
  "updatedAt": "2019-04-26T21:55:51.344Z",
  "devdoc": {
    "methods": {
      "getUSDETHPrice()": {
        "details": "returns the USDETH price, ie gets the USD price from Maker feed with 18 digits, but last 18 digits are cut off"
      },
      "isOwner()": {
        "return": "true if `msg.sender` is the owner of the contract."
      },
      "owner()": {
        "return": "the address of the owner."
      },
      "renounceOwnership()": {
        "details": "Allows the current owner to relinquish control of the contract. It will not be possible to call the functions with the `onlyOwner` modifier anymore."
      },
      "transferOwnership(address)": {
        "details": "Allows the current owner to transfer control of the contract to a newOwner.",
        "params": {
          "newOwner": "The address to transfer ownership to."
        }
      }
    }
  },
  "userdoc": {
    "methods": {
      "getFeeMarketOrder()": {
        "notice": "View methods"
      },
      "raiseEmergency(bool)": {
        "notice": "output always a price of 600 USD. This gives everyone time to set up a new pricefeed."
      },
      "renounceOwnership()": {
        "notice": "Renouncing ownership will leave the contract without an owner, thereby removing any functionality that is only available to the owner."
      },
      "requestToAddContract(address)": {
        "notice": "Add new contract"
      },
      "requestToChangeFeeLimit(uint256)": {
        "notice": "Change limit order fee"
      },
      "requestToChangeFeeMarket(uint256)": {
        "notice": "Change market order fee"
      },
      "requestToRemoveContract(address)": {
        "notice": "Remove contract"
      }
    }
  }
}