{
  "contractName": "Settings",
  "abi": [
    {
      "constant": true,
      "inputs": [],
      "name": "emergencyMode",
      "outputs": [
        {
          "name": "",
          "type": "bool"
        }
      ],
      "payable": false,
      "stateMutability": "view",
      "type": "function"
    },
    {
      "constant": true,
      "inputs": [
        {
          "name": "",
          "type": "bytes32"
        }
      ],
      "name": "proposals",
      "outputs": [
        {
          "name": "yes",
          "type": "uint256"
        },
        {
          "name": "no",
          "type": "uint256"
        },
        {
          "name": "totalAccounts",
          "type": "uint256"
        },
        {
          "name": "endVotingDate",
          "type": "uint256"
        },
        {
          "name": "activationDate",
          "type": "uint256"
        },
        {
          "name": "propType",
          "type": "uint256"
        },
        {
          "name": "activated",
          "type": "bool"
        },
        {
          "name": "creator",
          "type": "address"
        },
        {
          "name": "ipfs",
          "type": "bytes32"
        },
        {
          "name": "priceFeedSource",
          "type": "address"
        },
        {
          "name": "futureContract",
          "type": "address"
        },
        {
          "name": "value_1",
          "type": "uint256"
        },
        {
          "name": "value_2",
          "type": "uint256"
        }
      ],
      "payable": false,
      "stateMutability": "view",
      "type": "function"
    },
    {
      "constant": false,
      "inputs": [],
      "name": "renounceOwnership",
      "outputs": [],
      "payable": false,
      "stateMutability": "nonpayable",
      "type": "function"
    },
    {
      "constant": true,
      "inputs": [],
      "name": "owner",
      "outputs": [
        {
          "name": "",
          "type": "address"
        }
      ],
      "payable": false,
      "stateMutability": "view",
      "type": "function"
    },
    {
      "constant": true,
      "inputs": [],
      "name": "isOwner",
      "outputs": [
        {
          "name": "",
          "type": "bool"
        }
      ],
      "payable": false,
      "stateMutability": "view",
      "type": "function"
    },
    {
      "constant": true,
      "inputs": [
        {
          "name": "",
          "type": "uint256"
        }
      ],
      "name": "params",
      "outputs": [
        {
          "name": "value",
          "type": "uint256"
        },
        {
          "name": "proposalHash",
          "type": "bytes32"
        },
        {
          "name": "activationDate",
          "type": "uint256"
        }
      ],
      "payable": false,
      "stateMutability": "view",
      "type": "function"
    },
    {
      "constant": true,
      "inputs": [],
      "name": "depositoryAddress",
      "outputs": [
        {
          "name": "",
          "type": "address"
        }
      ],
      "payable": false,
      "stateMutability": "view",
      "type": "function"
    },
    {
      "constant": true,
      "inputs": [],
      "name": "depository",
      "outputs": [
        {
          "name": "",
          "type": "address"
        }
      ],
      "payable": false,
      "stateMutability": "view",
      "type": "function"
    },
    {
      "constant": true,
      "inputs": [],
      "name": "priceFeedSource",
      "outputs": [
        {
          "name": "",
          "type": "address"
        }
      ],
      "payable": false,
      "stateMutability": "view",
      "type": "function"
    },
    {
      "constant": true,
      "inputs": [
        {
          "name": "",
          "type": "address"
        }
      ],
      "name": "stakeLockedUntil",
      "outputs": [
        {
          "name": "",
          "type": "uint256"
        }
      ],
      "payable": false,
      "stateMutability": "view",
      "type": "function"
    },
    {
      "constant": true,
      "inputs": [
        {
          "name": "",
          "type": "address"
        },
        {
          "name": "",
          "type": "bytes32"
        }
      ],
      "name": "voters",
      "outputs": [
        {
          "name": "amount",
          "type": "uint256"
        },
        {
          "name": "vote",
          "type": "bool"
        }
      ],
      "payable": false,
      "stateMutability": "view",
      "type": "function"
    },
    {
      "constant": true,
      "inputs": [
        {
          "name": "",
          "type": "address"
        }
      ],
      "name": "trustedContracts",
      "outputs": [
        {
          "name": "trusted",
          "type": "bool"
        },
        {
          "name": "expirationDate",
          "type": "uint256"
        },
        {
          "name": "activationDate",
          "type": "uint256"
        },
        {
          "name": "terms",
          "type": "uint256"
        }
      ],
      "payable": false,
      "stateMutability": "view",
      "type": "function"
    },
    {
      "constant": false,
      "inputs": [
        {
          "name": "newOwner",
          "type": "address"
        }
      ],
      "name": "transferOwnership",
      "outputs": [],
      "payable": false,
      "stateMutability": "nonpayable",
      "type": "function"
    },
    {
      "constant": true,
      "inputs": [
        {
          "name": "",
          "type": "bytes32"
        }
      ],
      "name": "blocks",
      "outputs": [
        {
          "name": "",
          "type": "uint256"
        }
      ],
      "payable": false,
      "stateMutability": "view",
      "type": "function"
    },
    {
      "inputs": [
        {
          "name": "_votingTime",
          "type": "uint256"
        },
        {
          "name": "_activationIn",
          "type": "uint256"
        },
        {
          "name": "_feeLimit",
          "type": "uint256"
        },
        {
          "name": "_feeMarket",
          "type": "uint256"
        },
        {
          "name": "_maxLeverage",
          "type": "uint256"
        },
        {
          "name": "_liquidationProfit",
          "type": "uint256"
        },
        {
          "name": "_minVotingPercent",
          "type": "uint256"
        },
        {
          "name": "_paramProposalFee",
          "type": "uint256"
        },
        {
          "name": "_futureContractProposalFee",
          "type": "uint256"
        },
        {
          "name": "_feeDiscountIndex",
          "type": "uint256"
        },
        {
          "name": "_maxMarketLength",
          "type": "uint256"
        },
        {
          "name": "_blockVotingFee",
          "type": "uint256"
        },
        {
          "name": "_maxServicePayment",
          "type": "uint256"
        },
        {
          "name": "_mainTokenAddress",
          "type": "address"
        },
        {
          "name": "_priceFeedSource",
          "type": "address"
        },
        {
          "name": "_ipfsBytes",
          "type": "bytes32"
        }
      ],
      "payable": false,
      "stateMutability": "nonpayable",
      "type": "constructor"
    },
    {
      "anonymous": false,
      "inputs": [
        {
          "indexed": true,
          "name": "hash",
          "type": "bytes32"
        },
        {
          "indexed": false,
          "name": "startDate",
          "type": "uint256"
        },
        {
          "indexed": false,
          "name": "endDate",
          "type": "uint256"
        },
        {
          "indexed": false,
          "name": "title",
          "type": "string"
        },
        {
          "indexed": false,
          "name": "description",
          "type": "string"
        },
        {
          "indexed": false,
          "name": "url",
          "type": "string"
        },
        {
          "indexed": false,
          "name": "propType",
          "type": "uint256"
        }
      ],
      "name": "ProposalLog",
      "type": "event"
    },
    {
      "anonymous": false,
      "inputs": [
        {
          "indexed": true,
          "name": "voter",
          "type": "address"
        },
        {
          "indexed": false,
          "name": "vote",
          "type": "bool"
        },
        {
          "indexed": true,
          "name": "hash",
          "type": "bytes32"
        }
      ],
      "name": "votedLog",
      "type": "event"
    },
    {
      "anonymous": false,
      "inputs": [
        {
          "indexed": true,
          "name": "futureContract",
          "type": "address"
        }
      ],
      "name": "addedContractLog",
      "type": "event"
    },
    {
      "anonymous": false,
      "inputs": [
        {
          "indexed": true,
          "name": "futureContract",
          "type": "address"
        }
      ],
      "name": "removedContractLog",
      "type": "event"
    },
    {
      "anonymous": false,
      "inputs": [
        {
          "indexed": true,
          "name": "sender",
          "type": "address"
        },
        {
          "indexed": true,
          "name": "hash",
          "type": "bytes32"
        }
      ],
      "name": "activatedAddContractProposal",
      "type": "event"
    },
    {
      "anonymous": false,
      "inputs": [
        {
          "indexed": true,
          "name": "previousOwner",
          "type": "address"
        },
        {
          "indexed": true,
          "name": "newOwner",
          "type": "address"
        }
      ],
      "name": "OwnershipTransferred",
      "type": "event"
    },
    {
      "constant": false,
      "inputs": [
        {
          "name": "addr",
          "type": "address"
        }
      ],
      "name": "setDepository",
      "outputs": [],
      "payable": false,
      "stateMutability": "nonpayable",
      "type": "function"
    },
    {
      "constant": false,
      "inputs": [
        {
          "name": "futureContract",
          "type": "address"
        },
        {
          "name": "expiresIn",
          "type": "uint256"
        },
        {
          "name": "title",
          "type": "string"
        },
        {
          "name": "description",
          "type": "string"
        },
        {
          "name": "ipfs",
          "type": "bytes32"
        },
        {
          "name": "url",
          "type": "string"
        },
        {
          "name": "payment",
          "type": "uint256"
        }
      ],
      "name": "addContractProposal",
      "outputs": [],
      "payable": true,
      "stateMutability": "payable",
      "type": "function"
    },
    {
      "constant": false,
      "inputs": [
        {
          "name": "futureContract",
          "type": "address"
        },
        {
          "name": "description",
          "type": "string"
        },
        {
          "name": "ipfs",
          "type": "bytes32"
        }
      ],
      "name": "removeContractProposal",
      "outputs": [],
      "payable": true,
      "stateMutability": "payable",
      "type": "function"
    },
    {
      "constant": false,
      "inputs": [
        {
          "name": "param",
          "type": "uint256"
        },
        {
          "name": "value",
          "type": "uint256"
        },
        {
          "name": "description",
          "type": "string"
        }
      ],
      "name": "paramProposal",
      "outputs": [],
      "payable": true,
      "stateMutability": "payable",
      "type": "function"
    },
    {
      "constant": false,
      "inputs": [
        {
          "name": "title",
          "type": "string"
        },
        {
          "name": "description",
          "type": "string"
        },
        {
          "name": "url",
          "type": "string"
        },
        {
          "name": "payment",
          "type": "uint256"
        }
      ],
      "name": "addServiceProposal",
      "outputs": [],
      "payable": true,
      "stateMutability": "payable",
      "type": "function"
    },
    {
      "constant": false,
      "inputs": [
        {
          "name": "title",
          "type": "string"
        },
        {
          "name": "description",
          "type": "string"
        },
        {
          "name": "_priceFeedSource",
          "type": "address"
        }
      ],
      "name": "changePriceFeedProposal",
      "outputs": [],
      "payable": true,
      "stateMutability": "payable",
      "type": "function"
    },
    {
      "constant": false,
      "inputs": [
        {
          "name": "vote",
          "type": "bool"
        },
        {
          "name": "hash",
          "type": "bytes32"
        }
      ],
      "name": "voteProposal",
      "outputs": [],
      "payable": false,
      "stateMutability": "nonpayable",
      "type": "function"
    },
    {
      "constant": false,
      "inputs": [
        {
          "name": "hash",
          "type": "bytes32"
        }
      ],
      "name": "activateProposal",
      "outputs": [],
      "payable": false,
      "stateMutability": "nonpayable",
      "type": "function"
    },
    {
      "constant": false,
      "inputs": [
        {
          "name": "hash",
          "type": "bytes32"
        }
      ],
      "name": "blockVoting",
      "outputs": [],
      "payable": true,
      "stateMutability": "payable",
      "type": "function"
    },
    {
      "constant": false,
      "inputs": [
        {
          "name": "addr",
          "type": "address"
        },
        {
          "name": "expiresIn",
          "type": "uint256"
        }
      ],
      "name": "addContract",
      "outputs": [],
      "payable": false,
      "stateMutability": "nonpayable",
      "type": "function"
    },
    {
      "constant": true,
      "inputs": [],
      "name": "getIpfsBytes",
      "outputs": [
        {
          "name": "",
          "type": "bytes32"
        }
      ],
      "payable": false,
      "stateMutability": "view",
      "type": "function"
    },
    {
      "constant": true,
      "inputs": [
        {
          "name": "totalAmountVoted",
          "type": "uint256"
        }
      ],
      "name": "checkMinVotingPercent",
      "outputs": [
        {
          "name": "",
          "type": "bool"
        }
      ],
      "payable": false,
      "stateMutability": "view",
      "type": "function"
    },
    {
      "constant": true,
      "inputs": [],
      "name": "getVotingTime",
      "outputs": [
        {
          "name": "",
          "type": "uint256"
        }
      ],
      "payable": false,
      "stateMutability": "view",
      "type": "function"
    },
    {
      "constant": true,
      "inputs": [],
      "name": "getActivationTime",
      "outputs": [
        {
          "name": "",
          "type": "uint256"
        }
      ],
      "payable": false,
      "stateMutability": "view",
      "type": "function"
    },
    {
      "constant": true,
      "inputs": [],
      "name": "getLimitOrderFee",
      "outputs": [
        {
          "name": "",
          "type": "uint256"
        }
      ],
      "payable": false,
      "stateMutability": "view",
      "type": "function"
    },
    {
      "constant": true,
      "inputs": [],
      "name": "getMarketOrderFee",
      "outputs": [
        {
          "name": "",
          "type": "uint256"
        }
      ],
      "payable": false,
      "stateMutability": "view",
      "type": "function"
    },
    {
      "constant": true,
      "inputs": [],
      "name": "getMaxLeverage",
      "outputs": [
        {
          "name": "",
          "type": "uint256"
        }
      ],
      "payable": false,
      "stateMutability": "view",
      "type": "function"
    },
    {
      "constant": true,
      "inputs": [],
      "name": "getLiquidationProfit",
      "outputs": [
        {
          "name": "",
          "type": "uint256"
        }
      ],
      "payable": false,
      "stateMutability": "view",
      "type": "function"
    },
    {
      "constant": true,
      "inputs": [],
      "name": "getMinVotingPercent",
      "outputs": [
        {
          "name": "",
          "type": "uint256"
        }
      ],
      "payable": false,
      "stateMutability": "view",
      "type": "function"
    },
    {
      "constant": true,
      "inputs": [],
      "name": "getParamProposalFee",
      "outputs": [
        {
          "name": "",
          "type": "uint256"
        }
      ],
      "payable": false,
      "stateMutability": "view",
      "type": "function"
    },
    {
      "constant": true,
      "inputs": [],
      "name": "getContractProposalFee",
      "outputs": [
        {
          "name": "",
          "type": "uint256"
        }
      ],
      "payable": false,
      "stateMutability": "view",
      "type": "function"
    },
    {
      "constant": true,
      "inputs": [],
      "name": "getFeeDiscountIndex",
      "outputs": [
        {
          "name": "",
          "type": "uint256"
        }
      ],
      "payable": false,
      "stateMutability": "view",
      "type": "function"
    },
    {
      "constant": true,
      "inputs": [],
      "name": "getMaxMarketLength",
      "outputs": [
        {
          "name": "",
          "type": "uint256"
        }
      ],
      "payable": false,
      "stateMutability": "view",
      "type": "function"
    },
    {
      "constant": true,
      "inputs": [],
      "name": "getBlockVotingFee",
      "outputs": [
        {
          "name": "",
          "type": "uint256"
        }
      ],
      "payable": false,
      "stateMutability": "view",
      "type": "function"
    },
    {
      "constant": true,
      "inputs": [],
      "name": "getMaxServicePayment",
      "outputs": [
        {
          "name": "",
          "type": "uint256"
        }
      ],
      "payable": false,
      "stateMutability": "view",
      "type": "function"
    },
    {
      "constant": true,
      "inputs": [],
      "name": "getPriceFeedSource",
      "outputs": [
        {
          "name": "",
          "type": "address"
        }
      ],
      "payable": false,
      "stateMutability": "view",
      "type": "function"
    },
    {
      "constant": true,
      "inputs": [
        {
          "name": "account",
          "type": "address"
        },
        {
          "name": "hash",
          "type": "bytes32"
        }
      ],
      "name": "getAccountVote",
      "outputs": [
        {
          "name": "",
          "type": "bool"
        }
      ],
      "payable": false,
      "stateMutability": "view",
      "type": "function"
    },
    {
      "constant": true,
      "inputs": [
        {
          "name": "account",
          "type": "address"
        },
        {
          "name": "hash",
          "type": "bytes32"
        }
      ],
      "name": "getAccountVoteAmount",
      "outputs": [
        {
          "name": "",
          "type": "uint256"
        }
      ],
      "payable": false,
      "stateMutability": "view",
      "type": "function"
    },
    {
      "constant": false,
      "inputs": [
        {
          "name": "_emergencyMode",
          "type": "bool"
        }
      ],
      "name": "raiseEmergency",
      "outputs": [],
      "payable": false,
      "stateMutability": "nonpayable",
      "type": "function"
    },
    {
      "constant": true,
      "inputs": [
        {
          "name": "account",
          "type": "address"
        }
      ],
      "name": "contractIsTrusted",
      "outputs": [
        {
          "name": "",
          "type": "bool"
        }
      ],
      "payable": false,
      "stateMutability": "view",
      "type": "function"
    },
    {
      "constant": true,
      "inputs": [
        {
          "name": "account",
          "type": "address"
        }
      ],
      "name": "contractIsNotExpired",
      "outputs": [
        {
          "name": "",
          "type": "bool"
        }
      ],
      "payable": false,
      "stateMutability": "view",
      "type": "function"
    },
    {
      "constant": true,
      "inputs": [
        {
          "name": "account",
          "type": "address"
        }
      ],
      "name": "getContractTerms",
      "outputs": [
        {
          "name": "",
          "type": "uint256"
        }
      ],
      "payable": false,
      "stateMutability": "view",
      "type": "function"
    },
    {
      "constant": true,
      "inputs": [],
      "name": "getEmergencyMode",
      "outputs": [
        {
          "name": "",
          "type": "bool"
        }
      ],
      "payable": false,
      "stateMutability": "view",
      "type": "function"
    },
    {
      "constant": true,
      "inputs": [
        {
          "name": "account",
          "type": "address"
        }
      ],
      "name": "stakeIsLocked",
      "outputs": [
        {
          "name": "",
          "type": "bool"
        }
      ],
      "payable": false,
      "stateMutability": "view",
      "type": "function"
    }
  ],
  "bytecode": "0x60806040523480156200001157600080fd5b50604051610200806200593183398101806040526102008110156200003557600080fd5b8101908080519060200190929190805190602001909291908051906020019092919080519060200190929190805190602001909291908051906020019092919080519060200190929190805190602001909291908051906020019092919080519060200190929190805190602001909291908051906020019092919080519060200190929190805190602001909291908051906020019092919080519060200190929190505050336000806101000a81548173ffffffffffffffffffffffffffffffffffffffff021916908373ffffffffffffffffffffffffffffffffffffffff1602179055506000809054906101000a900473ffffffffffffffffffffffffffffffffffffffff1673ffffffffffffffffffffffffffffffffffffffff16600073ffffffffffffffffffffffffffffffffffffffff167f8be0079c531659141344cd1fd0a4f28419497f9722a3daafe3b4186f6b6457e060405160405180910390a360008090505b600d8110156200021a57620001b2620004b4565b42816040018181525050600881908060018154018082558091505090600182039060005260206000209060030201600090919290919091506000820151816000015560208201518160010155604082015181600201555050505080806001019150506200019e565b508f600860008154811015156200022d57fe5b9060005260206000209060030201600001819055508e600860018154811015156200025457fe5b9060005260206000209060030201600001819055508d600860028154811015156200027b57fe5b9060005260206000209060030201600001819055508c60086003815481101515620002a257fe5b9060005260206000209060030201600001819055508b60086004815481101515620002c957fe5b9060005260206000209060030201600001819055508a60086005815481101515620002f057fe5b90600052602060002090600302016000018190555089600860068154811015156200031757fe5b90600052602060002090600302016000018190555088600860078154811015156200033e57fe5b906000526020600020906003020160000181905550876008808154811015156200036457fe5b90600052602060002090600302016000018190555086600860098154811015156200038b57fe5b906000526020600020906003020160000181905550856008600a815481101515620003b257fe5b906000526020600020906003020160000181905550846008600b815481101515620003d957fe5b906000526020600020906003020160000181905550836008600c8154811015156200040057fe5b90600052602060002090600302016000018190555081600a60006101000a81548173ffffffffffffffffffffffffffffffffffffffff021916908373ffffffffffffffffffffffffffffffffffffffff16021790555082600660006101000a81548173ffffffffffffffffffffffffffffffffffffffff021916908373ffffffffffffffffffffffffffffffffffffffff16021790555080600d8190555050505050505050505050505050505050620004d9565b6060604051908101604052806000815260200160008019168152602001600081525090565b61544880620004e96000396000f3fe608060405260043610610245576000357c0100000000000000000000000000000000000000000000000000000000900463ffffffff16806245e4e31461024a5780630905f560146102b357806309f127ee146102e25780630bae037a1461030d5780630ea8b3bf1461033857806315c2f6361461036357806322d49e341461038e5780632e774fc1146103b957806332ed5b12146103e457806334b08c051461050f578063354d86c81461053a57806337472c4b1461061f578063407e678c146106705780634da807ca146106c35780635f891cce146106ee57806366d4047a1461075d5780636b1500c8146107885780636f8264cb146107fb578063715018a61461082957806377335ba614610840578063782c0092146108875780637aa9802414610956578063823aa67c1461098157806387350e3314610ba85780638da5cb5b14610bd35780638f32d59b14610c2a57806396b63e3d14610c59578063993d5fce14610c945780639d2f053c14610ceb5780639e385fa414610d48578063a6cce4dd14610d85578063aa46b47a14610ddc578063aa52e64c14610fcf578063ab41daa414611034578063adaa13991461109d578063b5522e89146110c8578063ba26aca414611123578063bedd12a51461114e578063c5ace443146111a5578063c80048bb146111fc578063d95e0e3614611261578063e5919a4f146112db578063e793a38d14611359578063ec1eb46e14611388578063f025ac62146113b3578063f2fde38b14611525578063f588a96a14611576578063f9805041146115c5575b600080fd5b34801561025657600080fd5b506102996004803603602081101561026d57600080fd5b81019080803573ffffffffffffffffffffffffffffffffffffffff16906020019092919050505061162e565b604051808215151515815260200191505060405180910390f35b3480156102bf57600080fd5b506102c8611687565b604051808215151515815260200191505060405180910390f35b3480156102ee57600080fd5b506102f761169a565b6040518082815260200191505060405180910390f35b34801561031957600080fd5b506103226116c3565b6040518082815260200191505060405180910390f35b34801561034457600080fd5b5061034d6116ec565b6040518082815260200191505060405180910390f35b34801561036f57600080fd5b50610378611715565b6040518082815260200191505060405180910390f35b34801561039a57600080fd5b506103a361173e565b6040518082815260200191505060405180910390f35b3480156103c557600080fd5b506103ce611748565b6040518082815260200191505060405180910390f35b3480156103f057600080fd5b5061041d6004803603602081101561040757600080fd5b8101908080359060200190929190505050611771565b604051808e81526020018d81526020018c81526020018b81526020018a8152602001898152602001881515151581526020018773ffffffffffffffffffffffffffffffffffffffff1673ffffffffffffffffffffffffffffffffffffffff1681526020018681526020018573ffffffffffffffffffffffffffffffffffffffff1673ffffffffffffffffffffffffffffffffffffffff1681526020018473ffffffffffffffffffffffffffffffffffffffff1673ffffffffffffffffffffffffffffffffffffffff1681526020018381526020018281526020019d505050505050505050505050505060405180910390f35b34801561051b57600080fd5b50610524611844565b6040518082815260200191505060405180910390f35b61061d6004803603606081101561055057600080fd5b81019080803573ffffffffffffffffffffffffffffffffffffffff1690602001909291908035906020019064010000000081111561058d57600080fd5b82018360208201111561059f57600080fd5b803590602001918460018302840111640100000000831117156105c157600080fd5b91908080601f016020809104026020016040519081016040528093929190818152602001838380828437600081840152601f19601f8201169050808301925050505050505091929192908035906020019092919050505061186d565b005b34801561062b57600080fd5b5061066e6004803603602081101561064257600080fd5b81019080803573ffffffffffffffffffffffffffffffffffffffff169060200190929190505050611c1c565b005b34801561067c57600080fd5b506106a96004803603602081101561069357600080fd5b8101908080359060200190929190505050611d7a565b604051808215151515815260200191505060405180910390f35b3480156106cf57600080fd5b506106d8611e70565b6040518082815260200191505060405180910390f35b3480156106fa57600080fd5b506107476004803603604081101561071157600080fd5b81019080803573ffffffffffffffffffffffffffffffffffffffff16906020019092919080359060200190929190505050611e99565b6040518082815260200191505060405180910390f35b34801561076957600080fd5b50610772611ef7565b6040518082815260200191505060405180910390f35b34801561079457600080fd5b506107e1600480360360408110156107ab57600080fd5b81019080803573ffffffffffffffffffffffffffffffffffffffff16906020019092919080359060200190929190505050611f20565b604051808215151515815260200191505060405180910390f35b6108276004803603602081101561081157600080fd5b8101908080359060200190929190505050611f8b565b005b34801561083557600080fd5b5061083e6126c1565b005b34801561084c57600080fd5b506108856004803603604081101561086357600080fd5b81019080803515159060200190929190803590602001909291905050506127fc565b005b6109546004803603606081101561089d57600080fd5b810190808035906020019092919080359060200190929190803590602001906401000000008111156108ce57600080fd5b8201836020820111156108e057600080fd5b8035906020019184600183028401116401000000008311171561090257600080fd5b91908080601f016020809104026020016040519081016040528093929190818152602001838380828437600081840152601f19601f820116905080830192505050505050509192919290505050612d36565b005b34801561096257600080fd5b5061096b6130ac565b6040518082815260200191505060405180910390f35b610ba6600480360360e081101561099757600080fd5b81019080803573ffffffffffffffffffffffffffffffffffffffff16906020019092919080359060200190929190803590602001906401000000008111156109de57600080fd5b8201836020820111156109f057600080fd5b80359060200191846001830284011164010000000083111715610a1257600080fd5b91908080601f016020809104026020016040519081016040528093929190818152602001838380828437600081840152601f19601f82011690508083019250505050505050919291929080359060200190640100000000811115610a7557600080fd5b820183602082011115610a8757600080fd5b80359060200191846001830284011164010000000083111715610aa957600080fd5b91908080601f016020809104026020016040519081016040528093929190818152602001838380828437600081840152601f19601f8201169050808301925050505050505091929192908035906020019092919080359060200190640100000000811115610b1657600080fd5b820183602082011115610b2857600080fd5b80359060200191846001830284011164010000000083111715610b4a57600080fd5b91908080601f016020809104026020016040519081016040528093929190818152602001838380828437600081840152601f19601f820116905080830192505050505050509192919290803590602001909291905050506130d4565b005b348015610bb457600080fd5b50610bbd6136d2565b6040518082815260200191505060405180910390f35b348015610bdf57600080fd5b50610be86136fb565b604051808273ffffffffffffffffffffffffffffffffffffffff1673ffffffffffffffffffffffffffffffffffffffff16815260200191505060405180910390f35b348015610c3657600080fd5b50610c3f613724565b604051808215151515815260200191505060405180910390f35b348015610c6557600080fd5b50610c9260048036036020811015610c7c57600080fd5b810190808035906020019092919050505061377b565b005b348015610ca057600080fd5b50610ca96140fa565b604051808273ffffffffffffffffffffffffffffffffffffffff1673ffffffffffffffffffffffffffffffffffffffff16815260200191505060405180910390f35b348015610cf757600080fd5b50610d2460048036036020811015610d0e57600080fd5b8101908080359060200190929190505050614124565b60405180848152602001838152602001828152602001935050505060405180910390f35b348015610d5457600080fd5b50610d8360048036036020811015610d6b57600080fd5b8101908080351515906020019092919050505061415d565b005b348015610d9157600080fd5b50610d9a6141f6565b604051808273ffffffffffffffffffffffffffffffffffffffff1673ffffffffffffffffffffffffffffffffffffffff16815260200191505060405180910390f35b610fcd60048036036080811015610df257600080fd5b8101908080359060200190640100000000811115610e0f57600080fd5b820183602082011115610e2157600080fd5b80359060200191846001830284011164010000000083111715610e4357600080fd5b91908080601f016020809104026020016040519081016040528093929190818152602001838380828437600081840152601f19601f82011690508083019250505050505050919291929080359060200190640100000000811115610ea657600080fd5b820183602082011115610eb857600080fd5b80359060200191846001830284011164010000000083111715610eda57600080fd5b91908080601f016020809104026020016040519081016040528093929190818152602001838380828437600081840152601f19601f82011690508083019250505050505050919291929080359060200190640100000000811115610f3d57600080fd5b820183602082011115610f4f57600080fd5b80359060200191846001830284011164010000000083111715610f7157600080fd5b91908080601f016020809104026020016040519081016040528093929190818152602001838380828437600081840152601f19601f8201169050808301925050505050505091929192908035906020019092919050505061421c565b005b348015610fdb57600080fd5b5061101e60048036036020811015610ff257600080fd5b81019080803573ffffffffffffffffffffffffffffffffffffffff16906020019092919050505061478c565b6040518082815260200191505060405180910390f35b34801561104057600080fd5b506110836004803603602081101561105757600080fd5b81019080803573ffffffffffffffffffffffffffffffffffffffff1690602001909291905050506147d8565b604051808215151515815260200191505060405180910390f35b3480156110a957600080fd5b506110b2614823565b6040518082815260200191505060405180910390f35b3480156110d457600080fd5b50611121600480360360408110156110eb57600080fd5b81019080803573ffffffffffffffffffffffffffffffffffffffff1690602001909291908035906020019092919050505061484c565b005b34801561112f57600080fd5b506111386149f0565b6040518082815260200191505060405180910390f35b34801561115a57600080fd5b50611163614a19565b604051808273ffffffffffffffffffffffffffffffffffffffff1673ffffffffffffffffffffffffffffffffffffffff16815260200191505060405180910390f35b3480156111b157600080fd5b506111ba614a3f565b604051808273ffffffffffffffffffffffffffffffffffffffff1673ffffffffffffffffffffffffffffffffffffffff16815260200191505060405180910390f35b34801561120857600080fd5b5061124b6004803603602081101561121f57600080fd5b81019080803573ffffffffffffffffffffffffffffffffffffffff169060200190929190505050614a65565b6040518082815260200191505060405180910390f35b34801561126d57600080fd5b506112ba6004803603604081101561128457600080fd5b81019080803573ffffffffffffffffffffffffffffffffffffffff16906020019092919080359060200190929190505050614a7d565b60405180838152602001821515151581526020019250505060405180910390f35b3480156112e757600080fd5b5061132a600480360360208110156112fe57600080fd5b81019080803573ffffffffffffffffffffffffffffffffffffffff169060200190929190505050614abb565b604051808515151515815260200184815260200183815260200182815260200194505050505060405180910390f35b34801561136557600080fd5b5061136e614af8565b604051808215151515815260200191505060405180910390f35b34801561139457600080fd5b5061139d614b0f565b6040518082815260200191505060405180910390f35b611523600480360360608110156113c957600080fd5b81019080803590602001906401000000008111156113e657600080fd5b8201836020820111156113f857600080fd5b8035906020019184600183028401116401000000008311171561141a57600080fd5b91908080601f016020809104026020016040519081016040528093929190818152602001838380828437600081840152601f19601f8201169050808301925050505050505091929192908035906020019064010000000081111561147d57600080fd5b82018360208201111561148f57600080fd5b803590602001918460018302840111640100000000831117156114b157600080fd5b91908080601f016020809104026020016040519081016040528093929190818152602001838380828437600081840152601f19601f820116905080830192505050505050509192919290803573ffffffffffffffffffffffffffffffffffffffff169060200190929190505050614b38565b005b34801561153157600080fd5b506115746004803603602081101561154857600080fd5b81019080803573ffffffffffffffffffffffffffffffffffffffff169060200190929190505050614f26565b005b34801561158257600080fd5b506115af6004803603602081101561159957600080fd5b8101908080359060200190929190505050614fae565b6040518082815260200191505060405180910390f35b3480156115d157600080fd5b50611614600480360360208110156115e857600080fd5b81019080803573ffffffffffffffffffffffffffffffffffffffff169060200190929190505050614fc6565b604051808215151515815260200191505060405180910390f35b6000600560008373ffffffffffffffffffffffffffffffffffffffff1673ffffffffffffffffffffffffffffffffffffffff16815260200190815260200160002060000160009054906101000a900460ff169050919050565b600a60149054906101000a900460ff1681565b60006008600b8154811015156116ac57fe5b906000526020600020906003020160000154905090565b6000600860078154811015156116d557fe5b906000526020600020906003020160000154905090565b6000600860048154811015156116fe57fe5b906000526020600020906003020160000154905090565b60006008600081548110151561172757fe5b906000526020600020906003020160000154905090565b6000600d54905090565b60006008600c81548110151561175a57fe5b906000526020600020906003020160000154905090565b60016020528060005260406000206000915090508060000154908060010154908060020154908060030154908060040154908060050154908060060160009054906101000a900460ff16908060060160019054906101000a900473ffffffffffffffffffffffffffffffffffffffff16908060070154908060080160009054906101000a900473ffffffffffffffffffffffffffffffffffffffff16908060090160009054906101000a900473ffffffffffffffffffffffffffffffffffffffff169080600a01549080600b015490508d565b60006008600281548110151561185657fe5b906000526020600020906003020160000154905090565b346118766130ac565b1415156118eb576040517f08c379a00000000000000000000000000000000000000000000000000000000081526004018080602001828103825260178152602001807f43726561746f722073686f756c6420706179206665652e00000000000000000081525060200191505060405180910390fd5b600060023342604051602001808373ffffffffffffffffffffffffffffffffffffffff1673ffffffffffffffffffffffffffffffffffffffff166c01000000000000000000000000028152601401828152602001925050506040516020818303038152906040526040518082805190602001908083835b6020831015156119875780518252602082019150602081019050602083039250611962565b6001836020036101000a038019825116818451168082178552505050505050905001915050602060405180830381855afa1580156119c9573d6000803e3d6000fd5b5050506040513d60208110156119de57600080fd5b810190808051906020019092919050505090506119f9611715565b42016001600083815260200190815260200160002060030181905550611a1d614823565b611a25611715565b4201016001600083815260200190815260200160002060040181905550336001600083815260200190815260200160002060060160016101000a81548173ffffffffffffffffffffffffffffffffffffffff021916908373ffffffffffffffffffffffffffffffffffffffff160217905550600180600083815260200190815260200160002060050181905550836001600083815260200190815260200160002060090160006101000a81548173ffffffffffffffffffffffffffffffffffffffff021916908373ffffffffffffffffffffffffffffffffffffffff160217905550816001600083815260200190815260200160002060070181905550807f6e0228e3d48d37be1dd237a5a45c24827283afe2dddffdb8184b1801175c216242600160008581526020019081526020016000206003015486600160405180858152602001848152602001806020018060200180602001858152602001848103845260008152602001602001848103835286818151815260200191508051906020019080838360005b83811015611bc8578082015181840152602081019050611bad565b50505050905090810190601f168015611bf55780820380516001836020036101000a031916815260200191505b5084810382526000815260200160200197505050505050505060405180910390a250505050565b611c24613724565b1515611c98576040517f08c379a00000000000000000000000000000000000000000000000000000000081526004018080602001828103825260208152602001807f4f776e61626c653a2063616c6c6572206973206e6f7420746865206f776e657281525060200191505060405180910390fd5b600073ffffffffffffffffffffffffffffffffffffffff16600960009054906101000a900473ffffffffffffffffffffffffffffffffffffffff1673ffffffffffffffffffffffffffffffffffffffff16141515611cf557600080fd5b80600760006101000a81548173ffffffffffffffffffffffffffffffffffffffff021916908373ffffffffffffffffffffffffffffffffffffffff16021790555080600960006101000a81548173ffffffffffffffffffffffffffffffffffffffff021916908373ffffffffffffffffffffffffffffffffffffffff16021790555050565b6000611e6082611e526064600760009054906101000a900473ffffffffffffffffffffffffffffffffffffffff1673ffffffffffffffffffffffffffffffffffffffff166318ec2d5c6040518163ffffffff167c010000000000000000000000000000000000000000000000000000000002815260040160206040518083038186803b158015611e0957600080fd5b505afa158015611e1d573d6000803e3d6000fd5b505050506040513d6020811015611e3357600080fd5b810190808051906020019092919050505061501490919063ffffffff16565b6150e190919063ffffffff16565b611e686149f0565b119050919050565b60006008600a815481101515611e8257fe5b906000526020600020906003020160000154905090565b6000600360008473ffffffffffffffffffffffffffffffffffffffff1673ffffffffffffffffffffffffffffffffffffffff168152602001908152602001600020600083815260200190815260200160002060000154905092915050565b600060086009815481101515611f0957fe5b906000526020600020906003020160000154905090565b6000600360008473ffffffffffffffffffffffffffffffffffffffff1673ffffffffffffffffffffffffffffffffffffffff168152602001908152602001600020600083815260200190815260200160002060010160009054906101000a900460ff16905092915050565b6000600760009054906101000a900473ffffffffffffffffffffffffffffffffffffffff1673ffffffffffffffffffffffffffffffffffffffff1663c7c551b6336040518263ffffffff167c0100000000000000000000000000000000000000000000000000000000028152600401808273ffffffffffffffffffffffffffffffffffffffff1673ffffffffffffffffffffffffffffffffffffffff16815260200191505060206040518083038186803b15801561204857600080fd5b505afa15801561205c573d6000803e3d6000fd5b505050506040513d602081101561207257600080fd5b810190808051906020019092919050505090506000600760009054906101000a900473ffffffffffffffffffffffffffffffffffffffff1673ffffffffffffffffffffffffffffffffffffffff1663c7c551b6336040518263ffffffff167c0100000000000000000000000000000000000000000000000000000000028152600401808273ffffffffffffffffffffffffffffffffffffffff1673ffffffffffffffffffffffffffffffffffffffff16815260200191505060206040518083038186803b15801561214257600080fd5b505afa158015612156573d6000803e3d6000fd5b505050506040513d602081101561216c57600080fd5b8101908080519060200190929190505050111515612218576040517f08c379a00000000000000000000000000000000000000000000000000000000081526004018080602001828103825260248152602001807f5374616b656420616d6f756e742073686f756c64206265206d6f72652074686581526020017f6e20302e0000000000000000000000000000000000000000000000000000000081525060400191505060405180910390fd5b600160008381526020019081526020016000206001015460016000848152602001908152602001600020600001541115156122bb576040517f08c379a00000000000000000000000000000000000000000000000000000000081526004018080602001828103825260088152602001807f596573203c204e6f00000000000000000000000000000000000000000000000081525060200191505060405180910390fd5b426001600084815260200190815260200160002060030154101515612348576040517f08c379a00000000000000000000000000000000000000000000000000000000081526004018080602001828103825260148152602001807f566f74696e67207374696c6c2070656e64696e6700000000000000000000000081525060200191505060405180910390fd5b4260016000848152602001908152602001600020600401541115156123d5576040517f08c379a00000000000000000000000000000000000000000000000000000000081526004018080602001828103825260148152602001807f506173742041637469766174696f6e206461746500000000000000000000000081525060200191505060405180910390fd5b6001600083815260200190815260200160002060060160009054906101000a900460ff1615151561246e576040517f08c379a000000000000000000000000000000000000000000000000000000000815260040180806020018281038252601a8152602001807f50726f706f73616c2041637469766174656420416c726561647900000000000081525060200191505060405180910390fd5b3461247761169a565b1415156124ec576040517f08c379a00000000000000000000000000000000000000000000000000000000081526004018080602001828103825260078152602001807f4e6f204665652e0000000000000000000000000000000000000000000000000081525060200191505060405180910390fd5b60011515600360003373ffffffffffffffffffffffffffffffffffffffff1673ffffffffffffffffffffffffffffffffffffffff168152602001908152602001600020600084815260200190815260200160002060010160009054906101000a900460ff16151514806125b257506000600360003373ffffffffffffffffffffffffffffffffffffffff1673ffffffffffffffffffffffffffffffffffffffff168152602001908152602001600020600084815260200190815260200160002060000154145b1515612626576040517f08c379a00000000000000000000000000000000000000000000000000000000081526004018080602001828103825260198152602001807f4e6f2072696768747320746f20626c6f636b20766f74696e670000000000000081525060200191505060405180910390fd5b6001600083815260200190815260200160002060040154600460003373ffffffffffffffffffffffffffffffffffffffff1673ffffffffffffffffffffffffffffffffffffffff168152602001908152602001600020819055506126a681600260008581526020019081526020016000205461517490919063ffffffff16565b60026000848152602001908152602001600020819055505050565b6126c9613724565b151561273d576040517f08c379a00000000000000000000000000000000000000000000000000000000081526004018080602001828103825260208152602001807f4f776e61626c653a2063616c6c6572206973206e6f7420746865206f776e657281525060200191505060405180910390fd5b600073ffffffffffffffffffffffffffffffffffffffff166000809054906101000a900473ffffffffffffffffffffffffffffffffffffffff1673ffffffffffffffffffffffffffffffffffffffff167f8be0079c531659141344cd1fd0a4f28419497f9722a3daafe3b4186f6b6457e060405160405180910390a360008060006101000a81548173ffffffffffffffffffffffffffffffffffffffff021916908373ffffffffffffffffffffffffffffffffffffffff160217905550565b6000600760009054906101000a900473ffffffffffffffffffffffffffffffffffffffff1673ffffffffffffffffffffffffffffffffffffffff1663c7c551b6336040518263ffffffff167c0100000000000000000000000000000000000000000000000000000000028152600401808273ffffffffffffffffffffffffffffffffffffffff1673ffffffffffffffffffffffffffffffffffffffff16815260200191505060206040518083038186803b1580156128b957600080fd5b505afa1580156128cd573d6000803e3d6000fd5b505050506040513d60208110156128e357600080fd5b81019080805190602001909291905050509050600081111515612994576040517f08c379a00000000000000000000000000000000000000000000000000000000081526004018080602001828103825260248152602001807f5374616b656420616d6f756e742073686f756c64206265206d6f72652074686581526020017f6e20302e0000000000000000000000000000000000000000000000000000000081525060400191505060405180910390fd5b426001600084815260200190815260200160002060030154111515612a21576040517f08c379a00000000000000000000000000000000000000000000000000000000081526004018080602001828103825260148152602001807f566f74696e672054696d6520457870697265642e00000000000000000000000081525060200191505060405180910390fd5b6000600360003373ffffffffffffffffffffffffffffffffffffffff1673ffffffffffffffffffffffffffffffffffffffff168152602001908152602001600020600084815260200190815260200160002060000154141515612aec576040517f08c379a000000000000000000000000000000000000000000000000000000000815260040180806020018281038252601a8152602001807f546865206163636f756e7420766f74656420616c72656164792e00000000000081525060200191505060405180910390fd5b8215612b3a57612b1b81600160008581526020019081526020016000206000015461517490919063ffffffff16565b6001600084815260200190815260200160002060000181905550612b7e565b612b6381600160008581526020019081526020016000206001015461517490919063ffffffff16565b60016000848152602001908152602001600020600101819055505b612ba760018060008581526020019081526020016000206002015461517490919063ffffffff16565b600160008481526020019081526020016000206002018190555080600360003373ffffffffffffffffffffffffffffffffffffffff1673ffffffffffffffffffffffffffffffffffffffff16815260200190815260200160002060008481526020019081526020016000206000018190555082600360003373ffffffffffffffffffffffffffffffffffffffff1673ffffffffffffffffffffffffffffffffffffffff168152602001908152602001600020600084815260200190815260200160002060010160006101000a81548160ff0219169083151502179055506001600083815260200190815260200160002060030154600460003373ffffffffffffffffffffffffffffffffffffffff1673ffffffffffffffffffffffffffffffffffffffff16815260200190815260200160002081905550813373ffffffffffffffffffffffffffffffffffffffff167f4b112f1c01fe8412fa03dae0b4632be742b5fad9d31fb751a946ce14eb5c803985604051808215151515815260200191505060405180910390a3505050565b34612d3f6116c3565b141515612db4576040517f08c379a00000000000000000000000000000000000000000000000000000000081526004018080602001828103825260178152602001807f43726561746f722073686f756c6420706179206665652e00000000000000000081525060200191505060405180910390fd5b600060023342604051602001808373ffffffffffffffffffffffffffffffffffffffff1673ffffffffffffffffffffffffffffffffffffffff166c01000000000000000000000000028152601401828152602001925050506040516020818303038152906040526040518082805190602001908083835b602083101515612e505780518252602082019150602081019050602083039250612e2b565b6001836020036101000a038019825116818451168082178552505050505050905001915050602060405180830381855afa158015612e92573d6000803e3d6000fd5b5050506040513d6020811015612ea757600080fd5b81019080805190602001909291905050509050612ec2611715565b42016001600083815260200190815260200160002060030181905550612ee6614823565b612eee611715565b4201016001600083815260200190815260200160002060040181905550336001600083815260200190815260200160002060060160016101000a81548173ffffffffffffffffffffffffffffffffffffffff021916908373ffffffffffffffffffffffffffffffffffffffff160217905550600260016000838152602001908152602001600020600501819055508260016000838152602001908152602001600020600a01819055508360016000838152602001908152602001600020600b0181905550807f6e0228e3d48d37be1dd237a5a45c24827283afe2dddffdb8184b1801175c216242600160008581526020019081526020016000206003015485600260405180858152602001848152602001806020018060200180602001858152602001848103845260008152602001602001848103835286818151815260200191508051906020019080838360005b8381101561305857808201518184015260208101905061303d565b50505050905090810190601f1680156130855780820380516001836020036101000a031916815260200191505b5084810382526000815260200160200197505050505050505060405180910390a250505050565b60006008808154811015156130bd57fe5b906000526020600020906003020160000154905090565b346130dd6130ac565b141515613152576040517f08c379a00000000000000000000000000000000000000000000000000000000081526004018080602001828103825260178152602001807f43726561746f722073686f756c6420706179206665652e00000000000000000081525060200191505060405180910390fd5b8061323f612710613231613164611748565b600660009054906101000a900473ffffffffffffffffffffffffffffffffffffffff1673ffffffffffffffffffffffffffffffffffffffff166318160ddd6040518163ffffffff167c010000000000000000000000000000000000000000000000000000000002815260040160206040518083038186803b1580156131e857600080fd5b505afa1580156131fc573d6000803e3d6000fd5b505050506040513d602081101561321257600080fd5b810190808051906020019092919050505061501490919063ffffffff16565b6150e190919063ffffffff16565b1115156132b4576040517f08c379a000000000000000000000000000000000000000000000000000000000815260040180806020018281038252601e8152602001807f526571756573746564207061796d656e7420697320746f6f206c61726765000081525060200191505060405180910390fd5b600060023342604051602001808373ffffffffffffffffffffffffffffffffffffffff1673ffffffffffffffffffffffffffffffffffffffff166c01000000000000000000000000028152601401828152602001925050506040516020818303038152906040526040518082805190602001908083835b602083101515613350578051825260208201915060208101905060208303925061332b565b6001836020036101000a038019825116818451168082178552505050505050905001915050602060405180830381855afa158015613392573d6000803e3d6000fd5b5050506040513d60208110156133a757600080fd5b810190808051906020019092919050505090506133c2611715565b420160016000838152602001908152602001600020600301819055506133e6614823565b6133ee611715565b4201016001600083815260200190815260200160002060040181905550336001600083815260200190815260200160002060060160016101000a81548173ffffffffffffffffffffffffffffffffffffffff021916908373ffffffffffffffffffffffffffffffffffffffff160217905550600060016000838152602001908152602001600020600501819055508660016000838152602001908152602001600020600b01819055508160016000838152602001908152602001600020600a0181905550876001600083815260200190815260200160002060090160006101000a81548173ffffffffffffffffffffffffffffffffffffffff021916908373ffffffffffffffffffffffffffffffffffffffff160217905550836001600083815260200190815260200160002060070181905550807f6e0228e3d48d37be1dd237a5a45c24827283afe2dddffdb8184b1801175c2162426001600085815260200190815260200160002060030154898988600060405180878152602001868152602001806020018060200180602001858152602001848103845288818151815260200191508051906020019080838360005b838110156135bb5780820151818401526020810190506135a0565b50505050905090810190601f1680156135e85780820380516001836020036101000a031916815260200191505b50848103835287818151815260200191508051906020019080838360005b83811015613621578082015181840152602081019050613606565b50505050905090810190601f16801561364e5780820380516001836020036101000a031916815260200191505b50848103825286818151815260200191508051906020019080838360005b8381101561368757808201518184015260208101905061366c565b50505050905090810190601f1680156136b45780820380516001836020036101000a031916815260200191505b50995050505050505050505060405180910390a25050505050505050565b6000600860058154811015156136e457fe5b906000526020600020906003020160000154905090565b60008060009054906101000a900473ffffffffffffffffffffffffffffffffffffffff16905090565b60008060009054906101000a900473ffffffffffffffffffffffffffffffffffffffff1673ffffffffffffffffffffffffffffffffffffffff163373ffffffffffffffffffffffffffffffffffffffff1614905090565b60006137bc6001600084815260200190815260200160002060010154600160008581526020019081526020016000206000015461517490919063ffffffff16565b90506137c781611d7a565b15156137d257600080fd5b6001600083815260200190815260200160002060010154600160008481526020019081526020016000206000015411151561380c57600080fd5b42600160008481526020019081526020016000206004015410151561383057600080fd5b6001600083815260200190815260200160002060060160009054906101000a900460ff1615151561386057600080fd5b60016000838152602001908152602001600020600001546138b36001600085815260200190815260200160002060010154600260008681526020019081526020016000205461517490919063ffffffff16565b1015156138bf57600080fd5b600060016000848152602001908152602001600020600501541415613c0f5760806040519081016040528060011515815260200160016000858152602001908152602001600020600b01544201815260200142815260200160016000858152602001908152602001600020600b0154815250600560006001600086815260200190815260200160002060090160009054906101000a900473ffffffffffffffffffffffffffffffffffffffff1673ffffffffffffffffffffffffffffffffffffffff1673ffffffffffffffffffffffffffffffffffffffff16815260200190815260200160002060008201518160000160006101000a81548160ff0219169083151502179055506020820151816001015560408201518160020155606082015181600301559050506139fd6001600b5461517490919063ffffffff16565b600b81905550613a196001600c5461517490919063ffffffff16565b600c81905550613a3e60016000848152602001908152602001600020600701546151fe565b600660009054906101000a900473ffffffffffffffffffffffffffffffffffffffff1673ffffffffffffffffffffffffffffffffffffffff166340c10f196001600085815260200190815260200160002060060160019054906101000a900473ffffffffffffffffffffffffffffffffffffffff1660016000868152602001908152602001600020600a01546040518363ffffffff167c0100000000000000000000000000000000000000000000000000000000028152600401808373ffffffffffffffffffffffffffffffffffffffff1673ffffffffffffffffffffffffffffffffffffffff16815260200182815260200192505050602060405180830381600087803b158015613b4f57600080fd5b505af1158015613b63573d6000803e3d6000fd5b505050506040513d6020811015613b7957600080fd5b81019080805190602001909291905050501515613b9557600080fd5b6001600083815260200190815260200160002060090160009054906101000a900473ffffffffffffffffffffffffffffffffffffffff1673ffffffffffffffffffffffffffffffffffffffff167fab84c691f37b66687de4886287d08cd81767d67d05ea51274f3577ccfde2650d60405160405180910390a25b6001806000848152602001908152602001600020600501541415613d8f576000600560006001600086815260200190815260200160002060090160009054906101000a900473ffffffffffffffffffffffffffffffffffffffff1673ffffffffffffffffffffffffffffffffffffffff1673ffffffffffffffffffffffffffffffffffffffff16815260200190815260200160002060000160006101000a81548160ff021916908315150217905550613cd46001600b5461520890919063ffffffff16565b600b81905550613cf06001600c5461517490919063ffffffff16565b600c81905550613d1560016000848152602001908152602001600020600701546151fe565b6001600083815260200190815260200160002060090160009054906101000a900473ffffffffffffffffffffffffffffffffffffffff1673ffffffffffffffffffffffffffffffffffffffff167f2cca8c59724a24e4fdd2d3204034db9cbfa2b1863e0d1fd62e1bb13d0707332f60405160405180910390a25b600260016000848152602001908152602001600020600501541415613e765760016000838152602001908152602001600020600a0154600860016000858152602001908152602001600020600b0154815481101515613dea57fe5b90600052602060002090600302016000018190555042600860016000858152602001908152602001600020600b0154815481101515613e2557fe5b90600052602060002090600302016002018190555081600860016000858152602001908152602001600020600b0154815481101515613e6057fe5b9060005260206000209060030201600101819055505b600360016000848152602001908152602001600020600501541415613fed57600660009054906101000a900473ffffffffffffffffffffffffffffffffffffffff1673ffffffffffffffffffffffffffffffffffffffff166340c10f196001600085815260200190815260200160002060060160019054906101000a900473ffffffffffffffffffffffffffffffffffffffff1660016000868152602001908152602001600020600a01546040518363ffffffff167c0100000000000000000000000000000000000000000000000000000000028152600401808373ffffffffffffffffffffffffffffffffffffffff1673ffffffffffffffffffffffffffffffffffffffff16815260200182815260200192505050602060405180830381600087803b158015613fa657600080fd5b505af1158015613fba573d6000803e3d6000fd5b505050506040513d6020811015613fd057600080fd5b81019080805190602001909291905050501515613fec57600080fd5b5b600460016000848152602001908152602001600020600501541415614084576001600083815260200190815260200160002060080160009054906101000a900473ffffffffffffffffffffffffffffffffffffffff16600a60006101000a81548173ffffffffffffffffffffffffffffffffffffffff021916908373ffffffffffffffffffffffffffffffffffffffff1602179055505b600180600084815260200190815260200160002060060160006101000a81548160ff021916908315150217905550813373ffffffffffffffffffffffffffffffffffffffff167fd620851b2c2782ebed7b8b4717a216092489996ca11e1093f26cfe0914cefafb60405160405180910390a35050565b6000600a60009054906101000a900473ffffffffffffffffffffffffffffffffffffffff16905090565b60088181548110151561413357fe5b90600052602060002090600302016000915090508060000154908060010154908060020154905083565b614165613724565b15156141d9576040517f08c379a00000000000000000000000000000000000000000000000000000000081526004018080602001828103825260208152602001807f4f776e61626c653a2063616c6c6572206973206e6f7420746865206f776e657281525060200191505060405180910390fd5b80600a60146101000a81548160ff02191690831515021790555050565b600960009054906101000a900473ffffffffffffffffffffffffffffffffffffffff1681565b346142256116c3565b14151561429a576040517f08c379a00000000000000000000000000000000000000000000000000000000081526004018080602001828103825260178152602001807f43726561746f722073686f756c6420706179206665652e00000000000000000081525060200191505060405180910390fd5b806143876127106143796142ac611748565b600660009054906101000a900473ffffffffffffffffffffffffffffffffffffffff1673ffffffffffffffffffffffffffffffffffffffff166318160ddd6040518163ffffffff167c010000000000000000000000000000000000000000000000000000000002815260040160206040518083038186803b15801561433057600080fd5b505afa158015614344573d6000803e3d6000fd5b505050506040513d602081101561435a57600080fd5b810190808051906020019092919050505061501490919063ffffffff16565b6150e190919063ffffffff16565b1115156143fc576040517f08c379a000000000000000000000000000000000000000000000000000000000815260040180806020018281038252601e8152602001807f526571756573746564207061796d656e7420697320746f6f206c61726765000081525060200191505060405180910390fd5b600060023342604051602001808373ffffffffffffffffffffffffffffffffffffffff1673ffffffffffffffffffffffffffffffffffffffff166c01000000000000000000000000028152601401828152602001925050506040516020818303038152906040526040518082805190602001908083835b6020831015156144985780518252602082019150602081019050602083039250614473565b6001836020036101000a038019825116818451168082178552505050505050905001915050602060405180830381855afa1580156144da573d6000803e3d6000fd5b5050506040513d60208110156144ef57600080fd5b8101908080519060200190929190505050905061450a611715565b4201600160008381526020019081526020016000206003018190555061452e614823565b614536611715565b4201016001600083815260200190815260200160002060040181905550336001600083815260200190815260200160002060060160016101000a81548173ffffffffffffffffffffffffffffffffffffffff021916908373ffffffffffffffffffffffffffffffffffffffff160217905550600360016000838152602001908152602001600020600501819055508160016000838152602001908152602001600020600a0181905550807f6e0228e3d48d37be1dd237a5a45c24827283afe2dddffdb8184b1801175c2162426001600085815260200190815260200160002060030154888888600360405180878152602001868152602001806020018060200180602001858152602001848103845288818151815260200191508051906020019080838360005b8381101561467857808201518184015260208101905061465d565b50505050905090810190601f1680156146a55780820380516001836020036101000a031916815260200191505b50848103835287818151815260200191508051906020019080838360005b838110156146de5780820151818401526020810190506146c3565b50505050905090810190601f16801561470b5780820380516001836020036101000a031916815260200191505b50848103825286818151815260200191508051906020019080838360005b83811015614744578082015181840152602081019050614729565b50505050905090810190601f1680156147715780820380516001836020036101000a031916815260200191505b50995050505050505050505060405180910390a25050505050565b6000600560008373ffffffffffffffffffffffffffffffffffffffff1673ffffffffffffffffffffffffffffffffffffffff168152602001908152602001600020600301549050919050565b6000600460008373ffffffffffffffffffffffffffffffffffffffff1673ffffffffffffffffffffffffffffffffffffffff1681526020019081526020016000205442109050919050565b60006008600181548110151561483557fe5b906000526020600020906003020160000154905090565b6148553361162e565b806148725750614863613724565b801561487157506000600b54145b5b15156148e6576040517f08c379a00000000000000000000000000000000000000000000000000000000081526004018080602001828103825260198152602001807f6f6e6c79206f776e657220616e642066697273742074696d650000000000000081525060200191505060405180910390fd5b608060405190810160405280600115158152602001824201815260200142815260200182815250600560008473ffffffffffffffffffffffffffffffffffffffff1673ffffffffffffffffffffffffffffffffffffffff16815260200190815260200160002060008201518160000160006101000a81548160ff0219169083151502179055506020820151816001015560408201518160020155606082015181600301559050506149a36001600b5461517490919063ffffffff16565b600b819055508173ffffffffffffffffffffffffffffffffffffffff167fab84c691f37b66687de4886287d08cd81767d67d05ea51274f3577ccfde2650d60405160405180910390a25050565b600060086006815481101515614a0257fe5b906000526020600020906003020160000154905090565b600760009054906101000a900473ffffffffffffffffffffffffffffffffffffffff1681565b600a60009054906101000a900473ffffffffffffffffffffffffffffffffffffffff1681565b60046020528060005260406000206000915090505481565b6003602052816000526040600020602052806000526040600020600091509150508060000154908060010160009054906101000a900460ff16905082565b60056020528060005260406000206000915090508060000160009054906101000a900460ff16908060010154908060020154908060030154905084565b6000600a60149054906101000a900460ff16905090565b600060086003815481101515614b2157fe5b906000526020600020906003020160000154905090565b34614b416116c3565b141515614bb6576040517f08c379a00000000000000000000000000000000000000000000000000000000081526004018080602001828103825260178152602001807f43726561746f722073686f756c6420706179206665652e00000000000000000081525060200191505060405180910390fd5b600060023342604051602001808373ffffffffffffffffffffffffffffffffffffffff1673ffffffffffffffffffffffffffffffffffffffff166c01000000000000000000000000028152601401828152602001925050506040516020818303038152906040526040518082805190602001908083835b602083101515614c525780518252602082019150602081019050602083039250614c2d565b6001836020036101000a038019825116818451168082178552505050505050905001915050602060405180830381855afa158015614c94573d6000803e3d6000fd5b5050506040513d6020811015614ca957600080fd5b81019080805190602001909291905050509050614cc4611715565b42016001600083815260200190815260200160002060030181905550614ce8614823565b614cf0611715565b4201016001600083815260200190815260200160002060040181905550336001600083815260200190815260200160002060060160016101000a81548173ffffffffffffffffffffffffffffffffffffffff021916908373ffffffffffffffffffffffffffffffffffffffff16021790555060046001600083815260200190815260200160002060050181905550816001600083815260200190815260200160002060080160006101000a81548173ffffffffffffffffffffffffffffffffffffffff021916908373ffffffffffffffffffffffffffffffffffffffff160217905550807f6e0228e3d48d37be1dd237a5a45c24827283afe2dddffdb8184b1801175c21624260016000858152602001908152602001600020600301548787600460405180868152602001858152602001806020018060200180602001858152602001848103845287818151815260200191508051906020019080838360005b83811015614e6b578082015181840152602081019050614e50565b50505050905090810190601f168015614e985780820380516001836020036101000a031916815260200191505b50848103835286818151815260200191508051906020019080838360005b83811015614ed1578082015181840152602081019050614eb6565b50505050905090810190601f168015614efe5780820380516001836020036101000a031916815260200191505b508481038252600081526020016020019850505050505050505060405180910390a250505050565b614f2e613724565b1515614fa2576040517f08c379a00000000000000000000000000000000000000000000000000000000081526004018080602001828103825260208152602001807f4f776e61626c653a2063616c6c6572206973206e6f7420746865206f776e657281525060200191505060405180910390fd5b614fab81615293565b50565b60026020528060005260406000206000915090505481565b6000600560008373ffffffffffffffffffffffffffffffffffffffff1673ffffffffffffffffffffffffffffffffffffffff1681526020019081526020016000206001015442109050919050565b60008083141561502757600090506150db565b6000828402905082848281151561503a57fe5b041415156150d6576040517f08c379a00000000000000000000000000000000000000000000000000000000081526004018080602001828103825260218152602001807f536166654d6174683a206d756c7469706c69636174696f6e206f766572666c6f81526020017f770000000000000000000000000000000000000000000000000000000000000081525060400191505060405180910390fd5b809150505b92915050565b6000808211151561515a576040517f08c379a000000000000000000000000000000000000000000000000000000000815260040180806020018281038252601a8152602001807f536166654d6174683a206469766973696f6e206279207a65726f00000000000081525060200191505060405180910390fd5b6000828481151561516757fe5b0490508091505092915050565b60008082840190508381101515156151f4576040517f08c379a000000000000000000000000000000000000000000000000000000000815260040180806020018281038252601b8152602001807f536166654d6174683a206164646974696f6e206f766572666c6f77000000000081525060200191505060405180910390fd5b8091505092915050565b80600d8190555050565b6000828211151515615282576040517f08c379a000000000000000000000000000000000000000000000000000000000815260040180806020018281038252601e8152602001807f536166654d6174683a207375627472616374696f6e206f766572666c6f77000081525060200191505060405180910390fd5b600082840390508091505092915050565b600073ffffffffffffffffffffffffffffffffffffffff168173ffffffffffffffffffffffffffffffffffffffff161415151561535e576040517f08c379a00000000000000000000000000000000000000000000000000000000081526004018080602001828103825260268152602001807f4f776e61626c653a206e6577206f776e657220697320746865207a65726f206181526020017f646472657373000000000000000000000000000000000000000000000000000081525060400191505060405180910390fd5b8073ffffffffffffffffffffffffffffffffffffffff166000809054906101000a900473ffffffffffffffffffffffffffffffffffffffff1673ffffffffffffffffffffffffffffffffffffffff167f8be0079c531659141344cd1fd0a4f28419497f9722a3daafe3b4186f6b6457e060405160405180910390a3806000806101000a81548173ffffffffffffffffffffffffffffffffffffffff021916908373ffffffffffffffffffffffffffffffffffffffff1602179055505056fea165627a7a72305820461c3e60841e94691bde3eb2ee0a3be6fc5ac775de423f301728809010cd7f490029",
  "source": "pragma solidity ^0.5.0;\n\nimport \"openzeppelin-solidity/contracts/math/SafeMath.sol\";\nimport \"openzeppelin-solidity/contracts/ownership/Ownable.sol\";\nimport \"./Depository.sol\";\nimport \"./MainToken.sol\";\n\ncontract Settings is Ownable{\n        \n        using SafeMath for uint256;\n\n        struct Proposal {\n            uint256 yes;\n            uint256 no;\n            uint256 totalAccounts;\n            uint256 endVotingDate;\n            uint256 activationDate;\n            uint256 propType;\n            bool    activated;\n            address creator;\n            bytes32 ipfs;\n            address priceFeedSource;\n            address futureContract;\n\n            // Since Solidity has a Stack restrictions, some of the variables we are using for different purposes\n            uint256 value_1; // using for payment of Future Contracts or value of Params\n            uint256 value_2; // using for expiresIn of Future Contracts or number of param in Params\n        }\n\n        struct FContract {\n            bool trusted;\n            uint256 expirationDate;\n            uint256 activationDate;\n            uint256 terms;\n        }\n            \n        struct Voter {\n            uint256 amount;\n            bool vote;\n        }\n        \n        struct Param {\n            uint256 value;\n            bytes32 proposalHash;\n            uint256 activationDate;\n        }\n\n        mapping(bytes32 => Proposal) public proposals;\n        mapping(bytes32 => uint256) public blocks;\n        mapping(address => mapping(bytes32 => Voter)) public voters;\n        mapping(address => uint256) public stakeLockedUntil;\n        mapping(address => FContract) public trustedContracts;\n\n        ERC20Mintable mainToken;\n        Depository public depository;\n        Param[] public params;\n        address payable public depositoryAddress;\n        address public  priceFeedSource;\n        bool public emergencyMode;\n        uint256 trustedContractsNum;\n        uint256 version;\n        bytes32 ipfsBytes; \n\n        event ProposalLog(\n            bytes32 indexed hash, \n            uint256 startDate, \n            uint256 endDate, \n            string title, \n            string description, \n            string url, \n            uint256 propType); \n        event votedLog(address indexed voter, bool vote, bytes32 indexed hash);\n        event addedContractLog(address indexed futureContract);\n        event removedContractLog (address indexed futureContract);\n        event activatedAddContractProposal (address indexed sender, bytes32 indexed hash);\n        \n        constructor(\n            uint256  _votingTime,\n            uint256  _activationIn,\n            uint256  _feeLimit,\n            uint256  _feeMarket,\n            uint256  _maxLeverage,\n            uint256  _liquidationProfit,\n            uint256  _minVotingPercent,\n            uint256  _paramProposalFee,\n            uint256  _futureContractProposalFee,\n            uint256  _feeDiscountIndex,\n            uint256  _maxMarketLength,\n            uint256  _blockVotingFee,\n            uint256  _maxServicePayment,\n            address  _mainTokenAddress,\n            address  _priceFeedSource,\n            bytes32  _ipfsBytes\n        ) public {\n            \n            for (uint256 n = 0; n < 13; n++) {\n                Param memory param;\n                param.activationDate = now;\n                params.push(param); \n            }\n            \n            params[0].value = _votingTime;\n            params[1].value = _activationIn;\n            params[2].value = _feeLimit;\n            params[3].value = _feeMarket;\n            params[4].value = _maxLeverage;\n            params[5].value = _liquidationProfit;\n            params[6].value = _minVotingPercent;\n            params[7].value = _paramProposalFee;\n            params[8].value = _futureContractProposalFee;\n            params[9].value = _feeDiscountIndex;\n            params[10].value = _maxMarketLength;\n            params[11].value = _blockVotingFee;\n            params[12].value = _maxServicePayment;\n\n            priceFeedSource = _priceFeedSource;\n            mainToken = MainToken(_mainTokenAddress);\n            ipfsBytes = _ipfsBytes;\n        }\n\n        function setDepository(address payable addr ) public onlyOwner{\n            require (depositoryAddress == address(0));\n            depository = Depository(addr);\n            depositoryAddress = addr;\n        }\n\n        function addContractProposal(\n            address futureContract, \n            uint256 expiresIn, \n            string memory title, \n            string memory description, \n            bytes32 ipfs, \n            string memory url, \n            uint256 payment\n        ) public payable {\n\n            require(getContractProposalFee() == msg.value, 'Creator should pay fee.');\n            require (mainToken.totalSupply().mul(getMaxServicePayment()).div(10000) > payment, 'Requested payment is too large');\n            \n            bytes32 hash = sha256(abi.encodePacked(msg.sender, now));\n\n            proposals[hash].endVotingDate = now + getVotingTime();\n            proposals[hash].activationDate = now + getVotingTime() + getActivationTime();\n            proposals[hash].creator = msg.sender;\n            proposals[hash].propType = 0;\n            proposals[hash].value_2 = expiresIn;\n            proposals[hash].value_1 = payment;\n            proposals[hash].futureContract = futureContract;\n            proposals[hash].ipfs = ipfs;\n\n            //depositoryAddress.transfer(msg.value);\n\n            emit ProposalLog(hash, now, proposals[hash].endVotingDate, title, description, url, 0);\n\n        }\n\n        function removeContractProposal(\n            address futureContract, \n            string memory description, \n            bytes32 ipfs\n        ) public payable {\n\n                require(getContractProposalFee() == msg.value, 'Creator should pay fee.');\n                bytes32 hash = sha256(abi.encodePacked(msg.sender, now));\n\n                proposals[hash].endVotingDate = now + getVotingTime();\n                proposals[hash].activationDate = now + getVotingTime() + getActivationTime();\n                proposals[hash].creator = msg.sender;\n                proposals[hash].propType = 1;\n                proposals[hash].futureContract = futureContract;\n                proposals[hash].ipfs = ipfs;\n\n                //depositoryAddress.transfer(msg.value);\n                emit ProposalLog(hash, now, proposals[hash].endVotingDate, '', description, '', 1);\n            }\n\n\n        function paramProposal(\n            uint256 param,\n            uint256 value,\n            string memory description\n            ) public payable {\n\n                require(getParamProposalFee() == msg.value, 'Creator should pay fee.');\n                bytes32 hash = sha256(abi.encodePacked(msg.sender, now));\n\n                proposals[hash].endVotingDate = now + getVotingTime();\n                proposals[hash].activationDate = now + getVotingTime() + getActivationTime();\n                proposals[hash].creator = msg.sender;\n                proposals[hash].propType = 2;\n                proposals[hash].value_1 = value;\n                proposals[hash].value_2 = param;\n            \n                //depositoryAddress.transfer(msg.value);\n               emit ProposalLog(hash, now, proposals[hash].endVotingDate, '', description, '', 2);\n            }\n\n        function addServiceProposal(\n            string memory title, \n            string memory description, \n            string memory url, \n            uint256 payment\n            ) public payable {\n\n                require(getParamProposalFee() == msg.value, 'Creator should pay fee.');\n                require (mainToken.totalSupply().mul(getMaxServicePayment()).div(10000) > payment, 'Requested payment is too large');\n                bytes32 hash = sha256(abi.encodePacked(msg.sender, now));\n\n                proposals[hash].endVotingDate = now + getVotingTime();\n                proposals[hash].activationDate = now + getVotingTime() + getActivationTime();\n                proposals[hash].creator = msg.sender;\n                proposals[hash].propType = 3;\n                proposals[hash].value_1 = payment;\n\n                //depositoryAddress.transfer(msg.value);\n                emit ProposalLog(hash, now, proposals[hash].endVotingDate, title, description, url, 3);\n            }\n\n        function changePriceFeedProposal(\n            string memory title, \n            string memory description, \n            address _priceFeedSource\n            ) public payable {\n\n                require(getParamProposalFee() == msg.value, 'Creator should pay fee.');\n                bytes32 hash = sha256(abi.encodePacked(msg.sender, now));\n\n                proposals[hash].endVotingDate = now + getVotingTime();\n                proposals[hash].activationDate = now + getVotingTime() + getActivationTime();\n                proposals[hash].creator = msg.sender;\n                proposals[hash].propType = 4;\n                proposals[hash].priceFeedSource = _priceFeedSource;\n\n                //depositoryAddress.transfer(msg.value);\n                emit ProposalLog(hash, now, proposals[hash].endVotingDate, title, description, '', 4);\n            }\n\n        function voteProposal(bool vote, bytes32 hash ) public {\n            uint256 amount = depository.getStakedFundsOf(msg.sender);\n           \n            require(amount > 0, 'Staked amount should be more then 0.');\n            require(proposals[hash].endVotingDate > now, 'Voting Time Expired.');\n            require(voters[msg.sender][hash].amount == 0, 'The account voted already.');\n\n            if(vote) {\n                proposals[hash].yes = proposals[hash].yes.add(amount);\n            } else {\n                proposals[hash].no = proposals[hash].no.add(amount);\n            }\n\n            proposals[hash].totalAccounts = proposals[hash].totalAccounts.add(1);\n            voters[msg.sender][hash].amount = amount;\n            voters[msg.sender][hash].vote = vote;\n            stakeLockedUntil[msg.sender] = proposals[hash].endVotingDate;\n\n            emit votedLog(msg.sender, vote, hash);\n        }\n\n        function activateProposal(bytes32 hash) public {\n            uint totalAmountVoted = proposals[hash].yes.add(proposals[hash].no);\n            require(checkMinVotingPercent(totalAmountVoted));\n            require(proposals[hash].yes > proposals[hash].no);\n            require(proposals[hash].activationDate < now);\n            require(!proposals[hash].activated);\n            require (blocks[hash].add(proposals[hash].no)<proposals[hash].yes);\n            \n            if(proposals[hash].propType == 0) { \n                trustedContracts[proposals[hash].futureContract] = FContract({\n                    trusted: true, \n                    expirationDate: now + proposals[hash].value_2,\n                    terms: proposals[hash].value_2,\n                    activationDate: now\n                });\n                trustedContractsNum = trustedContractsNum.add(1);\n                version = version.add(1);\n                setIpfsBytes(proposals[hash].ipfs);\n                require(mainToken.mint(proposals[hash].creator, proposals[hash].value_1));\n                emit addedContractLog (proposals[hash].futureContract);\n            }\n\n            if(proposals[hash].propType == 1) { \n                trustedContracts[proposals[hash].futureContract].trusted = false;\n                trustedContractsNum = trustedContractsNum.sub(1);\n                version = version.add(1);\n                setIpfsBytes(proposals[hash].ipfs);\n                emit removedContractLog (proposals[hash].futureContract);\n            }\n\n            if(proposals[hash].propType == 2) { \n                params[proposals[hash].value_2].value = proposals[hash].value_1;\n                params[proposals[hash].value_2].activationDate = now;\n                params[proposals[hash].value_2].proposalHash = hash;\n            }\n\n            if(proposals[hash].propType == 3) { \n                require(mainToken.mint(proposals[hash].creator, proposals[hash].value_1));\n            }\n\n            if(proposals[hash].propType == 4) { \n                priceFeedSource = proposals[hash].priceFeedSource;\n            }\n\n            proposals[hash].activated = true;\n\n            emit activatedAddContractProposal(msg.sender, hash);\n        }\n    \n        function blockVoting(bytes32 hash) payable public {\n            uint256 amount = depository.getStakedFundsOf(msg.sender);\n            require(depository.getStakedFundsOf(msg.sender)>0, 'Staked amount should be more then 0.');\n            require(proposals[hash].yes > proposals[hash].no, 'Yes < No');\n            require(proposals[hash].endVotingDate < now, 'Voting still pending');\n            require(proposals[hash].activationDate > now, 'Past Activation date');\n            require(!proposals[hash].activated, 'Proposal Activated Already');\n            require(getBlockVotingFee() == msg.value, 'No Fee.');\n            require(voters[msg.sender][hash].vote == true || voters[msg.sender][hash].amount == 0, 'No rights to block voting');\n            stakeLockedUntil[msg.sender] = proposals[hash].activationDate;\n            blocks[hash] = blocks[hash].add(amount);\n        }\n\n        function addContract(address addr, uint256 expiresIn) public {\n            // Posible to add very first futureContract or redeploy the existing one\n            require(\n                contractIsTrusted(msg.sender) || \n                (isOwner() && trustedContractsNum == 0), \n                'only owner and first time'\n            );\n            trustedContracts[addr] = FContract({\n                trusted: true,  \n                expirationDate: now + expiresIn,\n                activationDate: now,\n                terms: expiresIn\n            });\n\n            trustedContractsNum = trustedContractsNum.add(1);\n            emit addedContractLog (addr);\n        }\n\n        function getIpfsBytes() public view returns(bytes32){\n            return ipfsBytes;\n        }\n        function setIpfsBytes(bytes32 _ipfsBytes) private {\n            ipfsBytes = _ipfsBytes;\n        }\n\n        function checkMinVotingPercent(uint totalAmountVoted) public view returns(bool) {\n            return (getMinVotingPercent() > depository.totalStakedFunds().mul(100).div(totalAmountVoted));\n        }\n    \n        function getVotingTime() public view returns (uint256) { return params[0].value; }\n        function getActivationTime() public view returns (uint256) { return params[1].value; }\n        function getLimitOrderFee() public view returns (uint256) { return params[2].value; }\n        function getMarketOrderFee() public view returns (uint256) { return params[3].value; }        \n        function getMaxLeverage() public view returns (uint256) { return params[4].value; }        \n        function getLiquidationProfit() public view returns (uint256) { return params[5].value; }        \n        function getMinVotingPercent() public view returns (uint256) { return params[6].value; }        \n        function getParamProposalFee() public view returns (uint256) { return params[7].value; }        \n        function getContractProposalFee() public view returns (uint256) { return params[8].value; }        \n        function getFeeDiscountIndex() public view returns (uint256) { return params[9].value; }        \n        function getMaxMarketLength() public view returns (uint256) { return params[10].value; }\n        function getBlockVotingFee() public view returns (uint256) { return params[11].value; }  \n        function getMaxServicePayment() public view returns (uint256) { return params[12].value; }  \n\n        function getPriceFeedSource() public view returns(address){\n            return priceFeedSource;\n        }\n        function getAccountVote(address account, bytes32 hash) public view returns(bool){\n            return voters[account][hash].vote;\n        }\n        function getAccountVoteAmount(address account, bytes32 hash) public view returns(uint256){\n            return voters[account][hash].amount;\n        }\n\n        /// @dev gives the owner the possibility to put the Interface into an emergencyMode, which will\n        /// output always a price of 600 USD. This gives everyone time to set up a new pricefeed.\n        function raiseEmergency(bool _emergencyMode) public onlyOwner {\n            emergencyMode = _emergencyMode;\n        }\n\n        function contractIsTrusted (address account) public view returns(bool) {\n            return trustedContracts[account].trusted;\n        }\n\n        function contractIsNotExpired (address account) public view returns(bool) {\n            return (now < trustedContracts[account].expirationDate);\n        }\n\n        function getContractTerms (address account) public view returns(uint256) {\n            return trustedContracts[account].terms;\n        }\n\n        function getEmergencyMode() public view returns (bool) {\n            return emergencyMode;\n        }\n\n        function stakeIsLocked(address account) public view returns (bool) {\n            return now < stakeLockedUntil[account];\n        }\n\n}\n",
  "sourcePath": "/home/arct/projects/etherhedge/contracts/Settings.sol",
  "compiler": {
    "name": "solc",
    "version": "0.5.0+commit.1d4f565a.Emscripten.clang"
  },
  "schemaVersion": "3.0.9",
  "updatedAt": "2019-09-03T04:44:16.675Z",
  "devdoc": {
    "methods": {
      "isOwner()": {
        "details": "Returns true if the caller is the current owner."
      },
      "owner()": {
        "details": "Returns the address of the current owner."
      },
      "raiseEmergency(bool)": {
        "details": "gives the owner the possibility to put the Interface into an emergencyMode, which will output always a price of 600 USD. This gives everyone time to set up a new pricefeed."
      },
      "renounceOwnership()": {
        "details": "Leaves the contract without owner. It will not be possible to call `onlyOwner` functions anymore. Can only be called by the current owner.     * > Note: Renouncing ownership will leave the contract without an owner, thereby removing any functionality that is only available to the owner."
      },
      "transferOwnership(address)": {
        "details": "Transfers ownership of the contract to a new account (`newOwner`). Can only be called by the current owner."
      }
    }
  },
  "userdoc": {
    "methods": {}
  }
}